{
  "_format": "hh-sol-artifact-1",
  "contractName": "CrossEraRewardSystem",
  "sourceName": "contracts/CrossEraRewardSystem.sol",
  "abi": [
    {
      "inputs": [
        {
          "internalType": "address",
          "name": "_admin",
          "type": "address"
        }
      ],
      "stateMutability": "nonpayable",
      "type": "constructor"
    },
    {
      "inputs": [],
      "name": "AccessControlBadConfirmation",
      "type": "error"
    },
    {
      "inputs": [
        {
          "internalType": "address",
          "name": "account",
          "type": "address"
        },
        {
          "internalType": "bytes32",
          "name": "neededRole",
          "type": "bytes32"
        }
      ],
      "name": "AccessControlUnauthorizedAccount",
      "type": "error"
    },
    {
      "inputs": [],
      "name": "EnforcedPause",
      "type": "error"
    },
    {
      "inputs": [],
      "name": "ExpectedPause",
      "type": "error"
    },
    {
      "inputs": [],
      "name": "ReentrancyGuardReentrantCall",
      "type": "error"
    },
    {
      "anonymous": false,
      "inputs": [
        {
          "indexed": false,
          "internalType": "address",
          "name": "account",
          "type": "address"
        }
      ],
      "name": "Paused",
      "type": "event"
    },
    {
      "anonymous": false,
      "inputs": [
        {
          "indexed": true,
          "internalType": "bytes32",
          "name": "role",
          "type": "bytes32"
        },
        {
          "indexed": true,
          "internalType": "bytes32",
          "name": "previousAdminRole",
          "type": "bytes32"
        },
        {
          "indexed": true,
          "internalType": "bytes32",
          "name": "newAdminRole",
          "type": "bytes32"
        }
      ],
      "name": "RoleAdminChanged",
      "type": "event"
    },
    {
      "anonymous": false,
      "inputs": [
        {
          "indexed": true,
          "internalType": "bytes32",
          "name": "role",
          "type": "bytes32"
        },
        {
          "indexed": true,
          "internalType": "address",
          "name": "account",
          "type": "address"
        },
        {
          "indexed": true,
          "internalType": "address",
          "name": "sender",
          "type": "address"
        }
      ],
      "name": "RoleGranted",
      "type": "event"
    },
    {
      "anonymous": false,
      "inputs": [
        {
          "indexed": true,
          "internalType": "bytes32",
          "name": "role",
          "type": "bytes32"
        },
        {
          "indexed": true,
          "internalType": "address",
          "name": "account",
          "type": "address"
        },
        {
          "indexed": true,
          "internalType": "address",
          "name": "sender",
          "type": "address"
        }
      ],
      "name": "RoleRevoked",
      "type": "event"
    },
    {
      "anonymous": false,
      "inputs": [
        {
          "indexed": false,
          "internalType": "address",
          "name": "account",
          "type": "address"
        }
      ],
      "name": "Unpaused",
      "type": "event"
    },
    {
      "inputs": [],
      "name": "ADMIN_ROLE",
      "outputs": [
        {
          "internalType": "bytes32",
          "name": "",
          "type": "bytes32"
        }
      ],
      "stateMutability": "view",
      "type": "function"
    },
    {
      "inputs": [],
      "name": "CAMPAIGN_MANAGER_ROLE",
      "outputs": [
        {
          "internalType": "bytes32",
          "name": "",
          "type": "bytes32"
        }
      ],
      "stateMutability": "view",
      "type": "function"
    },
    {
      "inputs": [],
      "name": "DEFAULT_ADMIN_ROLE",
      "outputs": [
        {
          "internalType": "bytes32",
          "name": "",
          "type": "bytes32"
        }
      ],
      "stateMutability": "view",
      "type": "function"
    },
    {
      "inputs": [],
      "name": "VERIFIER_ROLE",
      "outputs": [
        {
          "internalType": "bytes32",
          "name": "",
          "type": "bytes32"
        }
      ],
      "stateMutability": "view",
      "type": "function"
    },
    {
      "inputs": [
        {
          "internalType": "uint32",
          "name": "campaignId",
          "type": "uint32"
        }
      ],
      "name": "activateCampaign",
      "outputs": [],
      "stateMutability": "nonpayable",
      "type": "function"
    },
    {
      "inputs": [
        {
          "internalType": "string",
          "name": "",
          "type": "string"
        },
        {
          "internalType": "uint32",
          "name": "",
          "type": "uint32"
        }
      ],
      "name": "appCampaignFees",
      "outputs": [
        {
          "internalType": "uint256",
          "name": "",
          "type": "uint256"
        }
      ],
      "stateMutability": "view",
      "type": "function"
    },
    {
      "inputs": [
        {
          "internalType": "string",
          "name": "",
          "type": "string"
        },
        {
          "internalType": "uint32",
          "name": "",
          "type": "uint32"
        }
      ],
      "name": "appCampaignRegistrations",
      "outputs": [
        {
          "internalType": "bool",
          "name": "",
          "type": "bool"
        }
      ],
      "stateMutability": "view",
      "type": "function"
    },
    {
      "inputs": [
        {
          "internalType": "string",
          "name": "",
          "type": "string"
        },
        {
          "internalType": "uint32",
          "name": "",
          "type": "uint32"
        }
      ],
      "name": "appCampaignTxCount",
      "outputs": [
        {
          "internalType": "uint256",
          "name": "",
          "type": "uint256"
        }
      ],
      "stateMutability": "view",
      "type": "function"
    },
    {
      "inputs": [
        {
          "internalType": "string",
          "name": "",
          "type": "string"
        },
        {
          "internalType": "uint32",
          "name": "",
          "type": "uint32"
        }
      ],
      "name": "appCampaignVolume",
      "outputs": [
        {
          "internalType": "uint256",
          "name": "",
          "type": "uint256"
        }
      ],
      "stateMutability": "view",
      "type": "function"
    },
    {
      "inputs": [
        {
          "internalType": "string",
          "name": "",
          "type": "string"
        }
      ],
      "name": "appOwners",
      "outputs": [
        {
          "internalType": "address",
          "name": "",
          "type": "address"
        }
      ],
      "stateMutability": "view",
      "type": "function"
    },
    {
      "inputs": [
        {
          "internalType": "string",
          "name": "",
          "type": "string"
        },
        {
          "internalType": "uint256",
          "name": "",
          "type": "uint256"
        }
      ],
      "name": "appRegisteredCampaigns",
      "outputs": [
        {
          "internalType": "uint32",
          "name": "",
          "type": "uint32"
        }
      ],
      "stateMutability": "view",
      "type": "function"
    },
    {
      "inputs": [
        {
          "internalType": "uint32",
          "name": "",
          "type": "uint32"
        },
        {
          "internalType": "uint256",
          "name": "",
          "type": "uint256"
        }
      ],
      "name": "campaignApps",
      "outputs": [
        {
          "internalType": "string",
          "name": "",
          "type": "string"
        }
      ],
      "stateMutability": "view",
      "type": "function"
    },
    {
      "inputs": [
        {
          "internalType": "uint32",
          "name": "",
          "type": "uint32"
        }
      ],
      "name": "campaignTotalFees",
      "outputs": [
        {
          "internalType": "uint256",
          "name": "",
          "type": "uint256"
        }
      ],
      "stateMutability": "view",
      "type": "function"
    },
    {
      "inputs": [
        {
          "internalType": "uint32",
          "name": "",
          "type": "uint32"
        }
      ],
      "name": "campaignTotalTxCount",
      "outputs": [
        {
          "internalType": "uint256",
          "name": "",
          "type": "uint256"
        }
      ],
      "stateMutability": "view",
      "type": "function"
    },
    {
      "inputs": [
        {
          "internalType": "uint32",
          "name": "",
          "type": "uint32"
        }
      ],
      "name": "campaignTotalVolume",
      "outputs": [
        {
          "internalType": "uint256",
          "name": "",
          "type": "uint256"
        }
      ],
      "stateMutability": "view",
      "type": "function"
    },
    {
      "inputs": [
        {
          "internalType": "uint32",
          "name": "",
          "type": "uint32"
        }
      ],
      "name": "campaigns",
      "outputs": [
        {
          "internalType": "uint256",
          "name": "totalPool",
          "type": "uint256"
        },
        {
          "internalType": "uint256",
          "name": "distributedRewards",
          "type": "uint256"
        },
        {
          "internalType": "uint64",
          "name": "startDate",
          "type": "uint64"
        },
        {
          "internalType": "uint64",
          "name": "endDate",
          "type": "uint64"
        },
        {
          "internalType": "bool",
          "name": "active",
          "type": "bool"
        }
      ],
      "stateMutability": "view",
      "type": "function"
    },
    {
      "inputs": [
        {
          "internalType": "string",
          "name": "appId",
          "type": "string"
        },
        {
          "internalType": "uint8",
          "name": "status",
          "type": "uint8"
        },
        {
          "internalType": "string",
          "name": "reason",
          "type": "string"
        }
      ],
      "name": "changeAppStatus",
      "outputs": [],
      "stateMutability": "nonpayable",
      "type": "function"
    },
    {
      "inputs": [
        {
          "internalType": "string",
          "name": "appId",
          "type": "string"
        },
        {
          "internalType": "uint32",
          "name": "campaignId",
          "type": "uint32"
        }
      ],
      "name": "claimRewards",
      "outputs": [
        {
          "internalType": "uint256",
          "name": "",
          "type": "uint256"
        }
      ],
      "stateMutability": "nonpayable",
      "type": "function"
    },
    {
      "inputs": [
        {
          "internalType": "string",
          "name": "",
          "type": "string"
        },
        {
          "internalType": "uint32",
          "name": "",
          "type": "uint32"
        }
      ],
      "name": "claimableRewards",
      "outputs": [
        {
          "internalType": "uint256",
          "name": "",
          "type": "uint256"
        }
      ],
      "stateMutability": "view",
      "type": "function"
    },
    {
      "inputs": [
        {
          "internalType": "string",
          "name": "",
          "type": "string"
        },
        {
          "internalType": "uint32",
          "name": "",
          "type": "uint32"
        }
      ],
      "name": "claimedAmounts",
      "outputs": [
        {
          "internalType": "uint256",
          "name": "",
          "type": "uint256"
        }
      ],
      "stateMutability": "view",
      "type": "function"
    },
    {
      "inputs": [
        {
          "internalType": "uint64",
          "name": "startDate",
          "type": "uint64"
        },
        {
          "internalType": "uint64",
          "name": "endDate",
          "type": "uint64"
        }
      ],
      "name": "createCampaign",
      "outputs": [
        {
          "internalType": "uint32",
          "name": "",
          "type": "uint32"
        }
      ],
      "stateMutability": "payable",
      "type": "function"
    },
    {
      "inputs": [
        {
          "internalType": "uint32",
          "name": "campaignId",
          "type": "uint32"
        }
      ],
      "name": "deactivateCampaign",
      "outputs": [],
      "stateMutability": "nonpayable",
      "type": "function"
    },
    {
      "inputs": [
        {
          "internalType": "address",
          "name": "",
          "type": "address"
        },
        {
          "internalType": "uint256",
          "name": "",
          "type": "uint256"
        }
      ],
      "name": "developerApps",
      "outputs": [
        {
          "internalType": "string",
          "name": "",
          "type": "string"
        }
      ],
      "stateMutability": "view",
      "type": "function"
    },
    {
      "inputs": [
        {
          "internalType": "string",
          "name": "reason",
          "type": "string"
        }
      ],
      "name": "emergencyPause",
      "outputs": [],
      "stateMutability": "nonpayable",
      "type": "function"
    },
    {
      "inputs": [
        {
          "internalType": "string",
          "name": "reason",
          "type": "string"
        }
      ],
      "name": "emergencyUnpause",
      "outputs": [],
      "stateMutability": "nonpayable",
      "type": "function"
    },
    {
      "inputs": [
        {
          "internalType": "uint256",
          "name": "amount",
          "type": "uint256"
        },
        {
          "internalType": "string",
          "name": "reason",
          "type": "string"
        }
      ],
      "name": "emergencyWithdraw",
      "outputs": [],
      "stateMutability": "nonpayable",
      "type": "function"
    },
    {
      "inputs": [
        {
          "internalType": "string",
          "name": "appId",
          "type": "string"
        },
        {
          "internalType": "uint32",
          "name": "campaignId",
          "type": "uint32"
        }
      ],
      "name": "getAppCampaignMetrics",
      "outputs": [
        {
          "internalType": "uint256",
          "name": "totalFees",
          "type": "uint256"
        },
        {
          "internalType": "uint256",
          "name": "totalVolume",
          "type": "uint256"
        },
        {
          "internalType": "uint256",
          "name": "txCount",
          "type": "uint256"
        },
        {
          "internalType": "uint256",
          "name": "estimatedReward",
          "type": "uint256"
        }
      ],
      "stateMutability": "view",
      "type": "function"
    },
    {
      "inputs": [
        {
          "internalType": "string",
          "name": "appId",
          "type": "string"
        }
      ],
      "name": "getAppRegisteredCampaigns",
      "outputs": [
        {
          "internalType": "uint32[]",
          "name": "",
          "type": "uint32[]"
        }
      ],
      "stateMutability": "view",
      "type": "function"
    },
    {
      "inputs": [
        {
          "internalType": "uint32",
          "name": "campaignId",
          "type": "uint32"
        }
      ],
      "name": "getCampaign",
      "outputs": [
        {
          "components": [
            {
              "internalType": "uint256",
              "name": "totalPool",
              "type": "uint256"
            },
            {
              "internalType": "uint256",
              "name": "distributedRewards",
              "type": "uint256"
            },
            {
              "internalType": "uint64",
              "name": "startDate",
              "type": "uint64"
            },
            {
              "internalType": "uint64",
              "name": "endDate",
              "type": "uint64"
            },
            {
              "internalType": "bool",
              "name": "active",
              "type": "bool"
            }
          ],
          "internalType": "struct CrossEraRewardSystem.CampaignCore",
          "name": "",
          "type": "tuple"
        }
      ],
      "stateMutability": "view",
      "type": "function"
    },
    {
      "inputs": [
        {
          "internalType": "uint32",
          "name": "campaignId",
          "type": "uint32"
        }
      ],
      "name": "getCampaignAppCount",
      "outputs": [
        {
          "internalType": "uint256",
          "name": "",
          "type": "uint256"
        }
      ],
      "stateMutability": "view",
      "type": "function"
    },
    {
      "inputs": [
        {
          "internalType": "uint32",
          "name": "campaignId",
          "type": "uint32"
        }
      ],
      "name": "getCampaignApps",
      "outputs": [
        {
          "internalType": "string[]",
          "name": "",
          "type": "string[]"
        }
      ],
      "stateMutability": "view",
      "type": "function"
    },
    {
      "inputs": [
        {
          "internalType": "uint32",
          "name": "campaignId",
          "type": "uint32"
        }
      ],
      "name": "getCampaignTotals",
      "outputs": [
        {
          "internalType": "uint256",
          "name": "totalFees",
          "type": "uint256"
        },
        {
          "internalType": "uint256",
          "name": "totalVolume",
          "type": "uint256"
        },
        {
          "internalType": "uint256",
          "name": "txCount",
          "type": "uint256"
        }
      ],
      "stateMutability": "view",
      "type": "function"
    },
    {
      "inputs": [
        {
          "internalType": "string",
          "name": "appId",
          "type": "string"
        },
        {
          "internalType": "uint32",
          "name": "campaignId",
          "type": "uint32"
        }
      ],
      "name": "getClaimableRewards",
      "outputs": [
        {
          "internalType": "uint256",
          "name": "",
          "type": "uint256"
        }
      ],
      "stateMutability": "view",
      "type": "function"
    },
    {
      "inputs": [
        {
          "internalType": "string",
          "name": "appId",
          "type": "string"
        },
        {
          "internalType": "uint32",
          "name": "campaignId",
          "type": "uint32"
        }
      ],
      "name": "getClaimedAmount",
      "outputs": [
        {
          "internalType": "uint256",
          "name": "",
          "type": "uint256"
        }
      ],
      "stateMutability": "view",
      "type": "function"
    },
    {
      "inputs": [
        {
          "internalType": "address",
          "name": "developer",
          "type": "address"
        }
      ],
      "name": "getDeveloperAppCount",
      "outputs": [
        {
          "internalType": "uint256",
          "name": "",
          "type": "uint256"
        }
      ],
      "stateMutability": "view",
      "type": "function"
    },
    {
      "inputs": [
        {
          "internalType": "address",
          "name": "developer",
          "type": "address"
        }
      ],
      "name": "getDeveloperApps",
      "outputs": [
        {
          "internalType": "string[]",
          "name": "",
          "type": "string[]"
        }
      ],
      "stateMutability": "view",
      "type": "function"
    },
    {
      "inputs": [
        {
          "internalType": "bytes32",
          "name": "role",
          "type": "bytes32"
        }
      ],
      "name": "getRoleAdmin",
      "outputs": [
        {
          "internalType": "bytes32",
          "name": "",
          "type": "bytes32"
        }
      ],
      "stateMutability": "view",
      "type": "function"
    },
    {
      "inputs": [
        {
          "internalType": "address",
          "name": "user",
          "type": "address"
        }
      ],
      "name": "getUserCampaignStatus",
      "outputs": [
        {
          "internalType": "uint32[]",
          "name": "campaignIds",
          "type": "uint32[]"
        },
        {
          "internalType": "string[]",
          "name": "appIds",
          "type": "string[]"
        },
        {
          "internalType": "uint256[]",
          "name": "estimatedRewards",
          "type": "uint256[]"
        },
        {
          "internalType": "bool[]",
          "name": "hasClaimedFlags",
          "type": "bool[]"
        },
        {
          "internalType": "uint256[]",
          "name": "userClaimedAmounts",
          "type": "uint256[]"
        },
        {
          "internalType": "uint256[]",
          "name": "feesGenerated",
          "type": "uint256[]"
        },
        {
          "internalType": "uint256[]",
          "name": "volumeGenerated",
          "type": "uint256[]"
        }
      ],
      "stateMutability": "view",
      "type": "function"
    },
    {
      "inputs": [
        {
          "internalType": "bytes32",
          "name": "role",
          "type": "bytes32"
        },
        {
          "internalType": "address",
          "name": "account",
          "type": "address"
        }
      ],
      "name": "grantRole",
      "outputs": [],
      "stateMutability": "nonpayable",
      "type": "function"
    },
    {
      "inputs": [
        {
          "internalType": "string",
          "name": "",
          "type": "string"
        },
        {
          "internalType": "uint32",
          "name": "",
          "type": "uint32"
        }
      ],
      "name": "hasClaimed",
      "outputs": [
        {
          "internalType": "bool",
          "name": "",
          "type": "bool"
        }
      ],
      "stateMutability": "view",
      "type": "function"
    },
    {
      "inputs": [
        {
          "internalType": "bytes32",
          "name": "role",
          "type": "bytes32"
        },
        {
          "internalType": "address",
          "name": "account",
          "type": "address"
        }
      ],
      "name": "hasRole",
      "outputs": [
        {
          "internalType": "bool",
          "name": "",
          "type": "bool"
        }
      ],
      "stateMutability": "view",
      "type": "function"
    },
    {
      "inputs": [
        {
          "internalType": "string",
          "name": "appId",
          "type": "string"
        },
        {
          "internalType": "uint32",
          "name": "campaignId",
          "type": "uint32"
        }
      ],
      "name": "hasUserClaimed",
      "outputs": [
        {
          "internalType": "bool",
          "name": "",
          "type": "bool"
        }
      ],
      "stateMutability": "view",
      "type": "function"
    },
    {
      "inputs": [
        {
          "internalType": "string",
          "name": "appId",
          "type": "string"
        },
        {
          "internalType": "uint32",
          "name": "campaignId",
          "type": "uint32"
        }
      ],
      "name": "isAppRegisteredForCampaign",
      "outputs": [
        {
          "internalType": "bool",
          "name": "",
          "type": "bool"
        }
      ],
      "stateMutability": "view",
      "type": "function"
    },
    {
      "inputs": [
        {
          "internalType": "address",
          "name": "developer",
          "type": "address"
        },
        {
          "internalType": "string",
          "name": "appId",
          "type": "string"
        }
      ],
      "name": "isDeveloperAppOwner",
      "outputs": [
        {
          "internalType": "bool",
          "name": "",
          "type": "bool"
        }
      ],
      "stateMutability": "view",
      "type": "function"
    },
    {
      "inputs": [
        {
          "internalType": "bytes32",
          "name": "txHash",
          "type": "bytes32"
        }
      ],
      "name": "isTransactionProcessed",
      "outputs": [
        {
          "internalType": "bool",
          "name": "",
          "type": "bool"
        }
      ],
      "stateMutability": "view",
      "type": "function"
    },
    {
      "inputs": [],
      "name": "minRewardAmount",
      "outputs": [
        {
          "internalType": "uint256",
          "name": "",
          "type": "uint256"
        }
      ],
      "stateMutability": "view",
      "type": "function"
    },
    {
      "inputs": [],
      "name": "paused",
      "outputs": [
        {
          "internalType": "bool",
          "name": "",
          "type": "bool"
        }
      ],
      "stateMutability": "view",
      "type": "function"
    },
    {
      "inputs": [
        {
          "internalType": "string",
          "name": "appId",
          "type": "string"
        },
        {
          "internalType": "bytes32",
          "name": "txHash",
          "type": "bytes32"
        },
        {
          "internalType": "uint256",
          "name": "gasUsed",
          "type": "uint256"
        },
        {
          "internalType": "uint256",
          "name": "gasPrice",
          "type": "uint256"
        },
        {
          "internalType": "uint256",
          "name": "transactionValue",
          "type": "uint256"
        }
      ],
      "name": "processTransaction",
      "outputs": [],
      "stateMutability": "nonpayable",
      "type": "function"
    },
    {
      "inputs": [
        {
          "internalType": "bytes32",
          "name": "",
          "type": "bytes32"
        }
      ],
      "name": "processedTransactions",
      "outputs": [
        {
          "internalType": "bool",
          "name": "",
          "type": "bool"
        }
      ],
      "stateMutability": "view",
      "type": "function"
    },
    {
      "inputs": [
        {
          "internalType": "string",
          "name": "appId",
          "type": "string"
        }
      ],
      "name": "registerApp",
      "outputs": [],
      "stateMutability": "nonpayable",
      "type": "function"
    },
    {
      "inputs": [
        {
          "internalType": "string",
          "name": "appId",
          "type": "string"
        },
        {
          "internalType": "uint32",
          "name": "campaignId",
          "type": "uint32"
        },
        {
          "internalType": "bytes32",
          "name": "registrationData",
          "type": "bytes32"
        }
      ],
      "name": "registerAppForCampaign",
      "outputs": [],
      "stateMutability": "payable",
      "type": "function"
    },
    {
      "inputs": [
        {
          "internalType": "string",
          "name": "",
          "type": "string"
        }
      ],
      "name": "registeredApps",
      "outputs": [
        {
          "internalType": "bool",
          "name": "",
          "type": "bool"
        }
      ],
      "stateMutability": "view",
      "type": "function"
    },
    {
      "inputs": [
        {
          "internalType": "bytes32",
          "name": "role",
          "type": "bytes32"
        },
        {
          "internalType": "address",
          "name": "callerConfirmation",
          "type": "address"
        }
      ],
      "name": "renounceRole",
      "outputs": [],
      "stateMutability": "nonpayable",
      "type": "function"
    },
    {
      "inputs": [
        {
          "internalType": "bytes32",
          "name": "role",
          "type": "bytes32"
        },
        {
          "internalType": "address",
          "name": "account",
          "type": "address"
        }
      ],
      "name": "revokeRole",
      "outputs": [],
      "stateMutability": "nonpayable",
      "type": "function"
    },
    {
      "inputs": [
        {
          "internalType": "uint256",
          "name": "_minRewardAmount",
          "type": "uint256"
        }
      ],
      "name": "setMinRewardAmount",
      "outputs": [],
      "stateMutability": "nonpayable",
      "type": "function"
    },
    {
      "inputs": [
        {
          "internalType": "bytes4",
          "name": "interfaceId",
          "type": "bytes4"
        }
      ],
      "name": "supportsInterface",
      "outputs": [
        {
          "internalType": "bool",
          "name": "",
          "type": "bool"
        }
      ],
      "stateMutability": "view",
      "type": "function"
    },
    {
      "inputs": [],
      "name": "totalApps",
      "outputs": [
        {
          "internalType": "uint32",
          "name": "",
          "type": "uint32"
        }
      ],
      "stateMutability": "view",
      "type": "function"
    },
    {
      "inputs": [],
      "name": "totalCampaigns",
      "outputs": [
        {
          "internalType": "uint32",
          "name": "",
          "type": "uint32"
        }
      ],
      "stateMutability": "view",
      "type": "function"
    },
    {
      "inputs": [],
      "name": "totalDevelopers",
      "outputs": [
        {
          "internalType": "uint32",
          "name": "",
          "type": "uint32"
        }
      ],
      "stateMutability": "view",
      "type": "function"
    },
    {
      "inputs": [
        {
          "internalType": "string",
          "name": "appId",
          "type": "string"
        },
        {
          "internalType": "string",
          "name": "newName",
          "type": "string"
        },
        {
          "internalType": "string",
          "name": "newDescription",
          "type": "string"
        },
        {
          "internalType": "string",
          "name": "newCategory",
          "type": "string"
        },
        {
          "internalType": "string",
          "name": "newWebsiteUrl",
          "type": "string"
        }
      ],
      "name": "updateApp",
      "outputs": [],
      "stateMutability": "nonpayable",
      "type": "function"
    }
  ],
  "bytecode": "0x608034620000f057601f62003e5738819003918201601f19168301916001600160401b03831184841017620000f557808492602094604052833981010312620000f057516001600160a01b038116808203620000f0576001805567016345785d8a000060155515620000ab57806200007b6200009a926200010b565b5062000087816200018b565b5062000093816200022d565b50620002ca565b50604051613acf9081620003688239f35b60405162461bcd60e51b815260206004820152601f60248201527f43726f73734572613a20496e76616c69642061646d696e2061646472657373006044820152606490fd5b600080fd5b634e487b7160e01b600052604160045260246000fd5b6001600160a01b031660008181527fad3228b676f7d3cd4284a5443f17f1962b36e491b30a40b2405849e597ba5fb5602052604081205490919060ff166200018757818052816020526040822081835260205260408220600160ff19825416179055339160008051602062003e378339815191528180a4600190565b5090565b6001600160a01b031660008181527f7d7ffb7a348e1c6a02869081a26547b49160dd3df72d1d75a570eb9b698292ec60205260408120549091907fa49807205ce4d355092ef5a8a18f56e8913cf4a201fbe287825b095693c217759060ff166200022857808352826020526040832082845260205260408320600160ff1982541617905560008051602062003e37833981519152339380a4600190565b505090565b6001600160a01b031660008181527f1da0b5176dfe03406af5a6eed66ca01dda9b45ac4da671c3fa379cb93717ef8160205260408120549091907f0ce23c3e399818cfee81a7ab0880f714e53d7672b08df0fa62f2843416e1ea099060ff166200022857808352826020526040832082845260205260408320600160ff1982541617905560008051602062003e37833981519152339380a4600190565b6001600160a01b031660008181527ff1f96320644c4081b1a0a57dc68164d6c55774e3cf58cdafac3037ffaf50ba4560205260408120549091907f5022544358ee0bece556b72ae8983c7f24341bd5b9483ce8a19bff5efbb2de929060ff166200022857808352826020526040832082845260205260408320600160ff1982541617905560008051602062003e37833981519152339380a460019056fe60a060408181526004918236101561001657600080fd5b600090813560e01c90816301ffc9a7146128d75750806302932f56146128b257806304103ef61461287e5780630cc7991d14610c5557806312266cdc146127f157806312d3b8c9146127d257806314eb9302146125005780631bb4e83314611fee5780631cacf4c414611f9c5780632271162b14611f66578063248a9ca314611f3c57806324b67b7114611ebc5780632bdf010714611e735780632f2ff15d14611e4957806336568abe14611e03578063388d78d114611dcf5780633cbb466814611d0d57806343160e9114610ef157806343c998ae14611cd95780634434e7a2146107705780634acccef014611ad45780635c975abb14611ab05780635ddfcba814611a0257806365df7933146119dc57806366778541146119a65780636733b894146118c45780636df4029a146118535780636f62d8dd146116e1578063726d2c16146112ff57806375b238fc146112d657806378eeb086146108de5780637b3ac30014611275578063816f7d491461119157806391d148541461114b578063a217fddf14611130578063a2928542146110e8578063a762f58a146110bf578063a982708b14610f2c578063a98e861a14610ef1578063ac2e4936146106d7578063b3a55f6414610c90578063b678511514610c55578063c718c1e514610bee578063c97c462214610bc8578063cdefc1b1146109b5578063cf5b4fd514610914578063d10cd07b146108de578063d547741f1461089f578063de8b890f1461086b578063e648f9b8146107e1578063e7705db6146107a6578063ead0d8fb14610770578063eb81b52714610704578063efc646ca146106d7578063f18fddff14610672578063f54c9381146105ac578063f6517eb614610562578063f752e6df14610488578063f7e04cd11461044c5763fbd8d93a146102b857600080fd5b34610449576102c636612a12565b9280519180519463ffffffff6020948581818601996102e681838d612a50565b8101600e8152030190209116908186528452610336848487205497855182818751610312818387612a50565b8101600f815203019020848952825285882054948651938492839251928391612a50565b810160108152030190209085528352818420549260078152828520601182528386205495601283528481205491819780151580610440575b6103fd575b50821515806103f4575b61039b575b5050506080965082519586528501528301526060820152f35b9692965490601e820291808304601e14901517156103e15750608098506103d892916103cd8560646103d294046130cb565b61310e565b90613101565b93388080610382565b634e487b7160e01b815260118a52602490fd5b5084151561037d565b908098505460468102908082046046149015171561042d57906103cd8a606461042694046130cb565b9638610373565b634e487b7160e01b835260118b52602483fd5b5089151561036e565b80fd5b5090346104845760203660031901126104845760209181906001600160a01b03610474612a73565b1681526005845220549051908152f35b5080fd5b509034610484576020908160031936011261055e57916104e26104ef936104b56104b0612a73565b6131f3565b989599946104d588949c959398999299519b60e08d5260e08d0190612c78565b908b8203878d0152612ac4565b91898303908a0152612cb2565b9086820360608801528080895193848152019801925b828110610548578780610544896105368a6105288f8c8782036080890152612cb2565b9085820360a0870152612cb2565b9083820360c0850152612cb2565b0390f35b8351151589529781019792810192600101610505565b8280fd5b50903461048457806020928363ffffffff61059361057f36612a12565b939081875193828580945193849201612a50565b8101600f81520301902091168252845220549051908152f35b509034610484576020366003190112610484578060a09263ffffffff6105d061292b565b82608085516105de81612943565b828152826020820152828782015282606082015201521681526007602052209080519161060a83612943565b805492838152600260018301549260208301938452015492808201926001600160401b03938491828716825260ff60806060870196858a881c168852019760801c16151587528351978852516020880152511690850152511660608301525115156080820152f35b50903461048457806003193601126104845761068c612a73565b6001600160a01b0316825260056020528082208054602435939084101561044957506106be610544936106c492612b59565b90612c51565b9051918291602083526020830190612a9f565b50913461055e57602036600319011261055e578160209360ff923581526006855220541690519015158152f35b5090346104845760203660031901126104845760ff8160a09363ffffffff61072a61292b565b168152600760205220805492600260018301549201549181519485526020850152816001600160401b0391828216818701521c16606084015260801c1615156080820152f35b50903461048457806020928363ffffffff61078d61057f36612a12565b8101600881520301902091168252845220549051908152f35b509034610484578160031936011261048457602090517f0ce23c3e399818cfee81a7ab0880f714e53d7672b08df0fa62f2843416e1ea098152f35b509034610484576020908160031936011261055e5763ffffffff61080361292b565b168352600a8252808320805490610819826131aa565b946108268451968761298f565b828652908152838120848087015b84841061084d578551828152806105448185018b612ac4565b600191829161085b85612bab565b8152019201920191908590610834565b509034610484576020366003190112610484578060209263ffffffff61088f61292b565b168152600a845220549051908152f35b5091903461055e578060031936011261055e576108da91356108d560016108c4612a89565b938387528660205286200154612ce6565b612da8565b5080f35b50903461048457806020928363ffffffff6108fb61057f36612a12565b8101600d81520301902091168252845220549051908152f35b50913461055e57602036600319011261055e578035916001600160401b0383116109b1576109686020927f62e78cea01bee320cd4e420270b5ea74000d11b0c9f74754ebdbfc544b05a258943691016129cb565b50600080516020613a7a8339815191528452838252808420338552825261099460ff8286205416613a17565b61099c612f7d565b600160ff19600254161760025551338152a180f35b8380fd5b5090806003193601126104845782356001600160401b0392838216809203610449576024359084821680920361044957600080516020613a5a83398151915281526020958187528482203383528752610a1360ff8684205416613033565b610a1b612f7d565b3415610b855742841115610b335783831115610adc57506014549463ffffffff610a46818816612f52565b16809663ffffffff19161760145560028551610a6181612943565b348152888101848152878201968752606082019586528760808301958087528a815260078c522091518255516001820155019351166fffffffffffffffff000000000000000084549351861b169160ff60801b9051151560801b169270ffffffffffffffffffffffffffffffffff1916171717905551908152f35b845162461bcd60e51b8152908101879052602b60248201527f43726f73734572613a20456e642064617465206d75737420626520616674657260448201526a207374617274206461746560a81b6064820152608490fd5b845162461bcd60e51b8152908101879052602660248201527f43726f73734572613a2053746172742064617465206d75737420626520696e2060448201526566757475726560d01b6064820152608490fd5b845162461bcd60e51b8152908101879052601d60248201527f43726f73734572613a20496e76616c696420706f6f6c20616d6f756e740000006044820152606490fd5b5090346104845781600319360112610484576014549051602091821c63ffffffff168152f35b5034610449576020366003190112610449578235906001600160401b0382116104495750602092610c21913691016129cb565b82610c3483519283815193849201612a50565b6003908201908152819003830190205490516001600160a01b039091168152f35b5090346104845760ff816020938463ffffffff610c7461057f36612a12565b8101600981520301902091168252855220541690519015158152f35b50913461055e576020806003193601126109b15781356001600160401b038111610eed57610cc190369084016129cb565b610cc9612f7d565b8051828115159182610ee2575b505015610ea157835160ff825191848181860194610cf5818388612a50565b8101888152030190205416610e605784518251610d13818385612a50565b600390820190815281900384019020546001600160a01b0316610e255790610d8883610dab9333895260058252878920541596885183818751610d57818388612a50565b81016003815203019020336bffffffffffffffffffffffff60a01b8254161790558851809481938751928391612a50565b820190815203019020805460ff1916600117905533865260058352848620612e1d565b6014549267ffffffff0000000063ffffffff92610dcb8487831c16612f52565b901b16928367ffffffff00000000198616179081601455610dea578580f35b6bffffffff000000000000000092610e0491831c16612f52565b901b16916bffffffffffffffff000000001916171760145538808080808580f35b5050606492519162461bcd60e51b8352820152601660248201527521b937b9b9a2b9309d1020b8381024a2103a30b5b2b760511b6044820152fd5b505080606493519262461bcd60e51b845283015260248201527f43726f73734572613a2041707020616c726561647920726567697374657265646044820152fd5b50606492519162461bcd60e51b8352820152601f60248201527f43726f73734572613a20496e76616c696420617070204944206c656e677468006044820152fd5b111590508238610cd6565b8480fd5b5090346104845760ff816020938463ffffffff610f1061057f36612a12565b8101600c81520301902091168252855220541690519015158152f35b5091903461055e57602091826003193601126109b15763ffffffff610f4f61292b565b600080516020613a5a83398151915286528585528386203387528552610f7a60ff8588205416613033565b1680855260078452610f9083862054151561307f565b610f98612f7d565b8452600783526002828520019283549260ff8460801c16611074576001600160401b0380851642106110245784821c164211610fe35750505060ff60801b1916600160801b17905580f35b5162461bcd60e51b815291820152601a60248201527f43726f73734572613a2043616d706169676e2065787069726564000000000000604482015260649150fd5b505162461bcd60e51b815291820152602560248201527f43726f73734572613a2043616d706169676e206e6f7420726561647920746f206044820152641cdd185c9d60da1b606482015260849150fd5b5162461bcd60e51b815291820152602160248201527f43726f73734572613a2043616d706169676e20616c72656164792061637469766044820152606560f81b606482015260849150fd5b50903461048457816003193601126104845760209051600080516020613a5a8339815191528152f35b5091903461055e57602036600319011261055e5760ff61112991600080516020613a7a83398151915285528460205280852033865260205284205416613a17565b3560155580f35b50903461048457816003193601126104845751908152602090f35b50913461055e578160031936011261055e578160209360ff9261116c612a89565b903582528186528282206001600160a01b039091168252855220549151911615158152f35b5091903461055e57602091826003193601126109b15763ffffffff6111b461292b565b600080516020613a5a833981519152865285855283862033875285526111df60ff8588205416613033565b16808552600784526111f583862054151561307f565b6111fd612f7d565b8452600783526002828520019283549260ff8460801c16156112285750505060ff60801b1916905580f35b5162461bcd60e51b815291820152602360248201527f43726f73734572613a2043616d706169676e20616c726561647920696e61637460448201526269766560e81b606482015260849150fd5b5034610449576020366003190112610449578235906001600160401b03821161044957506112c2602080946112af60ff94369083016129cb565b9082865194838680955193849201612a50565b820190815203019020541690519015158152f35b50903461048457816003193601126104845760209051600080516020613a7a8339815191528152f35b5091903461055e5761131036612a12565b909382519463ffffffff81519361134660ff6020998a818188019961133681838d612a50565b81018c8152030190205416612f9b565b6113768651845161135881838a612a50565b810190600382528a8160018060a01b03930301902054163314612fe7565b168083526007875261138c85842054151561307f565b60019360028554146116d157600285556113a4612f7d565b81845260078852858420926001600160401b036002850154881c16421115611690578651898183516113d7818388612a50565b8101600e8152030190208386528952868520549787518a8184516113fc818389612a50565b8101600f8152030190208487528a5287862054988015998a15809b611687575b156116385789518c81865161143281838b612a50565b8101600c8152030190208689528c5260ff8a892054166115f55785885260118c528988205460128d528a89205492899c82151590816115ed575b506115a8575b50508115158061159f575b611557575b505088156115145750916114d58961150c96959388958a51838183516114a9818388612a50565b8101600c81520301902085895283528a88208760ff198254161790558a51938492839251928391612a50565b8101600d81520301902090845288528686842055016114f5868254613101565b905580808087335af161150661312e565b5061315e565b805551908152f35b875162461bcd60e51b81529081018a9052601f60248201527f43726f73734572613a204e6f20726577617264732063616c63756c61746564006044820152606490fd5b869a929a54601e810290808204601e149015171561158c57916103cd6103d29260646115849695046130cb565b973880611482565b634e487b7160e01b895260118c52602489fd5b5080151561147d565b90919b5087546046810290808204604614901517156115da576115d2929160646103cd92046130cb565b993880611472565b634e487b7160e01b8a526011855260248afd5b90503861146c565b895162461bcd60e51b81528084018d9052601960248201527f43726f73734572613a20416c726561647920636c61696d6564000000000000006044820152606490fd5b895162461bcd60e51b81528084018d9052602360248201527f43726f73734572613a204e6f20636f6e747269627574696f6e7320746f20636c60448201526261696d60e81b6064820152608490fd5b5080151561141c565b6064888a808a519262461bcd60e51b845283015260248201527f43726f73734572613a2043616d706169676e206e6f7420656e646564207965746044820152fd5b8551633ee5aeb560e01b81528790fd5b5091903461055e5760a036600319011261055e576001600160401b038235818111610eed5761171390369085016129cb565b9060243581811161184b5761172b90369086016129cb565b9160443582811161184f5761174390369087016129cb565b5060643582811161184f5761175b90369087016129cb565b5060843591821161184b576117766117d492369087016129cb565b508351906117a460ff8251936020818186019661179481838a612a50565b81018b8152030190205416612f9b565b6117b5855192839251928391612a50565b8101906003825260208160018060a01b03930301902054163314612fe7565b6117dc612f7d565b51818115159182611840575b5050156117f3578280f35b906020608492519162461bcd60e51b8352820152602160248201527f43726f73734572613a20496e76616c696420617070206e616d65206c656e67746044820152600d60fb1b6064820152fd5b1115905081386117e8565b8580fd5b8680fd5b50903461048457806003193601126104845761186d612a73565b91602435906001600160401b0382116104495750602093611890913691016129cb565b836118a383519283815193849201612a50565b810160038152818560018060a01b0393849303019020541691519216148152f35b5091903461055e57606036600319011261055e576001600160401b038235818111610eed576118f690369085016129cb565b906024359060ff821680920361184b5760443590811161184b5760029261192361195292369088016129cb565b5084519061194160ff8251936020818186019661133681838a612a50565b6117b5865192839251928391612a50565b61195a612f7d565b11611963578280f35b906020606492519162461bcd60e51b8352820152601860248201527f43726f73734572613a20496e76616c69642073746174757300000000000000006044820152fd5b50903461048457806020928363ffffffff6119c361057f36612a12565b8101601081520301902091168252845220549051908152f35b5090346104845781600319360112610484576014548151911c63ffffffff168152602090f35b50913461055e57602036600319011261055e5780356001600160401b0381116109b157611a3290369083016129cb565b50600080516020613a7a833981519152835282602052818320338452602052611a6060ff8385205416613a17565b6002549060ff821615611aa2575060ff1916600255513381527f5db9ee0a495bf2e6ff9c91a7834c1ba4fdd244a5e8aa4e537bd38aeae4b073aa90602090a180f35b8251638dfc202b60e01b8152fd5b50903461048457816003193601126104845760209060ff6002541690519015158152f35b5091903461055e57602091826003193601126109b1578035906001600160401b038211610eed57611b2084611b0e879382953691016129cb565b81865193828580945193849201612a50565b8101600b815203019020928051838195869282825491828152019186528286205b816007880110611c69575461054496611ba2959493929084828210611c53575b828210611c3b575b828210611c23575b828210611c0a575b828210611bf1575b828210611bd8575b828210611bbf575b5010611bb1575b509050038561298f565b51928284938452830190612c78565b60e01c815201859088611b98565b6001919463ffffffff8560c01c16815201930184611b91565b6001919463ffffffff8560a01c16815201930184611b89565b6001919463ffffffff8560801c16815201930184611b81565b6001919463ffffffff8560601c16815201930184611b79565b6001919463ffffffff858b1c16815201930184611b71565b6001919463ffffffff85831c16815201930184611b69565b6001919463ffffffff8516815201930184611b61565b9495935091506001610100600892865463ffffffff808216835280828c1c168b84015280828b1c168a84015260608183821c169084015260808183821c169084015260a08183821c169084015260c09082821c169083015260e01c60e08201520194019201939285918793611b41565b509034610484576020366003190112610484578060209263ffffffff611cfd61292b565b1681526012845220549051908152f35b50913461055e578160031936011261055e578035916024356001600160401b038111610eed57611d4090369084016129cb565b50600080516020613a7a833981519152845283602052808420338552602052611d6e60ff8286205416613a17565b478311611d8c5783611d898180808088335af161150661312e565b80f35b906020606492519162461bcd60e51b8352820152601e60248201527f43726f73734572613a20496e73756666696369656e742062616c616e636500006044820152fd5b509034610484576020366003190112610484578060209263ffffffff611df361292b565b1681526011845220549051908152f35b509034610484578060031936011261048457611e1d612a89565b90336001600160a01b03831603611e3a57506108da919235612da8565b5163334bd91960e11b81528390fd5b5091903461055e578060031936011261055e576108da9135611e6e60016108c4612a89565b612d2a565b509034610484578060031936011261048457611e8d61292b565b63ffffffff168252600a6020528082208054602435939084101561044957506106be610544936106c492612b59565b50913461055e578160031936011261055e578035906001600160401b0382116109b157611eeb913691016129cb565b91611f0760206024359481855193828580945193849201612a50565b8101600b8152030190209081548410156104495750611f2d60209363ffffffff92612b20565b92905490519260031b1c168152f35b50913461055e57602036600319011261055e57816020936001923581528085522001549051908152f35b50903461048457806020928363ffffffff611f8361057f36612a12565b8101600e81520301902091168252845220549051908152f35b5090346104845760203660031901126104845760609163ffffffff611fbf61292b565b168152601160205281812054916012602052808083205492601360205220549181519384526020840152820152f35b5082346104845760a0366003190112610484576001600160401b0381358181116109b15761201f90369084016129cb565b916024928335957f0ce23c3e399818cfee81a7ab0880f714e53d7672b08df0fa62f2843416e1ea0986526020868152818720338852815260ff8288205416156124c65781519783519882818b818389019d61207a918f612a50565b8101888152030190205460ff1661209090612f9b565b612098612f7d565b808852600682528288205460ff1661247457801561242757875260068152818720946001958660ff198254161790556120d56064356044356130cb565b936120eb838b8651809381928651928391612a50565b8101600b81520301902099845180858d5491828152019c8c52858c208c905b8260078301106123be578b9c9d9e896121749486948f8c809654948484106123a8575b848410612390575b848410612377575b5083831061235e575b838310612345575b83831061232c575b838310612313575b505010612305575b5090509d9c9b9d038261298f565b8a9b5b61217f578a80f35b80518c10156123015763ffffffff6121978d836130ed565b5116808c52600786526002878d2001548560ff8260801c1691826122f4575b826122e5575b50506121d8575b506121d0899a9b9c6130de565b9b9a99612177565b8651868186516121e9818389612a50565b8101600e815203019020818d528652868c20612206898254613101565b9055865186818651612219818389612a50565b8101600f815203019020818d528652868c206084359061223a828254613101565b90558c8289518981895161224f81838c612a50565b8101601081520301902091528752878d208054908c82018092116122d357908e939291558183526122a189601194858b528c61228f838320918254613101565b905584815260128b5220918254613101565b90558c5260138652868c208054918b83018093116122c35750556121d06121c3565b634e487b7160e01b8e528a528b8dfd5b634e487b7160e01b8f5260118c528d8ffd5b891c164211159050858f6121bc565b81811642101592506121b6565b8a80f35b60e01c815201879038612166565b90919463ffffffff8560c01c1681520193018f8561215e565b81929563ffffffff8660a01c1681520194019085612156565b81929563ffffffff8660801c168152019401908561214e565b81929563ffffffff8660601c1681520194019085612146565b9563ffffffff868495981c16815201940190858e61213d565b85821c63ffffffff1687529581019592820192612135565b63ffffffff86168752958101959282019261212d565b9d8b8f6008926101009154808c63ffffffff91829182821686521c168d8401528d8183821c169084015260608183821c169084015260808183821c1690840152808260a01c1660a084015260c09082821c169083015260e01c60e0820152019f0191019061210a565b825162461bcd60e51b81528086018390526022818901527f43726f73734572613a20496e76616c6964207472616e73616374696f6e2068616044820152610e6d60f31b6064820152608490fd5b825162461bcd60e51b81528086018390526027818901527f43726f73734572613a205472616e73616374696f6e20616c72656164792070726044820152661bd8d95cdcd95960ca1b6064820152608490fd5b6016868592606494519362461bcd60e51b85528401528201527521b937b9b9a2b9309d102737ba103b32b934b334b2b960511b6044820152fd5b5091606036600319011261055e576001600160401b03908035828111610eed5761252d90369083016129cb565b9260249081359363ffffffff958686168096036127ce5782519281519261256360ff60209687818188019861133681838c612a50565b61259382518451612575818389612a50565b81019060038252878160018060a01b03930301902054163314612fe7565b878a52600785526125a8828b2054151561307f565b6125b0612f7d565b878a52600785526002828b20015460ff8160801c161561278c57818116421061274a57821c164211612709578051848184516125ed818389612a50565b81016009815203019020878a52845260ff818a2054166126ad57908161265b949392518481845161261f818389612a50565b81016009815203019020888b528452808a20600160ff19825416179055600a845261264c82828c20612e1d565b51938492839251928391612a50565b8101600b81520301902090815492600160401b84101561269c5750509061268791600182018155612b20565b909283549160031b92831b921b191617905580f35b634e487b7160e01b87526041905285fd5b5162461bcd60e51b81528086018490526032818601527f43726f73734572613a2041707020616c72656164792072656769737465726564604482015271103337b9103a3434b99031b0b6b830b4b3b760711b6064820152608490fd5b5162461bcd60e51b81528086018490526018818601527f43726f73734572613a2043616d706169676e20656e64656400000000000000006044820152606490fd5b825162461bcd60e51b8152808901879052601e818901527f43726f73734572613a2043616d706169676e206e6f74207374617274656400006044820152606490fd5b825162461bcd60e51b8152808901879052601d818901527f43726f73734572613a2043616d706169676e206e6f74206163746976650000006044820152606490fd5b8780fd5b5090346104845781600319360112610484576020906015549051908152f35b509034610484576020908160031936011261055e576001600160a01b03612816612a73565b1683526005825280832080549061282c826131aa565b946128398451968761298f565b828652908152838120848087015b848410612860578551828152806105448185018b612ac4565b600191829161286e85612bab565b8152019201920191908590612847565b509034610484576020366003190112610484578060209263ffffffff6128a261292b565b1681526013845220549051908152f35b50903461048457816003193601126104845760209063ffffffff601454169051908152f35b9050833461055e57602036600319011261055e573563ffffffff60e01b811680910361055e5760209250637965db0b60e01b811490811561291a575b5015158152f35b6301ffc9a760e01b14905083612913565b6004359063ffffffff8216820361293e57565b600080fd5b60a081019081106001600160401b0382111761295e57604052565b634e487b7160e01b600052604160045260246000fd5b602081019081106001600160401b0382111761295e57604052565b90601f801991011681019081106001600160401b0382111761295e57604052565b6001600160401b03811161295e57601f01601f191660200190565b81601f8201121561293e578035906129e2826129b0565b926129f0604051948561298f565b8284526020838301011161293e57816000926020809301838601378301015290565b604060031982011261293e57600435906001600160401b03821161293e57612a3c916004016129cb565b9060243563ffffffff8116810361293e5790565b60005b838110612a635750506000910152565b8181015183820152602001612a53565b600435906001600160a01b038216820361293e57565b602435906001600160a01b038216820361293e57565b90602091612ab881518092818552858086019101612a50565b601f01601f1916010190565b908082519081815260208091019281808460051b8301019501936000915b848310612af25750505050505090565b9091929394958480612b10600193601f198682030187528a51612a9f565b9801930193019194939290612ae2565b9190918054831015612b4357600052601c60206000208360031c019260021b1690565b634e487b7160e01b600052603260045260246000fd5b8054821015612b435760005260206000200190600090565b90600182811c92168015612ba1575b6020831014612b8b57565b634e487b7160e01b600052602260045260246000fd5b91607f1691612b80565b9060405191826000825492612bbf84612b71565b908184526001948581169081600014612c2e5750600114612beb575b5050612be99250038361298f565b565b9093915060005260209081600020936000915b818310612c16575050612be993508201013880612bdb565b85548884018501529485019487945091830191612bfe565b915050612be994506020925060ff191682840152151560051b8201013880612bdb565b90612c6257612c5f90612bab565b90565b634e487b7160e01b600052600060045260246000fd5b90815180825260208080930193019160005b828110612c98575050505090565b835163ffffffff1685529381019392810192600101612c8a565b90815180825260208080930193019160005b828110612cd2575050505090565b835185529381019392810192600101612cc4565b80600052600060205260406000203360005260205260ff6040600020541615612d0c5750565b6044906040519063e2517d3f60e01b82523360048301526024820152fd5b9060009180835282602052604083209160018060a01b03169182845260205260ff60408420541615600014612da357808352826020526040832082845260205260408320600160ff198254161790557f2f8788117e7eff1d82e926ec794901d17c78024a50270940304540a733656f0d339380a4600190565b505090565b9060009180835282602052604083209160018060a01b03169182845260205260ff604084205416600014612da35780835282602052604083208284526020526040832060ff1981541690557ff6391f5c32d9c69d2a47ea670b442974b53935d1edc7fd64eb21e047a839171b339380a4600190565b8054600160401b81101561295e57612e3c906001928382018155612b59565b929092612c62578051906001600160401b03821161295e57612e5e8454612b71565b601f8111612f07575b5060209081601f8411600114612ea45750928293918392600094612e99575b50501b916000199060031b1c1916179055565b015192503880612e86565b919083601f1981168760005284600020946000905b88838310612eed5750505010612ed4575b505050811b019055565b015160001960f88460031b161c19169055388080612eca565b858701518855909601959485019487935090810190612eb9565b600085815260208120601f850160051c81019260208610612f48575b601f0160051c019185905b838110612f3d57505050612e67565b828155018590612f2e565b9092508290612f23565b63ffffffff809116908114612f675760010190565b634e487b7160e01b600052601160045260246000fd5b60ff60025416612f8957565b60405163d93c066560e01b8152600490fd5b15612fa257565b60405162461bcd60e51b815260206004820152601c60248201527f43726f73734572613a20417070206e6f742072656769737465726564000000006044820152606490fd5b15612fee57565b60405162461bcd60e51b815260206004820152601760248201527f43726f73734572613a204e6f7420617070206f776e65720000000000000000006044820152606490fd5b1561303a57565b60405162461bcd60e51b815260206004820152601e60248201527f43726f73734572613a204e6f742063616d706169676e206d616e6167657200006044820152606490fd5b1561308657565b60405162461bcd60e51b815260206004820152601c60248201527f43726f73734572613a2043616d706169676e206e6f7420666f756e64000000006044820152606490fd5b81810292918115918404141715612f6757565b6000198114612f675760010190565b8051821015612b435760209160051b010190565b91908201809211612f6757565b8115613118570490565b634e487b7160e01b600052601260045260246000fd5b3d15613159573d9061313f826129b0565b9161314d604051938461298f565b82523d6000602084013e565b606090565b1561316557565b60405162461bcd60e51b815260206004820152601d60248201527f43726f73734572613a20584649207472616e73666572206661696c65640000006044820152606490fd5b6001600160401b03811161295e5760051b60200190565b906131cb826131aa565b6131d8604051918261298f565b82815280926131e9601f19916131aa565b0190602036910137565b60018060a01b031660005260056020526040600020908154613214816131aa565b92613222604051948561298f565b818452602084019060005260206000206000915b8383106139fa575050505081511561397457600091825b815184101561343f57613279602061326586856130ed565b518160405193828580945193849201612a50565b8101600b8152030190206040519081602082549182815201916000526020600020906000915b8160078401106133d4579361330e95938193613301936133089754918181106133bd575b8181106133a4575b81811061338a575b818110613370575b818110613356575b81811061333c575b818110613322575b10613314575b50038261298f565b5190613101565b936130de565b9261324d565b60e01c8152602001386132f9565b92602060019163ffffffff8560c01c1681520193016132f3565b92602060019163ffffffff8560a01c1681520193016132eb565b92602060019163ffffffff8560801c1681520193016132e3565b92602060019163ffffffff8560601c1681520193016132db565b92602060019163ffffffff8560401c1681520193016132d3565b92602060019163ffffffff85831c1681520193016132cb565b92602060019163ffffffff851681520193016132c3565b926001610100600892865463ffffffff8082168352808260201c166020840152808260401c16604084015260608183821c169084015260808183821c169084015260a08183821c169084015260c09082821c169083015260e090811c9082015201940192019161329f565b91925061344b826131c1565b613454836131aa565b93613462604051958661298f565b838552601f19613471856131aa565b0160005b81811061396157505084613488856131c1565b94613492816131c1565b9561349c826131c1565b906134af6134a9846131c1565b936131c1565b946000809a5b89518c1015613953576134c88c8b6130ed565b519260405160208186516134df8183858b01612a50565b8101600b8152030190206040519081608052602081549283815201906000526020600020916000905b8060078301106138e4576135639354918181106138cd575b8181106138b4575b81811061389a575b818110613880575b818110613866575b81811061384c575b818110613832575b10613824575b506080518091039061298f565b6000925b608051805185101561380b578a8a8f8a8f94918a63ffffffff8f948c61358c916130ed565b5116918260005260076020528d60406000209060ff6002604051936135b085612943565b805485526001810154602086015201546001600160401b0380821660408601528160401c16606085015260801c161515608083015260405160208186516135fa8183858b01612a50565b8101600e815203019020856000526020526040600020549760405160208187516136278183858c01612a50565b8101600f815203019020866000526020526040600020549a60009360116020526040600020549060126020526040600020549180151580613802575b6137d1575b50811515806137c8575b613743575b50509561371660206133089d9b9761373d9f9d99978e9b95976136c68d6137379f996136c082809d6136ba9f6136ae838e926130ed565b52886136ba83836130ed565b526130ed565b506130ed565b52604051838184516136db8183858901612a50565b8101600c8152030190208560005283526136fe8860ff60406000205416926130ed565b90151590528160405193828580945193849201612a50565b8101600d815203019020906000526020526136ba83604060002054926130ed565b526130de565b92613567565b9d9b97919c9a969892909993959d51601e99818b8102048b1482151715612f675761373d9f6133089f8f9c8f6137379f9b8f9b8c613716996136ba9f6136ae836137a68f93966103d260209f986103cd859c60646136c69f6136c09d02046130cb565b9e5050509f509b9d505050999f50505094979b5097999d9f50979b9d50613677565b508d1515613672565b9080965051906046918083810204831481151715612f67578d60646137fb946103cd9302046130cb565b9438613668565b508c1515613663565b509a93509b61381b9192506130de565b9a9198906134b5565b60e01c815260200138613556565b92602060019163ffffffff8560c01c168152019301613550565b92602060019163ffffffff8560a01c168152019301613548565b92602060019163ffffffff8560801c168152019301613540565b92602060019163ffffffff8560601c168152019301613538565b92602060019163ffffffff8560401c168152019301613530565b92602060019163ffffffff85831c168152019301613528565b92602060019163ffffffff85168152019301613520565b90916001610100600892865463ffffffff8082168352808260201c166020840152808260401c16604084015260608183821c1690840152808260801c16608084015260a08183821c169084015260c09082821c169083015260e090811c90820152019401920190929192613508565b99979a505091949293509550565b6060602082890181019190915201613475565b905060405161398281612974565b600081526040519161399383612974565b60008352604051916139a483612974565b60008352604051916139b583612974565b60008352604051916139c683612974565b60008352604051916139d783612974565b60008352604051916139e883612974565b60008352600036813796959493929190565b600160208192613a0985612bab565b815201920192019190613236565b15613a1e57565b60405162461bcd60e51b815260206004820152601360248201527221b937b9b9a2b9309d102737ba1030b236b4b760691b6044820152606490fdfe5022544358ee0bece556b72ae8983c7f24341bd5b9483ce8a19bff5efbb2de92a49807205ce4d355092ef5a8a18f56e8913cf4a201fbe287825b095693c21775a26469706673582212207dc6b20a51dd765432c0fa0959492fc35283e20df6501c82e093e21d0db6e9be64736f6c634300081400332f8788117e7eff1d82e926ec794901d17c78024a50270940304540a733656f0d",
  "linkReferences": {},
  "deployedLinkReferences": {}
}