{"contracts/CrossEraRewardSystem.sol":{"CrossEraRewardSystem":{"abi":[{"inputs":[{"internalType":"address","name":"_admin","type":"address"}],"stateMutability":"nonpayable","type":"constructor"},{"inputs":[],"name":"AccessControlBadConfirmation","type":"error"},{"inputs":[{"internalType":"address","name":"account","type":"address"},{"internalType":"bytes32","name":"neededRole","type":"bytes32"}],"name":"AccessControlUnauthorizedAccount","type":"error"},{"inputs":[],"name":"EnforcedPause","type":"error"},{"inputs":[],"name":"ExpectedPause","type":"error"},{"inputs":[],"name":"ReentrancyGuardReentrantCall","type":"error"},{"anonymous":false,"inputs":[{"indexed":false,"internalType":"address","name":"account","type":"address"}],"name":"Paused","type":"event"},{"anonymous":false,"inputs":[{"indexed":true,"internalType":"bytes32","name":"role","type":"bytes32"},{"indexed":true,"internalType":"bytes32","name":"previousAdminRole","type":"bytes32"},{"indexed":true,"internalType":"bytes32","name":"newAdminRole","type":"bytes32"}],"name":"RoleAdminChanged","type":"event"},{"anonymous":false,"inputs":[{"indexed":true,"internalType":"bytes32","name":"role","type":"bytes32"},{"indexed":true,"internalType":"address","name":"account","type":"address"},{"indexed":true,"internalType":"address","name":"sender","type":"address"}],"name":"RoleGranted","type":"event"},{"anonymous":false,"inputs":[{"indexed":true,"internalType":"bytes32","name":"role","type":"bytes32"},{"indexed":true,"internalType":"address","name":"account","type":"address"},{"indexed":true,"internalType":"address","name":"sender","type":"address"}],"name":"RoleRevoked","type":"event"},{"anonymous":false,"inputs":[{"indexed":false,"internalType":"address","name":"account","type":"address"}],"name":"Unpaused","type":"event"},{"inputs":[],"name":"ADMIN_ROLE","outputs":[{"internalType":"bytes32","name":"","type":"bytes32"}],"stateMutability":"view","type":"function"},{"inputs":[],"name":"CAMPAIGN_MANAGER_ROLE","outputs":[{"internalType":"bytes32","name":"","type":"bytes32"}],"stateMutability":"view","type":"function"},{"inputs":[],"name":"DEFAULT_ADMIN_ROLE","outputs":[{"internalType":"bytes32","name":"","type":"bytes32"}],"stateMutability":"view","type":"function"},{"inputs":[],"name":"VERIFIER_ROLE","outputs":[{"internalType":"bytes32","name":"","type":"bytes32"}],"stateMutability":"view","type":"function"},{"inputs":[{"internalType":"uint32","name":"campaignId","type":"uint32"}],"name":"activateCampaign","outputs":[],"stateMutability":"nonpayable","type":"function"},{"inputs":[{"internalType":"string","name":"","type":"string"},{"internalType":"uint32","name":"","type":"uint32"}],"name":"appCampaignFees","outputs":[{"internalType":"uint256","name":"","type":"uint256"}],"stateMutability":"view","type":"function"},{"inputs":[{"internalType":"string","name":"","type":"string"},{"internalType":"uint32","name":"","type":"uint32"}],"name":"appCampaignRegistrations","outputs":[{"internalType":"bool","name":"","type":"bool"}],"stateMutability":"view","type":"function"},{"inputs":[{"internalType":"string","name":"","type":"string"},{"internalType":"uint32","name":"","type":"uint32"}],"name":"appCampaignTxCount","outputs":[{"internalType":"uint256","name":"","type":"uint256"}],"stateMutability":"view","type":"function"},{"inputs":[{"internalType":"string","name":"","type":"string"},{"internalType":"uint32","name":"","type":"uint32"}],"name":"appCampaignVolume","outputs":[{"internalType":"uint256","name":"","type":"uint256"}],"stateMutability":"view","type":"function"},{"inputs":[{"internalType":"string","name":"","type":"string"}],"name":"appOwners","outputs":[{"internalType":"address","name":"","type":"address"}],"stateMutability":"view","type":"function"},{"inputs":[{"internalType":"string","name":"","type":"string"},{"internalType":"uint256","name":"","type":"uint256"}],"name":"appRegisteredCampaigns","outputs":[{"internalType":"uint32","name":"","type":"uint32"}],"stateMutability":"view","type":"function"},{"inputs":[{"internalType":"uint32","name":"","type":"uint32"},{"internalType":"uint256","name":"","type":"uint256"}],"name":"campaignApps","outputs":[{"internalType":"string","name":"","type":"string"}],"stateMutability":"view","type":"function"},{"inputs":[{"internalType":"uint32","name":"","type":"uint32"}],"name":"campaignTotalFees","outputs":[{"internalType":"uint256","name":"","type":"uint256"}],"stateMutability":"view","type":"function"},{"inputs":[{"internalType":"uint32","name":"","type":"uint32"}],"name":"campaignTotalTxCount","outputs":[{"internalType":"uint256","name":"","type":"uint256"}],"stateMutability":"view","type":"function"},{"inputs":[{"internalType":"uint32","name":"","type":"uint32"}],"name":"campaignTotalVolume","outputs":[{"internalType":"uint256","name":"","type":"uint256"}],"stateMutability":"view","type":"function"},{"inputs":[{"internalType":"uint32","name":"","type":"uint32"}],"name":"campaigns","outputs":[{"internalType":"uint256","name":"totalPool","type":"uint256"},{"internalType":"uint256","name":"distributedRewards","type":"uint256"},{"internalType":"uint64","name":"startDate","type":"uint64"},{"internalType":"uint64","name":"endDate","type":"uint64"},{"internalType":"bool","name":"active","type":"bool"}],"stateMutability":"view","type":"function"},{"inputs":[{"internalType":"string","name":"appId","type":"string"},{"internalType":"uint8","name":"status","type":"uint8"},{"internalType":"string","name":"reason","type":"string"}],"name":"changeAppStatus","outputs":[],"stateMutability":"nonpayable","type":"function"},{"inputs":[{"internalType":"string","name":"appId","type":"string"},{"internalType":"uint32","name":"campaignId","type":"uint32"}],"name":"claimRewards","outputs":[{"internalType":"uint256","name":"","type":"uint256"}],"stateMutability":"nonpayable","type":"function"},{"inputs":[{"internalType":"string","name":"","type":"string"},{"internalType":"uint32","name":"","type":"uint32"}],"name":"claimableRewards","outputs":[{"internalType":"uint256","name":"","type":"uint256"}],"stateMutability":"view","type":"function"},{"inputs":[{"internalType":"uint64","name":"startDate","type":"uint64"},{"internalType":"uint64","name":"endDate","type":"uint64"}],"name":"createCampaign","outputs":[{"internalType":"uint32","name":"","type":"uint32"}],"stateMutability":"payable","type":"function"},{"inputs":[{"internalType":"uint32","name":"campaignId","type":"uint32"}],"name":"deactivateCampaign","outputs":[],"stateMutability":"nonpayable","type":"function"},{"inputs":[{"internalType":"address","name":"","type":"address"},{"internalType":"uint256","name":"","type":"uint256"}],"name":"developerApps","outputs":[{"internalType":"string","name":"","type":"string"}],"stateMutability":"view","type":"function"},{"inputs":[{"internalType":"string","name":"reason","type":"string"}],"name":"emergencyPause","outputs":[],"stateMutability":"nonpayable","type":"function"},{"inputs":[{"internalType":"string","name":"reason","type":"string"}],"name":"emergencyUnpause","outputs":[],"stateMutability":"nonpayable","type":"function"},{"inputs":[{"internalType":"uint256","name":"amount","type":"uint256"},{"internalType":"string","name":"reason","type":"string"}],"name":"emergencyWithdraw","outputs":[],"stateMutability":"nonpayable","type":"function"},{"inputs":[{"internalType":"string","name":"appId","type":"string"},{"internalType":"uint32","name":"campaignId","type":"uint32"}],"name":"getAppCampaignMetrics","outputs":[{"internalType":"uint256","name":"totalFees","type":"uint256"},{"internalType":"uint256","name":"totalVolume","type":"uint256"},{"internalType":"uint256","name":"txCount","type":"uint256"},{"internalType":"uint256","name":"estimatedReward","type":"uint256"}],"stateMutability":"view","type":"function"},{"inputs":[{"internalType":"string","name":"appId","type":"string"}],"name":"getAppRegisteredCampaigns","outputs":[{"internalType":"uint32[]","name":"","type":"uint32[]"}],"stateMutability":"view","type":"function"},{"inputs":[{"internalType":"uint32","name":"campaignId","type":"uint32"}],"name":"getCampaign","outputs":[{"components":[{"internalType":"uint256","name":"totalPool","type":"uint256"},{"internalType":"uint256","name":"distributedRewards","type":"uint256"},{"internalType":"uint64","name":"startDate","type":"uint64"},{"internalType":"uint64","name":"endDate","type":"uint64"},{"internalType":"bool","name":"active","type":"bool"}],"internalType":"struct CrossEraRewardSystem.CampaignCore","name":"","type":"tuple"}],"stateMutability":"view","type":"function"},{"inputs":[{"internalType":"uint32","name":"campaignId","type":"uint32"}],"name":"getCampaignAppCount","outputs":[{"internalType":"uint256","name":"","type":"uint256"}],"stateMutability":"view","type":"function"},{"inputs":[{"internalType":"uint32","name":"campaignId","type":"uint32"}],"name":"getCampaignApps","outputs":[{"internalType":"string[]","name":"","type":"string[]"}],"stateMutability":"view","type":"function"},{"inputs":[{"internalType":"uint32","name":"campaignId","type":"uint32"}],"name":"getCampaignTotals","outputs":[{"internalType":"uint256","name":"totalFees","type":"uint256"},{"internalType":"uint256","name":"totalVolume","type":"uint256"},{"internalType":"uint256","name":"txCount","type":"uint256"}],"stateMutability":"view","type":"function"},{"inputs":[{"internalType":"string","name":"appId","type":"string"},{"internalType":"uint32","name":"campaignId","type":"uint32"}],"name":"getClaimableRewards","outputs":[{"internalType":"uint256","name":"","type":"uint256"}],"stateMutability":"view","type":"function"},{"inputs":[{"internalType":"address","name":"developer","type":"address"}],"name":"getDeveloperAppCount","outputs":[{"internalType":"uint256","name":"","type":"uint256"}],"stateMutability":"view","type":"function"},{"inputs":[{"internalType":"address","name":"developer","type":"address"}],"name":"getDeveloperApps","outputs":[{"internalType":"string[]","name":"","type":"string[]"}],"stateMutability":"view","type":"function"},{"inputs":[{"internalType":"bytes32","name":"role","type":"bytes32"}],"name":"getRoleAdmin","outputs":[{"internalType":"bytes32","name":"","type":"bytes32"}],"stateMutability":"view","type":"function"},{"inputs":[{"internalType":"bytes32","name":"role","type":"bytes32"},{"internalType":"address","name":"account","type":"address"}],"name":"grantRole","outputs":[],"stateMutability":"nonpayable","type":"function"},{"inputs":[{"internalType":"bytes32","name":"role","type":"bytes32"},{"internalType":"address","name":"account","type":"address"}],"name":"hasRole","outputs":[{"internalType":"bool","name":"","type":"bool"}],"stateMutability":"view","type":"function"},{"inputs":[{"internalType":"string","name":"appId","type":"string"},{"internalType":"uint32","name":"campaignId","type":"uint32"}],"name":"isAppRegisteredForCampaign","outputs":[{"internalType":"bool","name":"","type":"bool"}],"stateMutability":"view","type":"function"},{"inputs":[{"internalType":"address","name":"developer","type":"address"},{"internalType":"string","name":"appId","type":"string"}],"name":"isDeveloperAppOwner","outputs":[{"internalType":"bool","name":"","type":"bool"}],"stateMutability":"view","type":"function"},{"inputs":[{"internalType":"bytes32","name":"txHash","type":"bytes32"}],"name":"isTransactionProcessed","outputs":[{"internalType":"bool","name":"","type":"bool"}],"stateMutability":"view","type":"function"},{"inputs":[],"name":"minRewardAmount","outputs":[{"internalType":"uint256","name":"","type":"uint256"}],"stateMutability":"view","type":"function"},{"inputs":[],"name":"paused","outputs":[{"internalType":"bool","name":"","type":"bool"}],"stateMutability":"view","type":"function"},{"inputs":[{"internalType":"string","name":"appId","type":"string"},{"internalType":"bytes32","name":"txHash","type":"bytes32"},{"internalType":"uint256","name":"gasUsed","type":"uint256"},{"internalType":"uint256","name":"gasPrice","type":"uint256"},{"internalType":"uint256","name":"transactionValue","type":"uint256"}],"name":"processTransaction","outputs":[],"stateMutability":"nonpayable","type":"function"},{"inputs":[{"internalType":"bytes32","name":"","type":"bytes32"}],"name":"processedTransactions","outputs":[{"internalType":"bool","name":"","type":"bool"}],"stateMutability":"view","type":"function"},{"inputs":[{"internalType":"string","name":"appId","type":"string"}],"name":"registerApp","outputs":[],"stateMutability":"nonpayable","type":"function"},{"inputs":[{"internalType":"string","name":"appId","type":"string"},{"internalType":"uint32","name":"campaignId","type":"uint32"},{"internalType":"bytes32","name":"registrationData","type":"bytes32"}],"name":"registerAppForCampaign","outputs":[],"stateMutability":"payable","type":"function"},{"inputs":[{"internalType":"string","name":"","type":"string"}],"name":"registeredApps","outputs":[{"internalType":"bool","name":"","type":"bool"}],"stateMutability":"view","type":"function"},{"inputs":[{"internalType":"bytes32","name":"role","type":"bytes32"},{"internalType":"address","name":"callerConfirmation","type":"address"}],"name":"renounceRole","outputs":[],"stateMutability":"nonpayable","type":"function"},{"inputs":[{"internalType":"bytes32","name":"role","type":"bytes32"},{"internalType":"address","name":"account","type":"address"}],"name":"revokeRole","outputs":[],"stateMutability":"nonpayable","type":"function"},{"inputs":[{"internalType":"uint256","name":"_minRewardAmount","type":"uint256"}],"name":"setMinRewardAmount","outputs":[],"stateMutability":"nonpayable","type":"function"},{"inputs":[{"internalType":"bytes4","name":"interfaceId","type":"bytes4"}],"name":"supportsInterface","outputs":[{"internalType":"bool","name":"","type":"bool"}],"stateMutability":"view","type":"function"},{"inputs":[],"name":"totalApps","outputs":[{"internalType":"uint32","name":"","type":"uint32"}],"stateMutability":"view","type":"function"},{"inputs":[],"name":"totalCampaigns","outputs":[{"internalType":"uint32","name":"","type":"uint32"}],"stateMutability":"view","type":"function"},{"inputs":[],"name":"totalDevelopers","outputs":[{"internalType":"uint32","name":"","type":"uint32"}],"stateMutability":"view","type":"function"},{"inputs":[{"internalType":"string","name":"appId","type":"string"},{"internalType":"string","name":"newName","type":"string"},{"internalType":"string","name":"newDescription","type":"string"},{"internalType":"string","name":"newCategory","type":"string"},{"internalType":"string","name":"newWebsiteUrl","type":"string"}],"name":"updateApp","outputs":[],"stateMutability":"nonpayable","type":"function"}],"evm":{"bytecode":{"linkReferences":{},"object":"608034620000f057601f6200345d38819003918201601f19168301916001600160401b03831184841017620000f557808492602094604052833981010312620000f057516001600160a01b038116808203620000f0576001805567016345785d8a000060135515620000ab57806200007b6200009a926200010b565b5062000087816200018b565b5062000093816200022d565b50620002ca565b506040516130d59081620003688239f35b60405162461bcd60e51b815260206004820152601f60248201527f43726f73734572613a20496e76616c69642061646d696e2061646472657373006044820152606490fd5b600080fd5b634e487b7160e01b600052604160045260246000fd5b6001600160a01b031660008181527fad3228b676f7d3cd4284a5443f17f1962b36e491b30a40b2405849e597ba5fb5602052604081205490919060ff166200018757818052816020526040822081835260205260408220600160ff1982541617905533916000805160206200343d8339815191528180a4600190565b5090565b6001600160a01b031660008181527f7d7ffb7a348e1c6a02869081a26547b49160dd3df72d1d75a570eb9b698292ec60205260408120549091907fa49807205ce4d355092ef5a8a18f56e8913cf4a201fbe287825b095693c217759060ff166200022857808352826020526040832082845260205260408320600160ff198254161790556000805160206200343d833981519152339380a4600190565b505090565b6001600160a01b031660008181527f1da0b5176dfe03406af5a6eed66ca01dda9b45ac4da671c3fa379cb93717ef8160205260408120549091907f0ce23c3e399818cfee81a7ab0880f714e53d7672b08df0fa62f2843416e1ea099060ff166200022857808352826020526040832082845260205260408320600160ff198254161790556000805160206200343d833981519152339380a4600190565b6001600160a01b031660008181527ff1f96320644c4081b1a0a57dc68164d6c55774e3cf58cdafac3037ffaf50ba4560205260408120549091907f5022544358ee0bece556b72ae8983c7f24341bd5b9483ce8a19bff5efbb2de929060ff166200022857808352826020526040832082845260205260408320600160ff198254161790556000805160206200343d833981519152339380a460019056fe608080604052600436101561001357600080fd5b600090813560e01c90816301ffc9a7146127ef5750806302932f56146127cb57806304103ef6146127965780630cc7991d14610b5e57806312266cdc1461270257806312d3b8c9146126e457806314eb9302146124005780631bb4e83314611ee25780631cacf4c414611e8c5780632271162b14611e55578063248a9ca314611e2957806324b67b7114611da65780632bdf010714611d5d5780632f2ff15d14611d2057806336568abe14611cd8578063388d78d114611ca35780633cbb466814611bdd57806343c998ae14611ba85780634434e7a2146106735780634acccef0146119815780635c975abb1461195e5780635ddfcba8146118ab57806365df793314611884578063667785411461184d5780636733b894146117985780636df4029a146117205780636f62d8dd146115bc578063726d2c16146111ee57806375b238fc146111c55780637b3ac30014611163578063816f7d491461107d57806391d1485414611035578063a217fddf14611019578063a292854214610fcf578063a762f58a14610fa6578063a982708b14610e0a578063ac2e4936146105d5578063b3a55f6414610b9a578063b678511514610b5e578063c718c1e514610af5578063c97c462214610acf578063cdefc1b1146108a7578063cf5b4fd514610804578063d547741f146107c3578063de8b890f1461078e578063e648f9b8146106e5578063e7705db6146106aa578063ead0d8fb14610673578063eb81b52714610604578063efc646ca146105d5578063f18fddff1461056b578063f54c9381146104a2578063f6517eb614610457578063f7e04cd11461041e5763fbd8d93a1461027e57600080fd5b3461041b5761028c36612910565b90916040519280519263ffffffff6020958681818601976102ae81838b61294e565b8101600c815203019020911690818452855261030285604085205495604051828187516102dc81838761294e565b8101600d815203019020848752825260408620549460405193849283925192839161294e565b8101600e81520301902090835284526040822054906007855260408320600f865260408420549360108752604081205491819580151580610412575b6103ce575b50821515806103c5575b61036d575b50505060809460405194855284015260408301526060820152f35b9694965490601e820291808304601e14901517156103b15750956103a26103a89261039d85606460809b04612f61565b612f81565b90612f74565b92943880610352565b634e487b7160e01b81526011600452602490fd5b5083151561034d565b90809650546046810290808204604614901517156103fe579061039d8860646103f79404612f61565b9438610343565b634e487b7160e01b83526011600452602483fd5b5087151561033e565b80fd5b503461041b57602036600319011261041b576020906040906001600160a01b03610446612971565b168152600583522054604051908152f35b503461041b5760406020918263ffffffff61048861047436612910565b93908187519382858094519384920161294e565b8101600d8152030190209116825283522054604051908152f35b503461041b57602036600319011261041b57604060a09163ffffffff6104c6612844565b82608085516104d48161285c565b828152826020820152828782015282606082015201521681526007602052206040516104ff8161285c565b81549182825260026001820154916020840192835201549160408101916001600160401b03928391828616825260ff60806060860195858960401c168752019660801c161515865260405196875251602087015251166040850152511660608301525115156080820152f35b503461041b57604036600319011261041b57610585612971565b6001600160a01b031681526005602052604081208054602435929083101561041b576105d16105bd6105b78585612a5d565b90612b55565b60405191829160208352602083019061299d565b0390f35b503461041b57602036600319011261041b5760ff60406020926004358152600684522054166040519015158152f35b503461041b57602036600319011261041b57604060a09163ffffffff610628612844565b16815260076020522060ff815491600260018201549101549060405193845260208401526001600160401b0380821660408501528160401c16606084015260801c1615156080820152f35b503461041b5760406020918263ffffffff61069061047436612910565b810160088152030190209116825283522054604051908152f35b503461041b578060031936011261041b5760206040517f0ce23c3e399818cfee81a7ab0880f714e53d7672b08df0fa62f2843416e1ea098152f35b503461041b5760208060031936011261078a5763ffffffff610705612844565b168252600a815260408220918254906001600160401b038211610776579260405192610736818460051b018561288d565b82845280840191855280852094915b83831061075a57604051806105d187826129c2565b600182819261076889612aaf565b815201960192019194610745565b634e487b7160e01b81526041600452602490fd5b5080fd5b503461041b57602036600319011261041b57604060209163ffffffff6107b2612844565b168152600a83522054604051908152f35b503461041b57604036600319011261041b576108006004356107e3612987565b90808452836020526107fb6001604086200154612b7c565b612c3e565b5080f35b503461041b57602036600319011261041b576004356001600160401b03811161078a576108359036906004016128c9565b506000805160206130808339815191528152806020526040812033825260205261086560ff60408320541661301d565b61086d612e13565b600160ff1960025416176002557f62e78cea01bee320cd4e420270b5ea74000d11b0c9f74754ebdbfc544b05a2586020604051338152a180f35b50604036600319011261041b576004356001600160401b0390818116809103610acb57602435828116809103610ac757600080516020613060833981519152845260209380855260408120338252855261090760ff604083205416612ec9565b61090f612e13565b3415610a825742831115610a2e57828211156109d5576012549363ffffffff610939818716612de8565b16809563ffffffff19161760125560026040516109558161285c565b34815287810184815260408201968752606082019586526040608083019580875289815260078b522091518255516001820155019351166fffffffffffffffff00000000000000008454935160401b169160ff60801b9051151560801b169270ffffffffffffffffffffffffffffffffff19161717179055604051908152f35b60405162461bcd60e51b815260048101869052602b60248201527f43726f73734572613a20456e642064617465206d75737420626520616674657260448201526a207374617274206461746560a81b6064820152608490fd5b60405162461bcd60e51b815260048101869052602660248201527f43726f73734572613a2053746172742064617465206d75737420626520696e2060448201526566757475726560d01b6064820152608490fd5b60405162461bcd60e51b815260048101869052601d60248201527f43726f73734572613a20496e76616c696420706f6f6c20616d6f756e740000006044820152606490fd5b8380fd5b8280fd5b503461041b578060031936011261041b57602060125463ffffffff60405191831c168152f35b503461041b57602036600319011261041b57600435906001600160401b03821161041b576020610b2836600485016128c9565b81610b3c604051928381519384920161294e565b600390820190815281900382019020546040516001600160a01b039091168152f35b503461041b5760ff60406020928363ffffffff610b7d61047436612910565b810160098152030190209116825284522054166040519015158152f35b503461041b5760208060031936011261078a576004356001600160401b038111610acb57610bcc9036906004016128c9565b610bd4612e13565b8051828115159182610dff575b505015610dba576040519060ff815192848181850195610c0281838961294e565b810160048152030190205416610d77576040518151610c2281838661294e565b600390820190815281900384019020546001600160a01b0316610d3957610cbe9033855260058452610c99846040872054159460405182818651610c6781838761294e565b81016003815203019020336bffffffffffffffffffffffff60a01b82541617905560405180938192865192839161294e565b81016004815203019020600160ff198254161790553385526005845260408520612cb3565b6012549167ffffffff0000000063ffffffff91610cde8386831c16612de8565b901b16918267ffffffff00000000198516179081601255610cfd578480f35b6bffffffff000000000000000091610d189160401c16612de8565b60401b16916bffffffffffffffff0000000019161717601255388080808480f35b60405162461bcd60e51b815260048101849052601660248201527521b937b9b9a2b9309d1020b8381024a2103a30b5b2b760511b6044820152606490fd5b6064836040519062461bcd60e51b825280600483015260248201527f43726f73734572613a2041707020616c726561647920726567697374657265646044820152fd5b60405162461bcd60e51b815260048101839052601f60248201527f43726f73734572613a20496e76616c696420617070204944206c656e677468006044820152606490fd5b111590508238610be1565b503461041b5760208060031936011261078a5763ffffffff610e2a612844565b6000805160206130608339815191528452838352604084203385528352610e5760ff604086205416612ec9565b1680835260078252610e6e60408420541515612f15565b610e76612e13565b825260078152600260408320019081549060ff8260801c16610f58576001600160401b038083164210610f05578260401c164211610ec1575060ff60801b1916600160801b17905580f35b6064906040519062461bcd60e51b82526004820152601a60248201527f43726f73734572613a2043616d706169676e20657870697265640000000000006044820152fd5b60405162461bcd60e51b815260048101839052602560248201527f43726f73734572613a2043616d706169676e206e6f7420726561647920746f206044820152641cdd185c9d60da1b6064820152608490fd5b6084906040519062461bcd60e51b82526004820152602160248201527f43726f73734572613a2043616d706169676e20616c72656164792061637469766044820152606560f81b6064820152fd5b503461041b578060031936011261041b5760206040516000805160206130608339815191528152f35b503461041b57602036600319011261041b576000805160206130808339815191528152806020526040812033825260205261101060ff60408320541661301d565b60043560135580f35b503461041b578060031936011261041b57602090604051908152f35b503461041b57604036600319011261041b5760ff6040602092611056612987565b60043582528185528282206001600160a01b03909116825284522054604051911615158152f35b503461041b5760208060031936011261078a5763ffffffff61109d612844565b60008051602061306083398151915284528383526040842033855283526110ca60ff604086205416612ec9565b16808352600782526110e160408420541515612f15565b6110e9612e13565b825260078152600260408320019081549060ff8260801c1615611113575060ff60801b1916905580f35b6084906040519062461bcd60e51b82526004820152602360248201527f43726f73734572613a2043616d706169676e20616c726561647920696e61637460448201526269766560e81b6064820152fd5b503461041b57602036600319011261041b57600435906001600160401b03821161041b57602060ff6111af8261119c36600488016128c9565b816040519382858094519384920161294e565b8101600481520301902054166040519015158152f35b503461041b578060031936011261041b5760206040516000805160206130808339815191528152f35b503461041b576111fd36612910565b916040519263ffffffff83519161123460ff6020978881818a019761122381838b61294e565b810160048152030190205416612e31565b611265604051865161124781838861294e565b81019060038252888160018060a01b03930301902054163314612e7d565b168083526007855261127c60408420541515612f15565b6002600154146115aa576002600155611293612e13565b8083526007855260408320916001600160401b03600284015460401c1642111561156757604051868187516112c981838761294e565b8101600c8152030190208285528652604084205494604051878183516112f081838861294e565b8101600d81520301902083865287526040852054958015968715809861155e575b1561150d576040518981855161132881838a61294e565b81016008815203019020858852895260408720546114c857848752600f8952604087205460108a52604088205492889982151590816114c0575b5061147a575b505081151580611471575b611428575b505085156113e3579161139f876113d796959360019560405193849283925192839161294e565b810160088152030190209084528652846040842055016113c0848254612f74565b905580808085335af16113d1612fa1565b50612fd1565b60018055604051908152f35b60405162461bcd60e51b815260048101889052601f60248201527f43726f73734572613a204e6f20726577617264732063616c63756c61746564006044820152606490fd5b8597929754601e810290808204601e149015171561145d579161039d6103a2926064611455969504612f61565b943880611378565b634e487b7160e01b88526011600452602488fd5b50801515611373565b9091985086546046810290808204604614901517156114ac576114a49291606461039d9204612f61565b963880611368565b634e487b7160e01b89526011600452602489fd5b905038611362565b60405162461bcd60e51b8152600481018a9052601960248201527f43726f73734572613a20416c726561647920636c61696d6564000000000000006044820152606490fd5b60405162461bcd60e51b8152600481018a9052602360248201527f43726f73734572613a204e6f20636f6e747269627574696f6e7320746f20636c60448201526261696d60e81b6064820152608490fd5b50801515611311565b6064866040519062461bcd60e51b825280600483015260248201527f43726f73734572613a2043616d706169676e206e6f7420656e646564207965746044820152fd5b604051633ee5aeb560e01b8152600490fd5b503461041b5760a036600319011261041b576001600160401b03600435818111610acb576115ee9036906004016128c9565b90602435818111610ac7576116079036906004016128c9565b9160443582811161171c576116209036906004016128c9565b5060643582811161171c576116399036906004016128c9565b50608435918211610ac7576116556116a59236906004016128c9565b506040519061167460ff8251936020818186019661122381838a61294e565b6116866040519283925192839161294e565b8101906003825260208160018060a01b03930301902054163314612e7d565b6116ad612e13565b518015159081611710575b50156116c15780f35b60405162461bcd60e51b815260206004820152602160248201527f43726f73734572613a20496e76616c696420617070206e616d65206c656e67746044820152600d60fb1b6064820152608490fd5b604091501115386116b8565b8480fd5b503461041b57604036600319011261041b5761173a612971565b602435916001600160401b03831161041b575061175d60209236906004016128c9565b82611771604051928381519384920161294e565b600390820190815281900383019020546040516001600160a01b0392831691909216148152f35b503461041b57606036600319011261041b576001600160401b03600435818111610acb576117ca9036906004016128c9565b906024359060ff8216809203610ac757604435908111610ac7576002926116556117f89236906004016128c9565b611800612e13565b116118085780f35b60405162461bcd60e51b815260206004820152601860248201527f43726f73734572613a20496e76616c69642073746174757300000000000000006044820152606490fd5b503461041b5760406020918263ffffffff61186a61047436612910565b8101600e8152030190209116825283522054604051908152f35b503461041b578060031936011261041b57602063ffffffff60125460401c16604051908152f35b503461041b57602036600319011261041b576004356001600160401b03811161078a576118dc9036906004016128c9565b506000805160206130808339815191528152806020526040812033825260205261190c60ff60408320541661301d565b60025460ff81161561194c5760ff19166002557f5db9ee0a495bf2e6ff9c91a7834c1ba4fdd244a5e8aa4e537bd38aeae4b073aa6020604051338152a180f35b604051638dfc202b60e01b8152600490fd5b503461041b578060031936011261041b57602060ff600254166040519015158152f35b503461041b5760208060031936011261078a576004356001600160401b038111610acb578161119c6119b79236906004016128c9565b8101600b81520301902090604051908182828086549384815201809688528188209388905b806007830110611b3857611a3b95549184828210611b22575b828210611b0a575b828210611af1575b828210611ad8575b828210611abf575b828210611aa6575b828210611a8d575b5010611a7f575b5090509592949395038561288d565b60405193838594850191818652518092526040850193925b828110611a6257505050500390f35b835163ffffffff1685528695509381019392810192600101611a53565b60e01c815201839038611a2c565b6001919463ffffffff8560c01c16815201930184611a25565b6001919463ffffffff8560a01c16815201930184611a1d565b6001919463ffffffff8560801c16815201930184611a15565b6001919463ffffffff8560601c16815201930184611a0d565b6001919463ffffffff8560401c16815201930184611a05565b6001919463ffffffff85831c168152019301846119fd565b6001919463ffffffff85168152019301846119f5565b925092506001610100600892865463ffffffff808216835280828b1c168a840152808260401c16604084015260608183821c169084015260808183821c169084015260a08183821c169084015260c09082821c169083015260e01c60e082015201940192019285929385926119dc565b503461041b57602036600319011261041b57604060209163ffffffff611bcc612844565b168152601083522054604051908152f35b503461041b57604036600319011261041b576004356024356001600160401b038111610acb57611c119036906004016128c9565b5060008051602061308083398151915282528160205260408220338352602052611c4160ff60408420541661301d565b478111611c5e5781808080611c5b94335af16113d1612fa1565b80f35b60405162461bcd60e51b815260206004820152601e60248201527f43726f73734572613a20496e73756666696369656e742062616c616e636500006044820152606490fd5b503461041b57602036600319011261041b57604060209163ffffffff611cc7612844565b168152600f83522054604051908152f35b503461041b57604036600319011261041b57611cf2612987565b336001600160a01b03821603611d0e5761080090600435612c3e565b60405163334bd91960e11b8152600490fd5b503461041b57604036600319011261041b57610800600435611d40612987565b9080845283602052611d586001604086200154612b7c565b612bc0565b503461041b57604036600319011261041b57611d77612844565b63ffffffff168152600a602052604081208054602435929083101561041b576105d16105bd6105b78585612a5d565b503461041b57604036600319011261041b576004356001600160401b03811161078a57611dd79036906004016128c9565b90611df4602060243593816040519382858094519384920161294e565b8101600b81520301902090815483101561041b57602063ffffffff611e198585612a24565b9190546040519260031b1c168152f35b503461041b57602036600319011261041b57600160406020926004358152808452200154604051908152f35b503461041b5760406020918263ffffffff611e7261047436612910565b8101600c8152030190209116825283522054604051908152f35b503461041b57602036600319011261041b5760609063ffffffff611eae612844565b168152600f602052604081205490601060205260408082205491601160205220549060405192835260208301526040820152f35b503461041b5760a036600319011261041b576004356001600160401b03811161078a57611f139036906004016128c9565b906024357f0ce23c3e399818cfee81a7ab0880f714e53d7672b08df0fa62f2843416e1ea098252816020526040822033835260205260ff604083205416156123c257611f6f60ff60405160208187516112238183858c0161294e565b611f77612e13565b808252600660205260ff60408320541661236d57801561231d578152600660205260408120805460ff19166001179055611fb5606435604435612f61565b6040516020818551611fca8183858a0161294e565b8101600b81520301902092604051808560208297549384815201908652602086209286905b8060078301106122ad57612045945491818110612296575b81811061227d575b818110612263575b818110612249575b81811061222f575b818110612215575b8181106121fb575b106121ed575b50038561288d565b825b84518110156121e95763ffffffff60208260051b87010151168085526007602052600260408620015460ff8160801c1690816121d5575b816121be575b506120b0575b50600019811461209c57600101612047565b634e487b7160e01b84526011600452602484fd5b60405160208185516120c58183858a0161294e565b8101600c815203019020818652602052604085206120e4858254612f74565b905560405160208185516120fb8183858a0161294e565b8101600d815203019020818652602052604085206084359061211e828254612f74565b905560405160208186516121358183858b0161294e565b8101600e815203019020828752602052604086208054906001820180921161145d5755818652600f6020526040862061216f868254612f74565b9055818652601060205261218860408720918254612f74565b9055845260118060205260408520805491600183018093116121ac5750553861208a565b634e487b7160e01b8752600452602486fd5b6001600160401b03915060401c1642111538612084565b6001600160401b038116421015915061207e565b8380f35b60e01c81526020013861203d565b92602060019163ffffffff8560c01c168152019301612037565b92602060019163ffffffff8560a01c16815201930161202f565b92602060019163ffffffff8560801c168152019301612027565b92602060019163ffffffff8560601c16815201930161201f565b92602060019163ffffffff8560401c168152019301612017565b92602060019163ffffffff85831c16815201930161200f565b92602060019163ffffffff85168152019301612007565b916008919350610100600191865463ffffffff8082168352808260201c166020840152808260401c16604084015260608183821c169084015260808183821c1690840152808260a01c1660a084015260c09082821c169083015260e01c60e0820152019401920187929391611fef565b60405162461bcd60e51b815260206004820152602260248201527f43726f73734572613a20496e76616c6964207472616e73616374696f6e2068616044820152610e6d60f31b6064820152608490fd5b60405162461bcd60e51b815260206004820152602760248201527f43726f73734572613a205472616e73616374696f6e20616c72656164792070726044820152661bd8d95cdcd95960ca1b6064820152608490fd5b60405162461bcd60e51b815260206004820152601660248201527521b937b9b9a2b9309d102737ba103b32b934b334b2b960511b6044820152606490fd5b50606036600319011261041b576001600160401b03600435818111610acb5761242d9036906004016128c9565b602480359163ffffffff938484168094036126e0576040519180519161246260ff60209586818187019761122381838b61294e565b612493604051835161247581838861294e565b81019060038252868160018060a01b03930301902054163314612e7d565b858852600784526124a960408920541515612f15565b6124b1612e13565b85885260078452600260408920015460ff8160801c161561269c5781811642106126585760401c16421161261457604051838183516124f181838861294e565b81016009815203019020858852835260ff6040882054166125b5579061256492916040518381835161252481838861294e565b81016009815203019020868952835260408820600160ff19825416179055600a83526125538160408a20612cb3565b60405193849283925192839161294e565b8101600b815203019020805491600160401b8310156125a357509061258e91600182018155612a24565b909283549160031b92831b921b191617905580f35b634e487b7160e01b8652604160045285fd5b60405162461bcd60e51b8152600481018490526032818601527f43726f73734572613a2041707020616c72656164792072656769737465726564604482015271103337b9103a3434b99031b0b6b830b4b3b760711b6064820152608490fd5b60405162461bcd60e51b8152600481018490526018818601527f43726f73734572613a2043616d706169676e20656e64656400000000000000006044820152606490fd5b60405162461bcd60e51b815260048101869052601e818801527f43726f73734572613a2043616d706169676e206e6f74207374617274656400006044820152606490fd5b60405162461bcd60e51b815260048101869052601d818801527f43726f73734572613a2043616d706169676e206e6f74206163746976650000006044820152606490fd5b8580fd5b503461041b578060031936011261041b576020601354604051908152f35b503461041b5760208060031936011261078a576001600160a01b03612725612971565b1682526005815260408220918254906001600160401b038211610776579260405192612756818460051b018561288d565b82845280840191855280852094915b83831061277a57604051806105d187826129c2565b600182819261278889612aaf565b815201960192019194612765565b503461041b57602036600319011261041b57604060209163ffffffff6127ba612844565b168152601183522054604051908152f35b503461041b578060031936011261041b57602063ffffffff60125416604051908152f35b90503461078a57602036600319011261078a5760043563ffffffff60e01b8116809103610acb5760209250637965db0b60e01b8114908115612833575b5015158152f35b6301ffc9a760e01b1490503861282c565b6004359063ffffffff8216820361285757565b600080fd5b60a081019081106001600160401b0382111761287757604052565b634e487b7160e01b600052604160045260246000fd5b90601f801991011681019081106001600160401b0382111761287757604052565b6001600160401b03811161287757601f01601f191660200190565b81601f82011215612857578035906128e0826128ae565b926128ee604051948561288d565b8284526020838301011161285757816000926020809301838601378301015290565b604060031982011261285757600435906001600160401b0382116128575761293a916004016128c9565b9060243563ffffffff811681036128575790565b60005b8381106129615750506000910152565b8181015183820152602001612951565b600435906001600160a01b038216820361285757565b602435906001600160a01b038216820361285757565b906020916129b68151809281855285808601910161294e565b601f01601f1916010190565b602080820190808352835180925260408301928160408460051b8301019501936000915b8483106129f65750505050505090565b9091929394958480612a14600193603f198682030187528a5161299d565b98019301930191949392906129e6565b9190918054831015612a4757600052601c60206000208360031c019260021b1690565b634e487b7160e01b600052603260045260246000fd5b8054821015612a475760005260206000200190600090565b90600182811c92168015612aa5575b6020831014612a8f57565b634e487b7160e01b600052602260045260246000fd5b91607f1691612a84565b9060405191826000825492612ac384612a75565b908184526001948581169081600014612b325750600114612aef575b5050612aed9250038361288d565b565b9093915060005260209081600020936000915b818310612b1a575050612aed93508201013880612adf565b85548884018501529485019487945091830191612b02565b915050612aed94506020925060ff191682840152151560051b8201013880612adf565b90612b6657612b6390612aaf565b90565b634e487b7160e01b600052600060045260246000fd5b80600052600060205260406000203360005260205260ff6040600020541615612ba25750565b6044906040519063e2517d3f60e01b82523360048301526024820152fd5b9060009180835282602052604083209160018060a01b03169182845260205260ff60408420541615600014612c3957808352826020526040832082845260205260408320600160ff198254161790557f2f8788117e7eff1d82e926ec794901d17c78024a50270940304540a733656f0d339380a4600190565b505090565b9060009180835282602052604083209160018060a01b03169182845260205260ff604084205416600014612c395780835282602052604083208284526020526040832060ff1981541690557ff6391f5c32d9c69d2a47ea670b442974b53935d1edc7fd64eb21e047a839171b339380a4600190565b8054600160401b81101561287757612cd2906001928382018155612a5d565b929092612b66578051906001600160401b03821161287757612cf48454612a75565b601f8111612d9d575b5060209081601f8411600114612d3a5750928293918392600094612d2f575b50501b916000199060031b1c1916179055565b015192503880612d1c565b919083601f1981168760005284600020946000905b88838310612d835750505010612d6a575b505050811b019055565b015160001960f88460031b161c19169055388080612d60565b858701518855909601959485019487935090810190612d4f565b600085815260208120601f850160051c81019260208610612dde575b601f0160051c019185905b838110612dd357505050612cfd565b828155018590612dc4565b9092508290612db9565b63ffffffff809116908114612dfd5760010190565b634e487b7160e01b600052601160045260246000fd5b60ff60025416612e1f57565b60405163d93c066560e01b8152600490fd5b15612e3857565b60405162461bcd60e51b815260206004820152601c60248201527f43726f73734572613a20417070206e6f742072656769737465726564000000006044820152606490fd5b15612e8457565b60405162461bcd60e51b815260206004820152601760248201527f43726f73734572613a204e6f7420617070206f776e65720000000000000000006044820152606490fd5b15612ed057565b60405162461bcd60e51b815260206004820152601e60248201527f43726f73734572613a204e6f742063616d706169676e206d616e6167657200006044820152606490fd5b15612f1c57565b60405162461bcd60e51b815260206004820152601c60248201527f43726f73734572613a2043616d706169676e206e6f7420666f756e64000000006044820152606490fd5b81810292918115918404141715612dfd57565b91908201809211612dfd57565b8115612f8b570490565b634e487b7160e01b600052601260045260246000fd5b3d15612fcc573d90612fb2826128ae565b91612fc0604051938461288d565b82523d6000602084013e565b606090565b15612fd857565b60405162461bcd60e51b815260206004820152601d60248201527f43726f73734572613a20584649207472616e73666572206661696c65640000006044820152606490fd5b1561302457565b60405162461bcd60e51b815260206004820152601360248201527221b937b9b9a2b9309d102737ba1030b236b4b760691b6044820152606490fdfe5022544358ee0bece556b72ae8983c7f24341bd5b9483ce8a19bff5efbb2de92a49807205ce4d355092ef5a8a18f56e8913cf4a201fbe287825b095693c21775a2646970667358221220e9bd1e4fdce33061e4cfff13a84a3c5283c98a0e3430181463ab6e1b48a62c0a64736f6c634300081400332f8788117e7eff1d82e926ec794901d17c78024a50270940304540a733656f0d","opcodes":"PUSH1 0x80 CALLVALUE PUSH3 0xF0 JUMPI PUSH1 0x1F PUSH3 0x345D CODESIZE DUP2 SWAP1 SUB SWAP2 DUP3 ADD PUSH1 0x1F NOT AND DUP4 ADD SWAP2 PUSH1 0x1 PUSH1 0x1 PUSH1 0x40 SHL SUB DUP4 GT DUP5 DUP5 LT OR PUSH3 0xF5 JUMPI DUP1 DUP5 SWAP3 PUSH1 0x20 SWAP5 PUSH1 0x40 MSTORE DUP4 CODECOPY DUP2 ADD SUB SLT PUSH3 0xF0 JUMPI MLOAD PUSH1 0x1 PUSH1 0x1 PUSH1 0xA0 SHL SUB DUP2 AND DUP1 DUP3 SUB PUSH3 0xF0 JUMPI PUSH1 0x1 DUP1 SSTORE PUSH8 0x16345785D8A0000 PUSH1 0x13 SSTORE ISZERO PUSH3 0xAB JUMPI DUP1 PUSH3 0x7B PUSH3 0x9A SWAP3 PUSH3 0x10B JUMP JUMPDEST POP PUSH3 0x87 DUP2 PUSH3 0x18B JUMP JUMPDEST POP PUSH3 0x93 DUP2 PUSH3 0x22D JUMP JUMPDEST POP PUSH3 0x2CA JUMP JUMPDEST POP PUSH1 0x40 MLOAD PUSH2 0x30D5 SWAP1 DUP2 PUSH3 0x368 DUP3 CODECOPY RETURN JUMPDEST PUSH1 0x40 MLOAD PUSH3 0x461BCD PUSH1 0xE5 SHL DUP2 MSTORE PUSH1 0x20 PUSH1 0x4 DUP3 ADD MSTORE PUSH1 0x1F PUSH1 0x24 DUP3 ADD MSTORE PUSH32 0x43726F73734572613A20496E76616C69642061646D696E206164647265737300 PUSH1 0x44 DUP3 ADD MSTORE PUSH1 0x64 SWAP1 REVERT JUMPDEST PUSH1 0x0 DUP1 REVERT JUMPDEST PUSH4 0x4E487B71 PUSH1 0xE0 SHL PUSH1 0x0 MSTORE PUSH1 0x41 PUSH1 0x4 MSTORE PUSH1 0x24 PUSH1 0x0 REVERT JUMPDEST PUSH1 0x1 PUSH1 0x1 PUSH1 0xA0 SHL SUB AND PUSH1 0x0 DUP2 DUP2 MSTORE PUSH32 0xAD3228B676F7D3CD4284A5443F17F1962B36E491B30A40B2405849E597BA5FB5 PUSH1 0x20 MSTORE PUSH1 0x40 DUP2 KECCAK256 SLOAD SWAP1 SWAP2 SWAP1 PUSH1 0xFF AND PUSH3 0x187 JUMPI DUP2 DUP1 MSTORE DUP2 PUSH1 0x20 MSTORE PUSH1 0x40 DUP3 KECCAK256 DUP2 DUP4 MSTORE PUSH1 0x20 MSTORE PUSH1 0x40 DUP3 KECCAK256 PUSH1 0x1 PUSH1 0xFF NOT DUP3 SLOAD AND OR SWAP1 SSTORE CALLER SWAP2 PUSH1 0x0 DUP1 MLOAD PUSH1 0x20 PUSH3 0x343D DUP4 CODECOPY DUP2 MLOAD SWAP2 MSTORE DUP2 DUP1 LOG4 PUSH1 0x1 SWAP1 JUMP JUMPDEST POP SWAP1 JUMP JUMPDEST PUSH1 0x1 PUSH1 0x1 PUSH1 0xA0 SHL SUB AND PUSH1 0x0 DUP2 DUP2 MSTORE PUSH32 0x7D7FFB7A348E1C6A02869081A26547B49160DD3DF72D1D75A570EB9B698292EC PUSH1 0x20 MSTORE PUSH1 0x40 DUP2 KECCAK256 SLOAD SWAP1 SWAP2 SWAP1 PUSH32 0xA49807205CE4D355092EF5A8A18F56E8913CF4A201FBE287825B095693C21775 SWAP1 PUSH1 0xFF AND PUSH3 0x228 JUMPI DUP1 DUP4 MSTORE DUP3 PUSH1 0x20 MSTORE PUSH1 0x40 DUP4 KECCAK256 DUP3 DUP5 MSTORE PUSH1 0x20 MSTORE PUSH1 0x40 DUP4 KECCAK256 PUSH1 0x1 PUSH1 0xFF NOT DUP3 SLOAD AND OR SWAP1 SSTORE PUSH1 0x0 DUP1 MLOAD PUSH1 0x20 PUSH3 0x343D DUP4 CODECOPY DUP2 MLOAD SWAP2 MSTORE CALLER SWAP4 DUP1 LOG4 PUSH1 0x1 SWAP1 JUMP JUMPDEST POP POP SWAP1 JUMP JUMPDEST PUSH1 0x1 PUSH1 0x1 PUSH1 0xA0 SHL SUB AND PUSH1 0x0 DUP2 DUP2 MSTORE PUSH32 0x1DA0B5176DFE03406AF5A6EED66CA01DDA9B45AC4DA671C3FA379CB93717EF81 PUSH1 0x20 MSTORE PUSH1 0x40 DUP2 KECCAK256 SLOAD SWAP1 SWAP2 SWAP1 PUSH32 0xCE23C3E399818CFEE81A7AB0880F714E53D7672B08DF0FA62F2843416E1EA09 SWAP1 PUSH1 0xFF AND PUSH3 0x228 JUMPI DUP1 DUP4 MSTORE DUP3 PUSH1 0x20 MSTORE PUSH1 0x40 DUP4 KECCAK256 DUP3 DUP5 MSTORE PUSH1 0x20 MSTORE PUSH1 0x40 DUP4 KECCAK256 PUSH1 0x1 PUSH1 0xFF NOT DUP3 SLOAD AND OR SWAP1 SSTORE PUSH1 0x0 DUP1 MLOAD PUSH1 0x20 PUSH3 0x343D DUP4 CODECOPY DUP2 MLOAD SWAP2 MSTORE CALLER SWAP4 DUP1 LOG4 PUSH1 0x1 SWAP1 JUMP JUMPDEST PUSH1 0x1 PUSH1 0x1 PUSH1 0xA0 SHL SUB AND PUSH1 0x0 DUP2 DUP2 MSTORE PUSH32 0xF1F96320644C4081B1A0A57DC68164D6C55774E3CF58CDAFAC3037FFAF50BA45 PUSH1 0x20 MSTORE PUSH1 0x40 DUP2 KECCAK256 SLOAD SWAP1 SWAP2 SWAP1 PUSH32 0x5022544358EE0BECE556B72AE8983C7F24341BD5B9483CE8A19BFF5EFBB2DE92 SWAP1 PUSH1 0xFF AND PUSH3 0x228 JUMPI DUP1 DUP4 MSTORE DUP3 PUSH1 0x20 MSTORE PUSH1 0x40 DUP4 KECCAK256 DUP3 DUP5 MSTORE PUSH1 0x20 MSTORE PUSH1 0x40 DUP4 KECCAK256 PUSH1 0x1 PUSH1 0xFF NOT DUP3 SLOAD AND OR SWAP1 SSTORE PUSH1 0x0 DUP1 MLOAD PUSH1 0x20 PUSH3 0x343D DUP4 CODECOPY DUP2 MLOAD SWAP2 MSTORE CALLER SWAP4 DUP1 LOG4 PUSH1 0x1 SWAP1 JUMP INVALID PUSH1 0x80 DUP1 PUSH1 0x40 MSTORE PUSH1 0x4 CALLDATASIZE LT ISZERO PUSH2 0x13 JUMPI PUSH1 0x0 DUP1 REVERT JUMPDEST PUSH1 0x0 SWAP1 DUP2 CALLDATALOAD PUSH1 0xE0 SHR SWAP1 DUP2 PUSH4 0x1FFC9A7 EQ PUSH2 0x27EF JUMPI POP DUP1 PUSH4 0x2932F56 EQ PUSH2 0x27CB JUMPI DUP1 PUSH4 0x4103EF6 EQ PUSH2 0x2796 JUMPI DUP1 PUSH4 0xCC7991D EQ PUSH2 0xB5E JUMPI DUP1 PUSH4 0x12266CDC EQ PUSH2 0x2702 JUMPI DUP1 PUSH4 0x12D3B8C9 EQ PUSH2 0x26E4 JUMPI DUP1 PUSH4 0x14EB9302 EQ PUSH2 0x2400 JUMPI DUP1 PUSH4 0x1BB4E833 EQ PUSH2 0x1EE2 JUMPI DUP1 PUSH4 0x1CACF4C4 EQ PUSH2 0x1E8C JUMPI DUP1 PUSH4 0x2271162B EQ PUSH2 0x1E55 JUMPI DUP1 PUSH4 0x248A9CA3 EQ PUSH2 0x1E29 JUMPI DUP1 PUSH4 0x24B67B71 EQ PUSH2 0x1DA6 JUMPI DUP1 PUSH4 0x2BDF0107 EQ PUSH2 0x1D5D JUMPI DUP1 PUSH4 0x2F2FF15D EQ PUSH2 0x1D20 JUMPI DUP1 PUSH4 0x36568ABE EQ PUSH2 0x1CD8 JUMPI DUP1 PUSH4 0x388D78D1 EQ PUSH2 0x1CA3 JUMPI DUP1 PUSH4 0x3CBB4668 EQ PUSH2 0x1BDD JUMPI DUP1 PUSH4 0x43C998AE EQ PUSH2 0x1BA8 JUMPI DUP1 PUSH4 0x4434E7A2 EQ PUSH2 0x673 JUMPI DUP1 PUSH4 0x4ACCCEF0 EQ PUSH2 0x1981 JUMPI DUP1 PUSH4 0x5C975ABB EQ PUSH2 0x195E JUMPI DUP1 PUSH4 0x5DDFCBA8 EQ PUSH2 0x18AB JUMPI DUP1 PUSH4 0x65DF7933 EQ PUSH2 0x1884 JUMPI DUP1 PUSH4 0x66778541 EQ PUSH2 0x184D JUMPI DUP1 PUSH4 0x6733B894 EQ PUSH2 0x1798 JUMPI DUP1 PUSH4 0x6DF4029A EQ PUSH2 0x1720 JUMPI DUP1 PUSH4 0x6F62D8DD EQ PUSH2 0x15BC JUMPI DUP1 PUSH4 0x726D2C16 EQ PUSH2 0x11EE JUMPI DUP1 PUSH4 0x75B238FC EQ PUSH2 0x11C5 JUMPI DUP1 PUSH4 0x7B3AC300 EQ PUSH2 0x1163 JUMPI DUP1 PUSH4 0x816F7D49 EQ PUSH2 0x107D JUMPI DUP1 PUSH4 0x91D14854 EQ PUSH2 0x1035 JUMPI DUP1 PUSH4 0xA217FDDF EQ PUSH2 0x1019 JUMPI DUP1 PUSH4 0xA2928542 EQ PUSH2 0xFCF JUMPI DUP1 PUSH4 0xA762F58A EQ PUSH2 0xFA6 JUMPI DUP1 PUSH4 0xA982708B EQ PUSH2 0xE0A JUMPI DUP1 PUSH4 0xAC2E4936 EQ PUSH2 0x5D5 JUMPI DUP1 PUSH4 0xB3A55F64 EQ PUSH2 0xB9A JUMPI DUP1 PUSH4 0xB6785115 EQ PUSH2 0xB5E JUMPI DUP1 PUSH4 0xC718C1E5 EQ PUSH2 0xAF5 JUMPI DUP1 PUSH4 0xC97C4622 EQ PUSH2 0xACF JUMPI DUP1 PUSH4 0xCDEFC1B1 EQ PUSH2 0x8A7 JUMPI DUP1 PUSH4 0xCF5B4FD5 EQ PUSH2 0x804 JUMPI DUP1 PUSH4 0xD547741F EQ PUSH2 0x7C3 JUMPI DUP1 PUSH4 0xDE8B890F EQ PUSH2 0x78E JUMPI DUP1 PUSH4 0xE648F9B8 EQ PUSH2 0x6E5 JUMPI DUP1 PUSH4 0xE7705DB6 EQ PUSH2 0x6AA JUMPI DUP1 PUSH4 0xEAD0D8FB EQ PUSH2 0x673 JUMPI DUP1 PUSH4 0xEB81B527 EQ PUSH2 0x604 JUMPI DUP1 PUSH4 0xEFC646CA EQ PUSH2 0x5D5 JUMPI DUP1 PUSH4 0xF18FDDFF EQ PUSH2 0x56B JUMPI DUP1 PUSH4 0xF54C9381 EQ PUSH2 0x4A2 JUMPI DUP1 PUSH4 0xF6517EB6 EQ PUSH2 0x457 JUMPI DUP1 PUSH4 0xF7E04CD1 EQ PUSH2 0x41E JUMPI PUSH4 0xFBD8D93A EQ PUSH2 0x27E JUMPI PUSH1 0x0 DUP1 REVERT JUMPDEST CALLVALUE PUSH2 0x41B JUMPI PUSH2 0x28C CALLDATASIZE PUSH2 0x2910 JUMP JUMPDEST SWAP1 SWAP2 PUSH1 0x40 MLOAD SWAP3 DUP1 MLOAD SWAP3 PUSH4 0xFFFFFFFF PUSH1 0x20 SWAP6 DUP7 DUP2 DUP2 DUP7 ADD SWAP8 PUSH2 0x2AE DUP2 DUP4 DUP12 PUSH2 0x294E JUMP JUMPDEST DUP2 ADD PUSH1 0xC DUP2 MSTORE SUB ADD SWAP1 KECCAK256 SWAP2 AND SWAP1 DUP2 DUP5 MSTORE DUP6 MSTORE PUSH2 0x302 DUP6 PUSH1 0x40 DUP6 KECCAK256 SLOAD SWAP6 PUSH1 0x40 MLOAD DUP3 DUP2 DUP8 MLOAD PUSH2 0x2DC DUP2 DUP4 DUP8 PUSH2 0x294E JUMP JUMPDEST DUP2 ADD PUSH1 0xD DUP2 MSTORE SUB ADD SWAP1 KECCAK256 DUP5 DUP8 MSTORE DUP3 MSTORE PUSH1 0x40 DUP7 KECCAK256 SLOAD SWAP5 PUSH1 0x40 MLOAD SWAP4 DUP5 SWAP3 DUP4 SWAP3 MLOAD SWAP3 DUP4 SWAP2 PUSH2 0x294E JUMP JUMPDEST DUP2 ADD PUSH1 0xE DUP2 MSTORE SUB ADD SWAP1 KECCAK256 SWAP1 DUP4 MSTORE DUP5 MSTORE PUSH1 0x40 DUP3 KECCAK256 SLOAD SWAP1 PUSH1 0x7 DUP6 MSTORE PUSH1 0x40 DUP4 KECCAK256 PUSH1 0xF DUP7 MSTORE PUSH1 0x40 DUP5 KECCAK256 SLOAD SWAP4 PUSH1 0x10 DUP8 MSTORE PUSH1 0x40 DUP2 KECCAK256 SLOAD SWAP2 DUP2 SWAP6 DUP1 ISZERO ISZERO DUP1 PUSH2 0x412 JUMPI JUMPDEST PUSH2 0x3CE JUMPI JUMPDEST POP DUP3 ISZERO ISZERO DUP1 PUSH2 0x3C5 JUMPI JUMPDEST PUSH2 0x36D JUMPI JUMPDEST POP POP POP PUSH1 0x80 SWAP5 PUSH1 0x40 MLOAD SWAP5 DUP6 MSTORE DUP5 ADD MSTORE PUSH1 0x40 DUP4 ADD MSTORE PUSH1 0x60 DUP3 ADD MSTORE RETURN JUMPDEST SWAP7 SWAP5 SWAP7 SLOAD SWAP1 PUSH1 0x1E DUP3 MUL SWAP2 DUP1 DUP4 DIV PUSH1 0x1E EQ SWAP1 ISZERO OR ISZERO PUSH2 0x3B1 JUMPI POP SWAP6 PUSH2 0x3A2 PUSH2 0x3A8 SWAP3 PUSH2 0x39D DUP6 PUSH1 0x64 PUSH1 0x80 SWAP12 DIV PUSH2 0x2F61 JUMP JUMPDEST PUSH2 0x2F81 JUMP JUMPDEST SWAP1 PUSH2 0x2F74 JUMP JUMPDEST SWAP3 SWAP5 CODESIZE DUP1 PUSH2 0x352 JUMP JUMPDEST PUSH4 0x4E487B71 PUSH1 0xE0 SHL DUP2 MSTORE PUSH1 0x11 PUSH1 0x4 MSTORE PUSH1 0x24 SWAP1 REVERT JUMPDEST POP DUP4 ISZERO ISZERO PUSH2 0x34D JUMP JUMPDEST SWAP1 DUP1 SWAP7 POP SLOAD PUSH1 0x46 DUP2 MUL SWAP1 DUP1 DUP3 DIV PUSH1 0x46 EQ SWAP1 ISZERO OR ISZERO PUSH2 0x3FE JUMPI SWAP1 PUSH2 0x39D DUP9 PUSH1 0x64 PUSH2 0x3F7 SWAP5 DIV PUSH2 0x2F61 JUMP JUMPDEST SWAP5 CODESIZE PUSH2 0x343 JUMP JUMPDEST PUSH4 0x4E487B71 PUSH1 0xE0 SHL DUP4 MSTORE PUSH1 0x11 PUSH1 0x4 MSTORE PUSH1 0x24 DUP4 REVERT JUMPDEST POP DUP8 ISZERO ISZERO PUSH2 0x33E JUMP JUMPDEST DUP1 REVERT JUMPDEST POP CALLVALUE PUSH2 0x41B JUMPI PUSH1 0x20 CALLDATASIZE PUSH1 0x3 NOT ADD SLT PUSH2 0x41B JUMPI PUSH1 0x20 SWAP1 PUSH1 0x40 SWAP1 PUSH1 0x1 PUSH1 0x1 PUSH1 0xA0 SHL SUB PUSH2 0x446 PUSH2 0x2971 JUMP JUMPDEST AND DUP2 MSTORE PUSH1 0x5 DUP4 MSTORE KECCAK256 SLOAD PUSH1 0x40 MLOAD SWAP1 DUP2 MSTORE RETURN JUMPDEST POP CALLVALUE PUSH2 0x41B JUMPI PUSH1 0x40 PUSH1 0x20 SWAP2 DUP3 PUSH4 0xFFFFFFFF PUSH2 0x488 PUSH2 0x474 CALLDATASIZE PUSH2 0x2910 JUMP JUMPDEST SWAP4 SWAP1 DUP2 DUP8 MLOAD SWAP4 DUP3 DUP6 DUP1 SWAP5 MLOAD SWAP4 DUP5 SWAP3 ADD PUSH2 0x294E JUMP JUMPDEST DUP2 ADD PUSH1 0xD DUP2 MSTORE SUB ADD SWAP1 KECCAK256 SWAP2 AND DUP3 MSTORE DUP4 MSTORE KECCAK256 SLOAD PUSH1 0x40 MLOAD SWAP1 DUP2 MSTORE RETURN JUMPDEST POP CALLVALUE PUSH2 0x41B JUMPI PUSH1 0x20 CALLDATASIZE PUSH1 0x3 NOT ADD SLT PUSH2 0x41B JUMPI PUSH1 0x40 PUSH1 0xA0 SWAP2 PUSH4 0xFFFFFFFF PUSH2 0x4C6 PUSH2 0x2844 JUMP JUMPDEST DUP3 PUSH1 0x80 DUP6 MLOAD PUSH2 0x4D4 DUP2 PUSH2 0x285C JUMP JUMPDEST DUP3 DUP2 MSTORE DUP3 PUSH1 0x20 DUP3 ADD MSTORE DUP3 DUP8 DUP3 ADD MSTORE DUP3 PUSH1 0x60 DUP3 ADD MSTORE ADD MSTORE AND DUP2 MSTORE PUSH1 0x7 PUSH1 0x20 MSTORE KECCAK256 PUSH1 0x40 MLOAD PUSH2 0x4FF DUP2 PUSH2 0x285C JUMP JUMPDEST DUP2 SLOAD SWAP2 DUP3 DUP3 MSTORE PUSH1 0x2 PUSH1 0x1 DUP3 ADD SLOAD SWAP2 PUSH1 0x20 DUP5 ADD SWAP3 DUP4 MSTORE ADD SLOAD SWAP2 PUSH1 0x40 DUP2 ADD SWAP2 PUSH1 0x1 PUSH1 0x1 PUSH1 0x40 SHL SUB SWAP3 DUP4 SWAP2 DUP3 DUP7 AND DUP3 MSTORE PUSH1 0xFF PUSH1 0x80 PUSH1 0x60 DUP7 ADD SWAP6 DUP6 DUP10 PUSH1 0x40 SHR AND DUP8 MSTORE ADD SWAP7 PUSH1 0x80 SHR AND ISZERO ISZERO DUP7 MSTORE PUSH1 0x40 MLOAD SWAP7 DUP8 MSTORE MLOAD PUSH1 0x20 DUP8 ADD MSTORE MLOAD AND PUSH1 0x40 DUP6 ADD MSTORE MLOAD AND PUSH1 0x60 DUP4 ADD MSTORE MLOAD ISZERO ISZERO PUSH1 0x80 DUP3 ADD MSTORE RETURN JUMPDEST POP CALLVALUE PUSH2 0x41B JUMPI PUSH1 0x40 CALLDATASIZE PUSH1 0x3 NOT ADD SLT PUSH2 0x41B JUMPI PUSH2 0x585 PUSH2 0x2971 JUMP JUMPDEST PUSH1 0x1 PUSH1 0x1 PUSH1 0xA0 SHL SUB AND DUP2 MSTORE PUSH1 0x5 PUSH1 0x20 MSTORE PUSH1 0x40 DUP2 KECCAK256 DUP1 SLOAD PUSH1 0x24 CALLDATALOAD SWAP3 SWAP1 DUP4 LT ISZERO PUSH2 0x41B JUMPI PUSH2 0x5D1 PUSH2 0x5BD PUSH2 0x5B7 DUP6 DUP6 PUSH2 0x2A5D JUMP JUMPDEST SWAP1 PUSH2 0x2B55 JUMP JUMPDEST PUSH1 0x40 MLOAD SWAP2 DUP3 SWAP2 PUSH1 0x20 DUP4 MSTORE PUSH1 0x20 DUP4 ADD SWAP1 PUSH2 0x299D JUMP JUMPDEST SUB SWAP1 RETURN JUMPDEST POP CALLVALUE PUSH2 0x41B JUMPI PUSH1 0x20 CALLDATASIZE PUSH1 0x3 NOT ADD SLT PUSH2 0x41B JUMPI PUSH1 0xFF PUSH1 0x40 PUSH1 0x20 SWAP3 PUSH1 0x4 CALLDATALOAD DUP2 MSTORE PUSH1 0x6 DUP5 MSTORE KECCAK256 SLOAD AND PUSH1 0x40 MLOAD SWAP1 ISZERO ISZERO DUP2 MSTORE RETURN JUMPDEST POP CALLVALUE PUSH2 0x41B JUMPI PUSH1 0x20 CALLDATASIZE PUSH1 0x3 NOT ADD SLT PUSH2 0x41B JUMPI PUSH1 0x40 PUSH1 0xA0 SWAP2 PUSH4 0xFFFFFFFF PUSH2 0x628 PUSH2 0x2844 JUMP JUMPDEST AND DUP2 MSTORE PUSH1 0x7 PUSH1 0x20 MSTORE KECCAK256 PUSH1 0xFF DUP2 SLOAD SWAP2 PUSH1 0x2 PUSH1 0x1 DUP3 ADD SLOAD SWAP2 ADD SLOAD SWAP1 PUSH1 0x40 MLOAD SWAP4 DUP5 MSTORE PUSH1 0x20 DUP5 ADD MSTORE PUSH1 0x1 PUSH1 0x1 PUSH1 0x40 SHL SUB DUP1 DUP3 AND PUSH1 0x40 DUP6 ADD MSTORE DUP2 PUSH1 0x40 SHR AND PUSH1 0x60 DUP5 ADD MSTORE PUSH1 0x80 SHR AND ISZERO ISZERO PUSH1 0x80 DUP3 ADD MSTORE RETURN JUMPDEST POP CALLVALUE PUSH2 0x41B JUMPI PUSH1 0x40 PUSH1 0x20 SWAP2 DUP3 PUSH4 0xFFFFFFFF PUSH2 0x690 PUSH2 0x474 CALLDATASIZE PUSH2 0x2910 JUMP JUMPDEST DUP2 ADD PUSH1 0x8 DUP2 MSTORE SUB ADD SWAP1 KECCAK256 SWAP2 AND DUP3 MSTORE DUP4 MSTORE KECCAK256 SLOAD PUSH1 0x40 MLOAD SWAP1 DUP2 MSTORE RETURN JUMPDEST POP CALLVALUE PUSH2 0x41B JUMPI DUP1 PUSH1 0x3 NOT CALLDATASIZE ADD SLT PUSH2 0x41B JUMPI PUSH1 0x20 PUSH1 0x40 MLOAD PUSH32 0xCE23C3E399818CFEE81A7AB0880F714E53D7672B08DF0FA62F2843416E1EA09 DUP2 MSTORE RETURN JUMPDEST POP CALLVALUE PUSH2 0x41B JUMPI PUSH1 0x20 DUP1 PUSH1 0x3 NOT CALLDATASIZE ADD SLT PUSH2 0x78A JUMPI PUSH4 0xFFFFFFFF PUSH2 0x705 PUSH2 0x2844 JUMP JUMPDEST AND DUP3 MSTORE PUSH1 0xA DUP2 MSTORE PUSH1 0x40 DUP3 KECCAK256 SWAP2 DUP3 SLOAD SWAP1 PUSH1 0x1 PUSH1 0x1 PUSH1 0x40 SHL SUB DUP3 GT PUSH2 0x776 JUMPI SWAP3 PUSH1 0x40 MLOAD SWAP3 PUSH2 0x736 DUP2 DUP5 PUSH1 0x5 SHL ADD DUP6 PUSH2 0x288D JUMP JUMPDEST DUP3 DUP5 MSTORE DUP1 DUP5 ADD SWAP2 DUP6 MSTORE DUP1 DUP6 KECCAK256 SWAP5 SWAP2 JUMPDEST DUP4 DUP4 LT PUSH2 0x75A JUMPI PUSH1 0x40 MLOAD DUP1 PUSH2 0x5D1 DUP8 DUP3 PUSH2 0x29C2 JUMP JUMPDEST PUSH1 0x1 DUP3 DUP2 SWAP3 PUSH2 0x768 DUP10 PUSH2 0x2AAF JUMP JUMPDEST DUP2 MSTORE ADD SWAP7 ADD SWAP3 ADD SWAP2 SWAP5 PUSH2 0x745 JUMP JUMPDEST PUSH4 0x4E487B71 PUSH1 0xE0 SHL DUP2 MSTORE PUSH1 0x41 PUSH1 0x4 MSTORE PUSH1 0x24 SWAP1 REVERT JUMPDEST POP DUP1 REVERT JUMPDEST POP CALLVALUE PUSH2 0x41B JUMPI PUSH1 0x20 CALLDATASIZE PUSH1 0x3 NOT ADD SLT PUSH2 0x41B JUMPI PUSH1 0x40 PUSH1 0x20 SWAP2 PUSH4 0xFFFFFFFF PUSH2 0x7B2 PUSH2 0x2844 JUMP JUMPDEST AND DUP2 MSTORE PUSH1 0xA DUP4 MSTORE KECCAK256 SLOAD PUSH1 0x40 MLOAD SWAP1 DUP2 MSTORE RETURN JUMPDEST POP CALLVALUE PUSH2 0x41B JUMPI PUSH1 0x40 CALLDATASIZE PUSH1 0x3 NOT ADD SLT PUSH2 0x41B JUMPI PUSH2 0x800 PUSH1 0x4 CALLDATALOAD PUSH2 0x7E3 PUSH2 0x2987 JUMP JUMPDEST SWAP1 DUP1 DUP5 MSTORE DUP4 PUSH1 0x20 MSTORE PUSH2 0x7FB PUSH1 0x1 PUSH1 0x40 DUP7 KECCAK256 ADD SLOAD PUSH2 0x2B7C JUMP JUMPDEST PUSH2 0x2C3E JUMP JUMPDEST POP DUP1 RETURN JUMPDEST POP CALLVALUE PUSH2 0x41B JUMPI PUSH1 0x20 CALLDATASIZE PUSH1 0x3 NOT ADD SLT PUSH2 0x41B JUMPI PUSH1 0x4 CALLDATALOAD PUSH1 0x1 PUSH1 0x1 PUSH1 0x40 SHL SUB DUP2 GT PUSH2 0x78A JUMPI PUSH2 0x835 SWAP1 CALLDATASIZE SWAP1 PUSH1 0x4 ADD PUSH2 0x28C9 JUMP JUMPDEST POP PUSH1 0x0 DUP1 MLOAD PUSH1 0x20 PUSH2 0x3080 DUP4 CODECOPY DUP2 MLOAD SWAP2 MSTORE DUP2 MSTORE DUP1 PUSH1 0x20 MSTORE PUSH1 0x40 DUP2 KECCAK256 CALLER DUP3 MSTORE PUSH1 0x20 MSTORE PUSH2 0x865 PUSH1 0xFF PUSH1 0x40 DUP4 KECCAK256 SLOAD AND PUSH2 0x301D JUMP JUMPDEST PUSH2 0x86D PUSH2 0x2E13 JUMP JUMPDEST PUSH1 0x1 PUSH1 0xFF NOT PUSH1 0x2 SLOAD AND OR PUSH1 0x2 SSTORE PUSH32 0x62E78CEA01BEE320CD4E420270B5EA74000D11B0C9F74754EBDBFC544B05A258 PUSH1 0x20 PUSH1 0x40 MLOAD CALLER DUP2 MSTORE LOG1 DUP1 RETURN JUMPDEST POP PUSH1 0x40 CALLDATASIZE PUSH1 0x3 NOT ADD SLT PUSH2 0x41B JUMPI PUSH1 0x4 CALLDATALOAD PUSH1 0x1 PUSH1 0x1 PUSH1 0x40 SHL SUB SWAP1 DUP2 DUP2 AND DUP1 SWAP2 SUB PUSH2 0xACB JUMPI PUSH1 0x24 CALLDATALOAD DUP3 DUP2 AND DUP1 SWAP2 SUB PUSH2 0xAC7 JUMPI PUSH1 0x0 DUP1 MLOAD PUSH1 0x20 PUSH2 0x3060 DUP4 CODECOPY DUP2 MLOAD SWAP2 MSTORE DUP5 MSTORE PUSH1 0x20 SWAP4 DUP1 DUP6 MSTORE PUSH1 0x40 DUP2 KECCAK256 CALLER DUP3 MSTORE DUP6 MSTORE PUSH2 0x907 PUSH1 0xFF PUSH1 0x40 DUP4 KECCAK256 SLOAD AND PUSH2 0x2EC9 JUMP JUMPDEST PUSH2 0x90F PUSH2 0x2E13 JUMP JUMPDEST CALLVALUE ISZERO PUSH2 0xA82 JUMPI TIMESTAMP DUP4 GT ISZERO PUSH2 0xA2E JUMPI DUP3 DUP3 GT ISZERO PUSH2 0x9D5 JUMPI PUSH1 0x12 SLOAD SWAP4 PUSH4 0xFFFFFFFF PUSH2 0x939 DUP2 DUP8 AND PUSH2 0x2DE8 JUMP JUMPDEST AND DUP1 SWAP6 PUSH4 0xFFFFFFFF NOT AND OR PUSH1 0x12 SSTORE PUSH1 0x2 PUSH1 0x40 MLOAD PUSH2 0x955 DUP2 PUSH2 0x285C JUMP JUMPDEST CALLVALUE DUP2 MSTORE DUP8 DUP2 ADD DUP5 DUP2 MSTORE PUSH1 0x40 DUP3 ADD SWAP7 DUP8 MSTORE PUSH1 0x60 DUP3 ADD SWAP6 DUP7 MSTORE PUSH1 0x40 PUSH1 0x80 DUP4 ADD SWAP6 DUP1 DUP8 MSTORE DUP10 DUP2 MSTORE PUSH1 0x7 DUP12 MSTORE KECCAK256 SWAP2 MLOAD DUP3 SSTORE MLOAD PUSH1 0x1 DUP3 ADD SSTORE ADD SWAP4 MLOAD AND PUSH16 0xFFFFFFFFFFFFFFFF0000000000000000 DUP5 SLOAD SWAP4 MLOAD PUSH1 0x40 SHL AND SWAP2 PUSH1 0xFF PUSH1 0x80 SHL SWAP1 MLOAD ISZERO ISZERO PUSH1 0x80 SHL AND SWAP3 PUSH17 0xFFFFFFFFFFFFFFFFFFFFFFFFFFFFFFFFFF NOT AND OR OR OR SWAP1 SSTORE PUSH1 0x40 MLOAD SWAP1 DUP2 MSTORE RETURN JUMPDEST PUSH1 0x40 MLOAD PUSH3 0x461BCD PUSH1 0xE5 SHL DUP2 MSTORE PUSH1 0x4 DUP2 ADD DUP7 SWAP1 MSTORE PUSH1 0x2B PUSH1 0x24 DUP3 ADD MSTORE PUSH32 0x43726F73734572613A20456E642064617465206D757374206265206166746572 PUSH1 0x44 DUP3 ADD MSTORE PUSH11 0x2073746172742064617465 PUSH1 0xA8 SHL PUSH1 0x64 DUP3 ADD MSTORE PUSH1 0x84 SWAP1 REVERT JUMPDEST PUSH1 0x40 MLOAD PUSH3 0x461BCD PUSH1 0xE5 SHL DUP2 MSTORE PUSH1 0x4 DUP2 ADD DUP7 SWAP1 MSTORE PUSH1 0x26 PUSH1 0x24 DUP3 ADD MSTORE PUSH32 0x43726F73734572613A2053746172742064617465206D75737420626520696E20 PUSH1 0x44 DUP3 ADD MSTORE PUSH6 0x667574757265 PUSH1 0xD0 SHL PUSH1 0x64 DUP3 ADD MSTORE PUSH1 0x84 SWAP1 REVERT JUMPDEST PUSH1 0x40 MLOAD PUSH3 0x461BCD PUSH1 0xE5 SHL DUP2 MSTORE PUSH1 0x4 DUP2 ADD DUP7 SWAP1 MSTORE PUSH1 0x1D PUSH1 0x24 DUP3 ADD MSTORE PUSH32 0x43726F73734572613A20496E76616C696420706F6F6C20616D6F756E74000000 PUSH1 0x44 DUP3 ADD MSTORE PUSH1 0x64 SWAP1 REVERT JUMPDEST DUP4 DUP1 REVERT JUMPDEST DUP3 DUP1 REVERT JUMPDEST POP CALLVALUE PUSH2 0x41B JUMPI DUP1 PUSH1 0x3 NOT CALLDATASIZE ADD SLT PUSH2 0x41B JUMPI PUSH1 0x20 PUSH1 0x12 SLOAD PUSH4 0xFFFFFFFF PUSH1 0x40 MLOAD SWAP2 DUP4 SHR AND DUP2 MSTORE RETURN JUMPDEST POP CALLVALUE PUSH2 0x41B JUMPI PUSH1 0x20 CALLDATASIZE PUSH1 0x3 NOT ADD SLT PUSH2 0x41B JUMPI PUSH1 0x4 CALLDATALOAD SWAP1 PUSH1 0x1 PUSH1 0x1 PUSH1 0x40 SHL SUB DUP3 GT PUSH2 0x41B JUMPI PUSH1 0x20 PUSH2 0xB28 CALLDATASIZE PUSH1 0x4 DUP6 ADD PUSH2 0x28C9 JUMP JUMPDEST DUP2 PUSH2 0xB3C PUSH1 0x40 MLOAD SWAP3 DUP4 DUP2 MLOAD SWAP4 DUP5 SWAP3 ADD PUSH2 0x294E JUMP JUMPDEST PUSH1 0x3 SWAP1 DUP3 ADD SWAP1 DUP2 MSTORE DUP2 SWAP1 SUB DUP3 ADD SWAP1 KECCAK256 SLOAD PUSH1 0x40 MLOAD PUSH1 0x1 PUSH1 0x1 PUSH1 0xA0 SHL SUB SWAP1 SWAP2 AND DUP2 MSTORE RETURN JUMPDEST POP CALLVALUE PUSH2 0x41B JUMPI PUSH1 0xFF PUSH1 0x40 PUSH1 0x20 SWAP3 DUP4 PUSH4 0xFFFFFFFF PUSH2 0xB7D PUSH2 0x474 CALLDATASIZE PUSH2 0x2910 JUMP JUMPDEST DUP2 ADD PUSH1 0x9 DUP2 MSTORE SUB ADD SWAP1 KECCAK256 SWAP2 AND DUP3 MSTORE DUP5 MSTORE KECCAK256 SLOAD AND PUSH1 0x40 MLOAD SWAP1 ISZERO ISZERO DUP2 MSTORE RETURN JUMPDEST POP CALLVALUE PUSH2 0x41B JUMPI PUSH1 0x20 DUP1 PUSH1 0x3 NOT CALLDATASIZE ADD SLT PUSH2 0x78A JUMPI PUSH1 0x4 CALLDATALOAD PUSH1 0x1 PUSH1 0x1 PUSH1 0x40 SHL SUB DUP2 GT PUSH2 0xACB JUMPI PUSH2 0xBCC SWAP1 CALLDATASIZE SWAP1 PUSH1 0x4 ADD PUSH2 0x28C9 JUMP JUMPDEST PUSH2 0xBD4 PUSH2 0x2E13 JUMP JUMPDEST DUP1 MLOAD DUP3 DUP2 ISZERO ISZERO SWAP2 DUP3 PUSH2 0xDFF JUMPI JUMPDEST POP POP ISZERO PUSH2 0xDBA JUMPI PUSH1 0x40 MLOAD SWAP1 PUSH1 0xFF DUP2 MLOAD SWAP3 DUP5 DUP2 DUP2 DUP6 ADD SWAP6 PUSH2 0xC02 DUP2 DUP4 DUP10 PUSH2 0x294E JUMP JUMPDEST DUP2 ADD PUSH1 0x4 DUP2 MSTORE SUB ADD SWAP1 KECCAK256 SLOAD AND PUSH2 0xD77 JUMPI PUSH1 0x40 MLOAD DUP2 MLOAD PUSH2 0xC22 DUP2 DUP4 DUP7 PUSH2 0x294E JUMP JUMPDEST PUSH1 0x3 SWAP1 DUP3 ADD SWAP1 DUP2 MSTORE DUP2 SWAP1 SUB DUP5 ADD SWAP1 KECCAK256 SLOAD PUSH1 0x1 PUSH1 0x1 PUSH1 0xA0 SHL SUB AND PUSH2 0xD39 JUMPI PUSH2 0xCBE SWAP1 CALLER DUP6 MSTORE PUSH1 0x5 DUP5 MSTORE PUSH2 0xC99 DUP5 PUSH1 0x40 DUP8 KECCAK256 SLOAD ISZERO SWAP5 PUSH1 0x40 MLOAD DUP3 DUP2 DUP7 MLOAD PUSH2 0xC67 DUP2 DUP4 DUP8 PUSH2 0x294E JUMP JUMPDEST DUP2 ADD PUSH1 0x3 DUP2 MSTORE SUB ADD SWAP1 KECCAK256 CALLER PUSH12 0xFFFFFFFFFFFFFFFFFFFFFFFF PUSH1 0xA0 SHL DUP3 SLOAD AND OR SWAP1 SSTORE PUSH1 0x40 MLOAD DUP1 SWAP4 DUP2 SWAP3 DUP7 MLOAD SWAP3 DUP4 SWAP2 PUSH2 0x294E JUMP JUMPDEST DUP2 ADD PUSH1 0x4 DUP2 MSTORE SUB ADD SWAP1 KECCAK256 PUSH1 0x1 PUSH1 0xFF NOT DUP3 SLOAD AND OR SWAP1 SSTORE CALLER DUP6 MSTORE PUSH1 0x5 DUP5 MSTORE PUSH1 0x40 DUP6 KECCAK256 PUSH2 0x2CB3 JUMP JUMPDEST PUSH1 0x12 SLOAD SWAP2 PUSH8 0xFFFFFFFF00000000 PUSH4 0xFFFFFFFF SWAP2 PUSH2 0xCDE DUP4 DUP7 DUP4 SHR AND PUSH2 0x2DE8 JUMP JUMPDEST SWAP1 SHL AND SWAP2 DUP3 PUSH8 0xFFFFFFFF00000000 NOT DUP6 AND OR SWAP1 DUP2 PUSH1 0x12 SSTORE PUSH2 0xCFD JUMPI DUP5 DUP1 RETURN JUMPDEST PUSH12 0xFFFFFFFF0000000000000000 SWAP2 PUSH2 0xD18 SWAP2 PUSH1 0x40 SHR AND PUSH2 0x2DE8 JUMP JUMPDEST PUSH1 0x40 SHL AND SWAP2 PUSH12 0xFFFFFFFFFFFFFFFF00000000 NOT AND OR OR PUSH1 0x12 SSTORE CODESIZE DUP1 DUP1 DUP1 DUP5 DUP1 RETURN JUMPDEST PUSH1 0x40 MLOAD PUSH3 0x461BCD PUSH1 0xE5 SHL DUP2 MSTORE PUSH1 0x4 DUP2 ADD DUP5 SWAP1 MSTORE PUSH1 0x16 PUSH1 0x24 DUP3 ADD MSTORE PUSH22 0x21B937B9B9A2B9309D1020B8381024A2103A30B5B2B7 PUSH1 0x51 SHL PUSH1 0x44 DUP3 ADD MSTORE PUSH1 0x64 SWAP1 REVERT JUMPDEST PUSH1 0x64 DUP4 PUSH1 0x40 MLOAD SWAP1 PUSH3 0x461BCD PUSH1 0xE5 SHL DUP3 MSTORE DUP1 PUSH1 0x4 DUP4 ADD MSTORE PUSH1 0x24 DUP3 ADD MSTORE PUSH32 0x43726F73734572613A2041707020616C72656164792072656769737465726564 PUSH1 0x44 DUP3 ADD MSTORE REVERT JUMPDEST PUSH1 0x40 MLOAD PUSH3 0x461BCD PUSH1 0xE5 SHL DUP2 MSTORE PUSH1 0x4 DUP2 ADD DUP4 SWAP1 MSTORE PUSH1 0x1F PUSH1 0x24 DUP3 ADD MSTORE PUSH32 0x43726F73734572613A20496E76616C696420617070204944206C656E67746800 PUSH1 0x44 DUP3 ADD MSTORE PUSH1 0x64 SWAP1 REVERT JUMPDEST GT ISZERO SWAP1 POP DUP3 CODESIZE PUSH2 0xBE1 JUMP JUMPDEST POP CALLVALUE PUSH2 0x41B JUMPI PUSH1 0x20 DUP1 PUSH1 0x3 NOT CALLDATASIZE ADD SLT PUSH2 0x78A JUMPI PUSH4 0xFFFFFFFF PUSH2 0xE2A PUSH2 0x2844 JUMP JUMPDEST PUSH1 0x0 DUP1 MLOAD PUSH1 0x20 PUSH2 0x3060 DUP4 CODECOPY DUP2 MLOAD SWAP2 MSTORE DUP5 MSTORE DUP4 DUP4 MSTORE PUSH1 0x40 DUP5 KECCAK256 CALLER DUP6 MSTORE DUP4 MSTORE PUSH2 0xE57 PUSH1 0xFF PUSH1 0x40 DUP7 KECCAK256 SLOAD AND PUSH2 0x2EC9 JUMP JUMPDEST AND DUP1 DUP4 MSTORE PUSH1 0x7 DUP3 MSTORE PUSH2 0xE6E PUSH1 0x40 DUP5 KECCAK256 SLOAD ISZERO ISZERO PUSH2 0x2F15 JUMP JUMPDEST PUSH2 0xE76 PUSH2 0x2E13 JUMP JUMPDEST DUP3 MSTORE PUSH1 0x7 DUP2 MSTORE PUSH1 0x2 PUSH1 0x40 DUP4 KECCAK256 ADD SWAP1 DUP2 SLOAD SWAP1 PUSH1 0xFF DUP3 PUSH1 0x80 SHR AND PUSH2 0xF58 JUMPI PUSH1 0x1 PUSH1 0x1 PUSH1 0x40 SHL SUB DUP1 DUP4 AND TIMESTAMP LT PUSH2 0xF05 JUMPI DUP3 PUSH1 0x40 SHR AND TIMESTAMP GT PUSH2 0xEC1 JUMPI POP PUSH1 0xFF PUSH1 0x80 SHL NOT AND PUSH1 0x1 PUSH1 0x80 SHL OR SWAP1 SSTORE DUP1 RETURN JUMPDEST PUSH1 0x64 SWAP1 PUSH1 0x40 MLOAD SWAP1 PUSH3 0x461BCD PUSH1 0xE5 SHL DUP3 MSTORE PUSH1 0x4 DUP3 ADD MSTORE PUSH1 0x1A PUSH1 0x24 DUP3 ADD MSTORE PUSH32 0x43726F73734572613A2043616D706169676E2065787069726564000000000000 PUSH1 0x44 DUP3 ADD MSTORE REVERT JUMPDEST PUSH1 0x40 MLOAD PUSH3 0x461BCD PUSH1 0xE5 SHL DUP2 MSTORE PUSH1 0x4 DUP2 ADD DUP4 SWAP1 MSTORE PUSH1 0x25 PUSH1 0x24 DUP3 ADD MSTORE PUSH32 0x43726F73734572613A2043616D706169676E206E6F7420726561647920746F20 PUSH1 0x44 DUP3 ADD MSTORE PUSH5 0x1CDD185C9D PUSH1 0xDA SHL PUSH1 0x64 DUP3 ADD MSTORE PUSH1 0x84 SWAP1 REVERT JUMPDEST PUSH1 0x84 SWAP1 PUSH1 0x40 MLOAD SWAP1 PUSH3 0x461BCD PUSH1 0xE5 SHL DUP3 MSTORE PUSH1 0x4 DUP3 ADD MSTORE PUSH1 0x21 PUSH1 0x24 DUP3 ADD MSTORE PUSH32 0x43726F73734572613A2043616D706169676E20616C7265616479206163746976 PUSH1 0x44 DUP3 ADD MSTORE PUSH1 0x65 PUSH1 0xF8 SHL PUSH1 0x64 DUP3 ADD MSTORE REVERT JUMPDEST POP CALLVALUE PUSH2 0x41B JUMPI DUP1 PUSH1 0x3 NOT CALLDATASIZE ADD SLT PUSH2 0x41B JUMPI PUSH1 0x20 PUSH1 0x40 MLOAD PUSH1 0x0 DUP1 MLOAD PUSH1 0x20 PUSH2 0x3060 DUP4 CODECOPY DUP2 MLOAD SWAP2 MSTORE DUP2 MSTORE RETURN JUMPDEST POP CALLVALUE PUSH2 0x41B JUMPI PUSH1 0x20 CALLDATASIZE PUSH1 0x3 NOT ADD SLT PUSH2 0x41B JUMPI PUSH1 0x0 DUP1 MLOAD PUSH1 0x20 PUSH2 0x3080 DUP4 CODECOPY DUP2 MLOAD SWAP2 MSTORE DUP2 MSTORE DUP1 PUSH1 0x20 MSTORE PUSH1 0x40 DUP2 KECCAK256 CALLER DUP3 MSTORE PUSH1 0x20 MSTORE PUSH2 0x1010 PUSH1 0xFF PUSH1 0x40 DUP4 KECCAK256 SLOAD AND PUSH2 0x301D JUMP JUMPDEST PUSH1 0x4 CALLDATALOAD PUSH1 0x13 SSTORE DUP1 RETURN JUMPDEST POP CALLVALUE PUSH2 0x41B JUMPI DUP1 PUSH1 0x3 NOT CALLDATASIZE ADD SLT PUSH2 0x41B JUMPI PUSH1 0x20 SWAP1 PUSH1 0x40 MLOAD SWAP1 DUP2 MSTORE RETURN JUMPDEST POP CALLVALUE PUSH2 0x41B JUMPI PUSH1 0x40 CALLDATASIZE PUSH1 0x3 NOT ADD SLT PUSH2 0x41B JUMPI PUSH1 0xFF PUSH1 0x40 PUSH1 0x20 SWAP3 PUSH2 0x1056 PUSH2 0x2987 JUMP JUMPDEST PUSH1 0x4 CALLDATALOAD DUP3 MSTORE DUP2 DUP6 MSTORE DUP3 DUP3 KECCAK256 PUSH1 0x1 PUSH1 0x1 PUSH1 0xA0 SHL SUB SWAP1 SWAP2 AND DUP3 MSTORE DUP5 MSTORE KECCAK256 SLOAD PUSH1 0x40 MLOAD SWAP2 AND ISZERO ISZERO DUP2 MSTORE RETURN JUMPDEST POP CALLVALUE PUSH2 0x41B JUMPI PUSH1 0x20 DUP1 PUSH1 0x3 NOT CALLDATASIZE ADD SLT PUSH2 0x78A JUMPI PUSH4 0xFFFFFFFF PUSH2 0x109D PUSH2 0x2844 JUMP JUMPDEST PUSH1 0x0 DUP1 MLOAD PUSH1 0x20 PUSH2 0x3060 DUP4 CODECOPY DUP2 MLOAD SWAP2 MSTORE DUP5 MSTORE DUP4 DUP4 MSTORE PUSH1 0x40 DUP5 KECCAK256 CALLER DUP6 MSTORE DUP4 MSTORE PUSH2 0x10CA PUSH1 0xFF PUSH1 0x40 DUP7 KECCAK256 SLOAD AND PUSH2 0x2EC9 JUMP JUMPDEST AND DUP1 DUP4 MSTORE PUSH1 0x7 DUP3 MSTORE PUSH2 0x10E1 PUSH1 0x40 DUP5 KECCAK256 SLOAD ISZERO ISZERO PUSH2 0x2F15 JUMP JUMPDEST PUSH2 0x10E9 PUSH2 0x2E13 JUMP JUMPDEST DUP3 MSTORE PUSH1 0x7 DUP2 MSTORE PUSH1 0x2 PUSH1 0x40 DUP4 KECCAK256 ADD SWAP1 DUP2 SLOAD SWAP1 PUSH1 0xFF DUP3 PUSH1 0x80 SHR AND ISZERO PUSH2 0x1113 JUMPI POP PUSH1 0xFF PUSH1 0x80 SHL NOT AND SWAP1 SSTORE DUP1 RETURN JUMPDEST PUSH1 0x84 SWAP1 PUSH1 0x40 MLOAD SWAP1 PUSH3 0x461BCD PUSH1 0xE5 SHL DUP3 MSTORE PUSH1 0x4 DUP3 ADD MSTORE PUSH1 0x23 PUSH1 0x24 DUP3 ADD MSTORE PUSH32 0x43726F73734572613A2043616D706169676E20616C726561647920696E616374 PUSH1 0x44 DUP3 ADD MSTORE PUSH3 0x697665 PUSH1 0xE8 SHL PUSH1 0x64 DUP3 ADD MSTORE REVERT JUMPDEST POP CALLVALUE PUSH2 0x41B JUMPI PUSH1 0x20 CALLDATASIZE PUSH1 0x3 NOT ADD SLT PUSH2 0x41B JUMPI PUSH1 0x4 CALLDATALOAD SWAP1 PUSH1 0x1 PUSH1 0x1 PUSH1 0x40 SHL SUB DUP3 GT PUSH2 0x41B JUMPI PUSH1 0x20 PUSH1 0xFF PUSH2 0x11AF DUP3 PUSH2 0x119C CALLDATASIZE PUSH1 0x4 DUP9 ADD PUSH2 0x28C9 JUMP JUMPDEST DUP2 PUSH1 0x40 MLOAD SWAP4 DUP3 DUP6 DUP1 SWAP5 MLOAD SWAP4 DUP5 SWAP3 ADD PUSH2 0x294E JUMP JUMPDEST DUP2 ADD PUSH1 0x4 DUP2 MSTORE SUB ADD SWAP1 KECCAK256 SLOAD AND PUSH1 0x40 MLOAD SWAP1 ISZERO ISZERO DUP2 MSTORE RETURN JUMPDEST POP CALLVALUE PUSH2 0x41B JUMPI DUP1 PUSH1 0x3 NOT CALLDATASIZE ADD SLT PUSH2 0x41B JUMPI PUSH1 0x20 PUSH1 0x40 MLOAD PUSH1 0x0 DUP1 MLOAD PUSH1 0x20 PUSH2 0x3080 DUP4 CODECOPY DUP2 MLOAD SWAP2 MSTORE DUP2 MSTORE RETURN JUMPDEST POP CALLVALUE PUSH2 0x41B JUMPI PUSH2 0x11FD CALLDATASIZE PUSH2 0x2910 JUMP JUMPDEST SWAP2 PUSH1 0x40 MLOAD SWAP3 PUSH4 0xFFFFFFFF DUP4 MLOAD SWAP2 PUSH2 0x1234 PUSH1 0xFF PUSH1 0x20 SWAP8 DUP9 DUP2 DUP2 DUP11 ADD SWAP8 PUSH2 0x1223 DUP2 DUP4 DUP12 PUSH2 0x294E JUMP JUMPDEST DUP2 ADD PUSH1 0x4 DUP2 MSTORE SUB ADD SWAP1 KECCAK256 SLOAD AND PUSH2 0x2E31 JUMP JUMPDEST PUSH2 0x1265 PUSH1 0x40 MLOAD DUP7 MLOAD PUSH2 0x1247 DUP2 DUP4 DUP9 PUSH2 0x294E JUMP JUMPDEST DUP2 ADD SWAP1 PUSH1 0x3 DUP3 MSTORE DUP9 DUP2 PUSH1 0x1 DUP1 PUSH1 0xA0 SHL SUB SWAP4 SUB ADD SWAP1 KECCAK256 SLOAD AND CALLER EQ PUSH2 0x2E7D JUMP JUMPDEST AND DUP1 DUP4 MSTORE PUSH1 0x7 DUP6 MSTORE PUSH2 0x127C PUSH1 0x40 DUP5 KECCAK256 SLOAD ISZERO ISZERO PUSH2 0x2F15 JUMP JUMPDEST PUSH1 0x2 PUSH1 0x1 SLOAD EQ PUSH2 0x15AA JUMPI PUSH1 0x2 PUSH1 0x1 SSTORE PUSH2 0x1293 PUSH2 0x2E13 JUMP JUMPDEST DUP1 DUP4 MSTORE PUSH1 0x7 DUP6 MSTORE PUSH1 0x40 DUP4 KECCAK256 SWAP2 PUSH1 0x1 PUSH1 0x1 PUSH1 0x40 SHL SUB PUSH1 0x2 DUP5 ADD SLOAD PUSH1 0x40 SHR AND TIMESTAMP GT ISZERO PUSH2 0x1567 JUMPI PUSH1 0x40 MLOAD DUP7 DUP2 DUP8 MLOAD PUSH2 0x12C9 DUP2 DUP4 DUP8 PUSH2 0x294E JUMP JUMPDEST DUP2 ADD PUSH1 0xC DUP2 MSTORE SUB ADD SWAP1 KECCAK256 DUP3 DUP6 MSTORE DUP7 MSTORE PUSH1 0x40 DUP5 KECCAK256 SLOAD SWAP5 PUSH1 0x40 MLOAD DUP8 DUP2 DUP4 MLOAD PUSH2 0x12F0 DUP2 DUP4 DUP9 PUSH2 0x294E JUMP JUMPDEST DUP2 ADD PUSH1 0xD DUP2 MSTORE SUB ADD SWAP1 KECCAK256 DUP4 DUP7 MSTORE DUP8 MSTORE PUSH1 0x40 DUP6 KECCAK256 SLOAD SWAP6 DUP1 ISZERO SWAP7 DUP8 ISZERO DUP1 SWAP9 PUSH2 0x155E JUMPI JUMPDEST ISZERO PUSH2 0x150D JUMPI PUSH1 0x40 MLOAD DUP10 DUP2 DUP6 MLOAD PUSH2 0x1328 DUP2 DUP4 DUP11 PUSH2 0x294E JUMP JUMPDEST DUP2 ADD PUSH1 0x8 DUP2 MSTORE SUB ADD SWAP1 KECCAK256 DUP6 DUP9 MSTORE DUP10 MSTORE PUSH1 0x40 DUP8 KECCAK256 SLOAD PUSH2 0x14C8 JUMPI DUP5 DUP8 MSTORE PUSH1 0xF DUP10 MSTORE PUSH1 0x40 DUP8 KECCAK256 SLOAD PUSH1 0x10 DUP11 MSTORE PUSH1 0x40 DUP9 KECCAK256 SLOAD SWAP3 DUP9 SWAP10 DUP3 ISZERO ISZERO SWAP1 DUP2 PUSH2 0x14C0 JUMPI JUMPDEST POP PUSH2 0x147A JUMPI JUMPDEST POP POP DUP2 ISZERO ISZERO DUP1 PUSH2 0x1471 JUMPI JUMPDEST PUSH2 0x1428 JUMPI JUMPDEST POP POP DUP6 ISZERO PUSH2 0x13E3 JUMPI SWAP2 PUSH2 0x139F DUP8 PUSH2 0x13D7 SWAP7 SWAP6 SWAP4 PUSH1 0x1 SWAP6 PUSH1 0x40 MLOAD SWAP4 DUP5 SWAP3 DUP4 SWAP3 MLOAD SWAP3 DUP4 SWAP2 PUSH2 0x294E JUMP JUMPDEST DUP2 ADD PUSH1 0x8 DUP2 MSTORE SUB ADD SWAP1 KECCAK256 SWAP1 DUP5 MSTORE DUP7 MSTORE DUP5 PUSH1 0x40 DUP5 KECCAK256 SSTORE ADD PUSH2 0x13C0 DUP5 DUP3 SLOAD PUSH2 0x2F74 JUMP JUMPDEST SWAP1 SSTORE DUP1 DUP1 DUP1 DUP6 CALLER GAS CALL PUSH2 0x13D1 PUSH2 0x2FA1 JUMP JUMPDEST POP PUSH2 0x2FD1 JUMP JUMPDEST PUSH1 0x1 DUP1 SSTORE PUSH1 0x40 MLOAD SWAP1 DUP2 MSTORE RETURN JUMPDEST PUSH1 0x40 MLOAD PUSH3 0x461BCD PUSH1 0xE5 SHL DUP2 MSTORE PUSH1 0x4 DUP2 ADD DUP9 SWAP1 MSTORE PUSH1 0x1F PUSH1 0x24 DUP3 ADD MSTORE PUSH32 0x43726F73734572613A204E6F20726577617264732063616C63756C6174656400 PUSH1 0x44 DUP3 ADD MSTORE PUSH1 0x64 SWAP1 REVERT JUMPDEST DUP6 SWAP8 SWAP3 SWAP8 SLOAD PUSH1 0x1E DUP2 MUL SWAP1 DUP1 DUP3 DIV PUSH1 0x1E EQ SWAP1 ISZERO OR ISZERO PUSH2 0x145D JUMPI SWAP2 PUSH2 0x39D PUSH2 0x3A2 SWAP3 PUSH1 0x64 PUSH2 0x1455 SWAP7 SWAP6 DIV PUSH2 0x2F61 JUMP JUMPDEST SWAP5 CODESIZE DUP1 PUSH2 0x1378 JUMP JUMPDEST PUSH4 0x4E487B71 PUSH1 0xE0 SHL DUP9 MSTORE PUSH1 0x11 PUSH1 0x4 MSTORE PUSH1 0x24 DUP9 REVERT JUMPDEST POP DUP1 ISZERO ISZERO PUSH2 0x1373 JUMP JUMPDEST SWAP1 SWAP2 SWAP9 POP DUP7 SLOAD PUSH1 0x46 DUP2 MUL SWAP1 DUP1 DUP3 DIV PUSH1 0x46 EQ SWAP1 ISZERO OR ISZERO PUSH2 0x14AC JUMPI PUSH2 0x14A4 SWAP3 SWAP2 PUSH1 0x64 PUSH2 0x39D SWAP3 DIV PUSH2 0x2F61 JUMP JUMPDEST SWAP7 CODESIZE DUP1 PUSH2 0x1368 JUMP JUMPDEST PUSH4 0x4E487B71 PUSH1 0xE0 SHL DUP10 MSTORE PUSH1 0x11 PUSH1 0x4 MSTORE PUSH1 0x24 DUP10 REVERT JUMPDEST SWAP1 POP CODESIZE PUSH2 0x1362 JUMP JUMPDEST PUSH1 0x40 MLOAD PUSH3 0x461BCD PUSH1 0xE5 SHL DUP2 MSTORE PUSH1 0x4 DUP2 ADD DUP11 SWAP1 MSTORE PUSH1 0x19 PUSH1 0x24 DUP3 ADD MSTORE PUSH32 0x43726F73734572613A20416C726561647920636C61696D656400000000000000 PUSH1 0x44 DUP3 ADD MSTORE PUSH1 0x64 SWAP1 REVERT JUMPDEST PUSH1 0x40 MLOAD PUSH3 0x461BCD PUSH1 0xE5 SHL DUP2 MSTORE PUSH1 0x4 DUP2 ADD DUP11 SWAP1 MSTORE PUSH1 0x23 PUSH1 0x24 DUP3 ADD MSTORE PUSH32 0x43726F73734572613A204E6F20636F6E747269627574696F6E7320746F20636C PUSH1 0x44 DUP3 ADD MSTORE PUSH3 0x61696D PUSH1 0xE8 SHL PUSH1 0x64 DUP3 ADD MSTORE PUSH1 0x84 SWAP1 REVERT JUMPDEST POP DUP1 ISZERO ISZERO PUSH2 0x1311 JUMP JUMPDEST PUSH1 0x64 DUP7 PUSH1 0x40 MLOAD SWAP1 PUSH3 0x461BCD PUSH1 0xE5 SHL DUP3 MSTORE DUP1 PUSH1 0x4 DUP4 ADD MSTORE PUSH1 0x24 DUP3 ADD MSTORE PUSH32 0x43726F73734572613A2043616D706169676E206E6F7420656E64656420796574 PUSH1 0x44 DUP3 ADD MSTORE REVERT JUMPDEST PUSH1 0x40 MLOAD PUSH4 0x3EE5AEB5 PUSH1 0xE0 SHL DUP2 MSTORE PUSH1 0x4 SWAP1 REVERT JUMPDEST POP CALLVALUE PUSH2 0x41B JUMPI PUSH1 0xA0 CALLDATASIZE PUSH1 0x3 NOT ADD SLT PUSH2 0x41B JUMPI PUSH1 0x1 PUSH1 0x1 PUSH1 0x40 SHL SUB PUSH1 0x4 CALLDATALOAD DUP2 DUP2 GT PUSH2 0xACB JUMPI PUSH2 0x15EE SWAP1 CALLDATASIZE SWAP1 PUSH1 0x4 ADD PUSH2 0x28C9 JUMP JUMPDEST SWAP1 PUSH1 0x24 CALLDATALOAD DUP2 DUP2 GT PUSH2 0xAC7 JUMPI PUSH2 0x1607 SWAP1 CALLDATASIZE SWAP1 PUSH1 0x4 ADD PUSH2 0x28C9 JUMP JUMPDEST SWAP2 PUSH1 0x44 CALLDATALOAD DUP3 DUP2 GT PUSH2 0x171C JUMPI PUSH2 0x1620 SWAP1 CALLDATASIZE SWAP1 PUSH1 0x4 ADD PUSH2 0x28C9 JUMP JUMPDEST POP PUSH1 0x64 CALLDATALOAD DUP3 DUP2 GT PUSH2 0x171C JUMPI PUSH2 0x1639 SWAP1 CALLDATASIZE SWAP1 PUSH1 0x4 ADD PUSH2 0x28C9 JUMP JUMPDEST POP PUSH1 0x84 CALLDATALOAD SWAP2 DUP3 GT PUSH2 0xAC7 JUMPI PUSH2 0x1655 PUSH2 0x16A5 SWAP3 CALLDATASIZE SWAP1 PUSH1 0x4 ADD PUSH2 0x28C9 JUMP JUMPDEST POP PUSH1 0x40 MLOAD SWAP1 PUSH2 0x1674 PUSH1 0xFF DUP3 MLOAD SWAP4 PUSH1 0x20 DUP2 DUP2 DUP7 ADD SWAP7 PUSH2 0x1223 DUP2 DUP4 DUP11 PUSH2 0x294E JUMP JUMPDEST PUSH2 0x1686 PUSH1 0x40 MLOAD SWAP3 DUP4 SWAP3 MLOAD SWAP3 DUP4 SWAP2 PUSH2 0x294E JUMP JUMPDEST DUP2 ADD SWAP1 PUSH1 0x3 DUP3 MSTORE PUSH1 0x20 DUP2 PUSH1 0x1 DUP1 PUSH1 0xA0 SHL SUB SWAP4 SUB ADD SWAP1 KECCAK256 SLOAD AND CALLER EQ PUSH2 0x2E7D JUMP JUMPDEST PUSH2 0x16AD PUSH2 0x2E13 JUMP JUMPDEST MLOAD DUP1 ISZERO ISZERO SWAP1 DUP2 PUSH2 0x1710 JUMPI JUMPDEST POP ISZERO PUSH2 0x16C1 JUMPI DUP1 RETURN JUMPDEST PUSH1 0x40 MLOAD PUSH3 0x461BCD PUSH1 0xE5 SHL DUP2 MSTORE PUSH1 0x20 PUSH1 0x4 DUP3 ADD MSTORE PUSH1 0x21 PUSH1 0x24 DUP3 ADD MSTORE PUSH32 0x43726F73734572613A20496E76616C696420617070206E616D65206C656E6774 PUSH1 0x44 DUP3 ADD MSTORE PUSH1 0xD PUSH1 0xFB SHL PUSH1 0x64 DUP3 ADD MSTORE PUSH1 0x84 SWAP1 REVERT JUMPDEST PUSH1 0x40 SWAP2 POP GT ISZERO CODESIZE PUSH2 0x16B8 JUMP JUMPDEST DUP5 DUP1 REVERT JUMPDEST POP CALLVALUE PUSH2 0x41B JUMPI PUSH1 0x40 CALLDATASIZE PUSH1 0x3 NOT ADD SLT PUSH2 0x41B JUMPI PUSH2 0x173A PUSH2 0x2971 JUMP JUMPDEST PUSH1 0x24 CALLDATALOAD SWAP2 PUSH1 0x1 PUSH1 0x1 PUSH1 0x40 SHL SUB DUP4 GT PUSH2 0x41B JUMPI POP PUSH2 0x175D PUSH1 0x20 SWAP3 CALLDATASIZE SWAP1 PUSH1 0x4 ADD PUSH2 0x28C9 JUMP JUMPDEST DUP3 PUSH2 0x1771 PUSH1 0x40 MLOAD SWAP3 DUP4 DUP2 MLOAD SWAP4 DUP5 SWAP3 ADD PUSH2 0x294E JUMP JUMPDEST PUSH1 0x3 SWAP1 DUP3 ADD SWAP1 DUP2 MSTORE DUP2 SWAP1 SUB DUP4 ADD SWAP1 KECCAK256 SLOAD PUSH1 0x40 MLOAD PUSH1 0x1 PUSH1 0x1 PUSH1 0xA0 SHL SUB SWAP3 DUP4 AND SWAP2 SWAP1 SWAP3 AND EQ DUP2 MSTORE RETURN JUMPDEST POP CALLVALUE PUSH2 0x41B JUMPI PUSH1 0x60 CALLDATASIZE PUSH1 0x3 NOT ADD SLT PUSH2 0x41B JUMPI PUSH1 0x1 PUSH1 0x1 PUSH1 0x40 SHL SUB PUSH1 0x4 CALLDATALOAD DUP2 DUP2 GT PUSH2 0xACB JUMPI PUSH2 0x17CA SWAP1 CALLDATASIZE SWAP1 PUSH1 0x4 ADD PUSH2 0x28C9 JUMP JUMPDEST SWAP1 PUSH1 0x24 CALLDATALOAD SWAP1 PUSH1 0xFF DUP3 AND DUP1 SWAP3 SUB PUSH2 0xAC7 JUMPI PUSH1 0x44 CALLDATALOAD SWAP1 DUP2 GT PUSH2 0xAC7 JUMPI PUSH1 0x2 SWAP3 PUSH2 0x1655 PUSH2 0x17F8 SWAP3 CALLDATASIZE SWAP1 PUSH1 0x4 ADD PUSH2 0x28C9 JUMP JUMPDEST PUSH2 0x1800 PUSH2 0x2E13 JUMP JUMPDEST GT PUSH2 0x1808 JUMPI DUP1 RETURN JUMPDEST PUSH1 0x40 MLOAD PUSH3 0x461BCD PUSH1 0xE5 SHL DUP2 MSTORE PUSH1 0x20 PUSH1 0x4 DUP3 ADD MSTORE PUSH1 0x18 PUSH1 0x24 DUP3 ADD MSTORE PUSH32 0x43726F73734572613A20496E76616C6964207374617475730000000000000000 PUSH1 0x44 DUP3 ADD MSTORE PUSH1 0x64 SWAP1 REVERT JUMPDEST POP CALLVALUE PUSH2 0x41B JUMPI PUSH1 0x40 PUSH1 0x20 SWAP2 DUP3 PUSH4 0xFFFFFFFF PUSH2 0x186A PUSH2 0x474 CALLDATASIZE PUSH2 0x2910 JUMP JUMPDEST DUP2 ADD PUSH1 0xE DUP2 MSTORE SUB ADD SWAP1 KECCAK256 SWAP2 AND DUP3 MSTORE DUP4 MSTORE KECCAK256 SLOAD PUSH1 0x40 MLOAD SWAP1 DUP2 MSTORE RETURN JUMPDEST POP CALLVALUE PUSH2 0x41B JUMPI DUP1 PUSH1 0x3 NOT CALLDATASIZE ADD SLT PUSH2 0x41B JUMPI PUSH1 0x20 PUSH4 0xFFFFFFFF PUSH1 0x12 SLOAD PUSH1 0x40 SHR AND PUSH1 0x40 MLOAD SWAP1 DUP2 MSTORE RETURN JUMPDEST POP CALLVALUE PUSH2 0x41B JUMPI PUSH1 0x20 CALLDATASIZE PUSH1 0x3 NOT ADD SLT PUSH2 0x41B JUMPI PUSH1 0x4 CALLDATALOAD PUSH1 0x1 PUSH1 0x1 PUSH1 0x40 SHL SUB DUP2 GT PUSH2 0x78A JUMPI PUSH2 0x18DC SWAP1 CALLDATASIZE SWAP1 PUSH1 0x4 ADD PUSH2 0x28C9 JUMP JUMPDEST POP PUSH1 0x0 DUP1 MLOAD PUSH1 0x20 PUSH2 0x3080 DUP4 CODECOPY DUP2 MLOAD SWAP2 MSTORE DUP2 MSTORE DUP1 PUSH1 0x20 MSTORE PUSH1 0x40 DUP2 KECCAK256 CALLER DUP3 MSTORE PUSH1 0x20 MSTORE PUSH2 0x190C PUSH1 0xFF PUSH1 0x40 DUP4 KECCAK256 SLOAD AND PUSH2 0x301D JUMP JUMPDEST PUSH1 0x2 SLOAD PUSH1 0xFF DUP2 AND ISZERO PUSH2 0x194C JUMPI PUSH1 0xFF NOT AND PUSH1 0x2 SSTORE PUSH32 0x5DB9EE0A495BF2E6FF9C91A7834C1BA4FDD244A5E8AA4E537BD38AEAE4B073AA PUSH1 0x20 PUSH1 0x40 MLOAD CALLER DUP2 MSTORE LOG1 DUP1 RETURN JUMPDEST PUSH1 0x40 MLOAD PUSH4 0x8DFC202B PUSH1 0xE0 SHL DUP2 MSTORE PUSH1 0x4 SWAP1 REVERT JUMPDEST POP CALLVALUE PUSH2 0x41B JUMPI DUP1 PUSH1 0x3 NOT CALLDATASIZE ADD SLT PUSH2 0x41B JUMPI PUSH1 0x20 PUSH1 0xFF PUSH1 0x2 SLOAD AND PUSH1 0x40 MLOAD SWAP1 ISZERO ISZERO DUP2 MSTORE RETURN JUMPDEST POP CALLVALUE PUSH2 0x41B JUMPI PUSH1 0x20 DUP1 PUSH1 0x3 NOT CALLDATASIZE ADD SLT PUSH2 0x78A JUMPI PUSH1 0x4 CALLDATALOAD PUSH1 0x1 PUSH1 0x1 PUSH1 0x40 SHL SUB DUP2 GT PUSH2 0xACB JUMPI DUP2 PUSH2 0x119C PUSH2 0x19B7 SWAP3 CALLDATASIZE SWAP1 PUSH1 0x4 ADD PUSH2 0x28C9 JUMP JUMPDEST DUP2 ADD PUSH1 0xB DUP2 MSTORE SUB ADD SWAP1 KECCAK256 SWAP1 PUSH1 0x40 MLOAD SWAP1 DUP2 DUP3 DUP3 DUP1 DUP7 SLOAD SWAP4 DUP5 DUP2 MSTORE ADD DUP1 SWAP7 DUP9 MSTORE DUP2 DUP9 KECCAK256 SWAP4 DUP9 SWAP1 JUMPDEST DUP1 PUSH1 0x7 DUP4 ADD LT PUSH2 0x1B38 JUMPI PUSH2 0x1A3B SWAP6 SLOAD SWAP2 DUP5 DUP3 DUP3 LT PUSH2 0x1B22 JUMPI JUMPDEST DUP3 DUP3 LT PUSH2 0x1B0A JUMPI JUMPDEST DUP3 DUP3 LT PUSH2 0x1AF1 JUMPI JUMPDEST DUP3 DUP3 LT PUSH2 0x1AD8 JUMPI JUMPDEST DUP3 DUP3 LT PUSH2 0x1ABF JUMPI JUMPDEST DUP3 DUP3 LT PUSH2 0x1AA6 JUMPI JUMPDEST DUP3 DUP3 LT PUSH2 0x1A8D JUMPI JUMPDEST POP LT PUSH2 0x1A7F JUMPI JUMPDEST POP SWAP1 POP SWAP6 SWAP3 SWAP5 SWAP4 SWAP6 SUB DUP6 PUSH2 0x288D JUMP JUMPDEST PUSH1 0x40 MLOAD SWAP4 DUP4 DUP6 SWAP5 DUP6 ADD SWAP2 DUP2 DUP7 MSTORE MLOAD DUP1 SWAP3 MSTORE PUSH1 0x40 DUP6 ADD SWAP4 SWAP3 JUMPDEST DUP3 DUP2 LT PUSH2 0x1A62 JUMPI POP POP POP POP SUB SWAP1 RETURN JUMPDEST DUP4 MLOAD PUSH4 0xFFFFFFFF AND DUP6 MSTORE DUP7 SWAP6 POP SWAP4 DUP2 ADD SWAP4 SWAP3 DUP2 ADD SWAP3 PUSH1 0x1 ADD PUSH2 0x1A53 JUMP JUMPDEST PUSH1 0xE0 SHR DUP2 MSTORE ADD DUP4 SWAP1 CODESIZE PUSH2 0x1A2C JUMP JUMPDEST PUSH1 0x1 SWAP2 SWAP5 PUSH4 0xFFFFFFFF DUP6 PUSH1 0xC0 SHR AND DUP2 MSTORE ADD SWAP4 ADD DUP5 PUSH2 0x1A25 JUMP JUMPDEST PUSH1 0x1 SWAP2 SWAP5 PUSH4 0xFFFFFFFF DUP6 PUSH1 0xA0 SHR AND DUP2 MSTORE ADD SWAP4 ADD DUP5 PUSH2 0x1A1D JUMP JUMPDEST PUSH1 0x1 SWAP2 SWAP5 PUSH4 0xFFFFFFFF DUP6 PUSH1 0x80 SHR AND DUP2 MSTORE ADD SWAP4 ADD DUP5 PUSH2 0x1A15 JUMP JUMPDEST PUSH1 0x1 SWAP2 SWAP5 PUSH4 0xFFFFFFFF DUP6 PUSH1 0x60 SHR AND DUP2 MSTORE ADD SWAP4 ADD DUP5 PUSH2 0x1A0D JUMP JUMPDEST PUSH1 0x1 SWAP2 SWAP5 PUSH4 0xFFFFFFFF DUP6 PUSH1 0x40 SHR AND DUP2 MSTORE ADD SWAP4 ADD DUP5 PUSH2 0x1A05 JUMP JUMPDEST PUSH1 0x1 SWAP2 SWAP5 PUSH4 0xFFFFFFFF DUP6 DUP4 SHR AND DUP2 MSTORE ADD SWAP4 ADD DUP5 PUSH2 0x19FD JUMP JUMPDEST PUSH1 0x1 SWAP2 SWAP5 PUSH4 0xFFFFFFFF DUP6 AND DUP2 MSTORE ADD SWAP4 ADD DUP5 PUSH2 0x19F5 JUMP JUMPDEST SWAP3 POP SWAP3 POP PUSH1 0x1 PUSH2 0x100 PUSH1 0x8 SWAP3 DUP7 SLOAD PUSH4 0xFFFFFFFF DUP1 DUP3 AND DUP4 MSTORE DUP1 DUP3 DUP12 SHR AND DUP11 DUP5 ADD MSTORE DUP1 DUP3 PUSH1 0x40 SHR AND PUSH1 0x40 DUP5 ADD MSTORE PUSH1 0x60 DUP2 DUP4 DUP3 SHR AND SWAP1 DUP5 ADD MSTORE PUSH1 0x80 DUP2 DUP4 DUP3 SHR AND SWAP1 DUP5 ADD MSTORE PUSH1 0xA0 DUP2 DUP4 DUP3 SHR AND SWAP1 DUP5 ADD MSTORE PUSH1 0xC0 SWAP1 DUP3 DUP3 SHR AND SWAP1 DUP4 ADD MSTORE PUSH1 0xE0 SHR PUSH1 0xE0 DUP3 ADD MSTORE ADD SWAP5 ADD SWAP3 ADD SWAP3 DUP6 SWAP3 SWAP4 DUP6 SWAP3 PUSH2 0x19DC JUMP JUMPDEST POP CALLVALUE PUSH2 0x41B JUMPI PUSH1 0x20 CALLDATASIZE PUSH1 0x3 NOT ADD SLT PUSH2 0x41B JUMPI PUSH1 0x40 PUSH1 0x20 SWAP2 PUSH4 0xFFFFFFFF PUSH2 0x1BCC PUSH2 0x2844 JUMP JUMPDEST AND DUP2 MSTORE PUSH1 0x10 DUP4 MSTORE KECCAK256 SLOAD PUSH1 0x40 MLOAD SWAP1 DUP2 MSTORE RETURN JUMPDEST POP CALLVALUE PUSH2 0x41B JUMPI PUSH1 0x40 CALLDATASIZE PUSH1 0x3 NOT ADD SLT PUSH2 0x41B JUMPI PUSH1 0x4 CALLDATALOAD PUSH1 0x24 CALLDATALOAD PUSH1 0x1 PUSH1 0x1 PUSH1 0x40 SHL SUB DUP2 GT PUSH2 0xACB JUMPI PUSH2 0x1C11 SWAP1 CALLDATASIZE SWAP1 PUSH1 0x4 ADD PUSH2 0x28C9 JUMP JUMPDEST POP PUSH1 0x0 DUP1 MLOAD PUSH1 0x20 PUSH2 0x3080 DUP4 CODECOPY DUP2 MLOAD SWAP2 MSTORE DUP3 MSTORE DUP2 PUSH1 0x20 MSTORE PUSH1 0x40 DUP3 KECCAK256 CALLER DUP4 MSTORE PUSH1 0x20 MSTORE PUSH2 0x1C41 PUSH1 0xFF PUSH1 0x40 DUP5 KECCAK256 SLOAD AND PUSH2 0x301D JUMP JUMPDEST SELFBALANCE DUP2 GT PUSH2 0x1C5E JUMPI DUP2 DUP1 DUP1 DUP1 PUSH2 0x1C5B SWAP5 CALLER GAS CALL PUSH2 0x13D1 PUSH2 0x2FA1 JUMP JUMPDEST DUP1 RETURN JUMPDEST PUSH1 0x40 MLOAD PUSH3 0x461BCD PUSH1 0xE5 SHL DUP2 MSTORE PUSH1 0x20 PUSH1 0x4 DUP3 ADD MSTORE PUSH1 0x1E PUSH1 0x24 DUP3 ADD MSTORE PUSH32 0x43726F73734572613A20496E73756666696369656E742062616C616E63650000 PUSH1 0x44 DUP3 ADD MSTORE PUSH1 0x64 SWAP1 REVERT JUMPDEST POP CALLVALUE PUSH2 0x41B JUMPI PUSH1 0x20 CALLDATASIZE PUSH1 0x3 NOT ADD SLT PUSH2 0x41B JUMPI PUSH1 0x40 PUSH1 0x20 SWAP2 PUSH4 0xFFFFFFFF PUSH2 0x1CC7 PUSH2 0x2844 JUMP JUMPDEST AND DUP2 MSTORE PUSH1 0xF DUP4 MSTORE KECCAK256 SLOAD PUSH1 0x40 MLOAD SWAP1 DUP2 MSTORE RETURN JUMPDEST POP CALLVALUE PUSH2 0x41B JUMPI PUSH1 0x40 CALLDATASIZE PUSH1 0x3 NOT ADD SLT PUSH2 0x41B JUMPI PUSH2 0x1CF2 PUSH2 0x2987 JUMP JUMPDEST CALLER PUSH1 0x1 PUSH1 0x1 PUSH1 0xA0 SHL SUB DUP3 AND SUB PUSH2 0x1D0E JUMPI PUSH2 0x800 SWAP1 PUSH1 0x4 CALLDATALOAD PUSH2 0x2C3E JUMP JUMPDEST PUSH1 0x40 MLOAD PUSH4 0x334BD919 PUSH1 0xE1 SHL DUP2 MSTORE PUSH1 0x4 SWAP1 REVERT JUMPDEST POP CALLVALUE PUSH2 0x41B JUMPI PUSH1 0x40 CALLDATASIZE PUSH1 0x3 NOT ADD SLT PUSH2 0x41B JUMPI PUSH2 0x800 PUSH1 0x4 CALLDATALOAD PUSH2 0x1D40 PUSH2 0x2987 JUMP JUMPDEST SWAP1 DUP1 DUP5 MSTORE DUP4 PUSH1 0x20 MSTORE PUSH2 0x1D58 PUSH1 0x1 PUSH1 0x40 DUP7 KECCAK256 ADD SLOAD PUSH2 0x2B7C JUMP JUMPDEST PUSH2 0x2BC0 JUMP JUMPDEST POP CALLVALUE PUSH2 0x41B JUMPI PUSH1 0x40 CALLDATASIZE PUSH1 0x3 NOT ADD SLT PUSH2 0x41B JUMPI PUSH2 0x1D77 PUSH2 0x2844 JUMP JUMPDEST PUSH4 0xFFFFFFFF AND DUP2 MSTORE PUSH1 0xA PUSH1 0x20 MSTORE PUSH1 0x40 DUP2 KECCAK256 DUP1 SLOAD PUSH1 0x24 CALLDATALOAD SWAP3 SWAP1 DUP4 LT ISZERO PUSH2 0x41B JUMPI PUSH2 0x5D1 PUSH2 0x5BD PUSH2 0x5B7 DUP6 DUP6 PUSH2 0x2A5D JUMP JUMPDEST POP CALLVALUE PUSH2 0x41B JUMPI PUSH1 0x40 CALLDATASIZE PUSH1 0x3 NOT ADD SLT PUSH2 0x41B JUMPI PUSH1 0x4 CALLDATALOAD PUSH1 0x1 PUSH1 0x1 PUSH1 0x40 SHL SUB DUP2 GT PUSH2 0x78A JUMPI PUSH2 0x1DD7 SWAP1 CALLDATASIZE SWAP1 PUSH1 0x4 ADD PUSH2 0x28C9 JUMP JUMPDEST SWAP1 PUSH2 0x1DF4 PUSH1 0x20 PUSH1 0x24 CALLDATALOAD SWAP4 DUP2 PUSH1 0x40 MLOAD SWAP4 DUP3 DUP6 DUP1 SWAP5 MLOAD SWAP4 DUP5 SWAP3 ADD PUSH2 0x294E JUMP JUMPDEST DUP2 ADD PUSH1 0xB DUP2 MSTORE SUB ADD SWAP1 KECCAK256 SWAP1 DUP2 SLOAD DUP4 LT ISZERO PUSH2 0x41B JUMPI PUSH1 0x20 PUSH4 0xFFFFFFFF PUSH2 0x1E19 DUP6 DUP6 PUSH2 0x2A24 JUMP JUMPDEST SWAP2 SWAP1 SLOAD PUSH1 0x40 MLOAD SWAP3 PUSH1 0x3 SHL SHR AND DUP2 MSTORE RETURN JUMPDEST POP CALLVALUE PUSH2 0x41B JUMPI PUSH1 0x20 CALLDATASIZE PUSH1 0x3 NOT ADD SLT PUSH2 0x41B JUMPI PUSH1 0x1 PUSH1 0x40 PUSH1 0x20 SWAP3 PUSH1 0x4 CALLDATALOAD DUP2 MSTORE DUP1 DUP5 MSTORE KECCAK256 ADD SLOAD PUSH1 0x40 MLOAD SWAP1 DUP2 MSTORE RETURN JUMPDEST POP CALLVALUE PUSH2 0x41B JUMPI PUSH1 0x40 PUSH1 0x20 SWAP2 DUP3 PUSH4 0xFFFFFFFF PUSH2 0x1E72 PUSH2 0x474 CALLDATASIZE PUSH2 0x2910 JUMP JUMPDEST DUP2 ADD PUSH1 0xC DUP2 MSTORE SUB ADD SWAP1 KECCAK256 SWAP2 AND DUP3 MSTORE DUP4 MSTORE KECCAK256 SLOAD PUSH1 0x40 MLOAD SWAP1 DUP2 MSTORE RETURN JUMPDEST POP CALLVALUE PUSH2 0x41B JUMPI PUSH1 0x20 CALLDATASIZE PUSH1 0x3 NOT ADD SLT PUSH2 0x41B JUMPI PUSH1 0x60 SWAP1 PUSH4 0xFFFFFFFF PUSH2 0x1EAE PUSH2 0x2844 JUMP JUMPDEST AND DUP2 MSTORE PUSH1 0xF PUSH1 0x20 MSTORE PUSH1 0x40 DUP2 KECCAK256 SLOAD SWAP1 PUSH1 0x10 PUSH1 0x20 MSTORE PUSH1 0x40 DUP1 DUP3 KECCAK256 SLOAD SWAP2 PUSH1 0x11 PUSH1 0x20 MSTORE KECCAK256 SLOAD SWAP1 PUSH1 0x40 MLOAD SWAP3 DUP4 MSTORE PUSH1 0x20 DUP4 ADD MSTORE PUSH1 0x40 DUP3 ADD MSTORE RETURN JUMPDEST POP CALLVALUE PUSH2 0x41B JUMPI PUSH1 0xA0 CALLDATASIZE PUSH1 0x3 NOT ADD SLT PUSH2 0x41B JUMPI PUSH1 0x4 CALLDATALOAD PUSH1 0x1 PUSH1 0x1 PUSH1 0x40 SHL SUB DUP2 GT PUSH2 0x78A JUMPI PUSH2 0x1F13 SWAP1 CALLDATASIZE SWAP1 PUSH1 0x4 ADD PUSH2 0x28C9 JUMP JUMPDEST SWAP1 PUSH1 0x24 CALLDATALOAD PUSH32 0xCE23C3E399818CFEE81A7AB0880F714E53D7672B08DF0FA62F2843416E1EA09 DUP3 MSTORE DUP2 PUSH1 0x20 MSTORE PUSH1 0x40 DUP3 KECCAK256 CALLER DUP4 MSTORE PUSH1 0x20 MSTORE PUSH1 0xFF PUSH1 0x40 DUP4 KECCAK256 SLOAD AND ISZERO PUSH2 0x23C2 JUMPI PUSH2 0x1F6F PUSH1 0xFF PUSH1 0x40 MLOAD PUSH1 0x20 DUP2 DUP8 MLOAD PUSH2 0x1223 DUP2 DUP4 DUP6 DUP13 ADD PUSH2 0x294E JUMP JUMPDEST PUSH2 0x1F77 PUSH2 0x2E13 JUMP JUMPDEST DUP1 DUP3 MSTORE PUSH1 0x6 PUSH1 0x20 MSTORE PUSH1 0xFF PUSH1 0x40 DUP4 KECCAK256 SLOAD AND PUSH2 0x236D JUMPI DUP1 ISZERO PUSH2 0x231D JUMPI DUP2 MSTORE PUSH1 0x6 PUSH1 0x20 MSTORE PUSH1 0x40 DUP2 KECCAK256 DUP1 SLOAD PUSH1 0xFF NOT AND PUSH1 0x1 OR SWAP1 SSTORE PUSH2 0x1FB5 PUSH1 0x64 CALLDATALOAD PUSH1 0x44 CALLDATALOAD PUSH2 0x2F61 JUMP JUMPDEST PUSH1 0x40 MLOAD PUSH1 0x20 DUP2 DUP6 MLOAD PUSH2 0x1FCA DUP2 DUP4 DUP6 DUP11 ADD PUSH2 0x294E JUMP JUMPDEST DUP2 ADD PUSH1 0xB DUP2 MSTORE SUB ADD SWAP1 KECCAK256 SWAP3 PUSH1 0x40 MLOAD DUP1 DUP6 PUSH1 0x20 DUP3 SWAP8 SLOAD SWAP4 DUP5 DUP2 MSTORE ADD SWAP1 DUP7 MSTORE PUSH1 0x20 DUP7 KECCAK256 SWAP3 DUP7 SWAP1 JUMPDEST DUP1 PUSH1 0x7 DUP4 ADD LT PUSH2 0x22AD JUMPI PUSH2 0x2045 SWAP5 SLOAD SWAP2 DUP2 DUP2 LT PUSH2 0x2296 JUMPI JUMPDEST DUP2 DUP2 LT PUSH2 0x227D JUMPI JUMPDEST DUP2 DUP2 LT PUSH2 0x2263 JUMPI JUMPDEST DUP2 DUP2 LT PUSH2 0x2249 JUMPI JUMPDEST DUP2 DUP2 LT PUSH2 0x222F JUMPI JUMPDEST DUP2 DUP2 LT PUSH2 0x2215 JUMPI JUMPDEST DUP2 DUP2 LT PUSH2 0x21FB JUMPI JUMPDEST LT PUSH2 0x21ED JUMPI JUMPDEST POP SUB DUP6 PUSH2 0x288D JUMP JUMPDEST DUP3 JUMPDEST DUP5 MLOAD DUP2 LT ISZERO PUSH2 0x21E9 JUMPI PUSH4 0xFFFFFFFF PUSH1 0x20 DUP3 PUSH1 0x5 SHL DUP8 ADD ADD MLOAD AND DUP1 DUP6 MSTORE PUSH1 0x7 PUSH1 0x20 MSTORE PUSH1 0x2 PUSH1 0x40 DUP7 KECCAK256 ADD SLOAD PUSH1 0xFF DUP2 PUSH1 0x80 SHR AND SWAP1 DUP2 PUSH2 0x21D5 JUMPI JUMPDEST DUP2 PUSH2 0x21BE JUMPI JUMPDEST POP PUSH2 0x20B0 JUMPI JUMPDEST POP PUSH1 0x0 NOT DUP2 EQ PUSH2 0x209C JUMPI PUSH1 0x1 ADD PUSH2 0x2047 JUMP JUMPDEST PUSH4 0x4E487B71 PUSH1 0xE0 SHL DUP5 MSTORE PUSH1 0x11 PUSH1 0x4 MSTORE PUSH1 0x24 DUP5 REVERT JUMPDEST PUSH1 0x40 MLOAD PUSH1 0x20 DUP2 DUP6 MLOAD PUSH2 0x20C5 DUP2 DUP4 DUP6 DUP11 ADD PUSH2 0x294E JUMP JUMPDEST DUP2 ADD PUSH1 0xC DUP2 MSTORE SUB ADD SWAP1 KECCAK256 DUP2 DUP7 MSTORE PUSH1 0x20 MSTORE PUSH1 0x40 DUP6 KECCAK256 PUSH2 0x20E4 DUP6 DUP3 SLOAD PUSH2 0x2F74 JUMP JUMPDEST SWAP1 SSTORE PUSH1 0x40 MLOAD PUSH1 0x20 DUP2 DUP6 MLOAD PUSH2 0x20FB DUP2 DUP4 DUP6 DUP11 ADD PUSH2 0x294E JUMP JUMPDEST DUP2 ADD PUSH1 0xD DUP2 MSTORE SUB ADD SWAP1 KECCAK256 DUP2 DUP7 MSTORE PUSH1 0x20 MSTORE PUSH1 0x40 DUP6 KECCAK256 PUSH1 0x84 CALLDATALOAD SWAP1 PUSH2 0x211E DUP3 DUP3 SLOAD PUSH2 0x2F74 JUMP JUMPDEST SWAP1 SSTORE PUSH1 0x40 MLOAD PUSH1 0x20 DUP2 DUP7 MLOAD PUSH2 0x2135 DUP2 DUP4 DUP6 DUP12 ADD PUSH2 0x294E JUMP JUMPDEST DUP2 ADD PUSH1 0xE DUP2 MSTORE SUB ADD SWAP1 KECCAK256 DUP3 DUP8 MSTORE PUSH1 0x20 MSTORE PUSH1 0x40 DUP7 KECCAK256 DUP1 SLOAD SWAP1 PUSH1 0x1 DUP3 ADD DUP1 SWAP3 GT PUSH2 0x145D JUMPI SSTORE DUP2 DUP7 MSTORE PUSH1 0xF PUSH1 0x20 MSTORE PUSH1 0x40 DUP7 KECCAK256 PUSH2 0x216F DUP7 DUP3 SLOAD PUSH2 0x2F74 JUMP JUMPDEST SWAP1 SSTORE DUP2 DUP7 MSTORE PUSH1 0x10 PUSH1 0x20 MSTORE PUSH2 0x2188 PUSH1 0x40 DUP8 KECCAK256 SWAP2 DUP3 SLOAD PUSH2 0x2F74 JUMP JUMPDEST SWAP1 SSTORE DUP5 MSTORE PUSH1 0x11 DUP1 PUSH1 0x20 MSTORE PUSH1 0x40 DUP6 KECCAK256 DUP1 SLOAD SWAP2 PUSH1 0x1 DUP4 ADD DUP1 SWAP4 GT PUSH2 0x21AC JUMPI POP SSTORE CODESIZE PUSH2 0x208A JUMP JUMPDEST PUSH4 0x4E487B71 PUSH1 0xE0 SHL DUP8 MSTORE PUSH1 0x4 MSTORE PUSH1 0x24 DUP7 REVERT JUMPDEST PUSH1 0x1 PUSH1 0x1 PUSH1 0x40 SHL SUB SWAP2 POP PUSH1 0x40 SHR AND TIMESTAMP GT ISZERO CODESIZE PUSH2 0x2084 JUMP JUMPDEST PUSH1 0x1 PUSH1 0x1 PUSH1 0x40 SHL SUB DUP2 AND TIMESTAMP LT ISZERO SWAP2 POP PUSH2 0x207E JUMP JUMPDEST DUP4 DUP1 RETURN JUMPDEST PUSH1 0xE0 SHR DUP2 MSTORE PUSH1 0x20 ADD CODESIZE PUSH2 0x203D JUMP JUMPDEST SWAP3 PUSH1 0x20 PUSH1 0x1 SWAP2 PUSH4 0xFFFFFFFF DUP6 PUSH1 0xC0 SHR AND DUP2 MSTORE ADD SWAP4 ADD PUSH2 0x2037 JUMP JUMPDEST SWAP3 PUSH1 0x20 PUSH1 0x1 SWAP2 PUSH4 0xFFFFFFFF DUP6 PUSH1 0xA0 SHR AND DUP2 MSTORE ADD SWAP4 ADD PUSH2 0x202F JUMP JUMPDEST SWAP3 PUSH1 0x20 PUSH1 0x1 SWAP2 PUSH4 0xFFFFFFFF DUP6 PUSH1 0x80 SHR AND DUP2 MSTORE ADD SWAP4 ADD PUSH2 0x2027 JUMP JUMPDEST SWAP3 PUSH1 0x20 PUSH1 0x1 SWAP2 PUSH4 0xFFFFFFFF DUP6 PUSH1 0x60 SHR AND DUP2 MSTORE ADD SWAP4 ADD PUSH2 0x201F JUMP JUMPDEST SWAP3 PUSH1 0x20 PUSH1 0x1 SWAP2 PUSH4 0xFFFFFFFF DUP6 PUSH1 0x40 SHR AND DUP2 MSTORE ADD SWAP4 ADD PUSH2 0x2017 JUMP JUMPDEST SWAP3 PUSH1 0x20 PUSH1 0x1 SWAP2 PUSH4 0xFFFFFFFF DUP6 DUP4 SHR AND DUP2 MSTORE ADD SWAP4 ADD PUSH2 0x200F JUMP JUMPDEST SWAP3 PUSH1 0x20 PUSH1 0x1 SWAP2 PUSH4 0xFFFFFFFF DUP6 AND DUP2 MSTORE ADD SWAP4 ADD PUSH2 0x2007 JUMP JUMPDEST SWAP2 PUSH1 0x8 SWAP2 SWAP4 POP PUSH2 0x100 PUSH1 0x1 SWAP2 DUP7 SLOAD PUSH4 0xFFFFFFFF DUP1 DUP3 AND DUP4 MSTORE DUP1 DUP3 PUSH1 0x20 SHR AND PUSH1 0x20 DUP5 ADD MSTORE DUP1 DUP3 PUSH1 0x40 SHR AND PUSH1 0x40 DUP5 ADD MSTORE PUSH1 0x60 DUP2 DUP4 DUP3 SHR AND SWAP1 DUP5 ADD MSTORE PUSH1 0x80 DUP2 DUP4 DUP3 SHR AND SWAP1 DUP5 ADD MSTORE DUP1 DUP3 PUSH1 0xA0 SHR AND PUSH1 0xA0 DUP5 ADD MSTORE PUSH1 0xC0 SWAP1 DUP3 DUP3 SHR AND SWAP1 DUP4 ADD MSTORE PUSH1 0xE0 SHR PUSH1 0xE0 DUP3 ADD MSTORE ADD SWAP5 ADD SWAP3 ADD DUP8 SWAP3 SWAP4 SWAP2 PUSH2 0x1FEF JUMP JUMPDEST PUSH1 0x40 MLOAD PUSH3 0x461BCD PUSH1 0xE5 SHL DUP2 MSTORE PUSH1 0x20 PUSH1 0x4 DUP3 ADD MSTORE PUSH1 0x22 PUSH1 0x24 DUP3 ADD MSTORE PUSH32 0x43726F73734572613A20496E76616C6964207472616E73616374696F6E206861 PUSH1 0x44 DUP3 ADD MSTORE PUSH2 0xE6D PUSH1 0xF3 SHL PUSH1 0x64 DUP3 ADD MSTORE PUSH1 0x84 SWAP1 REVERT JUMPDEST PUSH1 0x40 MLOAD PUSH3 0x461BCD PUSH1 0xE5 SHL DUP2 MSTORE PUSH1 0x20 PUSH1 0x4 DUP3 ADD MSTORE PUSH1 0x27 PUSH1 0x24 DUP3 ADD MSTORE PUSH32 0x43726F73734572613A205472616E73616374696F6E20616C7265616479207072 PUSH1 0x44 DUP3 ADD MSTORE PUSH7 0x1BD8D95CDCD959 PUSH1 0xCA SHL PUSH1 0x64 DUP3 ADD MSTORE PUSH1 0x84 SWAP1 REVERT JUMPDEST PUSH1 0x40 MLOAD PUSH3 0x461BCD PUSH1 0xE5 SHL DUP2 MSTORE PUSH1 0x20 PUSH1 0x4 DUP3 ADD MSTORE PUSH1 0x16 PUSH1 0x24 DUP3 ADD MSTORE PUSH22 0x21B937B9B9A2B9309D102737BA103B32B934B334B2B9 PUSH1 0x51 SHL PUSH1 0x44 DUP3 ADD MSTORE PUSH1 0x64 SWAP1 REVERT JUMPDEST POP PUSH1 0x60 CALLDATASIZE PUSH1 0x3 NOT ADD SLT PUSH2 0x41B JUMPI PUSH1 0x1 PUSH1 0x1 PUSH1 0x40 SHL SUB PUSH1 0x4 CALLDATALOAD DUP2 DUP2 GT PUSH2 0xACB JUMPI PUSH2 0x242D SWAP1 CALLDATASIZE SWAP1 PUSH1 0x4 ADD PUSH2 0x28C9 JUMP JUMPDEST PUSH1 0x24 DUP1 CALLDATALOAD SWAP2 PUSH4 0xFFFFFFFF SWAP4 DUP5 DUP5 AND DUP1 SWAP5 SUB PUSH2 0x26E0 JUMPI PUSH1 0x40 MLOAD SWAP2 DUP1 MLOAD SWAP2 PUSH2 0x2462 PUSH1 0xFF PUSH1 0x20 SWAP6 DUP7 DUP2 DUP2 DUP8 ADD SWAP8 PUSH2 0x1223 DUP2 DUP4 DUP12 PUSH2 0x294E JUMP JUMPDEST PUSH2 0x2493 PUSH1 0x40 MLOAD DUP4 MLOAD PUSH2 0x2475 DUP2 DUP4 DUP9 PUSH2 0x294E JUMP JUMPDEST DUP2 ADD SWAP1 PUSH1 0x3 DUP3 MSTORE DUP7 DUP2 PUSH1 0x1 DUP1 PUSH1 0xA0 SHL SUB SWAP4 SUB ADD SWAP1 KECCAK256 SLOAD AND CALLER EQ PUSH2 0x2E7D JUMP JUMPDEST DUP6 DUP9 MSTORE PUSH1 0x7 DUP5 MSTORE PUSH2 0x24A9 PUSH1 0x40 DUP10 KECCAK256 SLOAD ISZERO ISZERO PUSH2 0x2F15 JUMP JUMPDEST PUSH2 0x24B1 PUSH2 0x2E13 JUMP JUMPDEST DUP6 DUP9 MSTORE PUSH1 0x7 DUP5 MSTORE PUSH1 0x2 PUSH1 0x40 DUP10 KECCAK256 ADD SLOAD PUSH1 0xFF DUP2 PUSH1 0x80 SHR AND ISZERO PUSH2 0x269C JUMPI DUP2 DUP2 AND TIMESTAMP LT PUSH2 0x2658 JUMPI PUSH1 0x40 SHR AND TIMESTAMP GT PUSH2 0x2614 JUMPI PUSH1 0x40 MLOAD DUP4 DUP2 DUP4 MLOAD PUSH2 0x24F1 DUP2 DUP4 DUP9 PUSH2 0x294E JUMP JUMPDEST DUP2 ADD PUSH1 0x9 DUP2 MSTORE SUB ADD SWAP1 KECCAK256 DUP6 DUP9 MSTORE DUP4 MSTORE PUSH1 0xFF PUSH1 0x40 DUP9 KECCAK256 SLOAD AND PUSH2 0x25B5 JUMPI SWAP1 PUSH2 0x2564 SWAP3 SWAP2 PUSH1 0x40 MLOAD DUP4 DUP2 DUP4 MLOAD PUSH2 0x2524 DUP2 DUP4 DUP9 PUSH2 0x294E JUMP JUMPDEST DUP2 ADD PUSH1 0x9 DUP2 MSTORE SUB ADD SWAP1 KECCAK256 DUP7 DUP10 MSTORE DUP4 MSTORE PUSH1 0x40 DUP9 KECCAK256 PUSH1 0x1 PUSH1 0xFF NOT DUP3 SLOAD AND OR SWAP1 SSTORE PUSH1 0xA DUP4 MSTORE PUSH2 0x2553 DUP2 PUSH1 0x40 DUP11 KECCAK256 PUSH2 0x2CB3 JUMP JUMPDEST PUSH1 0x40 MLOAD SWAP4 DUP5 SWAP3 DUP4 SWAP3 MLOAD SWAP3 DUP4 SWAP2 PUSH2 0x294E JUMP JUMPDEST DUP2 ADD PUSH1 0xB DUP2 MSTORE SUB ADD SWAP1 KECCAK256 DUP1 SLOAD SWAP2 PUSH1 0x1 PUSH1 0x40 SHL DUP4 LT ISZERO PUSH2 0x25A3 JUMPI POP SWAP1 PUSH2 0x258E SWAP2 PUSH1 0x1 DUP3 ADD DUP2 SSTORE PUSH2 0x2A24 JUMP JUMPDEST SWAP1 SWAP3 DUP4 SLOAD SWAP2 PUSH1 0x3 SHL SWAP3 DUP4 SHL SWAP3 SHL NOT AND OR SWAP1 SSTORE DUP1 RETURN JUMPDEST PUSH4 0x4E487B71 PUSH1 0xE0 SHL DUP7 MSTORE PUSH1 0x41 PUSH1 0x4 MSTORE DUP6 REVERT JUMPDEST PUSH1 0x40 MLOAD PUSH3 0x461BCD PUSH1 0xE5 SHL DUP2 MSTORE PUSH1 0x4 DUP2 ADD DUP5 SWAP1 MSTORE PUSH1 0x32 DUP2 DUP7 ADD MSTORE PUSH32 0x43726F73734572613A2041707020616C72656164792072656769737465726564 PUSH1 0x44 DUP3 ADD MSTORE PUSH18 0x103337B9103A3434B99031B0B6B830B4B3B7 PUSH1 0x71 SHL PUSH1 0x64 DUP3 ADD MSTORE PUSH1 0x84 SWAP1 REVERT JUMPDEST PUSH1 0x40 MLOAD PUSH3 0x461BCD PUSH1 0xE5 SHL DUP2 MSTORE PUSH1 0x4 DUP2 ADD DUP5 SWAP1 MSTORE PUSH1 0x18 DUP2 DUP7 ADD MSTORE PUSH32 0x43726F73734572613A2043616D706169676E20656E6465640000000000000000 PUSH1 0x44 DUP3 ADD MSTORE PUSH1 0x64 SWAP1 REVERT JUMPDEST PUSH1 0x40 MLOAD PUSH3 0x461BCD PUSH1 0xE5 SHL DUP2 MSTORE PUSH1 0x4 DUP2 ADD DUP7 SWAP1 MSTORE PUSH1 0x1E DUP2 DUP9 ADD MSTORE PUSH32 0x43726F73734572613A2043616D706169676E206E6F7420737461727465640000 PUSH1 0x44 DUP3 ADD MSTORE PUSH1 0x64 SWAP1 REVERT JUMPDEST PUSH1 0x40 MLOAD PUSH3 0x461BCD PUSH1 0xE5 SHL DUP2 MSTORE PUSH1 0x4 DUP2 ADD DUP7 SWAP1 MSTORE PUSH1 0x1D DUP2 DUP9 ADD MSTORE PUSH32 0x43726F73734572613A2043616D706169676E206E6F7420616374697665000000 PUSH1 0x44 DUP3 ADD MSTORE PUSH1 0x64 SWAP1 REVERT JUMPDEST DUP6 DUP1 REVERT JUMPDEST POP CALLVALUE PUSH2 0x41B JUMPI DUP1 PUSH1 0x3 NOT CALLDATASIZE ADD SLT PUSH2 0x41B JUMPI PUSH1 0x20 PUSH1 0x13 SLOAD PUSH1 0x40 MLOAD SWAP1 DUP2 MSTORE RETURN JUMPDEST POP CALLVALUE PUSH2 0x41B JUMPI PUSH1 0x20 DUP1 PUSH1 0x3 NOT CALLDATASIZE ADD SLT PUSH2 0x78A JUMPI PUSH1 0x1 PUSH1 0x1 PUSH1 0xA0 SHL SUB PUSH2 0x2725 PUSH2 0x2971 JUMP JUMPDEST AND DUP3 MSTORE PUSH1 0x5 DUP2 MSTORE PUSH1 0x40 DUP3 KECCAK256 SWAP2 DUP3 SLOAD SWAP1 PUSH1 0x1 PUSH1 0x1 PUSH1 0x40 SHL SUB DUP3 GT PUSH2 0x776 JUMPI SWAP3 PUSH1 0x40 MLOAD SWAP3 PUSH2 0x2756 DUP2 DUP5 PUSH1 0x5 SHL ADD DUP6 PUSH2 0x288D JUMP JUMPDEST DUP3 DUP5 MSTORE DUP1 DUP5 ADD SWAP2 DUP6 MSTORE DUP1 DUP6 KECCAK256 SWAP5 SWAP2 JUMPDEST DUP4 DUP4 LT PUSH2 0x277A JUMPI PUSH1 0x40 MLOAD DUP1 PUSH2 0x5D1 DUP8 DUP3 PUSH2 0x29C2 JUMP JUMPDEST PUSH1 0x1 DUP3 DUP2 SWAP3 PUSH2 0x2788 DUP10 PUSH2 0x2AAF JUMP JUMPDEST DUP2 MSTORE ADD SWAP7 ADD SWAP3 ADD SWAP2 SWAP5 PUSH2 0x2765 JUMP JUMPDEST POP CALLVALUE PUSH2 0x41B JUMPI PUSH1 0x20 CALLDATASIZE PUSH1 0x3 NOT ADD SLT PUSH2 0x41B JUMPI PUSH1 0x40 PUSH1 0x20 SWAP2 PUSH4 0xFFFFFFFF PUSH2 0x27BA PUSH2 0x2844 JUMP JUMPDEST AND DUP2 MSTORE PUSH1 0x11 DUP4 MSTORE KECCAK256 SLOAD PUSH1 0x40 MLOAD SWAP1 DUP2 MSTORE RETURN JUMPDEST POP CALLVALUE PUSH2 0x41B JUMPI DUP1 PUSH1 0x3 NOT CALLDATASIZE ADD SLT PUSH2 0x41B JUMPI PUSH1 0x20 PUSH4 0xFFFFFFFF PUSH1 0x12 SLOAD AND PUSH1 0x40 MLOAD SWAP1 DUP2 MSTORE RETURN JUMPDEST SWAP1 POP CALLVALUE PUSH2 0x78A JUMPI PUSH1 0x20 CALLDATASIZE PUSH1 0x3 NOT ADD SLT PUSH2 0x78A JUMPI PUSH1 0x4 CALLDATALOAD PUSH4 0xFFFFFFFF PUSH1 0xE0 SHL DUP2 AND DUP1 SWAP2 SUB PUSH2 0xACB JUMPI PUSH1 0x20 SWAP3 POP PUSH4 0x7965DB0B PUSH1 0xE0 SHL DUP2 EQ SWAP1 DUP2 ISZERO PUSH2 0x2833 JUMPI JUMPDEST POP ISZERO ISZERO DUP2 MSTORE RETURN JUMPDEST PUSH4 0x1FFC9A7 PUSH1 0xE0 SHL EQ SWAP1 POP CODESIZE PUSH2 0x282C JUMP JUMPDEST PUSH1 0x4 CALLDATALOAD SWAP1 PUSH4 0xFFFFFFFF DUP3 AND DUP3 SUB PUSH2 0x2857 JUMPI JUMP JUMPDEST PUSH1 0x0 DUP1 REVERT JUMPDEST PUSH1 0xA0 DUP2 ADD SWAP1 DUP2 LT PUSH1 0x1 PUSH1 0x1 PUSH1 0x40 SHL SUB DUP3 GT OR PUSH2 0x2877 JUMPI PUSH1 0x40 MSTORE JUMP JUMPDEST PUSH4 0x4E487B71 PUSH1 0xE0 SHL PUSH1 0x0 MSTORE PUSH1 0x41 PUSH1 0x4 MSTORE PUSH1 0x24 PUSH1 0x0 REVERT JUMPDEST SWAP1 PUSH1 0x1F DUP1 NOT SWAP2 ADD AND DUP2 ADD SWAP1 DUP2 LT PUSH1 0x1 PUSH1 0x1 PUSH1 0x40 SHL SUB DUP3 GT OR PUSH2 0x2877 JUMPI PUSH1 0x40 MSTORE JUMP JUMPDEST PUSH1 0x1 PUSH1 0x1 PUSH1 0x40 SHL SUB DUP2 GT PUSH2 0x2877 JUMPI PUSH1 0x1F ADD PUSH1 0x1F NOT AND PUSH1 0x20 ADD SWAP1 JUMP JUMPDEST DUP2 PUSH1 0x1F DUP3 ADD SLT ISZERO PUSH2 0x2857 JUMPI DUP1 CALLDATALOAD SWAP1 PUSH2 0x28E0 DUP3 PUSH2 0x28AE JUMP JUMPDEST SWAP3 PUSH2 0x28EE PUSH1 0x40 MLOAD SWAP5 DUP6 PUSH2 0x288D JUMP JUMPDEST DUP3 DUP5 MSTORE PUSH1 0x20 DUP4 DUP4 ADD ADD GT PUSH2 0x2857 JUMPI DUP2 PUSH1 0x0 SWAP3 PUSH1 0x20 DUP1 SWAP4 ADD DUP4 DUP7 ADD CALLDATACOPY DUP4 ADD ADD MSTORE SWAP1 JUMP JUMPDEST PUSH1 0x40 PUSH1 0x3 NOT DUP3 ADD SLT PUSH2 0x2857 JUMPI PUSH1 0x4 CALLDATALOAD SWAP1 PUSH1 0x1 PUSH1 0x1 PUSH1 0x40 SHL SUB DUP3 GT PUSH2 0x2857 JUMPI PUSH2 0x293A SWAP2 PUSH1 0x4 ADD PUSH2 0x28C9 JUMP JUMPDEST SWAP1 PUSH1 0x24 CALLDATALOAD PUSH4 0xFFFFFFFF DUP2 AND DUP2 SUB PUSH2 0x2857 JUMPI SWAP1 JUMP JUMPDEST PUSH1 0x0 JUMPDEST DUP4 DUP2 LT PUSH2 0x2961 JUMPI POP POP PUSH1 0x0 SWAP2 ADD MSTORE JUMP JUMPDEST DUP2 DUP2 ADD MLOAD DUP4 DUP3 ADD MSTORE PUSH1 0x20 ADD PUSH2 0x2951 JUMP JUMPDEST PUSH1 0x4 CALLDATALOAD SWAP1 PUSH1 0x1 PUSH1 0x1 PUSH1 0xA0 SHL SUB DUP3 AND DUP3 SUB PUSH2 0x2857 JUMPI JUMP JUMPDEST PUSH1 0x24 CALLDATALOAD SWAP1 PUSH1 0x1 PUSH1 0x1 PUSH1 0xA0 SHL SUB DUP3 AND DUP3 SUB PUSH2 0x2857 JUMPI JUMP JUMPDEST SWAP1 PUSH1 0x20 SWAP2 PUSH2 0x29B6 DUP2 MLOAD DUP1 SWAP3 DUP2 DUP6 MSTORE DUP6 DUP1 DUP7 ADD SWAP2 ADD PUSH2 0x294E JUMP JUMPDEST PUSH1 0x1F ADD PUSH1 0x1F NOT AND ADD ADD SWAP1 JUMP JUMPDEST PUSH1 0x20 DUP1 DUP3 ADD SWAP1 DUP1 DUP4 MSTORE DUP4 MLOAD DUP1 SWAP3 MSTORE PUSH1 0x40 DUP4 ADD SWAP3 DUP2 PUSH1 0x40 DUP5 PUSH1 0x5 SHL DUP4 ADD ADD SWAP6 ADD SWAP4 PUSH1 0x0 SWAP2 JUMPDEST DUP5 DUP4 LT PUSH2 0x29F6 JUMPI POP POP POP POP POP POP SWAP1 JUMP JUMPDEST SWAP1 SWAP2 SWAP3 SWAP4 SWAP5 SWAP6 DUP5 DUP1 PUSH2 0x2A14 PUSH1 0x1 SWAP4 PUSH1 0x3F NOT DUP7 DUP3 SUB ADD DUP8 MSTORE DUP11 MLOAD PUSH2 0x299D JUMP JUMPDEST SWAP9 ADD SWAP4 ADD SWAP4 ADD SWAP2 SWAP5 SWAP4 SWAP3 SWAP1 PUSH2 0x29E6 JUMP JUMPDEST SWAP2 SWAP1 SWAP2 DUP1 SLOAD DUP4 LT ISZERO PUSH2 0x2A47 JUMPI PUSH1 0x0 MSTORE PUSH1 0x1C PUSH1 0x20 PUSH1 0x0 KECCAK256 DUP4 PUSH1 0x3 SHR ADD SWAP3 PUSH1 0x2 SHL AND SWAP1 JUMP JUMPDEST PUSH4 0x4E487B71 PUSH1 0xE0 SHL PUSH1 0x0 MSTORE PUSH1 0x32 PUSH1 0x4 MSTORE PUSH1 0x24 PUSH1 0x0 REVERT JUMPDEST DUP1 SLOAD DUP3 LT ISZERO PUSH2 0x2A47 JUMPI PUSH1 0x0 MSTORE PUSH1 0x20 PUSH1 0x0 KECCAK256 ADD SWAP1 PUSH1 0x0 SWAP1 JUMP JUMPDEST SWAP1 PUSH1 0x1 DUP3 DUP2 SHR SWAP3 AND DUP1 ISZERO PUSH2 0x2AA5 JUMPI JUMPDEST PUSH1 0x20 DUP4 LT EQ PUSH2 0x2A8F JUMPI JUMP JUMPDEST PUSH4 0x4E487B71 PUSH1 0xE0 SHL PUSH1 0x0 MSTORE PUSH1 0x22 PUSH1 0x4 MSTORE PUSH1 0x24 PUSH1 0x0 REVERT JUMPDEST SWAP2 PUSH1 0x7F AND SWAP2 PUSH2 0x2A84 JUMP JUMPDEST SWAP1 PUSH1 0x40 MLOAD SWAP2 DUP3 PUSH1 0x0 DUP3 SLOAD SWAP3 PUSH2 0x2AC3 DUP5 PUSH2 0x2A75 JUMP JUMPDEST SWAP1 DUP2 DUP5 MSTORE PUSH1 0x1 SWAP5 DUP6 DUP2 AND SWAP1 DUP2 PUSH1 0x0 EQ PUSH2 0x2B32 JUMPI POP PUSH1 0x1 EQ PUSH2 0x2AEF JUMPI JUMPDEST POP POP PUSH2 0x2AED SWAP3 POP SUB DUP4 PUSH2 0x288D JUMP JUMPDEST JUMP JUMPDEST SWAP1 SWAP4 SWAP2 POP PUSH1 0x0 MSTORE PUSH1 0x20 SWAP1 DUP2 PUSH1 0x0 KECCAK256 SWAP4 PUSH1 0x0 SWAP2 JUMPDEST DUP2 DUP4 LT PUSH2 0x2B1A JUMPI POP POP PUSH2 0x2AED SWAP4 POP DUP3 ADD ADD CODESIZE DUP1 PUSH2 0x2ADF JUMP JUMPDEST DUP6 SLOAD DUP9 DUP5 ADD DUP6 ADD MSTORE SWAP5 DUP6 ADD SWAP5 DUP8 SWAP5 POP SWAP2 DUP4 ADD SWAP2 PUSH2 0x2B02 JUMP JUMPDEST SWAP2 POP POP PUSH2 0x2AED SWAP5 POP PUSH1 0x20 SWAP3 POP PUSH1 0xFF NOT AND DUP3 DUP5 ADD MSTORE ISZERO ISZERO PUSH1 0x5 SHL DUP3 ADD ADD CODESIZE DUP1 PUSH2 0x2ADF JUMP JUMPDEST SWAP1 PUSH2 0x2B66 JUMPI PUSH2 0x2B63 SWAP1 PUSH2 0x2AAF JUMP JUMPDEST SWAP1 JUMP JUMPDEST PUSH4 0x4E487B71 PUSH1 0xE0 SHL PUSH1 0x0 MSTORE PUSH1 0x0 PUSH1 0x4 MSTORE PUSH1 0x24 PUSH1 0x0 REVERT JUMPDEST DUP1 PUSH1 0x0 MSTORE PUSH1 0x0 PUSH1 0x20 MSTORE PUSH1 0x40 PUSH1 0x0 KECCAK256 CALLER PUSH1 0x0 MSTORE PUSH1 0x20 MSTORE PUSH1 0xFF PUSH1 0x40 PUSH1 0x0 KECCAK256 SLOAD AND ISZERO PUSH2 0x2BA2 JUMPI POP JUMP JUMPDEST PUSH1 0x44 SWAP1 PUSH1 0x40 MLOAD SWAP1 PUSH4 0xE2517D3F PUSH1 0xE0 SHL DUP3 MSTORE CALLER PUSH1 0x4 DUP4 ADD MSTORE PUSH1 0x24 DUP3 ADD MSTORE REVERT JUMPDEST SWAP1 PUSH1 0x0 SWAP2 DUP1 DUP4 MSTORE DUP3 PUSH1 0x20 MSTORE PUSH1 0x40 DUP4 KECCAK256 SWAP2 PUSH1 0x1 DUP1 PUSH1 0xA0 SHL SUB AND SWAP2 DUP3 DUP5 MSTORE PUSH1 0x20 MSTORE PUSH1 0xFF PUSH1 0x40 DUP5 KECCAK256 SLOAD AND ISZERO PUSH1 0x0 EQ PUSH2 0x2C39 JUMPI DUP1 DUP4 MSTORE DUP3 PUSH1 0x20 MSTORE PUSH1 0x40 DUP4 KECCAK256 DUP3 DUP5 MSTORE PUSH1 0x20 MSTORE PUSH1 0x40 DUP4 KECCAK256 PUSH1 0x1 PUSH1 0xFF NOT DUP3 SLOAD AND OR SWAP1 SSTORE PUSH32 0x2F8788117E7EFF1D82E926EC794901D17C78024A50270940304540A733656F0D CALLER SWAP4 DUP1 LOG4 PUSH1 0x1 SWAP1 JUMP JUMPDEST POP POP SWAP1 JUMP JUMPDEST SWAP1 PUSH1 0x0 SWAP2 DUP1 DUP4 MSTORE DUP3 PUSH1 0x20 MSTORE PUSH1 0x40 DUP4 KECCAK256 SWAP2 PUSH1 0x1 DUP1 PUSH1 0xA0 SHL SUB AND SWAP2 DUP3 DUP5 MSTORE PUSH1 0x20 MSTORE PUSH1 0xFF PUSH1 0x40 DUP5 KECCAK256 SLOAD AND PUSH1 0x0 EQ PUSH2 0x2C39 JUMPI DUP1 DUP4 MSTORE DUP3 PUSH1 0x20 MSTORE PUSH1 0x40 DUP4 KECCAK256 DUP3 DUP5 MSTORE PUSH1 0x20 MSTORE PUSH1 0x40 DUP4 KECCAK256 PUSH1 0xFF NOT DUP2 SLOAD AND SWAP1 SSTORE PUSH32 0xF6391F5C32D9C69D2A47EA670B442974B53935D1EDC7FD64EB21E047A839171B CALLER SWAP4 DUP1 LOG4 PUSH1 0x1 SWAP1 JUMP JUMPDEST DUP1 SLOAD PUSH1 0x1 PUSH1 0x40 SHL DUP2 LT ISZERO PUSH2 0x2877 JUMPI PUSH2 0x2CD2 SWAP1 PUSH1 0x1 SWAP3 DUP4 DUP3 ADD DUP2 SSTORE PUSH2 0x2A5D JUMP JUMPDEST SWAP3 SWAP1 SWAP3 PUSH2 0x2B66 JUMPI DUP1 MLOAD SWAP1 PUSH1 0x1 PUSH1 0x1 PUSH1 0x40 SHL SUB DUP3 GT PUSH2 0x2877 JUMPI PUSH2 0x2CF4 DUP5 SLOAD PUSH2 0x2A75 JUMP JUMPDEST PUSH1 0x1F DUP2 GT PUSH2 0x2D9D JUMPI JUMPDEST POP PUSH1 0x20 SWAP1 DUP2 PUSH1 0x1F DUP5 GT PUSH1 0x1 EQ PUSH2 0x2D3A JUMPI POP SWAP3 DUP3 SWAP4 SWAP2 DUP4 SWAP3 PUSH1 0x0 SWAP5 PUSH2 0x2D2F JUMPI JUMPDEST POP POP SHL SWAP2 PUSH1 0x0 NOT SWAP1 PUSH1 0x3 SHL SHR NOT AND OR SWAP1 SSTORE JUMP JUMPDEST ADD MLOAD SWAP3 POP CODESIZE DUP1 PUSH2 0x2D1C JUMP JUMPDEST SWAP2 SWAP1 DUP4 PUSH1 0x1F NOT DUP2 AND DUP8 PUSH1 0x0 MSTORE DUP5 PUSH1 0x0 KECCAK256 SWAP5 PUSH1 0x0 SWAP1 JUMPDEST DUP9 DUP4 DUP4 LT PUSH2 0x2D83 JUMPI POP POP POP LT PUSH2 0x2D6A JUMPI JUMPDEST POP POP POP DUP2 SHL ADD SWAP1 SSTORE JUMP JUMPDEST ADD MLOAD PUSH1 0x0 NOT PUSH1 0xF8 DUP5 PUSH1 0x3 SHL AND SHR NOT AND SWAP1 SSTORE CODESIZE DUP1 DUP1 PUSH2 0x2D60 JUMP JUMPDEST DUP6 DUP8 ADD MLOAD DUP9 SSTORE SWAP1 SWAP7 ADD SWAP6 SWAP5 DUP6 ADD SWAP5 DUP8 SWAP4 POP SWAP1 DUP2 ADD SWAP1 PUSH2 0x2D4F JUMP JUMPDEST PUSH1 0x0 DUP6 DUP2 MSTORE PUSH1 0x20 DUP2 KECCAK256 PUSH1 0x1F DUP6 ADD PUSH1 0x5 SHR DUP2 ADD SWAP3 PUSH1 0x20 DUP7 LT PUSH2 0x2DDE JUMPI JUMPDEST PUSH1 0x1F ADD PUSH1 0x5 SHR ADD SWAP2 DUP6 SWAP1 JUMPDEST DUP4 DUP2 LT PUSH2 0x2DD3 JUMPI POP POP POP PUSH2 0x2CFD JUMP JUMPDEST DUP3 DUP2 SSTORE ADD DUP6 SWAP1 PUSH2 0x2DC4 JUMP JUMPDEST SWAP1 SWAP3 POP DUP3 SWAP1 PUSH2 0x2DB9 JUMP JUMPDEST PUSH4 0xFFFFFFFF DUP1 SWAP2 AND SWAP1 DUP2 EQ PUSH2 0x2DFD JUMPI PUSH1 0x1 ADD SWAP1 JUMP JUMPDEST PUSH4 0x4E487B71 PUSH1 0xE0 SHL PUSH1 0x0 MSTORE PUSH1 0x11 PUSH1 0x4 MSTORE PUSH1 0x24 PUSH1 0x0 REVERT JUMPDEST PUSH1 0xFF PUSH1 0x2 SLOAD AND PUSH2 0x2E1F JUMPI JUMP JUMPDEST PUSH1 0x40 MLOAD PUSH4 0xD93C0665 PUSH1 0xE0 SHL DUP2 MSTORE PUSH1 0x4 SWAP1 REVERT JUMPDEST ISZERO PUSH2 0x2E38 JUMPI JUMP JUMPDEST PUSH1 0x40 MLOAD PUSH3 0x461BCD PUSH1 0xE5 SHL DUP2 MSTORE PUSH1 0x20 PUSH1 0x4 DUP3 ADD MSTORE PUSH1 0x1C PUSH1 0x24 DUP3 ADD MSTORE PUSH32 0x43726F73734572613A20417070206E6F74207265676973746572656400000000 PUSH1 0x44 DUP3 ADD MSTORE PUSH1 0x64 SWAP1 REVERT JUMPDEST ISZERO PUSH2 0x2E84 JUMPI JUMP JUMPDEST PUSH1 0x40 MLOAD PUSH3 0x461BCD PUSH1 0xE5 SHL DUP2 MSTORE PUSH1 0x20 PUSH1 0x4 DUP3 ADD MSTORE PUSH1 0x17 PUSH1 0x24 DUP3 ADD MSTORE PUSH32 0x43726F73734572613A204E6F7420617070206F776E6572000000000000000000 PUSH1 0x44 DUP3 ADD MSTORE PUSH1 0x64 SWAP1 REVERT JUMPDEST ISZERO PUSH2 0x2ED0 JUMPI JUMP JUMPDEST PUSH1 0x40 MLOAD PUSH3 0x461BCD PUSH1 0xE5 SHL DUP2 MSTORE PUSH1 0x20 PUSH1 0x4 DUP3 ADD MSTORE PUSH1 0x1E PUSH1 0x24 DUP3 ADD MSTORE PUSH32 0x43726F73734572613A204E6F742063616D706169676E206D616E616765720000 PUSH1 0x44 DUP3 ADD MSTORE PUSH1 0x64 SWAP1 REVERT JUMPDEST ISZERO PUSH2 0x2F1C JUMPI JUMP JUMPDEST PUSH1 0x40 MLOAD PUSH3 0x461BCD PUSH1 0xE5 SHL DUP2 MSTORE PUSH1 0x20 PUSH1 0x4 DUP3 ADD MSTORE PUSH1 0x1C PUSH1 0x24 DUP3 ADD MSTORE PUSH32 0x43726F73734572613A2043616D706169676E206E6F7420666F756E6400000000 PUSH1 0x44 DUP3 ADD MSTORE PUSH1 0x64 SWAP1 REVERT JUMPDEST DUP2 DUP2 MUL SWAP3 SWAP2 DUP2 ISZERO SWAP2 DUP5 DIV EQ OR ISZERO PUSH2 0x2DFD JUMPI JUMP JUMPDEST SWAP2 SWAP1 DUP3 ADD DUP1 SWAP3 GT PUSH2 0x2DFD JUMPI JUMP JUMPDEST DUP2 ISZERO PUSH2 0x2F8B JUMPI DIV SWAP1 JUMP JUMPDEST PUSH4 0x4E487B71 PUSH1 0xE0 SHL PUSH1 0x0 MSTORE PUSH1 0x12 PUSH1 0x4 MSTORE PUSH1 0x24 PUSH1 0x0 REVERT JUMPDEST RETURNDATASIZE ISZERO PUSH2 0x2FCC JUMPI RETURNDATASIZE SWAP1 PUSH2 0x2FB2 DUP3 PUSH2 0x28AE JUMP JUMPDEST SWAP2 PUSH2 0x2FC0 PUSH1 0x40 MLOAD SWAP4 DUP5 PUSH2 0x288D JUMP JUMPDEST DUP3 MSTORE RETURNDATASIZE PUSH1 0x0 PUSH1 0x20 DUP5 ADD RETURNDATACOPY JUMP JUMPDEST PUSH1 0x60 SWAP1 JUMP JUMPDEST ISZERO PUSH2 0x2FD8 JUMPI JUMP JUMPDEST PUSH1 0x40 MLOAD PUSH3 0x461BCD PUSH1 0xE5 SHL DUP2 MSTORE PUSH1 0x20 PUSH1 0x4 DUP3 ADD MSTORE PUSH1 0x1D PUSH1 0x24 DUP3 ADD MSTORE PUSH32 0x43726F73734572613A20584649207472616E73666572206661696C6564000000 PUSH1 0x44 DUP3 ADD MSTORE PUSH1 0x64 SWAP1 REVERT JUMPDEST ISZERO PUSH2 0x3024 JUMPI JUMP JUMPDEST PUSH1 0x40 MLOAD PUSH3 0x461BCD PUSH1 0xE5 SHL DUP2 MSTORE PUSH1 0x20 PUSH1 0x4 DUP3 ADD MSTORE PUSH1 0x13 PUSH1 0x24 DUP3 ADD MSTORE PUSH19 0x21B937B9B9A2B9309D102737BA1030B236B4B7 PUSH1 0x69 SHL PUSH1 0x44 DUP3 ADD MSTORE PUSH1 0x64 SWAP1 REVERT INVALID POP 0x22 SLOAD NUMBER PC 0xEE SIGNEXTEND 0xEC 0xE5 JUMP 0xB7 0x2A 0xE8 SWAP9 EXTCODECOPY PUSH32 0x24341BD5B9483CE8A19BFF5EFBB2DE92A49807205CE4D355092EF5A8A18F56E8 SWAP2 EXTCODECOPY DELEGATECALL LOG2 ADD 0xFB 0xE2 DUP8 DUP3 JUMPDEST MULMOD JUMP SWAP4 0xC2 OR PUSH22 0xA2646970667358221220E9BD1E4FDCE33061E4CFFF13 0xA8 0x4A EXTCODECOPY MSTORE DUP4 0xC9 DUP11 0xE CALLVALUE ADDRESS XOR EQ PUSH4 0xAB6E1B48 0xA6 0x2C EXP PUSH5 0x736F6C6343 STOP ADDMOD EQ STOP CALLER 0x2F DUP8 DUP9 GT PUSH31 0x7EFF1D82E926EC794901D17C78024A50270940304540A733656F0D00000000 "},"methodIdentifiers":{"ADMIN_ROLE()":"75b238fc","CAMPAIGN_MANAGER_ROLE()":"a762f58a","DEFAULT_ADMIN_ROLE()":"a217fddf","VERIFIER_ROLE()":"e7705db6","activateCampaign(uint32)":"a982708b","appCampaignFees(string,uint32)":"2271162b","appCampaignRegistrations(string,uint32)":"0cc7991d","appCampaignTxCount(string,uint32)":"66778541","appCampaignVolume(string,uint32)":"f6517eb6","appOwners(string)":"c718c1e5","appRegisteredCampaigns(string,uint256)":"24b67b71","campaignApps(uint32,uint256)":"2bdf0107","campaignTotalFees(uint32)":"388d78d1","campaignTotalTxCount(uint32)":"04103ef6","campaignTotalVolume(uint32)":"43c998ae","campaigns(uint32)":"eb81b527","changeAppStatus(string,uint8,string)":"6733b894","claimRewards(string,uint32)":"726d2c16","claimableRewards(string,uint32)":"ead0d8fb","createCampaign(uint64,uint64)":"cdefc1b1","deactivateCampaign(uint32)":"816f7d49","developerApps(address,uint256)":"f18fddff","emergencyPause(string)":"cf5b4fd5","emergencyUnpause(string)":"5ddfcba8","emergencyWithdraw(uint256,string)":"3cbb4668","getAppCampaignMetrics(string,uint32)":"fbd8d93a","getAppRegisteredCampaigns(string)":"4acccef0","getCampaign(uint32)":"f54c9381","getCampaignAppCount(uint32)":"de8b890f","getCampaignApps(uint32)":"e648f9b8","getCampaignTotals(uint32)":"1cacf4c4","getClaimableRewards(string,uint32)":"4434e7a2","getDeveloperAppCount(address)":"f7e04cd1","getDeveloperApps(address)":"12266cdc","getRoleAdmin(bytes32)":"248a9ca3","grantRole(bytes32,address)":"2f2ff15d","hasRole(bytes32,address)":"91d14854","isAppRegisteredForCampaign(string,uint32)":"b6785115","isDeveloperAppOwner(address,string)":"6df4029a","isTransactionProcessed(bytes32)":"efc646ca","minRewardAmount()":"12d3b8c9","paused()":"5c975abb","processTransaction(string,bytes32,uint256,uint256,uint256)":"1bb4e833","processedTransactions(bytes32)":"ac2e4936","registerApp(string)":"b3a55f64","registerAppForCampaign(string,uint32,bytes32)":"14eb9302","registeredApps(string)":"7b3ac300","renounceRole(bytes32,address)":"36568abe","revokeRole(bytes32,address)":"d547741f","setMinRewardAmount(uint256)":"a2928542","supportsInterface(bytes4)":"01ffc9a7","totalApps()":"c97c4622","totalCampaigns()":"02932f56","totalDevelopers()":"65df7933","updateApp(string,string,string,string,string)":"6f62d8dd"}}}}}