{"contracts/CrossEraRewardSystem.sol":{"CrossEraRewardSystem":{"abi":[{"inputs":[{"internalType":"address","name":"_rewardToken","type":"address"},{"internalType":"address","name":"_admin","type":"address"}],"stateMutability":"nonpayable","type":"constructor"},{"inputs":[],"name":"AccessControlBadConfirmation","type":"error"},{"inputs":[{"internalType":"address","name":"account","type":"address"},{"internalType":"bytes32","name":"neededRole","type":"bytes32"}],"name":"AccessControlUnauthorizedAccount","type":"error"},{"inputs":[],"name":"EnforcedPause","type":"error"},{"inputs":[],"name":"ExpectedPause","type":"error"},{"inputs":[],"name":"ReentrancyGuardReentrantCall","type":"error"},{"inputs":[{"internalType":"address","name":"token","type":"address"}],"name":"SafeERC20FailedOperation","type":"error"},{"anonymous":false,"inputs":[{"indexed":true,"internalType":"string","name":"appId","type":"string"},{"indexed":true,"internalType":"uint32","name":"campaignId","type":"uint32"},{"indexed":false,"internalType":"uint32","name":"snapshotPeriod","type":"uint32"},{"indexed":false,"internalType":"uint256","name":"totalTransactions","type":"uint256"},{"indexed":false,"internalType":"uint256","name":"totalVolume","type":"uint256"},{"indexed":false,"internalType":"uint256","name":"totalFees","type":"uint256"},{"indexed":false,"internalType":"uint256","name":"totalRewards","type":"uint256"},{"indexed":false,"internalType":"uint256","name":"averageTransactionValue","type":"uint256"},{"indexed":false,"internalType":"uint16","name":"marketShareBasisPoints","type":"uint16"},{"indexed":false,"internalType":"uint256","name":"timestamp","type":"uint256"}],"name":"AppPerformanceSnapshot","type":"event"},{"anonymous":false,"inputs":[{"indexed":true,"internalType":"string","name":"appId","type":"string"},{"indexed":true,"internalType":"address","name":"developer","type":"address"},{"indexed":false,"internalType":"string","name":"appName","type":"string"},{"indexed":false,"internalType":"string","name":"description","type":"string"},{"indexed":false,"internalType":"string","name":"category","type":"string"},{"indexed":false,"internalType":"string","name":"websiteUrl","type":"string"},{"indexed":false,"internalType":"bytes32","name":"metadataHash","type":"bytes32"},{"indexed":false,"internalType":"uint256","name":"timestamp","type":"uint256"}],"name":"AppRegistered","type":"event"},{"anonymous":false,"inputs":[{"indexed":true,"internalType":"string","name":"appId","type":"string"},{"indexed":true,"internalType":"uint32","name":"campaignId","type":"uint32"},{"indexed":true,"internalType":"address","name":"developer","type":"address"},{"indexed":false,"internalType":"uint256","name":"registrationFee","type":"uint256"},{"indexed":false,"internalType":"bytes32","name":"registrationData","type":"bytes32"},{"indexed":false,"internalType":"uint256","name":"timestamp","type":"uint256"}],"name":"AppRegisteredForCampaign","type":"event"},{"anonymous":false,"inputs":[{"indexed":true,"internalType":"string","name":"appId","type":"string"},{"indexed":true,"internalType":"address","name":"developer","type":"address"},{"indexed":false,"internalType":"uint8","name":"status","type":"uint8"},{"indexed":false,"internalType":"string","name":"reason","type":"string"},{"indexed":false,"internalType":"uint256","name":"timestamp","type":"uint256"}],"name":"AppStatusChanged","type":"event"},{"anonymous":false,"inputs":[{"indexed":true,"internalType":"string","name":"appId","type":"string"},{"indexed":true,"internalType":"uint32","name":"campaignId","type":"uint32"},{"indexed":true,"internalType":"address","name":"developer","type":"address"},{"indexed":false,"internalType":"string","name":"reason","type":"string"},{"indexed":false,"internalType":"uint256","name":"timestamp","type":"uint256"}],"name":"AppUnregisteredFromCampaign","type":"event"},{"anonymous":false,"inputs":[{"indexed":true,"internalType":"string","name":"appId","type":"string"},{"indexed":true,"internalType":"address","name":"developer","type":"address"},{"indexed":false,"internalType":"string","name":"newName","type":"string"},{"indexed":false,"internalType":"string","name":"newDescription","type":"string"},{"indexed":false,"internalType":"string","name":"newCategory","type":"string"},{"indexed":false,"internalType":"string","name":"newWebsiteUrl","type":"string"},{"indexed":false,"internalType":"uint256","name":"timestamp","type":"uint256"}],"name":"AppUpdated","type":"event"},{"anonymous":false,"inputs":[{"indexed":true,"internalType":"uint32","name":"campaignId","type":"uint32"},{"indexed":false,"internalType":"uint32","name":"batchNumber","type":"uint32"},{"indexed":false,"internalType":"uint32","name":"appsProcessed","type":"uint32"},{"indexed":false,"internalType":"uint256","name":"totalRewardsDistributed","type":"uint256"},{"indexed":false,"internalType":"bytes32","name":"batchHash","type":"bytes32"},{"indexed":false,"internalType":"uint256","name":"timestamp","type":"uint256"}],"name":"BatchRewardsProcessed","type":"event"},{"anonymous":false,"inputs":[{"indexed":true,"internalType":"uint32","name":"campaignId","type":"uint32"},{"indexed":true,"internalType":"address","name":"creator","type":"address"},{"indexed":false,"internalType":"string","name":"name","type":"string"},{"indexed":false,"internalType":"string","name":"description","type":"string"},{"indexed":false,"internalType":"uint256","name":"totalPool","type":"uint256"},{"indexed":false,"internalType":"uint64","name":"startDate","type":"uint64"},{"indexed":false,"internalType":"uint64","name":"endDate","type":"uint64"},{"indexed":false,"internalType":"uint8","name":"rewardType","type":"uint8"},{"indexed":false,"internalType":"bytes32","name":"rulesHash","type":"bytes32"},{"indexed":false,"internalType":"uint256","name":"timestamp","type":"uint256"}],"name":"CampaignCreated","type":"event"},{"anonymous":false,"inputs":[{"indexed":true,"internalType":"uint32","name":"campaignId","type":"uint32"},{"indexed":true,"internalType":"enum CrossEraRewardSystem.CampaignStatus","name":"newStatus","type":"uint8"},{"indexed":false,"internalType":"enum CrossEraRewardSystem.CampaignStatus","name":"oldStatus","type":"uint8"},{"indexed":false,"internalType":"address","name":"changedBy","type":"address"},{"indexed":false,"internalType":"uint256","name":"timestamp","type":"uint256"}],"name":"CampaignStatusChanged","type":"event"},{"anonymous":false,"inputs":[{"indexed":true,"internalType":"bytes32","name":"configKey","type":"bytes32"},{"indexed":false,"internalType":"bytes32","name":"oldValue","type":"bytes32"},{"indexed":false,"internalType":"bytes32","name":"newValue","type":"bytes32"},{"indexed":false,"internalType":"address","name":"updatedBy","type":"address"},{"indexed":false,"internalType":"uint256","name":"timestamp","type":"uint256"}],"name":"ConfigurationUpdated","type":"event"},{"anonymous":false,"inputs":[{"indexed":true,"internalType":"address","name":"developer","type":"address"},{"indexed":false,"internalType":"uint32","name":"totalApps","type":"uint32"},{"indexed":false,"internalType":"uint32","name":"activeCampaigns","type":"uint32"},{"indexed":false,"internalType":"uint256","name":"lifetimeRewards","type":"uint256"},{"indexed":false,"internalType":"uint256","name":"lifetimeTransactions","type":"uint256"},{"indexed":false,"internalType":"uint256","name":"lifetimeVolume","type":"uint256"},{"indexed":false,"internalType":"uint32","name":"rankingPosition","type":"uint32"},{"indexed":false,"internalType":"uint256","name":"timestamp","type":"uint256"}],"name":"DeveloperStatsUpdated","type":"event"},{"anonymous":false,"inputs":[{"indexed":true,"internalType":"uint8","name":"actionType","type":"uint8"},{"indexed":true,"internalType":"address","name":"executor","type":"address"},{"indexed":false,"internalType":"string","name":"reason","type":"string"},{"indexed":false,"internalType":"bytes32","name":"additionalData","type":"bytes32"},{"indexed":false,"internalType":"uint256","name":"timestamp","type":"uint256"}],"name":"EmergencyAction","type":"event"},{"anonymous":false,"inputs":[{"indexed":false,"internalType":"address","name":"account","type":"address"}],"name":"Paused","type":"event"},{"anonymous":false,"inputs":[{"indexed":false,"internalType":"uint32","name":"totalDevelopers","type":"uint32"},{"indexed":false,"internalType":"uint32","name":"totalApps","type":"uint32"},{"indexed":false,"internalType":"uint32","name":"activeCampaigns","type":"uint32"},{"indexed":false,"internalType":"uint256","name":"totalRewardsDistributed","type":"uint256"},{"indexed":false,"internalType":"uint256","name":"totalTransactionsProcessed","type":"uint256"},{"indexed":false,"internalType":"uint256","name":"totalVolumeProcessed","type":"uint256"},{"indexed":false,"internalType":"uint256","name":"platformTVL","type":"uint256"},{"indexed":false,"internalType":"uint256","name":"timestamp","type":"uint256"}],"name":"PlatformStatsSnapshot","type":"event"},{"anonymous":false,"inputs":[{"indexed":true,"internalType":"string","name":"appId","type":"string"},{"indexed":true,"internalType":"uint32","name":"campaignId","type":"uint32"},{"indexed":true,"internalType":"address","name":"developer","type":"address"},{"indexed":false,"internalType":"uint256","name":"totalContribution","type":"uint256"},{"indexed":false,"internalType":"uint256","name":"campaignTotalContribution","type":"uint256"},{"indexed":false,"internalType":"uint256","name":"rewardAmount","type":"uint256"},{"indexed":false,"internalType":"uint16","name":"contributionPercentage","type":"uint16"},{"indexed":false,"internalType":"uint256","name":"timestamp","type":"uint256"}],"name":"RewardCalculated","type":"event"},{"anonymous":false,"inputs":[{"indexed":true,"internalType":"string","name":"appId","type":"string"},{"indexed":true,"internalType":"uint32","name":"campaignId","type":"uint32"},{"indexed":true,"internalType":"address","name":"developer","type":"address"},{"indexed":false,"internalType":"uint256","name":"amount","type":"uint256"},{"indexed":false,"internalType":"uint256","name":"totalClaimedToDate","type":"uint256"},{"indexed":false,"internalType":"bytes32","name":"claimTxHash","type":"bytes32"},{"indexed":false,"internalType":"uint256","name":"timestamp","type":"uint256"}],"name":"RewardClaimed","type":"event"},{"anonymous":false,"inputs":[{"indexed":true,"internalType":"bytes32","name":"role","type":"bytes32"},{"indexed":true,"internalType":"bytes32","name":"previousAdminRole","type":"bytes32"},{"indexed":true,"internalType":"bytes32","name":"newAdminRole","type":"bytes32"}],"name":"RoleAdminChanged","type":"event"},{"anonymous":false,"inputs":[{"indexed":true,"internalType":"bytes32","name":"role","type":"bytes32"},{"indexed":true,"internalType":"address","name":"account","type":"address"},{"indexed":true,"internalType":"address","name":"sender","type":"address"}],"name":"RoleGranted","type":"event"},{"anonymous":false,"inputs":[{"indexed":true,"internalType":"bytes32","name":"role","type":"bytes32"},{"indexed":true,"internalType":"address","name":"account","type":"address"},{"indexed":true,"internalType":"address","name":"sender","type":"address"}],"name":"RoleRevoked","type":"event"},{"anonymous":false,"inputs":[{"indexed":true,"internalType":"string","name":"appId","type":"string"},{"indexed":true,"internalType":"uint32","name":"campaignId","type":"uint32"},{"indexed":true,"internalType":"bytes32","name":"txHash","type":"bytes32"},{"indexed":false,"internalType":"address","name":"developer","type":"address"},{"indexed":false,"internalType":"uint256","name":"gasUsed","type":"uint256"},{"indexed":false,"internalType":"uint256","name":"gasPrice","type":"uint256"},{"indexed":false,"internalType":"uint256","name":"transactionValue","type":"uint256"},{"indexed":false,"internalType":"uint256","name":"feeGenerated","type":"uint256"},{"indexed":false,"internalType":"uint256","name":"rewardCalculated","type":"uint256"},{"indexed":false,"internalType":"enum CrossEraRewardSystem.TransactionType","name":"transactionType","type":"uint8"},{"indexed":false,"internalType":"bytes32","name":"additionalData","type":"bytes32"},{"indexed":false,"internalType":"uint256","name":"timestamp","type":"uint256"}],"name":"TransactionProcessed","type":"event"},{"anonymous":false,"inputs":[{"indexed":false,"internalType":"address","name":"account","type":"address"}],"name":"Unpaused","type":"event"},{"inputs":[],"name":"ADMIN_ROLE","outputs":[{"internalType":"bytes32","name":"","type":"bytes32"}],"stateMutability":"view","type":"function"},{"inputs":[],"name":"CAMPAIGN_MANAGER_ROLE","outputs":[{"internalType":"bytes32","name":"","type":"bytes32"}],"stateMutability":"view","type":"function"},{"inputs":[],"name":"DEFAULT_ADMIN_ROLE","outputs":[{"internalType":"bytes32","name":"","type":"bytes32"}],"stateMutability":"view","type":"function"},{"inputs":[],"name":"VERIFIER_ROLE","outputs":[{"internalType":"bytes32","name":"","type":"bytes32"}],"stateMutability":"view","type":"function"},{"inputs":[{"internalType":"uint32","name":"campaignId","type":"uint32"}],"name":"activateCampaign","outputs":[],"stateMutability":"nonpayable","type":"function"},{"inputs":[{"internalType":"string","name":"","type":"string"}],"name":"appOwners","outputs":[{"internalType":"address","name":"","type":"address"}],"stateMutability":"view","type":"function"},{"inputs":[{"internalType":"uint32","name":"","type":"uint32"}],"name":"campaigns","outputs":[{"internalType":"bool","name":"exists","type":"bool"},{"internalType":"bool","name":"active","type":"bool"},{"internalType":"uint64","name":"startDate","type":"uint64"},{"internalType":"uint64","name":"endDate","type":"uint64"},{"internalType":"uint256","name":"totalPool","type":"uint256"},{"internalType":"uint256","name":"distributedRewards","type":"uint256"},{"internalType":"enum CrossEraRewardSystem.CampaignStatus","name":"status","type":"uint8"}],"stateMutability":"view","type":"function"},{"inputs":[{"internalType":"string","name":"appId","type":"string"},{"internalType":"uint8","name":"status","type":"uint8"},{"internalType":"string","name":"reason","type":"string"}],"name":"changeAppStatus","outputs":[],"stateMutability":"nonpayable","type":"function"},{"inputs":[{"internalType":"string","name":"appId","type":"string"},{"internalType":"uint32","name":"campaignId","type":"uint32"}],"name":"claimRewards","outputs":[{"internalType":"uint256","name":"","type":"uint256"}],"stateMutability":"nonpayable","type":"function"},{"inputs":[{"internalType":"string","name":"","type":"string"},{"internalType":"uint32","name":"","type":"uint32"}],"name":"claimableRewards","outputs":[{"internalType":"uint256","name":"","type":"uint256"}],"stateMutability":"view","type":"function"},{"inputs":[{"internalType":"string","name":"name","type":"string"},{"internalType":"string","name":"description","type":"string"},{"internalType":"uint256","name":"totalPool","type":"uint256"},{"internalType":"uint64","name":"startDate","type":"uint64"},{"internalType":"uint64","name":"endDate","type":"uint64"},{"internalType":"uint8","name":"rewardType","type":"uint8"},{"internalType":"bytes32","name":"rulesHash","type":"bytes32"}],"name":"createCampaign","outputs":[{"internalType":"uint32","name":"","type":"uint32"}],"stateMutability":"nonpayable","type":"function"},{"inputs":[{"internalType":"string","name":"reason","type":"string"}],"name":"emergencyPause","outputs":[],"stateMutability":"nonpayable","type":"function"},{"inputs":[{"internalType":"string","name":"reason","type":"string"}],"name":"emergencyUnpause","outputs":[],"stateMutability":"nonpayable","type":"function"},{"inputs":[{"internalType":"address","name":"token","type":"address"},{"internalType":"uint256","name":"amount","type":"uint256"},{"internalType":"string","name":"reason","type":"string"}],"name":"emergencyWithdraw","outputs":[],"stateMutability":"nonpayable","type":"function"},{"inputs":[{"internalType":"uint256","name":"totalTransactionsProcessed","type":"uint256"},{"internalType":"uint256","name":"totalVolumeProcessed","type":"uint256"},{"internalType":"uint256","name":"platformTVL","type":"uint256"}],"name":"emitPlatformStats","outputs":[],"stateMutability":"nonpayable","type":"function"},{"inputs":[{"internalType":"uint32","name":"campaignId","type":"uint32"}],"name":"getCampaign","outputs":[{"components":[{"internalType":"bool","name":"exists","type":"bool"},{"internalType":"bool","name":"active","type":"bool"},{"internalType":"uint64","name":"startDate","type":"uint64"},{"internalType":"uint64","name":"endDate","type":"uint64"},{"internalType":"uint256","name":"totalPool","type":"uint256"},{"internalType":"uint256","name":"distributedRewards","type":"uint256"},{"internalType":"enum CrossEraRewardSystem.CampaignStatus","name":"status","type":"uint8"}],"internalType":"struct CrossEraRewardSystem.CampaignCore","name":"","type":"tuple"}],"stateMutability":"view","type":"function"},{"inputs":[{"internalType":"string","name":"appId","type":"string"},{"internalType":"uint32","name":"campaignId","type":"uint32"}],"name":"getClaimableRewards","outputs":[{"internalType":"uint256","name":"","type":"uint256"}],"stateMutability":"view","type":"function"},{"inputs":[{"internalType":"bytes32","name":"role","type":"bytes32"}],"name":"getRoleAdmin","outputs":[{"internalType":"bytes32","name":"","type":"bytes32"}],"stateMutability":"view","type":"function"},{"inputs":[{"internalType":"bytes32","name":"role","type":"bytes32"},{"internalType":"address","name":"account","type":"address"}],"name":"grantRole","outputs":[],"stateMutability":"nonpayable","type":"function"},{"inputs":[{"internalType":"bytes32","name":"role","type":"bytes32"},{"internalType":"address","name":"account","type":"address"}],"name":"hasRole","outputs":[{"internalType":"bool","name":"","type":"bool"}],"stateMutability":"view","type":"function"},{"inputs":[{"internalType":"bytes32","name":"txHash","type":"bytes32"}],"name":"isTransactionProcessed","outputs":[{"internalType":"bool","name":"","type":"bool"}],"stateMutability":"view","type":"function"},{"inputs":[],"name":"minRewardAmount","outputs":[{"internalType":"uint256","name":"","type":"uint256"}],"stateMutability":"view","type":"function"},{"inputs":[],"name":"paused","outputs":[{"internalType":"bool","name":"","type":"bool"}],"stateMutability":"view","type":"function"},{"inputs":[{"internalType":"string","name":"appId","type":"string"},{"internalType":"uint32","name":"campaignId","type":"uint32"},{"internalType":"bytes32","name":"txHash","type":"bytes32"},{"internalType":"uint256","name":"gasUsed","type":"uint256"},{"internalType":"uint256","name":"gasPrice","type":"uint256"},{"internalType":"uint256","name":"transactionValue","type":"uint256"},{"internalType":"enum CrossEraRewardSystem.TransactionType","name":"transactionType","type":"uint8"},{"internalType":"bytes32","name":"additionalData","type":"bytes32"}],"name":"processTransaction","outputs":[],"stateMutability":"nonpayable","type":"function"},{"inputs":[{"internalType":"bytes32","name":"","type":"bytes32"}],"name":"processedTransactions","outputs":[{"internalType":"bool","name":"","type":"bool"}],"stateMutability":"view","type":"function"},{"inputs":[{"internalType":"string","name":"appId","type":"string"},{"internalType":"string","name":"appName","type":"string"},{"internalType":"string","name":"description","type":"string"},{"internalType":"string","name":"category","type":"string"},{"internalType":"string","name":"websiteUrl","type":"string"}],"name":"registerApp","outputs":[],"stateMutability":"nonpayable","type":"function"},{"inputs":[{"internalType":"string","name":"appId","type":"string"},{"internalType":"uint32","name":"campaignId","type":"uint32"},{"internalType":"uint256","name":"registrationFee","type":"uint256"},{"internalType":"bytes32","name":"registrationData","type":"bytes32"}],"name":"registerAppForCampaign","outputs":[],"stateMutability":"nonpayable","type":"function"},{"inputs":[{"internalType":"string","name":"","type":"string"}],"name":"registeredApps","outputs":[{"internalType":"bool","name":"","type":"bool"}],"stateMutability":"view","type":"function"},{"inputs":[{"internalType":"bytes32","name":"role","type":"bytes32"},{"internalType":"address","name":"callerConfirmation","type":"address"}],"name":"renounceRole","outputs":[],"stateMutability":"nonpayable","type":"function"},{"inputs":[{"internalType":"bytes32","name":"role","type":"bytes32"},{"internalType":"address","name":"account","type":"address"}],"name":"revokeRole","outputs":[],"stateMutability":"nonpayable","type":"function"},{"inputs":[],"name":"rewardToken","outputs":[{"internalType":"contract IERC20","name":"","type":"address"}],"stateMutability":"view","type":"function"},{"inputs":[{"internalType":"uint256","name":"_minRewardAmount","type":"uint256"}],"name":"setMinRewardAmount","outputs":[],"stateMutability":"nonpayable","type":"function"},{"inputs":[{"internalType":"bytes4","name":"interfaceId","type":"bytes4"}],"name":"supportsInterface","outputs":[{"internalType":"bool","name":"","type":"bool"}],"stateMutability":"view","type":"function"},{"inputs":[],"name":"totalApps","outputs":[{"internalType":"uint32","name":"","type":"uint32"}],"stateMutability":"view","type":"function"},{"inputs":[],"name":"totalCampaigns","outputs":[{"internalType":"uint32","name":"","type":"uint32"}],"stateMutability":"view","type":"function"},{"inputs":[],"name":"totalDevelopers","outputs":[{"internalType":"uint32","name":"","type":"uint32"}],"stateMutability":"view","type":"function"},{"inputs":[{"internalType":"string","name":"appId","type":"string"},{"internalType":"string","name":"newName","type":"string"},{"internalType":"string","name":"newDescription","type":"string"},{"internalType":"string","name":"newCategory","type":"string"},{"internalType":"string","name":"newWebsiteUrl","type":"string"}],"name":"updateApp","outputs":[],"stateMutability":"nonpayable","type":"function"}],"evm":{"bytecode":{"linkReferences":{},"object":"6080346200017157601f62002ae438819003918201601f19168301916001600160401b038311848410176200017657808492604094855283398101031262000171576200005a602062000052836200018c565b92016200018c565b6001805567016345785d8a00006009556001600160a01b03828116156200012c57811615620000e757600880546001600160601b031660609390931b6001600160601b03191692909217909155620000d690620000b781620001a1565b50620000c38162000221565b50620000cf81620002c3565b5062000360565b506040516126c69081620003fe8239f35b60405162461bcd60e51b815260206004820152601f60248201527f43726f73734572613a20496e76616c69642061646d696e2061646472657373006044820152606490fd5b60405162461bcd60e51b815260206004820152601f60248201527f43726f73734572613a20496e76616c696420746f6b656e2061646472657373006044820152606490fd5b600080fd5b634e487b7160e01b600052604160045260246000fd5b51906001600160a01b03821682036200017157565b6001600160a01b031660008181527fad3228b676f7d3cd4284a5443f17f1962b36e491b30a40b2405849e597ba5fb5602052604081205490919060ff166200021d57818052816020526040822081835260205260408220600160ff19825416179055339160008051602062002ac48339815191528180a4600190565b5090565b6001600160a01b031660008181527f7d7ffb7a348e1c6a02869081a26547b49160dd3df72d1d75a570eb9b698292ec60205260408120549091907fa49807205ce4d355092ef5a8a18f56e8913cf4a201fbe287825b095693c217759060ff16620002be57808352826020526040832082845260205260408320600160ff1982541617905560008051602062002ac4833981519152339380a4600190565b505090565b6001600160a01b031660008181527f1da0b5176dfe03406af5a6eed66ca01dda9b45ac4da671c3fa379cb93717ef8160205260408120549091907f0ce23c3e399818cfee81a7ab0880f714e53d7672b08df0fa62f2843416e1ea099060ff16620002be57808352826020526040832082845260205260408320600160ff1982541617905560008051602062002ac4833981519152339380a4600190565b6001600160a01b031660008181527ff1f96320644c4081b1a0a57dc68164d6c55774e3cf58cdafac3037ffaf50ba4560205260408120549091907f5022544358ee0bece556b72ae8983c7f24341bd5b9483ce8a19bff5efbb2de929060ff16620002be57808352826020526040832082845260205260408320600160ff1982541617905560008051602062002ac4833981519152339380a460019056fe608060408181526004918236101561001657600080fd5b60009260e0908435821c92836301ffc9a714611ee75750826302932f5614611ec157826312d3b8c914611ea1578263143607f014611d5b578263248a9ca314611d305782632f2ff15d14611d0657848363354723001461191d5750826336568abe146118d75782634434e7a2146103b75782634bbd9284146115c95782635c975abb146115a45782635ddfcba8146114ab57826365df7933146114845782636733b8941461133e5782636f62d8dd1461122e578263726d2c161461100b57826375b238fc14610fe15782637b3ac30014610f7f57826391d1485414610f385782639e62679914610e0d578263a217fddf14610df1578263a292854214610d47578263a762f58a14610d0b578263a982708b14610b0c578263ac2e4936146102fa578263accc0f011461079c578263c718c1e514610734578263c97c46221461070d57848363cf5b4fd51461062757508263d0897c131461047d578263d547741f1461043e578263e7705db614610402578263ead0d8fb146103b7578263eb81b5271461032c578263efc646ca146102fa57508163f54c9381146101e7575063f7c618c1146101c357600080fd5b346101e357816003193601126101e35760209060085460601c9051908152f35b5080fd5b8284346102f75760203660031901126102f757819063ffffffff610209611ffd565b8260c0855161021781611f55565b82815282602082015282878201528260608201528260808201528260a082015201521681526006602052209080519161024f83611f55565b805460ff811615158452602084019260ff8260081c1615158452808501916001600160401b0391828260101c16845282606088019260501c168252826001860154946080890195865260ff600360028901549860a08c01998a520154169760c08a01986102bb8161210d565b89528351995115158a5251151560208a0152511690870152511660608501525160808401525160a0830152516102f08161210d565b60c0820152f35b80fd5b91505034610328576020366003190112610328578160209360ff923581526005855220541690519015158152f35b8280fd5b508284346102f75760203660031901126102f757819063ffffffff61034f611ffd565b16815260066020522090815491600181015460ff60036002840154930154169280519460ff81161515865260ff8160081c16151560208701526001600160401b0391828260101c169087015260501c166060850152608084015260a08301526102f08161210d565b505050346101e357806020928363ffffffff6103e96103d536612023565b9390818751938285809451938492016120ea565b8101600781520301902091168252845220549051908152f35b505050346101e357816003193601126101e357602090517f0ce23c3e399818cfee81a7ab0880f714e53d7672b08df0fa62f2843416e1ea098152f35b8490843461032857806003193601126103285761047991356104746001610463611f3a565b93838752866020528620015461212d565b6121ef565b5080f35b91505034610328576080366003190112610328576001600160401b03918135838111610623576104b09036908401611fa7565b906104b9612010565b916044359463ffffffff83519461052661050885516104f960ff8a8c60209c8d91828d01966104e981848a6120ea565b8201908152030190205416612348565b875191829188519283916120ea565b81019060038252888160018060a01b03930301902054163314612394565b16948588526006855261053e60ff858a2054166124ee565b61054661232a565b85885260068552838820549061056160ff8360081c1661253a565b828260101c1642106105e0575061058d92916105839160501c16421115612586565b856105c8576122e5565b9181519485526064359085015242908401527f01f6d42498ff2c2992027ac6f7ff8a8f58449ce593fb289526d6bb3bd692bc6b60603394a480f35b6105db8660085460601c3090339061242c565b6122e5565b845162461bcd60e51b8152908101869052601e60248201527f43726f73734572613a2043616d706169676e206e6f74207374617274656400006044820152606490fd5b8480fd5b848183346101e35760203660031901126101e35780356001600160401b038111610328577f9541955fe0103a743846fe173a8457a20c006553629d32ce217a54e12bdfac639161067991369101611fa7565b6000805160206126718339815191528352826020528383203384526020526106a660ff858520541661262e565b6106ae61232a565b600160ff1960025416176002557f62e78cea01bee320cd4e420270b5ea74000d11b0c9f74754ebdbfc544b05a25860208551338152a16106f8845191606083526060830190612305565b9383602083015242908201528033940390a380f35b505050346101e357816003193601126101e3576008549051602091821c63ffffffff168152f35b8385346102f75760203660031901126102f7578235906001600160401b0382116102f7575060209261076891369101611fa7565b8261077b835192838151938492016120ea565b6003908201908152819003830190205490516001600160a01b039091168152f35b8490843461032857610100366003190112610328576001600160401b03938235858111610623576107d09036908501611fa7565b906107d9612010565b92604435946064359160843560a4359160c435946005861015610b08577f0ce23c3e399818cfee81a7ab0880f714e53d7672b08df0fa62f2843416e1ea098b526020988b8a52828c20338d528a5260ff838d20541615610acc578b9c838c9d8c9d8c948e845190818d828a519a019961085381848d6120ea565b8201908152030190205460ff1661086990612348565b63ffffffff169e8f8352600690528282205460ff16610887906124ee565b61088f61232a565b815260058d52205460ff16610a79578c15610a2b576108cf90848f60068f8f9083525220546108c360ff8260081c1661253a565b60501c16421115612586565b8b8d5260058a52828d20805460ff1916600117905581840295821583880486141715610a185750926101209795927f883d17fcfe01bdc2418733d264a3f9050bf98a987956f4d6450d30e969e6a09e999795928b8f96878f9850600a8804600954808211600014610a105750985b8c8a896109ea575b509186918594936109af96845180925161096081838a6120ea565b8101600781520301902090825284522061097b8a82546125d2565b90558b61098f8651928392519283916120ea565b60039082019081528190039091019020546001600160a01b0316996122e5565b9b8251998a528901528701526060860152608085015260a08401526109d38161210d565b60c083015260e4359082015242610100820152a480f35b6109af959493919b5091610a0488936103e88c04906125d2565b9b919394955091610945565b90509861093d565b634e487b7160e01b8e526011905260248dfd5b835162461bcd60e51b81528088018c9052602260248201527f43726f73734572613a20496e76616c6964207472616e73616374696f6e2068616044820152610e6d60f31b6064820152608490fd5b835162461bcd60e51b81528088018c9052602760248201527f43726f73734572613a205472616e73616374696f6e20616c72656164792070726044820152661bd8d95cdcd95960ca1b6064820152608490fd5b825162461bcd60e51b81528087018b9052601660248201527521b937b9b9a2b9309d102737ba103b32b934b334b2b960511b6044820152606490fd5b8a80fd5b915050346103285760209182600319360112610d075763ffffffff610b2f611ffd565b7f5022544358ee0bece556b72ae8983c7f24341bd5b9483ce8a19bff5efbb2de9286528585528286203387528552610b6c60ff84882054166123e0565b169283855260068152610b8460ff83872054166124ee565b610b8c61232a565b83855260068152818520600381019384549460ff861695610bac8761210d565b86610cc4578354926001600160401b03808560101c164210610c73578460501c164211610c305750926101007f4af6f5552b6a54784785903a6dc051a23929332800a322c93031a560627f46399693606096936001809b9a9760ff191617905561ff001916179055815192610c208161210d565b835233908301524290820152a380f35b865162461bcd60e51b8152908101869052601a60248201527f43726f73734572613a2043616d706169676e20657870697265640000000000006044820152606490fd5b875162461bcd60e51b8152808301889052602560248201527f43726f73734572613a2043616d706169676e206e6f7420726561647920746f206044820152641cdd185c9d60da1b6064820152608490fd5b855162461bcd60e51b8152808401869052601e60248201527f43726f73734572613a2043616d706169676e206e6f742070656e64696e6700006044820152606490fd5b8380fd5b505050346101e357816003193601126101e357602090517f5022544358ee0bece556b72ae8983c7f24341bd5b9483ce8a19bff5efbb2de928152f35b849084346103285760203660031901126103285760807fc637310a9bc2f103fba5b894b0445d8ccefb4c23b22830d18dfaa3f2c98901e3917f314dd05f042f670d15b492f77379a86e30173b5c4d48de79af34f87d07d32810933590600080516020612671833981519152865285602052808620338752602052610dd060ff828820541661262e565b6009549180600955815192835260208301523390820152426060820152a280f35b505050346101e357816003193601126101e35751908152602090f35b915050346103285760603660031901126103285780356001600160a01b0381169081810361062357602435936001600160401b0393604435858111610f345786610e5d610e929236908501611fa7565b956000805160206126718339815191528a5289602052848a20338b52602052610e8b60ff868c20541661262e565b33906125df565b81519560208701936bffffffffffffffffffffffff199060601b168452603487015260348652606086019486861090861117610f21575091610f0884926002957f9541955fe0103a743846fe173a8457a20c006553629d32ce217a54e12bdfac63955286519020916060845260c0870190612305565b9060808601524260a08601523394605f1991030190a380f35b634e487b7160e01b875260419052602486fd5b8780fd5b915050346103285781600319360112610328578160209360ff92610f5a611f3a565b903582528186528282206001600160a01b039091168252855220549151911615158152f35b8385346102f75760203660031901126102f7578235906001600160401b0382116102f75750610fcd60208094610fba60ff9436908301611fa7565b90828651948386809551938492016120ea565b820190815203019020541690519015158152f35b505050346101e357816003193601126101e357602090516000805160206126718339815191528152f35b8385346102f75761101b36612023565b94909183519583519261104d60ff6020998a81818a019861103d81838c6120ea565b81018c8152030190205416612348565b61107d8651865161105f8183896120ea565b810190600382528a8160018060a01b03930301902054163314612394565b63ffffffff8216938484526006895261109b60ff88862054166124ee565b60026001541461121e5760026001556110b261232a565b8651898188516110c38183876120ea565b810160078152030190208585528952868420549788156111db57508561116161118260588c611196976002978d978f611141908b8f8f8d918d8a845180925161110d81838d6120ea565b81016007815203019020908252895280828120556006895220016111328282546125d2565b9055600854339060601c6125df565b8851968794850198428a523360601b8b87015251809260548701906120ea565b83019163ffffffff60e01b911b166054820152036038810184520182611f86565b5190209385815260068a52200154936122e5565b9084519386855287850152848401524260608401527f8e16fb8749bc398b1f814f3a236318c5815a94e2b707d7de6e016e1d3df44ce860803394a46001805551908152f35b875162461bcd60e51b81529081018a9052601d60248201527f43726f73734572613a204e6f207265776172647320746f20636c61696d0000006044820152606490fd5b8651633ee5aeb560e01b81528890fd5b91505034610328577fcd38195c1053ea3e5b739c16c4861bd97a31c423aa7546d8b40ce23e62470e0c6113236112e56113156112c6956112a79561130861127436612061565b9893929c919b909561129860ff8951602081885195828a01966104e981848a6120ea565b875191829185519283916120ea565b8101906003825260208160018060a01b03930301902054163314612394565b6112ce61232a565b6105db8b51868115159182611333575b5050612264565b976112fa84519a60a08c5260a08c0190612305565b908a820360208c0152612305565b9188830390890152612305565b908582036060870152612305565b924260808201528033940390a380f35b1115905086386112de565b91505034610328576060366003190112610328576001600160401b038135818111610623576113709036908401611fa7565b6024359160ff831680930361148057604435908111611480576113969036908501611fa7565b926113d86112a786516113c960ff865192602081818a01956113b98183896120ea565b8101898152030190205416612348565b875191829186519283916120ea565b6113e061232a565b6002831161143d57509061142e6114177f7f71c4f72a1f0e686e067271f16d4a0ade0e292392ae7c3f043dedb76fb99c02936122e5565b938551928352606060208401526060830190612305565b9342908201528033940390a380f35b606490602086519162461bcd60e51b8352820152601860248201527f43726f73734572613a20496e76616c69642073746174757300000000000000006044820152fd5b8580fd5b505050346101e357816003193601126101e3576008548151911c63ffffffff168152602090f35b915050346103285760203660031901126103285780356001600160401b038111610d07576114dc9036908301611fa7565b9060008051602061267183398151915284528360205282842033855260205261150a60ff848620541661262e565b6002549060ff82161561159657506001917f9541955fe0103a743846fe173a8457a20c006553629d32ce217a54e12bdfac639160ff19166002557f5db9ee0a495bf2e6ff9c91a7834c1ba4fdd244a5e8aa4e537bd38aeae4b073aa60208551338152a1611581845191606083526060830190612305565b9385602083015242908201528033940390a380f35b8351638dfc202b60e01b8152fd5b505050346101e357816003193601126101e35760209060ff6002541690519015158152f35b91505034610328576115da36612061565b92939591946115e761232a565b865180151590816118cb575b50156118885761160f855184811515918261187d575050612264565b82519087519060ff6020938481818d019561162b8183896120ea565b810185815203019020541661183c57845189516116498183866120ea565b600390820190815281900384019020546001600160a01b031661180057926117d0836116de6117dd9588957f8394ea016deb4479169941b49d96f0f2f1f624c8ed44c1d78858c2cf42a872ce9b9a988e6117eb9b51848183516116ad8183896120ea565b81016003815203019020336bffffffffffffffffffffffff60a01b82541617905588519485938492519283916120ea565b820190815203019020805460ff1916600117905560085463ffffffff6bffffffff000000000000000061173a67ffffffff0000000061172085871c85166122ba565b861b169267ffffffff000000001985168417891c166122ba565b871b16916bffffffffffffffff00000000191617176008556117ae8a85516117a584828b8261177281840197888151938492016120ea565b8a5190830161178682868301878f016120ea565b01611799825180938680850191016120ea565b01038084520182611f86565b5190209b6122e5565b996117c385519960c08b5260c08b0190612305565b91898303908a0152612305565b9186830390870152612305565b908382036060850152612305565b9360808201524260a08201528033940390a380f35b845162461bcd60e51b8152908101839052601660248201527521b937b9b9a2b9309d1020b8381024a2103a30b5b2b760511b6044820152606490fd5b606490838087519262461bcd60e51b845283015260248201527f43726f73734572613a2041707020616c726561647920726567697374657265646044820152fd5b1115905084386112de565b606490602084519162461bcd60e51b8352820152601f60248201527f43726f73734572613a20496e76616c696420617070204944206c656e677468006044820152fd5b602091501115386115f3565b8484346101e357806003193601126101e3576118f1611f3a565b90336001600160a01b0383160361190e57506104799192356121ef565b5163334bd91960e11b81528390fd5b9392509034611d015780600319360112611d01576001600160401b03908235828111611480576119509036908501611fa7565b9060248035848111610f34576119699036908701611fa7565b936044803596606490813592848416809403611cfd57608435948516809503611cfd5760a4359560ff8716809703611cf9577f5022544358ee0bece556b72ae8983c7f24341bd5b9483ce8a19bff5efbb2de928d5260209d8e8181528d822091339052528b8d205460ff166119dd906123e0565b6119e561232a565b88518c8115159182611cee575b505015611cb0578a15611c725742851115611c235784861115611bcf5760028711611b9157505050506008549563ffffffff808816611a30906122ba565b16809a81809963ffffffff1916176008558c8a8c805193611a5085611f55565b60018552838501918183528086019089825260608701928b84526080880195865260a088019681885260c0890199828b5282526006905220955115159286549051151560081b61ff0016915160101b69ffffffffffffffff000016926001600160401b0360501b905160501b169360ff169071ffffffffffffffffffffffffffffffffffff19161717171783555160018301555160028201556003019051611af78161210d565b611b008161210d565b60ff198254169060ff1617905560085460601c883033611b1f9361242c565b8851956101008088528701611b3391612305565b8681038c880152611b4391612305565b96888601526060850152608084015260a083015260c43560c08301524290820152803393037fee251b552d73550de19a2232a9ec98911ee7719d531264fcfadd30fb8b14bed291a351908152f35b8b5162461bcd60e51b81529283018e9052601d908301527f43726f73734572613a20496e76616c696420726577617264207479706500000090820152fd5b927f43726f73734572613a20456e642064617465206d7573742062652061667465726a207374617274206461746560a81b928f6084968f91602b92519762461bcd60e51b8952880152860152840152820152fd5b927f43726f73734572613a2053746172742064617465206d75737420626520696e206566757475726560d01b928f6084968f91602692519762461bcd60e51b8952880152860152840152820152fd5b8b5162461bcd60e51b81529283018e9052601d908301527f43726f73734572613a20496e76616c696420706f6f6c20616d6f756e7400000090820152fd5b8b5162461bcd60e51b81529283018e9052601f908301527f43726f73734572613a20496e76616c69642063616d706169676e206e616d650090820152fd5b111590508c386119f2565b8c80fd5b8b80fd5b505050fd5b849084346103285780600319360112610328576104799135611d2b6001610463611f3a565b612171565b9150503461032857602036600319011261032857816020936001923581528085522001549051908152f35b9084925034610328576060366003190112610328576000805160206126718339815191528352602091838352848420338552835260ff94611da086828720541661262e565b84908591600195866008978089549963ffffffff9c8d8c16935b611e27575b87518c891c8f1681528c871c8f1681880152878f16818a0152606081018a90528a35608082015260243560a082015260443560c082015242818d01528d907f596e049c7e14f0709dbe7ac834a239ef7a0ea5556f708b66b7d7c54e275134589061010090a180f35b90919293978d8916858111611e9a578d818a928252600690818a528584842054881c16611e76575b825288522060020154611e6c91611e6691906125d2565b986122ba565b9392919082611dba565b9992611e6c9492600292611e8c611e66966122ba565b9c9295509250929450611e4f565b5097611dbf565b505050346101e357816003193601126101e3576020906009549051908152f35b505050346101e357816003193601126101e35760209063ffffffff600854169051908152f35b859134610328576020366003190112610328573563ffffffff60e01b81168091036103285760209250637965db0b60e01b8114908115611f29575b5015158152f35b6301ffc9a760e01b14905083611f22565b602435906001600160a01b0382168203611f5057565b600080fd5b60e081019081106001600160401b03821117611f7057604052565b634e487b7160e01b600052604160045260246000fd5b90601f801991011681019081106001600160401b03821117611f7057604052565b81601f82011215611f50578035906001600160401b038211611f705760405192611fdb601f8401601f191660200185611f86565b82845260208383010111611f5057816000926020809301838601378301015290565b6004359063ffffffff82168203611f5057565b6024359063ffffffff82168203611f5057565b6040600319820112611f5057600435906001600160401b038211611f505761204d91600401611fa7565b9060243563ffffffff81168103611f505790565b60a0600319820112611f50576004906001600160401b038235818111611f50578261208d918501611fa7565b93602435828111611f5057836120a4918601611fa7565b93604435838111611f5057846120bb918301611fa7565b93606435848111611f5057816120d2918401611fa7565b93608435908111611f50576120e79201611fa7565b90565b60005b8381106120fd5750506000910152565b81810151838201526020016120ed565b6005111561211757565b634e487b7160e01b600052602160045260246000fd5b80600052600060205260406000203360005260205260ff60406000205416156121535750565b6044906040519063e2517d3f60e01b82523360048301526024820152fd5b9060009180835282602052604083209160018060a01b03169182845260205260ff604084205416156000146121ea57808352826020526040832082845260205260408320600160ff198254161790557f2f8788117e7eff1d82e926ec794901d17c78024a50270940304540a733656f0d339380a4600190565b505090565b9060009180835282602052604083209160018060a01b03169182845260205260ff6040842054166000146121ea5780835282602052604083208284526020526040832060ff1981541690557ff6391f5c32d9c69d2a47ea670b442974b53935d1edc7fd64eb21e047a839171b339380a4600190565b1561226b57565b60405162461bcd60e51b815260206004820152602160248201527f43726f73734572613a20496e76616c696420617070206e616d65206c656e67746044820152600d60fb1b6064820152608490fd5b63ffffffff8091169081146122cf5760010190565b634e487b7160e01b600052601160045260246000fd5b6122fd906020604051928284809451938492016120ea565b810103902090565b9060209161231e815180928185528580860191016120ea565b601f01601f1916010190565b60ff6002541661233657565b60405163d93c066560e01b8152600490fd5b1561234f57565b60405162461bcd60e51b815260206004820152601c60248201527f43726f73734572613a20417070206e6f742072656769737465726564000000006044820152606490fd5b1561239b57565b60405162461bcd60e51b815260206004820152601760248201527f43726f73734572613a204e6f7420617070206f776e65720000000000000000006044820152606490fd5b156123e757565b60405162461bcd60e51b815260206004820152601e60248201527f43726f73734572613a204e6f742063616d706169676e206d616e6167657200006044820152606490fd5b6040516323b872dd60e01b60208201526001600160a01b03928316602482015292909116604483015260648083019390935291815260a08101918183106001600160401b03841117611f705761248492604052612486565b565b906000602091828151910182855af1156124e2576000513d6124d957506001600160a01b0381163b155b6124b75750565b604051635274afe760e01b81526001600160a01b039091166004820152602490fd5b600114156124b0565b6040513d6000823e3d90fd5b156124f557565b60405162461bcd60e51b815260206004820152601c60248201527f43726f73734572613a2043616d706169676e206e6f7420666f756e64000000006044820152606490fd5b1561254157565b60405162461bcd60e51b815260206004820152601d60248201527f43726f73734572613a2043616d706169676e206e6f74206163746976650000006044820152606490fd5b1561258d57565b60405162461bcd60e51b815260206004820152601860248201527f43726f73734572613a2043616d706169676e20656e64656400000000000000006044820152606490fd5b919082018092116122cf57565b60405163a9059cbb60e01b60208201526001600160a01b03909216602483015260448083019390935291815260808101916001600160401b03831182841017611f705761248492604052612486565b1561263557565b60405162461bcd60e51b815260206004820152601360248201527221b937b9b9a2b9309d102737ba1030b236b4b760691b6044820152606490fdfea49807205ce4d355092ef5a8a18f56e8913cf4a201fbe287825b095693c21775a2646970667358221220d03622f272ed6d5b35a8e02784fade93c41942b738e5425633f3274646e0a0a564736f6c634300081400332f8788117e7eff1d82e926ec794901d17c78024a50270940304540a733656f0d","opcodes":"PUSH1 0x80 CALLVALUE PUSH3 0x171 JUMPI PUSH1 0x1F PUSH3 0x2AE4 CODESIZE DUP2 SWAP1 SUB SWAP2 DUP3 ADD PUSH1 0x1F NOT AND DUP4 ADD SWAP2 PUSH1 0x1 PUSH1 0x1 PUSH1 0x40 SHL SUB DUP4 GT DUP5 DUP5 LT OR PUSH3 0x176 JUMPI DUP1 DUP5 SWAP3 PUSH1 0x40 SWAP5 DUP6 MSTORE DUP4 CODECOPY DUP2 ADD SUB SLT PUSH3 0x171 JUMPI PUSH3 0x5A PUSH1 0x20 PUSH3 0x52 DUP4 PUSH3 0x18C JUMP JUMPDEST SWAP3 ADD PUSH3 0x18C JUMP JUMPDEST PUSH1 0x1 DUP1 SSTORE PUSH8 0x16345785D8A0000 PUSH1 0x9 SSTORE PUSH1 0x1 PUSH1 0x1 PUSH1 0xA0 SHL SUB DUP3 DUP2 AND ISZERO PUSH3 0x12C JUMPI DUP2 AND ISZERO PUSH3 0xE7 JUMPI PUSH1 0x8 DUP1 SLOAD PUSH1 0x1 PUSH1 0x1 PUSH1 0x60 SHL SUB AND PUSH1 0x60 SWAP4 SWAP1 SWAP4 SHL PUSH1 0x1 PUSH1 0x1 PUSH1 0x60 SHL SUB NOT AND SWAP3 SWAP1 SWAP3 OR SWAP1 SWAP2 SSTORE PUSH3 0xD6 SWAP1 PUSH3 0xB7 DUP2 PUSH3 0x1A1 JUMP JUMPDEST POP PUSH3 0xC3 DUP2 PUSH3 0x221 JUMP JUMPDEST POP PUSH3 0xCF DUP2 PUSH3 0x2C3 JUMP JUMPDEST POP PUSH3 0x360 JUMP JUMPDEST POP PUSH1 0x40 MLOAD PUSH2 0x26C6 SWAP1 DUP2 PUSH3 0x3FE DUP3 CODECOPY RETURN JUMPDEST PUSH1 0x40 MLOAD PUSH3 0x461BCD PUSH1 0xE5 SHL DUP2 MSTORE PUSH1 0x20 PUSH1 0x4 DUP3 ADD MSTORE PUSH1 0x1F PUSH1 0x24 DUP3 ADD MSTORE PUSH32 0x43726F73734572613A20496E76616C69642061646D696E206164647265737300 PUSH1 0x44 DUP3 ADD MSTORE PUSH1 0x64 SWAP1 REVERT JUMPDEST PUSH1 0x40 MLOAD PUSH3 0x461BCD PUSH1 0xE5 SHL DUP2 MSTORE PUSH1 0x20 PUSH1 0x4 DUP3 ADD MSTORE PUSH1 0x1F PUSH1 0x24 DUP3 ADD MSTORE PUSH32 0x43726F73734572613A20496E76616C696420746F6B656E206164647265737300 PUSH1 0x44 DUP3 ADD MSTORE PUSH1 0x64 SWAP1 REVERT JUMPDEST PUSH1 0x0 DUP1 REVERT JUMPDEST PUSH4 0x4E487B71 PUSH1 0xE0 SHL PUSH1 0x0 MSTORE PUSH1 0x41 PUSH1 0x4 MSTORE PUSH1 0x24 PUSH1 0x0 REVERT JUMPDEST MLOAD SWAP1 PUSH1 0x1 PUSH1 0x1 PUSH1 0xA0 SHL SUB DUP3 AND DUP3 SUB PUSH3 0x171 JUMPI JUMP JUMPDEST PUSH1 0x1 PUSH1 0x1 PUSH1 0xA0 SHL SUB AND PUSH1 0x0 DUP2 DUP2 MSTORE PUSH32 0xAD3228B676F7D3CD4284A5443F17F1962B36E491B30A40B2405849E597BA5FB5 PUSH1 0x20 MSTORE PUSH1 0x40 DUP2 KECCAK256 SLOAD SWAP1 SWAP2 SWAP1 PUSH1 0xFF AND PUSH3 0x21D JUMPI DUP2 DUP1 MSTORE DUP2 PUSH1 0x20 MSTORE PUSH1 0x40 DUP3 KECCAK256 DUP2 DUP4 MSTORE PUSH1 0x20 MSTORE PUSH1 0x40 DUP3 KECCAK256 PUSH1 0x1 PUSH1 0xFF NOT DUP3 SLOAD AND OR SWAP1 SSTORE CALLER SWAP2 PUSH1 0x0 DUP1 MLOAD PUSH1 0x20 PUSH3 0x2AC4 DUP4 CODECOPY DUP2 MLOAD SWAP2 MSTORE DUP2 DUP1 LOG4 PUSH1 0x1 SWAP1 JUMP JUMPDEST POP SWAP1 JUMP JUMPDEST PUSH1 0x1 PUSH1 0x1 PUSH1 0xA0 SHL SUB AND PUSH1 0x0 DUP2 DUP2 MSTORE PUSH32 0x7D7FFB7A348E1C6A02869081A26547B49160DD3DF72D1D75A570EB9B698292EC PUSH1 0x20 MSTORE PUSH1 0x40 DUP2 KECCAK256 SLOAD SWAP1 SWAP2 SWAP1 PUSH32 0xA49807205CE4D355092EF5A8A18F56E8913CF4A201FBE287825B095693C21775 SWAP1 PUSH1 0xFF AND PUSH3 0x2BE JUMPI DUP1 DUP4 MSTORE DUP3 PUSH1 0x20 MSTORE PUSH1 0x40 DUP4 KECCAK256 DUP3 DUP5 MSTORE PUSH1 0x20 MSTORE PUSH1 0x40 DUP4 KECCAK256 PUSH1 0x1 PUSH1 0xFF NOT DUP3 SLOAD AND OR SWAP1 SSTORE PUSH1 0x0 DUP1 MLOAD PUSH1 0x20 PUSH3 0x2AC4 DUP4 CODECOPY DUP2 MLOAD SWAP2 MSTORE CALLER SWAP4 DUP1 LOG4 PUSH1 0x1 SWAP1 JUMP JUMPDEST POP POP SWAP1 JUMP JUMPDEST PUSH1 0x1 PUSH1 0x1 PUSH1 0xA0 SHL SUB AND PUSH1 0x0 DUP2 DUP2 MSTORE PUSH32 0x1DA0B5176DFE03406AF5A6EED66CA01DDA9B45AC4DA671C3FA379CB93717EF81 PUSH1 0x20 MSTORE PUSH1 0x40 DUP2 KECCAK256 SLOAD SWAP1 SWAP2 SWAP1 PUSH32 0xCE23C3E399818CFEE81A7AB0880F714E53D7672B08DF0FA62F2843416E1EA09 SWAP1 PUSH1 0xFF AND PUSH3 0x2BE JUMPI DUP1 DUP4 MSTORE DUP3 PUSH1 0x20 MSTORE PUSH1 0x40 DUP4 KECCAK256 DUP3 DUP5 MSTORE PUSH1 0x20 MSTORE PUSH1 0x40 DUP4 KECCAK256 PUSH1 0x1 PUSH1 0xFF NOT DUP3 SLOAD AND OR SWAP1 SSTORE PUSH1 0x0 DUP1 MLOAD PUSH1 0x20 PUSH3 0x2AC4 DUP4 CODECOPY DUP2 MLOAD SWAP2 MSTORE CALLER SWAP4 DUP1 LOG4 PUSH1 0x1 SWAP1 JUMP JUMPDEST PUSH1 0x1 PUSH1 0x1 PUSH1 0xA0 SHL SUB AND PUSH1 0x0 DUP2 DUP2 MSTORE PUSH32 0xF1F96320644C4081B1A0A57DC68164D6C55774E3CF58CDAFAC3037FFAF50BA45 PUSH1 0x20 MSTORE PUSH1 0x40 DUP2 KECCAK256 SLOAD SWAP1 SWAP2 SWAP1 PUSH32 0x5022544358EE0BECE556B72AE8983C7F24341BD5B9483CE8A19BFF5EFBB2DE92 SWAP1 PUSH1 0xFF AND PUSH3 0x2BE JUMPI DUP1 DUP4 MSTORE DUP3 PUSH1 0x20 MSTORE PUSH1 0x40 DUP4 KECCAK256 DUP3 DUP5 MSTORE PUSH1 0x20 MSTORE PUSH1 0x40 DUP4 KECCAK256 PUSH1 0x1 PUSH1 0xFF NOT DUP3 SLOAD AND OR SWAP1 SSTORE PUSH1 0x0 DUP1 MLOAD PUSH1 0x20 PUSH3 0x2AC4 DUP4 CODECOPY DUP2 MLOAD SWAP2 MSTORE CALLER SWAP4 DUP1 LOG4 PUSH1 0x1 SWAP1 JUMP INVALID PUSH1 0x80 PUSH1 0x40 DUP2 DUP2 MSTORE PUSH1 0x4 SWAP2 DUP3 CALLDATASIZE LT ISZERO PUSH2 0x16 JUMPI PUSH1 0x0 DUP1 REVERT JUMPDEST PUSH1 0x0 SWAP3 PUSH1 0xE0 SWAP1 DUP5 CALLDATALOAD DUP3 SHR SWAP3 DUP4 PUSH4 0x1FFC9A7 EQ PUSH2 0x1EE7 JUMPI POP DUP3 PUSH4 0x2932F56 EQ PUSH2 0x1EC1 JUMPI DUP3 PUSH4 0x12D3B8C9 EQ PUSH2 0x1EA1 JUMPI DUP3 PUSH4 0x143607F0 EQ PUSH2 0x1D5B JUMPI DUP3 PUSH4 0x248A9CA3 EQ PUSH2 0x1D30 JUMPI DUP3 PUSH4 0x2F2FF15D EQ PUSH2 0x1D06 JUMPI DUP5 DUP4 PUSH4 0x35472300 EQ PUSH2 0x191D JUMPI POP DUP3 PUSH4 0x36568ABE EQ PUSH2 0x18D7 JUMPI DUP3 PUSH4 0x4434E7A2 EQ PUSH2 0x3B7 JUMPI DUP3 PUSH4 0x4BBD9284 EQ PUSH2 0x15C9 JUMPI DUP3 PUSH4 0x5C975ABB EQ PUSH2 0x15A4 JUMPI DUP3 PUSH4 0x5DDFCBA8 EQ PUSH2 0x14AB JUMPI DUP3 PUSH4 0x65DF7933 EQ PUSH2 0x1484 JUMPI DUP3 PUSH4 0x6733B894 EQ PUSH2 0x133E JUMPI DUP3 PUSH4 0x6F62D8DD EQ PUSH2 0x122E JUMPI DUP3 PUSH4 0x726D2C16 EQ PUSH2 0x100B JUMPI DUP3 PUSH4 0x75B238FC EQ PUSH2 0xFE1 JUMPI DUP3 PUSH4 0x7B3AC300 EQ PUSH2 0xF7F JUMPI DUP3 PUSH4 0x91D14854 EQ PUSH2 0xF38 JUMPI DUP3 PUSH4 0x9E626799 EQ PUSH2 0xE0D JUMPI DUP3 PUSH4 0xA217FDDF EQ PUSH2 0xDF1 JUMPI DUP3 PUSH4 0xA2928542 EQ PUSH2 0xD47 JUMPI DUP3 PUSH4 0xA762F58A EQ PUSH2 0xD0B JUMPI DUP3 PUSH4 0xA982708B EQ PUSH2 0xB0C JUMPI DUP3 PUSH4 0xAC2E4936 EQ PUSH2 0x2FA JUMPI DUP3 PUSH4 0xACCC0F01 EQ PUSH2 0x79C JUMPI DUP3 PUSH4 0xC718C1E5 EQ PUSH2 0x734 JUMPI DUP3 PUSH4 0xC97C4622 EQ PUSH2 0x70D JUMPI DUP5 DUP4 PUSH4 0xCF5B4FD5 EQ PUSH2 0x627 JUMPI POP DUP3 PUSH4 0xD0897C13 EQ PUSH2 0x47D JUMPI DUP3 PUSH4 0xD547741F EQ PUSH2 0x43E JUMPI DUP3 PUSH4 0xE7705DB6 EQ PUSH2 0x402 JUMPI DUP3 PUSH4 0xEAD0D8FB EQ PUSH2 0x3B7 JUMPI DUP3 PUSH4 0xEB81B527 EQ PUSH2 0x32C JUMPI DUP3 PUSH4 0xEFC646CA EQ PUSH2 0x2FA JUMPI POP DUP2 PUSH4 0xF54C9381 EQ PUSH2 0x1E7 JUMPI POP PUSH4 0xF7C618C1 EQ PUSH2 0x1C3 JUMPI PUSH1 0x0 DUP1 REVERT JUMPDEST CALLVALUE PUSH2 0x1E3 JUMPI DUP2 PUSH1 0x3 NOT CALLDATASIZE ADD SLT PUSH2 0x1E3 JUMPI PUSH1 0x20 SWAP1 PUSH1 0x8 SLOAD PUSH1 0x60 SHR SWAP1 MLOAD SWAP1 DUP2 MSTORE RETURN JUMPDEST POP DUP1 REVERT JUMPDEST DUP3 DUP5 CALLVALUE PUSH2 0x2F7 JUMPI PUSH1 0x20 CALLDATASIZE PUSH1 0x3 NOT ADD SLT PUSH2 0x2F7 JUMPI DUP2 SWAP1 PUSH4 0xFFFFFFFF PUSH2 0x209 PUSH2 0x1FFD JUMP JUMPDEST DUP3 PUSH1 0xC0 DUP6 MLOAD PUSH2 0x217 DUP2 PUSH2 0x1F55 JUMP JUMPDEST DUP3 DUP2 MSTORE DUP3 PUSH1 0x20 DUP3 ADD MSTORE DUP3 DUP8 DUP3 ADD MSTORE DUP3 PUSH1 0x60 DUP3 ADD MSTORE DUP3 PUSH1 0x80 DUP3 ADD MSTORE DUP3 PUSH1 0xA0 DUP3 ADD MSTORE ADD MSTORE AND DUP2 MSTORE PUSH1 0x6 PUSH1 0x20 MSTORE KECCAK256 SWAP1 DUP1 MLOAD SWAP2 PUSH2 0x24F DUP4 PUSH2 0x1F55 JUMP JUMPDEST DUP1 SLOAD PUSH1 0xFF DUP2 AND ISZERO ISZERO DUP5 MSTORE PUSH1 0x20 DUP5 ADD SWAP3 PUSH1 0xFF DUP3 PUSH1 0x8 SHR AND ISZERO ISZERO DUP5 MSTORE DUP1 DUP6 ADD SWAP2 PUSH1 0x1 PUSH1 0x1 PUSH1 0x40 SHL SUB SWAP2 DUP3 DUP3 PUSH1 0x10 SHR AND DUP5 MSTORE DUP3 PUSH1 0x60 DUP9 ADD SWAP3 PUSH1 0x50 SHR AND DUP3 MSTORE DUP3 PUSH1 0x1 DUP7 ADD SLOAD SWAP5 PUSH1 0x80 DUP10 ADD SWAP6 DUP7 MSTORE PUSH1 0xFF PUSH1 0x3 PUSH1 0x2 DUP10 ADD SLOAD SWAP9 PUSH1 0xA0 DUP13 ADD SWAP10 DUP11 MSTORE ADD SLOAD AND SWAP8 PUSH1 0xC0 DUP11 ADD SWAP9 PUSH2 0x2BB DUP2 PUSH2 0x210D JUMP JUMPDEST DUP10 MSTORE DUP4 MLOAD SWAP10 MLOAD ISZERO ISZERO DUP11 MSTORE MLOAD ISZERO ISZERO PUSH1 0x20 DUP11 ADD MSTORE MLOAD AND SWAP1 DUP8 ADD MSTORE MLOAD AND PUSH1 0x60 DUP6 ADD MSTORE MLOAD PUSH1 0x80 DUP5 ADD MSTORE MLOAD PUSH1 0xA0 DUP4 ADD MSTORE MLOAD PUSH2 0x2F0 DUP2 PUSH2 0x210D JUMP JUMPDEST PUSH1 0xC0 DUP3 ADD MSTORE RETURN JUMPDEST DUP1 REVERT JUMPDEST SWAP2 POP POP CALLVALUE PUSH2 0x328 JUMPI PUSH1 0x20 CALLDATASIZE PUSH1 0x3 NOT ADD SLT PUSH2 0x328 JUMPI DUP2 PUSH1 0x20 SWAP4 PUSH1 0xFF SWAP3 CALLDATALOAD DUP2 MSTORE PUSH1 0x5 DUP6 MSTORE KECCAK256 SLOAD AND SWAP1 MLOAD SWAP1 ISZERO ISZERO DUP2 MSTORE RETURN JUMPDEST DUP3 DUP1 REVERT JUMPDEST POP DUP3 DUP5 CALLVALUE PUSH2 0x2F7 JUMPI PUSH1 0x20 CALLDATASIZE PUSH1 0x3 NOT ADD SLT PUSH2 0x2F7 JUMPI DUP2 SWAP1 PUSH4 0xFFFFFFFF PUSH2 0x34F PUSH2 0x1FFD JUMP JUMPDEST AND DUP2 MSTORE PUSH1 0x6 PUSH1 0x20 MSTORE KECCAK256 SWAP1 DUP2 SLOAD SWAP2 PUSH1 0x1 DUP2 ADD SLOAD PUSH1 0xFF PUSH1 0x3 PUSH1 0x2 DUP5 ADD SLOAD SWAP4 ADD SLOAD AND SWAP3 DUP1 MLOAD SWAP5 PUSH1 0xFF DUP2 AND ISZERO ISZERO DUP7 MSTORE PUSH1 0xFF DUP2 PUSH1 0x8 SHR AND ISZERO ISZERO PUSH1 0x20 DUP8 ADD MSTORE PUSH1 0x1 PUSH1 0x1 PUSH1 0x40 SHL SUB SWAP2 DUP3 DUP3 PUSH1 0x10 SHR AND SWAP1 DUP8 ADD MSTORE PUSH1 0x50 SHR AND PUSH1 0x60 DUP6 ADD MSTORE PUSH1 0x80 DUP5 ADD MSTORE PUSH1 0xA0 DUP4 ADD MSTORE PUSH2 0x2F0 DUP2 PUSH2 0x210D JUMP JUMPDEST POP POP POP CALLVALUE PUSH2 0x1E3 JUMPI DUP1 PUSH1 0x20 SWAP3 DUP4 PUSH4 0xFFFFFFFF PUSH2 0x3E9 PUSH2 0x3D5 CALLDATASIZE PUSH2 0x2023 JUMP JUMPDEST SWAP4 SWAP1 DUP2 DUP8 MLOAD SWAP4 DUP3 DUP6 DUP1 SWAP5 MLOAD SWAP4 DUP5 SWAP3 ADD PUSH2 0x20EA JUMP JUMPDEST DUP2 ADD PUSH1 0x7 DUP2 MSTORE SUB ADD SWAP1 KECCAK256 SWAP2 AND DUP3 MSTORE DUP5 MSTORE KECCAK256 SLOAD SWAP1 MLOAD SWAP1 DUP2 MSTORE RETURN JUMPDEST POP POP POP CALLVALUE PUSH2 0x1E3 JUMPI DUP2 PUSH1 0x3 NOT CALLDATASIZE ADD SLT PUSH2 0x1E3 JUMPI PUSH1 0x20 SWAP1 MLOAD PUSH32 0xCE23C3E399818CFEE81A7AB0880F714E53D7672B08DF0FA62F2843416E1EA09 DUP2 MSTORE RETURN JUMPDEST DUP5 SWAP1 DUP5 CALLVALUE PUSH2 0x328 JUMPI DUP1 PUSH1 0x3 NOT CALLDATASIZE ADD SLT PUSH2 0x328 JUMPI PUSH2 0x479 SWAP2 CALLDATALOAD PUSH2 0x474 PUSH1 0x1 PUSH2 0x463 PUSH2 0x1F3A JUMP JUMPDEST SWAP4 DUP4 DUP8 MSTORE DUP7 PUSH1 0x20 MSTORE DUP7 KECCAK256 ADD SLOAD PUSH2 0x212D JUMP JUMPDEST PUSH2 0x21EF JUMP JUMPDEST POP DUP1 RETURN JUMPDEST SWAP2 POP POP CALLVALUE PUSH2 0x328 JUMPI PUSH1 0x80 CALLDATASIZE PUSH1 0x3 NOT ADD SLT PUSH2 0x328 JUMPI PUSH1 0x1 PUSH1 0x1 PUSH1 0x40 SHL SUB SWAP2 DUP2 CALLDATALOAD DUP4 DUP2 GT PUSH2 0x623 JUMPI PUSH2 0x4B0 SWAP1 CALLDATASIZE SWAP1 DUP5 ADD PUSH2 0x1FA7 JUMP JUMPDEST SWAP1 PUSH2 0x4B9 PUSH2 0x2010 JUMP JUMPDEST SWAP2 PUSH1 0x44 CALLDATALOAD SWAP5 PUSH4 0xFFFFFFFF DUP4 MLOAD SWAP5 PUSH2 0x526 PUSH2 0x508 DUP6 MLOAD PUSH2 0x4F9 PUSH1 0xFF DUP11 DUP13 PUSH1 0x20 SWAP13 DUP14 SWAP2 DUP3 DUP14 ADD SWAP7 PUSH2 0x4E9 DUP2 DUP5 DUP11 PUSH2 0x20EA JUMP JUMPDEST DUP3 ADD SWAP1 DUP2 MSTORE SUB ADD SWAP1 KECCAK256 SLOAD AND PUSH2 0x2348 JUMP JUMPDEST DUP8 MLOAD SWAP2 DUP3 SWAP2 DUP9 MLOAD SWAP3 DUP4 SWAP2 PUSH2 0x20EA JUMP JUMPDEST DUP2 ADD SWAP1 PUSH1 0x3 DUP3 MSTORE DUP9 DUP2 PUSH1 0x1 DUP1 PUSH1 0xA0 SHL SUB SWAP4 SUB ADD SWAP1 KECCAK256 SLOAD AND CALLER EQ PUSH2 0x2394 JUMP JUMPDEST AND SWAP5 DUP6 DUP9 MSTORE PUSH1 0x6 DUP6 MSTORE PUSH2 0x53E PUSH1 0xFF DUP6 DUP11 KECCAK256 SLOAD AND PUSH2 0x24EE JUMP JUMPDEST PUSH2 0x546 PUSH2 0x232A JUMP JUMPDEST DUP6 DUP9 MSTORE PUSH1 0x6 DUP6 MSTORE DUP4 DUP9 KECCAK256 SLOAD SWAP1 PUSH2 0x561 PUSH1 0xFF DUP4 PUSH1 0x8 SHR AND PUSH2 0x253A JUMP JUMPDEST DUP3 DUP3 PUSH1 0x10 SHR AND TIMESTAMP LT PUSH2 0x5E0 JUMPI POP PUSH2 0x58D SWAP3 SWAP2 PUSH2 0x583 SWAP2 PUSH1 0x50 SHR AND TIMESTAMP GT ISZERO PUSH2 0x2586 JUMP JUMPDEST DUP6 PUSH2 0x5C8 JUMPI PUSH2 0x22E5 JUMP JUMPDEST SWAP2 DUP2 MLOAD SWAP5 DUP6 MSTORE PUSH1 0x64 CALLDATALOAD SWAP1 DUP6 ADD MSTORE TIMESTAMP SWAP1 DUP5 ADD MSTORE PUSH32 0x1F6D42498FF2C2992027AC6F7FF8A8F58449CE593FB289526D6BB3BD692BC6B PUSH1 0x60 CALLER SWAP5 LOG4 DUP1 RETURN JUMPDEST PUSH2 0x5DB DUP7 PUSH1 0x8 SLOAD PUSH1 0x60 SHR ADDRESS SWAP1 CALLER SWAP1 PUSH2 0x242C JUMP JUMPDEST PUSH2 0x22E5 JUMP JUMPDEST DUP5 MLOAD PUSH3 0x461BCD PUSH1 0xE5 SHL DUP2 MSTORE SWAP1 DUP2 ADD DUP7 SWAP1 MSTORE PUSH1 0x1E PUSH1 0x24 DUP3 ADD MSTORE PUSH32 0x43726F73734572613A2043616D706169676E206E6F7420737461727465640000 PUSH1 0x44 DUP3 ADD MSTORE PUSH1 0x64 SWAP1 REVERT JUMPDEST DUP5 DUP1 REVERT JUMPDEST DUP5 DUP2 DUP4 CALLVALUE PUSH2 0x1E3 JUMPI PUSH1 0x20 CALLDATASIZE PUSH1 0x3 NOT ADD SLT PUSH2 0x1E3 JUMPI DUP1 CALLDATALOAD PUSH1 0x1 PUSH1 0x1 PUSH1 0x40 SHL SUB DUP2 GT PUSH2 0x328 JUMPI PUSH32 0x9541955FE0103A743846FE173A8457A20C006553629D32CE217A54E12BDFAC63 SWAP2 PUSH2 0x679 SWAP2 CALLDATASIZE SWAP2 ADD PUSH2 0x1FA7 JUMP JUMPDEST PUSH1 0x0 DUP1 MLOAD PUSH1 0x20 PUSH2 0x2671 DUP4 CODECOPY DUP2 MLOAD SWAP2 MSTORE DUP4 MSTORE DUP3 PUSH1 0x20 MSTORE DUP4 DUP4 KECCAK256 CALLER DUP5 MSTORE PUSH1 0x20 MSTORE PUSH2 0x6A6 PUSH1 0xFF DUP6 DUP6 KECCAK256 SLOAD AND PUSH2 0x262E JUMP JUMPDEST PUSH2 0x6AE PUSH2 0x232A JUMP JUMPDEST PUSH1 0x1 PUSH1 0xFF NOT PUSH1 0x2 SLOAD AND OR PUSH1 0x2 SSTORE PUSH32 0x62E78CEA01BEE320CD4E420270B5EA74000D11B0C9F74754EBDBFC544B05A258 PUSH1 0x20 DUP6 MLOAD CALLER DUP2 MSTORE LOG1 PUSH2 0x6F8 DUP5 MLOAD SWAP2 PUSH1 0x60 DUP4 MSTORE PUSH1 0x60 DUP4 ADD SWAP1 PUSH2 0x2305 JUMP JUMPDEST SWAP4 DUP4 PUSH1 0x20 DUP4 ADD MSTORE TIMESTAMP SWAP1 DUP3 ADD MSTORE DUP1 CALLER SWAP5 SUB SWAP1 LOG3 DUP1 RETURN JUMPDEST POP POP POP CALLVALUE PUSH2 0x1E3 JUMPI DUP2 PUSH1 0x3 NOT CALLDATASIZE ADD SLT PUSH2 0x1E3 JUMPI PUSH1 0x8 SLOAD SWAP1 MLOAD PUSH1 0x20 SWAP2 DUP3 SHR PUSH4 0xFFFFFFFF AND DUP2 MSTORE RETURN JUMPDEST DUP4 DUP6 CALLVALUE PUSH2 0x2F7 JUMPI PUSH1 0x20 CALLDATASIZE PUSH1 0x3 NOT ADD SLT PUSH2 0x2F7 JUMPI DUP3 CALLDATALOAD SWAP1 PUSH1 0x1 PUSH1 0x1 PUSH1 0x40 SHL SUB DUP3 GT PUSH2 0x2F7 JUMPI POP PUSH1 0x20 SWAP3 PUSH2 0x768 SWAP2 CALLDATASIZE SWAP2 ADD PUSH2 0x1FA7 JUMP JUMPDEST DUP3 PUSH2 0x77B DUP4 MLOAD SWAP3 DUP4 DUP2 MLOAD SWAP4 DUP5 SWAP3 ADD PUSH2 0x20EA JUMP JUMPDEST PUSH1 0x3 SWAP1 DUP3 ADD SWAP1 DUP2 MSTORE DUP2 SWAP1 SUB DUP4 ADD SWAP1 KECCAK256 SLOAD SWAP1 MLOAD PUSH1 0x1 PUSH1 0x1 PUSH1 0xA0 SHL SUB SWAP1 SWAP2 AND DUP2 MSTORE RETURN JUMPDEST DUP5 SWAP1 DUP5 CALLVALUE PUSH2 0x328 JUMPI PUSH2 0x100 CALLDATASIZE PUSH1 0x3 NOT ADD SLT PUSH2 0x328 JUMPI PUSH1 0x1 PUSH1 0x1 PUSH1 0x40 SHL SUB SWAP4 DUP3 CALLDATALOAD DUP6 DUP2 GT PUSH2 0x623 JUMPI PUSH2 0x7D0 SWAP1 CALLDATASIZE SWAP1 DUP6 ADD PUSH2 0x1FA7 JUMP JUMPDEST SWAP1 PUSH2 0x7D9 PUSH2 0x2010 JUMP JUMPDEST SWAP3 PUSH1 0x44 CALLDATALOAD SWAP5 PUSH1 0x64 CALLDATALOAD SWAP2 PUSH1 0x84 CALLDATALOAD PUSH1 0xA4 CALLDATALOAD SWAP2 PUSH1 0xC4 CALLDATALOAD SWAP5 PUSH1 0x5 DUP7 LT ISZERO PUSH2 0xB08 JUMPI PUSH32 0xCE23C3E399818CFEE81A7AB0880F714E53D7672B08DF0FA62F2843416E1EA09 DUP12 MSTORE PUSH1 0x20 SWAP9 DUP12 DUP11 MSTORE DUP3 DUP13 KECCAK256 CALLER DUP14 MSTORE DUP11 MSTORE PUSH1 0xFF DUP4 DUP14 KECCAK256 SLOAD AND ISZERO PUSH2 0xACC JUMPI DUP12 SWAP13 DUP4 DUP13 SWAP14 DUP13 SWAP14 DUP13 SWAP5 DUP15 DUP5 MLOAD SWAP1 DUP2 DUP14 DUP3 DUP11 MLOAD SWAP11 ADD SWAP10 PUSH2 0x853 DUP2 DUP5 DUP14 PUSH2 0x20EA JUMP JUMPDEST DUP3 ADD SWAP1 DUP2 MSTORE SUB ADD SWAP1 KECCAK256 SLOAD PUSH1 0xFF AND PUSH2 0x869 SWAP1 PUSH2 0x2348 JUMP JUMPDEST PUSH4 0xFFFFFFFF AND SWAP15 DUP16 DUP4 MSTORE PUSH1 0x6 SWAP1 MSTORE DUP3 DUP3 KECCAK256 SLOAD PUSH1 0xFF AND PUSH2 0x887 SWAP1 PUSH2 0x24EE JUMP JUMPDEST PUSH2 0x88F PUSH2 0x232A JUMP JUMPDEST DUP2 MSTORE PUSH1 0x5 DUP14 MSTORE KECCAK256 SLOAD PUSH1 0xFF AND PUSH2 0xA79 JUMPI DUP13 ISZERO PUSH2 0xA2B JUMPI PUSH2 0x8CF SWAP1 DUP5 DUP16 PUSH1 0x6 DUP16 DUP16 SWAP1 DUP4 MSTORE MSTORE KECCAK256 SLOAD PUSH2 0x8C3 PUSH1 0xFF DUP3 PUSH1 0x8 SHR AND PUSH2 0x253A JUMP JUMPDEST PUSH1 0x50 SHR AND TIMESTAMP GT ISZERO PUSH2 0x2586 JUMP JUMPDEST DUP12 DUP14 MSTORE PUSH1 0x5 DUP11 MSTORE DUP3 DUP14 KECCAK256 DUP1 SLOAD PUSH1 0xFF NOT AND PUSH1 0x1 OR SWAP1 SSTORE DUP2 DUP5 MUL SWAP6 DUP3 ISZERO DUP4 DUP9 DIV DUP7 EQ OR ISZERO PUSH2 0xA18 JUMPI POP SWAP3 PUSH2 0x120 SWAP8 SWAP6 SWAP3 PUSH32 0x883D17FCFE01BDC2418733D264A3F9050BF98A987956F4D6450D30E969E6A09E SWAP10 SWAP8 SWAP6 SWAP3 DUP12 DUP16 SWAP7 DUP8 DUP16 SWAP9 POP PUSH1 0xA DUP9 DIV PUSH1 0x9 SLOAD DUP1 DUP3 GT PUSH1 0x0 EQ PUSH2 0xA10 JUMPI POP SWAP9 JUMPDEST DUP13 DUP11 DUP10 PUSH2 0x9EA JUMPI JUMPDEST POP SWAP2 DUP7 SWAP2 DUP6 SWAP5 SWAP4 PUSH2 0x9AF SWAP7 DUP5 MLOAD DUP1 SWAP3 MLOAD PUSH2 0x960 DUP2 DUP4 DUP11 PUSH2 0x20EA JUMP JUMPDEST DUP2 ADD PUSH1 0x7 DUP2 MSTORE SUB ADD SWAP1 KECCAK256 SWAP1 DUP3 MSTORE DUP5 MSTORE KECCAK256 PUSH2 0x97B DUP11 DUP3 SLOAD PUSH2 0x25D2 JUMP JUMPDEST SWAP1 SSTORE DUP12 PUSH2 0x98F DUP7 MLOAD SWAP3 DUP4 SWAP3 MLOAD SWAP3 DUP4 SWAP2 PUSH2 0x20EA JUMP JUMPDEST PUSH1 0x3 SWAP1 DUP3 ADD SWAP1 DUP2 MSTORE DUP2 SWAP1 SUB SWAP1 SWAP2 ADD SWAP1 KECCAK256 SLOAD PUSH1 0x1 PUSH1 0x1 PUSH1 0xA0 SHL SUB AND SWAP10 PUSH2 0x22E5 JUMP JUMPDEST SWAP12 DUP3 MLOAD SWAP10 DUP11 MSTORE DUP10 ADD MSTORE DUP8 ADD MSTORE PUSH1 0x60 DUP7 ADD MSTORE PUSH1 0x80 DUP6 ADD MSTORE PUSH1 0xA0 DUP5 ADD MSTORE PUSH2 0x9D3 DUP2 PUSH2 0x210D JUMP JUMPDEST PUSH1 0xC0 DUP4 ADD MSTORE PUSH1 0xE4 CALLDATALOAD SWAP1 DUP3 ADD MSTORE TIMESTAMP PUSH2 0x100 DUP3 ADD MSTORE LOG4 DUP1 RETURN JUMPDEST PUSH2 0x9AF SWAP6 SWAP5 SWAP4 SWAP2 SWAP12 POP SWAP2 PUSH2 0xA04 DUP9 SWAP4 PUSH2 0x3E8 DUP13 DIV SWAP1 PUSH2 0x25D2 JUMP JUMPDEST SWAP12 SWAP2 SWAP4 SWAP5 SWAP6 POP SWAP2 PUSH2 0x945 JUMP JUMPDEST SWAP1 POP SWAP9 PUSH2 0x93D JUMP JUMPDEST PUSH4 0x4E487B71 PUSH1 0xE0 SHL DUP15 MSTORE PUSH1 0x11 SWAP1 MSTORE PUSH1 0x24 DUP14 REVERT JUMPDEST DUP4 MLOAD PUSH3 0x461BCD PUSH1 0xE5 SHL DUP2 MSTORE DUP1 DUP9 ADD DUP13 SWAP1 MSTORE PUSH1 0x22 PUSH1 0x24 DUP3 ADD MSTORE PUSH32 0x43726F73734572613A20496E76616C6964207472616E73616374696F6E206861 PUSH1 0x44 DUP3 ADD MSTORE PUSH2 0xE6D PUSH1 0xF3 SHL PUSH1 0x64 DUP3 ADD MSTORE PUSH1 0x84 SWAP1 REVERT JUMPDEST DUP4 MLOAD PUSH3 0x461BCD PUSH1 0xE5 SHL DUP2 MSTORE DUP1 DUP9 ADD DUP13 SWAP1 MSTORE PUSH1 0x27 PUSH1 0x24 DUP3 ADD MSTORE PUSH32 0x43726F73734572613A205472616E73616374696F6E20616C7265616479207072 PUSH1 0x44 DUP3 ADD MSTORE PUSH7 0x1BD8D95CDCD959 PUSH1 0xCA SHL PUSH1 0x64 DUP3 ADD MSTORE PUSH1 0x84 SWAP1 REVERT JUMPDEST DUP3 MLOAD PUSH3 0x461BCD PUSH1 0xE5 SHL DUP2 MSTORE DUP1 DUP8 ADD DUP12 SWAP1 MSTORE PUSH1 0x16 PUSH1 0x24 DUP3 ADD MSTORE PUSH22 0x21B937B9B9A2B9309D102737BA103B32B934B334B2B9 PUSH1 0x51 SHL PUSH1 0x44 DUP3 ADD MSTORE PUSH1 0x64 SWAP1 REVERT JUMPDEST DUP11 DUP1 REVERT JUMPDEST SWAP2 POP POP CALLVALUE PUSH2 0x328 JUMPI PUSH1 0x20 SWAP2 DUP3 PUSH1 0x3 NOT CALLDATASIZE ADD SLT PUSH2 0xD07 JUMPI PUSH4 0xFFFFFFFF PUSH2 0xB2F PUSH2 0x1FFD JUMP JUMPDEST PUSH32 0x5022544358EE0BECE556B72AE8983C7F24341BD5B9483CE8A19BFF5EFBB2DE92 DUP7 MSTORE DUP6 DUP6 MSTORE DUP3 DUP7 KECCAK256 CALLER DUP8 MSTORE DUP6 MSTORE PUSH2 0xB6C PUSH1 0xFF DUP5 DUP9 KECCAK256 SLOAD AND PUSH2 0x23E0 JUMP JUMPDEST AND SWAP3 DUP4 DUP6 MSTORE PUSH1 0x6 DUP2 MSTORE PUSH2 0xB84 PUSH1 0xFF DUP4 DUP8 KECCAK256 SLOAD AND PUSH2 0x24EE JUMP JUMPDEST PUSH2 0xB8C PUSH2 0x232A JUMP JUMPDEST DUP4 DUP6 MSTORE PUSH1 0x6 DUP2 MSTORE DUP2 DUP6 KECCAK256 PUSH1 0x3 DUP2 ADD SWAP4 DUP5 SLOAD SWAP5 PUSH1 0xFF DUP7 AND SWAP6 PUSH2 0xBAC DUP8 PUSH2 0x210D JUMP JUMPDEST DUP7 PUSH2 0xCC4 JUMPI DUP4 SLOAD SWAP3 PUSH1 0x1 PUSH1 0x1 PUSH1 0x40 SHL SUB DUP1 DUP6 PUSH1 0x10 SHR AND TIMESTAMP LT PUSH2 0xC73 JUMPI DUP5 PUSH1 0x50 SHR AND TIMESTAMP GT PUSH2 0xC30 JUMPI POP SWAP3 PUSH2 0x100 PUSH32 0x4AF6F5552B6A54784785903A6DC051A23929332800A322C93031A560627F4639 SWAP7 SWAP4 PUSH1 0x60 SWAP7 SWAP4 PUSH1 0x1 DUP1 SWAP12 SWAP11 SWAP8 PUSH1 0xFF NOT AND OR SWAP1 SSTORE PUSH2 0xFF00 NOT AND OR SWAP1 SSTORE DUP2 MLOAD SWAP3 PUSH2 0xC20 DUP2 PUSH2 0x210D JUMP JUMPDEST DUP4 MSTORE CALLER SWAP1 DUP4 ADD MSTORE TIMESTAMP SWAP1 DUP3 ADD MSTORE LOG3 DUP1 RETURN JUMPDEST DUP7 MLOAD PUSH3 0x461BCD PUSH1 0xE5 SHL DUP2 MSTORE SWAP1 DUP2 ADD DUP7 SWAP1 MSTORE PUSH1 0x1A PUSH1 0x24 DUP3 ADD MSTORE PUSH32 0x43726F73734572613A2043616D706169676E2065787069726564000000000000 PUSH1 0x44 DUP3 ADD MSTORE PUSH1 0x64 SWAP1 REVERT JUMPDEST DUP8 MLOAD PUSH3 0x461BCD PUSH1 0xE5 SHL DUP2 MSTORE DUP1 DUP4 ADD DUP9 SWAP1 MSTORE PUSH1 0x25 PUSH1 0x24 DUP3 ADD MSTORE PUSH32 0x43726F73734572613A2043616D706169676E206E6F7420726561647920746F20 PUSH1 0x44 DUP3 ADD MSTORE PUSH5 0x1CDD185C9D PUSH1 0xDA SHL PUSH1 0x64 DUP3 ADD MSTORE PUSH1 0x84 SWAP1 REVERT JUMPDEST DUP6 MLOAD PUSH3 0x461BCD PUSH1 0xE5 SHL DUP2 MSTORE DUP1 DUP5 ADD DUP7 SWAP1 MSTORE PUSH1 0x1E PUSH1 0x24 DUP3 ADD MSTORE PUSH32 0x43726F73734572613A2043616D706169676E206E6F742070656E64696E670000 PUSH1 0x44 DUP3 ADD MSTORE PUSH1 0x64 SWAP1 REVERT JUMPDEST DUP4 DUP1 REVERT JUMPDEST POP POP POP CALLVALUE PUSH2 0x1E3 JUMPI DUP2 PUSH1 0x3 NOT CALLDATASIZE ADD SLT PUSH2 0x1E3 JUMPI PUSH1 0x20 SWAP1 MLOAD PUSH32 0x5022544358EE0BECE556B72AE8983C7F24341BD5B9483CE8A19BFF5EFBB2DE92 DUP2 MSTORE RETURN JUMPDEST DUP5 SWAP1 DUP5 CALLVALUE PUSH2 0x328 JUMPI PUSH1 0x20 CALLDATASIZE PUSH1 0x3 NOT ADD SLT PUSH2 0x328 JUMPI PUSH1 0x80 PUSH32 0xC637310A9BC2F103FBA5B894B0445D8CCEFB4C23B22830D18DFAA3F2C98901E3 SWAP2 PUSH32 0x314DD05F042F670D15B492F77379A86E30173B5C4D48DE79AF34F87D07D32810 SWAP4 CALLDATALOAD SWAP1 PUSH1 0x0 DUP1 MLOAD PUSH1 0x20 PUSH2 0x2671 DUP4 CODECOPY DUP2 MLOAD SWAP2 MSTORE DUP7 MSTORE DUP6 PUSH1 0x20 MSTORE DUP1 DUP7 KECCAK256 CALLER DUP8 MSTORE PUSH1 0x20 MSTORE PUSH2 0xDD0 PUSH1 0xFF DUP3 DUP9 KECCAK256 SLOAD AND PUSH2 0x262E JUMP JUMPDEST PUSH1 0x9 SLOAD SWAP2 DUP1 PUSH1 0x9 SSTORE DUP2 MLOAD SWAP3 DUP4 MSTORE PUSH1 0x20 DUP4 ADD MSTORE CALLER SWAP1 DUP3 ADD MSTORE TIMESTAMP PUSH1 0x60 DUP3 ADD MSTORE LOG2 DUP1 RETURN JUMPDEST POP POP POP CALLVALUE PUSH2 0x1E3 JUMPI DUP2 PUSH1 0x3 NOT CALLDATASIZE ADD SLT PUSH2 0x1E3 JUMPI MLOAD SWAP1 DUP2 MSTORE PUSH1 0x20 SWAP1 RETURN JUMPDEST SWAP2 POP POP CALLVALUE PUSH2 0x328 JUMPI PUSH1 0x60 CALLDATASIZE PUSH1 0x3 NOT ADD SLT PUSH2 0x328 JUMPI DUP1 CALLDATALOAD PUSH1 0x1 PUSH1 0x1 PUSH1 0xA0 SHL SUB DUP2 AND SWAP1 DUP2 DUP2 SUB PUSH2 0x623 JUMPI PUSH1 0x24 CALLDATALOAD SWAP4 PUSH1 0x1 PUSH1 0x1 PUSH1 0x40 SHL SUB SWAP4 PUSH1 0x44 CALLDATALOAD DUP6 DUP2 GT PUSH2 0xF34 JUMPI DUP7 PUSH2 0xE5D PUSH2 0xE92 SWAP3 CALLDATASIZE SWAP1 DUP6 ADD PUSH2 0x1FA7 JUMP JUMPDEST SWAP6 PUSH1 0x0 DUP1 MLOAD PUSH1 0x20 PUSH2 0x2671 DUP4 CODECOPY DUP2 MLOAD SWAP2 MSTORE DUP11 MSTORE DUP10 PUSH1 0x20 MSTORE DUP5 DUP11 KECCAK256 CALLER DUP12 MSTORE PUSH1 0x20 MSTORE PUSH2 0xE8B PUSH1 0xFF DUP7 DUP13 KECCAK256 SLOAD AND PUSH2 0x262E JUMP JUMPDEST CALLER SWAP1 PUSH2 0x25DF JUMP JUMPDEST DUP2 MLOAD SWAP6 PUSH1 0x20 DUP8 ADD SWAP4 PUSH12 0xFFFFFFFFFFFFFFFFFFFFFFFF NOT SWAP1 PUSH1 0x60 SHL AND DUP5 MSTORE PUSH1 0x34 DUP8 ADD MSTORE PUSH1 0x34 DUP7 MSTORE PUSH1 0x60 DUP7 ADD SWAP5 DUP7 DUP7 LT SWAP1 DUP7 GT OR PUSH2 0xF21 JUMPI POP SWAP2 PUSH2 0xF08 DUP5 SWAP3 PUSH1 0x2 SWAP6 PUSH32 0x9541955FE0103A743846FE173A8457A20C006553629D32CE217A54E12BDFAC63 SWAP6 MSTORE DUP7 MLOAD SWAP1 KECCAK256 SWAP2 PUSH1 0x60 DUP5 MSTORE PUSH1 0xC0 DUP8 ADD SWAP1 PUSH2 0x2305 JUMP JUMPDEST SWAP1 PUSH1 0x80 DUP7 ADD MSTORE TIMESTAMP PUSH1 0xA0 DUP7 ADD MSTORE CALLER SWAP5 PUSH1 0x5F NOT SWAP2 SUB ADD SWAP1 LOG3 DUP1 RETURN JUMPDEST PUSH4 0x4E487B71 PUSH1 0xE0 SHL DUP8 MSTORE PUSH1 0x41 SWAP1 MSTORE PUSH1 0x24 DUP7 REVERT JUMPDEST DUP8 DUP1 REVERT JUMPDEST SWAP2 POP POP CALLVALUE PUSH2 0x328 JUMPI DUP2 PUSH1 0x3 NOT CALLDATASIZE ADD SLT PUSH2 0x328 JUMPI DUP2 PUSH1 0x20 SWAP4 PUSH1 0xFF SWAP3 PUSH2 0xF5A PUSH2 0x1F3A JUMP JUMPDEST SWAP1 CALLDATALOAD DUP3 MSTORE DUP2 DUP7 MSTORE DUP3 DUP3 KECCAK256 PUSH1 0x1 PUSH1 0x1 PUSH1 0xA0 SHL SUB SWAP1 SWAP2 AND DUP3 MSTORE DUP6 MSTORE KECCAK256 SLOAD SWAP2 MLOAD SWAP2 AND ISZERO ISZERO DUP2 MSTORE RETURN JUMPDEST DUP4 DUP6 CALLVALUE PUSH2 0x2F7 JUMPI PUSH1 0x20 CALLDATASIZE PUSH1 0x3 NOT ADD SLT PUSH2 0x2F7 JUMPI DUP3 CALLDATALOAD SWAP1 PUSH1 0x1 PUSH1 0x1 PUSH1 0x40 SHL SUB DUP3 GT PUSH2 0x2F7 JUMPI POP PUSH2 0xFCD PUSH1 0x20 DUP1 SWAP5 PUSH2 0xFBA PUSH1 0xFF SWAP5 CALLDATASIZE SWAP1 DUP4 ADD PUSH2 0x1FA7 JUMP JUMPDEST SWAP1 DUP3 DUP7 MLOAD SWAP5 DUP4 DUP7 DUP1 SWAP6 MLOAD SWAP4 DUP5 SWAP3 ADD PUSH2 0x20EA JUMP JUMPDEST DUP3 ADD SWAP1 DUP2 MSTORE SUB ADD SWAP1 KECCAK256 SLOAD AND SWAP1 MLOAD SWAP1 ISZERO ISZERO DUP2 MSTORE RETURN JUMPDEST POP POP POP CALLVALUE PUSH2 0x1E3 JUMPI DUP2 PUSH1 0x3 NOT CALLDATASIZE ADD SLT PUSH2 0x1E3 JUMPI PUSH1 0x20 SWAP1 MLOAD PUSH1 0x0 DUP1 MLOAD PUSH1 0x20 PUSH2 0x2671 DUP4 CODECOPY DUP2 MLOAD SWAP2 MSTORE DUP2 MSTORE RETURN JUMPDEST DUP4 DUP6 CALLVALUE PUSH2 0x2F7 JUMPI PUSH2 0x101B CALLDATASIZE PUSH2 0x2023 JUMP JUMPDEST SWAP5 SWAP1 SWAP2 DUP4 MLOAD SWAP6 DUP4 MLOAD SWAP3 PUSH2 0x104D PUSH1 0xFF PUSH1 0x20 SWAP10 DUP11 DUP2 DUP2 DUP11 ADD SWAP9 PUSH2 0x103D DUP2 DUP4 DUP13 PUSH2 0x20EA JUMP JUMPDEST DUP2 ADD DUP13 DUP2 MSTORE SUB ADD SWAP1 KECCAK256 SLOAD AND PUSH2 0x2348 JUMP JUMPDEST PUSH2 0x107D DUP7 MLOAD DUP7 MLOAD PUSH2 0x105F DUP2 DUP4 DUP10 PUSH2 0x20EA JUMP JUMPDEST DUP2 ADD SWAP1 PUSH1 0x3 DUP3 MSTORE DUP11 DUP2 PUSH1 0x1 DUP1 PUSH1 0xA0 SHL SUB SWAP4 SUB ADD SWAP1 KECCAK256 SLOAD AND CALLER EQ PUSH2 0x2394 JUMP JUMPDEST PUSH4 0xFFFFFFFF DUP3 AND SWAP4 DUP5 DUP5 MSTORE PUSH1 0x6 DUP10 MSTORE PUSH2 0x109B PUSH1 0xFF DUP9 DUP7 KECCAK256 SLOAD AND PUSH2 0x24EE JUMP JUMPDEST PUSH1 0x2 PUSH1 0x1 SLOAD EQ PUSH2 0x121E JUMPI PUSH1 0x2 PUSH1 0x1 SSTORE PUSH2 0x10B2 PUSH2 0x232A JUMP JUMPDEST DUP7 MLOAD DUP10 DUP2 DUP9 MLOAD PUSH2 0x10C3 DUP2 DUP4 DUP8 PUSH2 0x20EA JUMP JUMPDEST DUP2 ADD PUSH1 0x7 DUP2 MSTORE SUB ADD SWAP1 KECCAK256 DUP6 DUP6 MSTORE DUP10 MSTORE DUP7 DUP5 KECCAK256 SLOAD SWAP8 DUP9 ISZERO PUSH2 0x11DB JUMPI POP DUP6 PUSH2 0x1161 PUSH2 0x1182 PUSH1 0x58 DUP13 PUSH2 0x1196 SWAP8 PUSH1 0x2 SWAP8 DUP14 SWAP8 DUP16 PUSH2 0x1141 SWAP1 DUP12 DUP16 DUP16 DUP14 SWAP2 DUP14 DUP11 DUP5 MLOAD DUP1 SWAP3 MLOAD PUSH2 0x110D DUP2 DUP4 DUP14 PUSH2 0x20EA JUMP JUMPDEST DUP2 ADD PUSH1 0x7 DUP2 MSTORE SUB ADD SWAP1 KECCAK256 SWAP1 DUP3 MSTORE DUP10 MSTORE DUP1 DUP3 DUP2 KECCAK256 SSTORE PUSH1 0x6 DUP10 MSTORE KECCAK256 ADD PUSH2 0x1132 DUP3 DUP3 SLOAD PUSH2 0x25D2 JUMP JUMPDEST SWAP1 SSTORE PUSH1 0x8 SLOAD CALLER SWAP1 PUSH1 0x60 SHR PUSH2 0x25DF JUMP JUMPDEST DUP9 MLOAD SWAP7 DUP8 SWAP5 DUP6 ADD SWAP9 TIMESTAMP DUP11 MSTORE CALLER PUSH1 0x60 SHL DUP12 DUP8 ADD MSTORE MLOAD DUP1 SWAP3 PUSH1 0x54 DUP8 ADD SWAP1 PUSH2 0x20EA JUMP JUMPDEST DUP4 ADD SWAP2 PUSH4 0xFFFFFFFF PUSH1 0xE0 SHL SWAP2 SHL AND PUSH1 0x54 DUP3 ADD MSTORE SUB PUSH1 0x38 DUP2 ADD DUP5 MSTORE ADD DUP3 PUSH2 0x1F86 JUMP JUMPDEST MLOAD SWAP1 KECCAK256 SWAP4 DUP6 DUP2 MSTORE PUSH1 0x6 DUP11 MSTORE KECCAK256 ADD SLOAD SWAP4 PUSH2 0x22E5 JUMP JUMPDEST SWAP1 DUP5 MLOAD SWAP4 DUP7 DUP6 MSTORE DUP8 DUP6 ADD MSTORE DUP5 DUP5 ADD MSTORE TIMESTAMP PUSH1 0x60 DUP5 ADD MSTORE PUSH32 0x8E16FB8749BC398B1F814F3A236318C5815A94E2B707D7DE6E016E1D3DF44CE8 PUSH1 0x80 CALLER SWAP5 LOG4 PUSH1 0x1 DUP1 SSTORE MLOAD SWAP1 DUP2 MSTORE RETURN JUMPDEST DUP8 MLOAD PUSH3 0x461BCD PUSH1 0xE5 SHL DUP2 MSTORE SWAP1 DUP2 ADD DUP11 SWAP1 MSTORE PUSH1 0x1D PUSH1 0x24 DUP3 ADD MSTORE PUSH32 0x43726F73734572613A204E6F207265776172647320746F20636C61696D000000 PUSH1 0x44 DUP3 ADD MSTORE PUSH1 0x64 SWAP1 REVERT JUMPDEST DUP7 MLOAD PUSH4 0x3EE5AEB5 PUSH1 0xE0 SHL DUP2 MSTORE DUP9 SWAP1 REVERT JUMPDEST SWAP2 POP POP CALLVALUE PUSH2 0x328 JUMPI PUSH32 0xCD38195C1053EA3E5B739C16C4861BD97A31C423AA7546D8B40CE23E62470E0C PUSH2 0x1323 PUSH2 0x12E5 PUSH2 0x1315 PUSH2 0x12C6 SWAP6 PUSH2 0x12A7 SWAP6 PUSH2 0x1308 PUSH2 0x1274 CALLDATASIZE PUSH2 0x2061 JUMP JUMPDEST SWAP9 SWAP4 SWAP3 SWAP13 SWAP2 SWAP12 SWAP1 SWAP6 PUSH2 0x1298 PUSH1 0xFF DUP10 MLOAD PUSH1 0x20 DUP2 DUP9 MLOAD SWAP6 DUP3 DUP11 ADD SWAP7 PUSH2 0x4E9 DUP2 DUP5 DUP11 PUSH2 0x20EA JUMP JUMPDEST DUP8 MLOAD SWAP2 DUP3 SWAP2 DUP6 MLOAD SWAP3 DUP4 SWAP2 PUSH2 0x20EA JUMP JUMPDEST DUP2 ADD SWAP1 PUSH1 0x3 DUP3 MSTORE PUSH1 0x20 DUP2 PUSH1 0x1 DUP1 PUSH1 0xA0 SHL SUB SWAP4 SUB ADD SWAP1 KECCAK256 SLOAD AND CALLER EQ PUSH2 0x2394 JUMP JUMPDEST PUSH2 0x12CE PUSH2 0x232A JUMP JUMPDEST PUSH2 0x5DB DUP12 MLOAD DUP7 DUP2 ISZERO ISZERO SWAP2 DUP3 PUSH2 0x1333 JUMPI JUMPDEST POP POP PUSH2 0x2264 JUMP JUMPDEST SWAP8 PUSH2 0x12FA DUP5 MLOAD SWAP11 PUSH1 0xA0 DUP13 MSTORE PUSH1 0xA0 DUP13 ADD SWAP1 PUSH2 0x2305 JUMP JUMPDEST SWAP1 DUP11 DUP3 SUB PUSH1 0x20 DUP13 ADD MSTORE PUSH2 0x2305 JUMP JUMPDEST SWAP2 DUP9 DUP4 SUB SWAP1 DUP10 ADD MSTORE PUSH2 0x2305 JUMP JUMPDEST SWAP1 DUP6 DUP3 SUB PUSH1 0x60 DUP8 ADD MSTORE PUSH2 0x2305 JUMP JUMPDEST SWAP3 TIMESTAMP PUSH1 0x80 DUP3 ADD MSTORE DUP1 CALLER SWAP5 SUB SWAP1 LOG3 DUP1 RETURN JUMPDEST GT ISZERO SWAP1 POP DUP7 CODESIZE PUSH2 0x12DE JUMP JUMPDEST SWAP2 POP POP CALLVALUE PUSH2 0x328 JUMPI PUSH1 0x60 CALLDATASIZE PUSH1 0x3 NOT ADD SLT PUSH2 0x328 JUMPI PUSH1 0x1 PUSH1 0x1 PUSH1 0x40 SHL SUB DUP2 CALLDATALOAD DUP2 DUP2 GT PUSH2 0x623 JUMPI PUSH2 0x1370 SWAP1 CALLDATASIZE SWAP1 DUP5 ADD PUSH2 0x1FA7 JUMP JUMPDEST PUSH1 0x24 CALLDATALOAD SWAP2 PUSH1 0xFF DUP4 AND DUP1 SWAP4 SUB PUSH2 0x1480 JUMPI PUSH1 0x44 CALLDATALOAD SWAP1 DUP2 GT PUSH2 0x1480 JUMPI PUSH2 0x1396 SWAP1 CALLDATASIZE SWAP1 DUP6 ADD PUSH2 0x1FA7 JUMP JUMPDEST SWAP3 PUSH2 0x13D8 PUSH2 0x12A7 DUP7 MLOAD PUSH2 0x13C9 PUSH1 0xFF DUP7 MLOAD SWAP3 PUSH1 0x20 DUP2 DUP2 DUP11 ADD SWAP6 PUSH2 0x13B9 DUP2 DUP4 DUP10 PUSH2 0x20EA JUMP JUMPDEST DUP2 ADD DUP10 DUP2 MSTORE SUB ADD SWAP1 KECCAK256 SLOAD AND PUSH2 0x2348 JUMP JUMPDEST DUP8 MLOAD SWAP2 DUP3 SWAP2 DUP7 MLOAD SWAP3 DUP4 SWAP2 PUSH2 0x20EA JUMP JUMPDEST PUSH2 0x13E0 PUSH2 0x232A JUMP JUMPDEST PUSH1 0x2 DUP4 GT PUSH2 0x143D JUMPI POP SWAP1 PUSH2 0x142E PUSH2 0x1417 PUSH32 0x7F71C4F72A1F0E686E067271F16D4A0ADE0E292392AE7C3F043DEDB76FB99C02 SWAP4 PUSH2 0x22E5 JUMP JUMPDEST SWAP4 DUP6 MLOAD SWAP3 DUP4 MSTORE PUSH1 0x60 PUSH1 0x20 DUP5 ADD MSTORE PUSH1 0x60 DUP4 ADD SWAP1 PUSH2 0x2305 JUMP JUMPDEST SWAP4 TIMESTAMP SWAP1 DUP3 ADD MSTORE DUP1 CALLER SWAP5 SUB SWAP1 LOG3 DUP1 RETURN JUMPDEST PUSH1 0x64 SWAP1 PUSH1 0x20 DUP7 MLOAD SWAP2 PUSH3 0x461BCD PUSH1 0xE5 SHL DUP4 MSTORE DUP3 ADD MSTORE PUSH1 0x18 PUSH1 0x24 DUP3 ADD MSTORE PUSH32 0x43726F73734572613A20496E76616C6964207374617475730000000000000000 PUSH1 0x44 DUP3 ADD MSTORE REVERT JUMPDEST DUP6 DUP1 REVERT JUMPDEST POP POP POP CALLVALUE PUSH2 0x1E3 JUMPI DUP2 PUSH1 0x3 NOT CALLDATASIZE ADD SLT PUSH2 0x1E3 JUMPI PUSH1 0x8 SLOAD DUP2 MLOAD SWAP2 SHR PUSH4 0xFFFFFFFF AND DUP2 MSTORE PUSH1 0x20 SWAP1 RETURN JUMPDEST SWAP2 POP POP CALLVALUE PUSH2 0x328 JUMPI PUSH1 0x20 CALLDATASIZE PUSH1 0x3 NOT ADD SLT PUSH2 0x328 JUMPI DUP1 CALLDATALOAD PUSH1 0x1 PUSH1 0x1 PUSH1 0x40 SHL SUB DUP2 GT PUSH2 0xD07 JUMPI PUSH2 0x14DC SWAP1 CALLDATASIZE SWAP1 DUP4 ADD PUSH2 0x1FA7 JUMP JUMPDEST SWAP1 PUSH1 0x0 DUP1 MLOAD PUSH1 0x20 PUSH2 0x2671 DUP4 CODECOPY DUP2 MLOAD SWAP2 MSTORE DUP5 MSTORE DUP4 PUSH1 0x20 MSTORE DUP3 DUP5 KECCAK256 CALLER DUP6 MSTORE PUSH1 0x20 MSTORE PUSH2 0x150A PUSH1 0xFF DUP5 DUP7 KECCAK256 SLOAD AND PUSH2 0x262E JUMP JUMPDEST PUSH1 0x2 SLOAD SWAP1 PUSH1 0xFF DUP3 AND ISZERO PUSH2 0x1596 JUMPI POP PUSH1 0x1 SWAP2 PUSH32 0x9541955FE0103A743846FE173A8457A20C006553629D32CE217A54E12BDFAC63 SWAP2 PUSH1 0xFF NOT AND PUSH1 0x2 SSTORE PUSH32 0x5DB9EE0A495BF2E6FF9C91A7834C1BA4FDD244A5E8AA4E537BD38AEAE4B073AA PUSH1 0x20 DUP6 MLOAD CALLER DUP2 MSTORE LOG1 PUSH2 0x1581 DUP5 MLOAD SWAP2 PUSH1 0x60 DUP4 MSTORE PUSH1 0x60 DUP4 ADD SWAP1 PUSH2 0x2305 JUMP JUMPDEST SWAP4 DUP6 PUSH1 0x20 DUP4 ADD MSTORE TIMESTAMP SWAP1 DUP3 ADD MSTORE DUP1 CALLER SWAP5 SUB SWAP1 LOG3 DUP1 RETURN JUMPDEST DUP4 MLOAD PUSH4 0x8DFC202B PUSH1 0xE0 SHL DUP2 MSTORE REVERT JUMPDEST POP POP POP CALLVALUE PUSH2 0x1E3 JUMPI DUP2 PUSH1 0x3 NOT CALLDATASIZE ADD SLT PUSH2 0x1E3 JUMPI PUSH1 0x20 SWAP1 PUSH1 0xFF PUSH1 0x2 SLOAD AND SWAP1 MLOAD SWAP1 ISZERO ISZERO DUP2 MSTORE RETURN JUMPDEST SWAP2 POP POP CALLVALUE PUSH2 0x328 JUMPI PUSH2 0x15DA CALLDATASIZE PUSH2 0x2061 JUMP JUMPDEST SWAP3 SWAP4 SWAP6 SWAP2 SWAP5 PUSH2 0x15E7 PUSH2 0x232A JUMP JUMPDEST DUP7 MLOAD DUP1 ISZERO ISZERO SWAP1 DUP2 PUSH2 0x18CB JUMPI JUMPDEST POP ISZERO PUSH2 0x1888 JUMPI PUSH2 0x160F DUP6 MLOAD DUP5 DUP2 ISZERO ISZERO SWAP2 DUP3 PUSH2 0x187D JUMPI POP POP PUSH2 0x2264 JUMP JUMPDEST DUP3 MLOAD SWAP1 DUP8 MLOAD SWAP1 PUSH1 0xFF PUSH1 0x20 SWAP4 DUP5 DUP2 DUP2 DUP14 ADD SWAP6 PUSH2 0x162B DUP2 DUP4 DUP10 PUSH2 0x20EA JUMP JUMPDEST DUP2 ADD DUP6 DUP2 MSTORE SUB ADD SWAP1 KECCAK256 SLOAD AND PUSH2 0x183C JUMPI DUP5 MLOAD DUP10 MLOAD PUSH2 0x1649 DUP2 DUP4 DUP7 PUSH2 0x20EA JUMP JUMPDEST PUSH1 0x3 SWAP1 DUP3 ADD SWAP1 DUP2 MSTORE DUP2 SWAP1 SUB DUP5 ADD SWAP1 KECCAK256 SLOAD PUSH1 0x1 PUSH1 0x1 PUSH1 0xA0 SHL SUB AND PUSH2 0x1800 JUMPI SWAP3 PUSH2 0x17D0 DUP4 PUSH2 0x16DE PUSH2 0x17DD SWAP6 DUP9 SWAP6 PUSH32 0x8394EA016DEB4479169941B49D96F0F2F1F624C8ED44C1D78858C2CF42A872CE SWAP12 SWAP11 SWAP9 DUP15 PUSH2 0x17EB SWAP12 MLOAD DUP5 DUP2 DUP4 MLOAD PUSH2 0x16AD DUP2 DUP4 DUP10 PUSH2 0x20EA JUMP JUMPDEST DUP2 ADD PUSH1 0x3 DUP2 MSTORE SUB ADD SWAP1 KECCAK256 CALLER PUSH12 0xFFFFFFFFFFFFFFFFFFFFFFFF PUSH1 0xA0 SHL DUP3 SLOAD AND OR SWAP1 SSTORE DUP9 MLOAD SWAP5 DUP6 SWAP4 DUP5 SWAP3 MLOAD SWAP3 DUP4 SWAP2 PUSH2 0x20EA JUMP JUMPDEST DUP3 ADD SWAP1 DUP2 MSTORE SUB ADD SWAP1 KECCAK256 DUP1 SLOAD PUSH1 0xFF NOT AND PUSH1 0x1 OR SWAP1 SSTORE PUSH1 0x8 SLOAD PUSH4 0xFFFFFFFF PUSH12 0xFFFFFFFF0000000000000000 PUSH2 0x173A PUSH8 0xFFFFFFFF00000000 PUSH2 0x1720 DUP6 DUP8 SHR DUP6 AND PUSH2 0x22BA JUMP JUMPDEST DUP7 SHL AND SWAP3 PUSH8 0xFFFFFFFF00000000 NOT DUP6 AND DUP5 OR DUP10 SHR AND PUSH2 0x22BA JUMP JUMPDEST DUP8 SHL AND SWAP2 PUSH12 0xFFFFFFFFFFFFFFFF00000000 NOT AND OR OR PUSH1 0x8 SSTORE PUSH2 0x17AE DUP11 DUP6 MLOAD PUSH2 0x17A5 DUP5 DUP3 DUP12 DUP3 PUSH2 0x1772 DUP2 DUP5 ADD SWAP8 DUP9 DUP2 MLOAD SWAP4 DUP5 SWAP3 ADD PUSH2 0x20EA JUMP JUMPDEST DUP11 MLOAD SWAP1 DUP4 ADD PUSH2 0x1786 DUP3 DUP7 DUP4 ADD DUP8 DUP16 ADD PUSH2 0x20EA JUMP JUMPDEST ADD PUSH2 0x1799 DUP3 MLOAD DUP1 SWAP4 DUP7 DUP1 DUP6 ADD SWAP2 ADD PUSH2 0x20EA JUMP JUMPDEST ADD SUB DUP1 DUP5 MSTORE ADD DUP3 PUSH2 0x1F86 JUMP JUMPDEST MLOAD SWAP1 KECCAK256 SWAP12 PUSH2 0x22E5 JUMP JUMPDEST SWAP10 PUSH2 0x17C3 DUP6 MLOAD SWAP10 PUSH1 0xC0 DUP12 MSTORE PUSH1 0xC0 DUP12 ADD SWAP1 PUSH2 0x2305 JUMP JUMPDEST SWAP2 DUP10 DUP4 SUB SWAP1 DUP11 ADD MSTORE PUSH2 0x2305 JUMP JUMPDEST SWAP2 DUP7 DUP4 SUB SWAP1 DUP8 ADD MSTORE PUSH2 0x2305 JUMP JUMPDEST SWAP1 DUP4 DUP3 SUB PUSH1 0x60 DUP6 ADD MSTORE PUSH2 0x2305 JUMP JUMPDEST SWAP4 PUSH1 0x80 DUP3 ADD MSTORE TIMESTAMP PUSH1 0xA0 DUP3 ADD MSTORE DUP1 CALLER SWAP5 SUB SWAP1 LOG3 DUP1 RETURN JUMPDEST DUP5 MLOAD PUSH3 0x461BCD PUSH1 0xE5 SHL DUP2 MSTORE SWAP1 DUP2 ADD DUP4 SWAP1 MSTORE PUSH1 0x16 PUSH1 0x24 DUP3 ADD MSTORE PUSH22 0x21B937B9B9A2B9309D1020B8381024A2103A30B5B2B7 PUSH1 0x51 SHL PUSH1 0x44 DUP3 ADD MSTORE PUSH1 0x64 SWAP1 REVERT JUMPDEST PUSH1 0x64 SWAP1 DUP4 DUP1 DUP8 MLOAD SWAP3 PUSH3 0x461BCD PUSH1 0xE5 SHL DUP5 MSTORE DUP4 ADD MSTORE PUSH1 0x24 DUP3 ADD MSTORE PUSH32 0x43726F73734572613A2041707020616C72656164792072656769737465726564 PUSH1 0x44 DUP3 ADD MSTORE REVERT JUMPDEST GT ISZERO SWAP1 POP DUP5 CODESIZE PUSH2 0x12DE JUMP JUMPDEST PUSH1 0x64 SWAP1 PUSH1 0x20 DUP5 MLOAD SWAP2 PUSH3 0x461BCD PUSH1 0xE5 SHL DUP4 MSTORE DUP3 ADD MSTORE PUSH1 0x1F PUSH1 0x24 DUP3 ADD MSTORE PUSH32 0x43726F73734572613A20496E76616C696420617070204944206C656E67746800 PUSH1 0x44 DUP3 ADD MSTORE REVERT JUMPDEST PUSH1 0x20 SWAP2 POP GT ISZERO CODESIZE PUSH2 0x15F3 JUMP JUMPDEST DUP5 DUP5 CALLVALUE PUSH2 0x1E3 JUMPI DUP1 PUSH1 0x3 NOT CALLDATASIZE ADD SLT PUSH2 0x1E3 JUMPI PUSH2 0x18F1 PUSH2 0x1F3A JUMP JUMPDEST SWAP1 CALLER PUSH1 0x1 PUSH1 0x1 PUSH1 0xA0 SHL SUB DUP4 AND SUB PUSH2 0x190E JUMPI POP PUSH2 0x479 SWAP2 SWAP3 CALLDATALOAD PUSH2 0x21EF JUMP JUMPDEST MLOAD PUSH4 0x334BD919 PUSH1 0xE1 SHL DUP2 MSTORE DUP4 SWAP1 REVERT JUMPDEST SWAP4 SWAP3 POP SWAP1 CALLVALUE PUSH2 0x1D01 JUMPI DUP1 PUSH1 0x3 NOT CALLDATASIZE ADD SLT PUSH2 0x1D01 JUMPI PUSH1 0x1 PUSH1 0x1 PUSH1 0x40 SHL SUB SWAP1 DUP3 CALLDATALOAD DUP3 DUP2 GT PUSH2 0x1480 JUMPI PUSH2 0x1950 SWAP1 CALLDATASIZE SWAP1 DUP6 ADD PUSH2 0x1FA7 JUMP JUMPDEST SWAP1 PUSH1 0x24 DUP1 CALLDATALOAD DUP5 DUP2 GT PUSH2 0xF34 JUMPI PUSH2 0x1969 SWAP1 CALLDATASIZE SWAP1 DUP8 ADD PUSH2 0x1FA7 JUMP JUMPDEST SWAP4 PUSH1 0x44 DUP1 CALLDATALOAD SWAP7 PUSH1 0x64 SWAP1 DUP2 CALLDATALOAD SWAP3 DUP5 DUP5 AND DUP1 SWAP5 SUB PUSH2 0x1CFD JUMPI PUSH1 0x84 CALLDATALOAD SWAP5 DUP6 AND DUP1 SWAP6 SUB PUSH2 0x1CFD JUMPI PUSH1 0xA4 CALLDATALOAD SWAP6 PUSH1 0xFF DUP8 AND DUP1 SWAP8 SUB PUSH2 0x1CF9 JUMPI PUSH32 0x5022544358EE0BECE556B72AE8983C7F24341BD5B9483CE8A19BFF5EFBB2DE92 DUP14 MSTORE PUSH1 0x20 SWAP14 DUP15 DUP2 DUP2 MSTORE DUP14 DUP3 KECCAK256 SWAP2 CALLER SWAP1 MSTORE MSTORE DUP12 DUP14 KECCAK256 SLOAD PUSH1 0xFF AND PUSH2 0x19DD SWAP1 PUSH2 0x23E0 JUMP JUMPDEST PUSH2 0x19E5 PUSH2 0x232A JUMP JUMPDEST DUP9 MLOAD DUP13 DUP2 ISZERO ISZERO SWAP2 DUP3 PUSH2 0x1CEE JUMPI JUMPDEST POP POP ISZERO PUSH2 0x1CB0 JUMPI DUP11 ISZERO PUSH2 0x1C72 JUMPI TIMESTAMP DUP6 GT ISZERO PUSH2 0x1C23 JUMPI DUP5 DUP7 GT ISZERO PUSH2 0x1BCF JUMPI PUSH1 0x2 DUP8 GT PUSH2 0x1B91 JUMPI POP POP POP POP PUSH1 0x8 SLOAD SWAP6 PUSH4 0xFFFFFFFF DUP1 DUP9 AND PUSH2 0x1A30 SWAP1 PUSH2 0x22BA JUMP JUMPDEST AND DUP1 SWAP11 DUP2 DUP1 SWAP10 PUSH4 0xFFFFFFFF NOT AND OR PUSH1 0x8 SSTORE DUP13 DUP11 DUP13 DUP1 MLOAD SWAP4 PUSH2 0x1A50 DUP6 PUSH2 0x1F55 JUMP JUMPDEST PUSH1 0x1 DUP6 MSTORE DUP4 DUP6 ADD SWAP2 DUP2 DUP4 MSTORE DUP1 DUP7 ADD SWAP1 DUP10 DUP3 MSTORE PUSH1 0x60 DUP8 ADD SWAP3 DUP12 DUP5 MSTORE PUSH1 0x80 DUP9 ADD SWAP6 DUP7 MSTORE PUSH1 0xA0 DUP9 ADD SWAP7 DUP2 DUP9 MSTORE PUSH1 0xC0 DUP10 ADD SWAP10 DUP3 DUP12 MSTORE DUP3 MSTORE PUSH1 0x6 SWAP1 MSTORE KECCAK256 SWAP6 MLOAD ISZERO ISZERO SWAP3 DUP7 SLOAD SWAP1 MLOAD ISZERO ISZERO PUSH1 0x8 SHL PUSH2 0xFF00 AND SWAP2 MLOAD PUSH1 0x10 SHL PUSH10 0xFFFFFFFFFFFFFFFF0000 AND SWAP3 PUSH1 0x1 PUSH1 0x1 PUSH1 0x40 SHL SUB PUSH1 0x50 SHL SWAP1 MLOAD PUSH1 0x50 SHL AND SWAP4 PUSH1 0xFF AND SWAP1 PUSH18 0xFFFFFFFFFFFFFFFFFFFFFFFFFFFFFFFFFFFF NOT AND OR OR OR OR DUP4 SSTORE MLOAD PUSH1 0x1 DUP4 ADD SSTORE MLOAD PUSH1 0x2 DUP3 ADD SSTORE PUSH1 0x3 ADD SWAP1 MLOAD PUSH2 0x1AF7 DUP2 PUSH2 0x210D JUMP JUMPDEST PUSH2 0x1B00 DUP2 PUSH2 0x210D JUMP JUMPDEST PUSH1 0xFF NOT DUP3 SLOAD AND SWAP1 PUSH1 0xFF AND OR SWAP1 SSTORE PUSH1 0x8 SLOAD PUSH1 0x60 SHR DUP9 ADDRESS CALLER PUSH2 0x1B1F SWAP4 PUSH2 0x242C JUMP JUMPDEST DUP9 MLOAD SWAP6 PUSH2 0x100 DUP1 DUP9 MSTORE DUP8 ADD PUSH2 0x1B33 SWAP2 PUSH2 0x2305 JUMP JUMPDEST DUP7 DUP2 SUB DUP13 DUP9 ADD MSTORE PUSH2 0x1B43 SWAP2 PUSH2 0x2305 JUMP JUMPDEST SWAP7 DUP9 DUP7 ADD MSTORE PUSH1 0x60 DUP6 ADD MSTORE PUSH1 0x80 DUP5 ADD MSTORE PUSH1 0xA0 DUP4 ADD MSTORE PUSH1 0xC4 CALLDATALOAD PUSH1 0xC0 DUP4 ADD MSTORE TIMESTAMP SWAP1 DUP3 ADD MSTORE DUP1 CALLER SWAP4 SUB PUSH32 0xEE251B552D73550DE19A2232A9EC98911EE7719D531264FCFADD30FB8B14BED2 SWAP2 LOG3 MLOAD SWAP1 DUP2 MSTORE RETURN JUMPDEST DUP12 MLOAD PUSH3 0x461BCD PUSH1 0xE5 SHL DUP2 MSTORE SWAP3 DUP4 ADD DUP15 SWAP1 MSTORE PUSH1 0x1D SWAP1 DUP4 ADD MSTORE PUSH32 0x43726F73734572613A20496E76616C6964207265776172642074797065000000 SWAP1 DUP3 ADD MSTORE REVERT JUMPDEST SWAP3 PUSH32 0x43726F73734572613A20456E642064617465206D757374206265206166746572 PUSH11 0x2073746172742064617465 PUSH1 0xA8 SHL SWAP3 DUP16 PUSH1 0x84 SWAP7 DUP16 SWAP2 PUSH1 0x2B SWAP3 MLOAD SWAP8 PUSH3 0x461BCD PUSH1 0xE5 SHL DUP10 MSTORE DUP9 ADD MSTORE DUP7 ADD MSTORE DUP5 ADD MSTORE DUP3 ADD MSTORE REVERT JUMPDEST SWAP3 PUSH32 0x43726F73734572613A2053746172742064617465206D75737420626520696E20 PUSH6 0x667574757265 PUSH1 0xD0 SHL SWAP3 DUP16 PUSH1 0x84 SWAP7 DUP16 SWAP2 PUSH1 0x26 SWAP3 MLOAD SWAP8 PUSH3 0x461BCD PUSH1 0xE5 SHL DUP10 MSTORE DUP9 ADD MSTORE DUP7 ADD MSTORE DUP5 ADD MSTORE DUP3 ADD MSTORE REVERT JUMPDEST DUP12 MLOAD PUSH3 0x461BCD PUSH1 0xE5 SHL DUP2 MSTORE SWAP3 DUP4 ADD DUP15 SWAP1 MSTORE PUSH1 0x1D SWAP1 DUP4 ADD MSTORE PUSH32 0x43726F73734572613A20496E76616C696420706F6F6C20616D6F756E74000000 SWAP1 DUP3 ADD MSTORE REVERT JUMPDEST DUP12 MLOAD PUSH3 0x461BCD PUSH1 0xE5 SHL DUP2 MSTORE SWAP3 DUP4 ADD DUP15 SWAP1 MSTORE PUSH1 0x1F SWAP1 DUP4 ADD MSTORE PUSH32 0x43726F73734572613A20496E76616C69642063616D706169676E206E616D6500 SWAP1 DUP3 ADD MSTORE REVERT JUMPDEST GT ISZERO SWAP1 POP DUP13 CODESIZE PUSH2 0x19F2 JUMP JUMPDEST DUP13 DUP1 REVERT JUMPDEST DUP12 DUP1 REVERT JUMPDEST POP POP POP REVERT JUMPDEST DUP5 SWAP1 DUP5 CALLVALUE PUSH2 0x328 JUMPI DUP1 PUSH1 0x3 NOT CALLDATASIZE ADD SLT PUSH2 0x328 JUMPI PUSH2 0x479 SWAP2 CALLDATALOAD PUSH2 0x1D2B PUSH1 0x1 PUSH2 0x463 PUSH2 0x1F3A JUMP JUMPDEST PUSH2 0x2171 JUMP JUMPDEST SWAP2 POP POP CALLVALUE PUSH2 0x328 JUMPI PUSH1 0x20 CALLDATASIZE PUSH1 0x3 NOT ADD SLT PUSH2 0x328 JUMPI DUP2 PUSH1 0x20 SWAP4 PUSH1 0x1 SWAP3 CALLDATALOAD DUP2 MSTORE DUP1 DUP6 MSTORE KECCAK256 ADD SLOAD SWAP1 MLOAD SWAP1 DUP2 MSTORE RETURN JUMPDEST SWAP1 DUP5 SWAP3 POP CALLVALUE PUSH2 0x328 JUMPI PUSH1 0x60 CALLDATASIZE PUSH1 0x3 NOT ADD SLT PUSH2 0x328 JUMPI PUSH1 0x0 DUP1 MLOAD PUSH1 0x20 PUSH2 0x2671 DUP4 CODECOPY DUP2 MLOAD SWAP2 MSTORE DUP4 MSTORE PUSH1 0x20 SWAP2 DUP4 DUP4 MSTORE DUP5 DUP5 KECCAK256 CALLER DUP6 MSTORE DUP4 MSTORE PUSH1 0xFF SWAP5 PUSH2 0x1DA0 DUP7 DUP3 DUP8 KECCAK256 SLOAD AND PUSH2 0x262E JUMP JUMPDEST DUP5 SWAP1 DUP6 SWAP2 PUSH1 0x1 SWAP6 DUP7 PUSH1 0x8 SWAP8 DUP1 DUP10 SLOAD SWAP10 PUSH4 0xFFFFFFFF SWAP13 DUP14 DUP13 AND SWAP4 JUMPDEST PUSH2 0x1E27 JUMPI JUMPDEST DUP8 MLOAD DUP13 DUP10 SHR DUP16 AND DUP2 MSTORE DUP13 DUP8 SHR DUP16 AND DUP2 DUP9 ADD MSTORE DUP8 DUP16 AND DUP2 DUP11 ADD MSTORE PUSH1 0x60 DUP2 ADD DUP11 SWAP1 MSTORE DUP11 CALLDATALOAD PUSH1 0x80 DUP3 ADD MSTORE PUSH1 0x24 CALLDATALOAD PUSH1 0xA0 DUP3 ADD MSTORE PUSH1 0x44 CALLDATALOAD PUSH1 0xC0 DUP3 ADD MSTORE TIMESTAMP DUP2 DUP14 ADD MSTORE DUP14 SWAP1 PUSH32 0x596E049C7E14F0709DBE7AC834A239EF7A0EA5556F708B66B7D7C54E27513458 SWAP1 PUSH2 0x100 SWAP1 LOG1 DUP1 RETURN JUMPDEST SWAP1 SWAP2 SWAP3 SWAP4 SWAP8 DUP14 DUP10 AND DUP6 DUP2 GT PUSH2 0x1E9A JUMPI DUP14 DUP2 DUP11 SWAP3 DUP3 MSTORE PUSH1 0x6 SWAP1 DUP2 DUP11 MSTORE DUP6 DUP5 DUP5 KECCAK256 SLOAD DUP9 SHR AND PUSH2 0x1E76 JUMPI JUMPDEST DUP3 MSTORE DUP9 MSTORE KECCAK256 PUSH1 0x2 ADD SLOAD PUSH2 0x1E6C SWAP2 PUSH2 0x1E66 SWAP2 SWAP1 PUSH2 0x25D2 JUMP JUMPDEST SWAP9 PUSH2 0x22BA JUMP JUMPDEST SWAP4 SWAP3 SWAP2 SWAP1 DUP3 PUSH2 0x1DBA JUMP JUMPDEST SWAP10 SWAP3 PUSH2 0x1E6C SWAP5 SWAP3 PUSH1 0x2 SWAP3 PUSH2 0x1E8C PUSH2 0x1E66 SWAP7 PUSH2 0x22BA JUMP JUMPDEST SWAP13 SWAP3 SWAP6 POP SWAP3 POP SWAP3 SWAP5 POP PUSH2 0x1E4F JUMP JUMPDEST POP SWAP8 PUSH2 0x1DBF JUMP JUMPDEST POP POP POP CALLVALUE PUSH2 0x1E3 JUMPI DUP2 PUSH1 0x3 NOT CALLDATASIZE ADD SLT PUSH2 0x1E3 JUMPI PUSH1 0x20 SWAP1 PUSH1 0x9 SLOAD SWAP1 MLOAD SWAP1 DUP2 MSTORE RETURN JUMPDEST POP POP POP CALLVALUE PUSH2 0x1E3 JUMPI DUP2 PUSH1 0x3 NOT CALLDATASIZE ADD SLT PUSH2 0x1E3 JUMPI PUSH1 0x20 SWAP1 PUSH4 0xFFFFFFFF PUSH1 0x8 SLOAD AND SWAP1 MLOAD SWAP1 DUP2 MSTORE RETURN JUMPDEST DUP6 SWAP2 CALLVALUE PUSH2 0x328 JUMPI PUSH1 0x20 CALLDATASIZE PUSH1 0x3 NOT ADD SLT PUSH2 0x328 JUMPI CALLDATALOAD PUSH4 0xFFFFFFFF PUSH1 0xE0 SHL DUP2 AND DUP1 SWAP2 SUB PUSH2 0x328 JUMPI PUSH1 0x20 SWAP3 POP PUSH4 0x7965DB0B PUSH1 0xE0 SHL DUP2 EQ SWAP1 DUP2 ISZERO PUSH2 0x1F29 JUMPI JUMPDEST POP ISZERO ISZERO DUP2 MSTORE RETURN JUMPDEST PUSH4 0x1FFC9A7 PUSH1 0xE0 SHL EQ SWAP1 POP DUP4 PUSH2 0x1F22 JUMP JUMPDEST PUSH1 0x24 CALLDATALOAD SWAP1 PUSH1 0x1 PUSH1 0x1 PUSH1 0xA0 SHL SUB DUP3 AND DUP3 SUB PUSH2 0x1F50 JUMPI JUMP JUMPDEST PUSH1 0x0 DUP1 REVERT JUMPDEST PUSH1 0xE0 DUP2 ADD SWAP1 DUP2 LT PUSH1 0x1 PUSH1 0x1 PUSH1 0x40 SHL SUB DUP3 GT OR PUSH2 0x1F70 JUMPI PUSH1 0x40 MSTORE JUMP JUMPDEST PUSH4 0x4E487B71 PUSH1 0xE0 SHL PUSH1 0x0 MSTORE PUSH1 0x41 PUSH1 0x4 MSTORE PUSH1 0x24 PUSH1 0x0 REVERT JUMPDEST SWAP1 PUSH1 0x1F DUP1 NOT SWAP2 ADD AND DUP2 ADD SWAP1 DUP2 LT PUSH1 0x1 PUSH1 0x1 PUSH1 0x40 SHL SUB DUP3 GT OR PUSH2 0x1F70 JUMPI PUSH1 0x40 MSTORE JUMP JUMPDEST DUP2 PUSH1 0x1F DUP3 ADD SLT ISZERO PUSH2 0x1F50 JUMPI DUP1 CALLDATALOAD SWAP1 PUSH1 0x1 PUSH1 0x1 PUSH1 0x40 SHL SUB DUP3 GT PUSH2 0x1F70 JUMPI PUSH1 0x40 MLOAD SWAP3 PUSH2 0x1FDB PUSH1 0x1F DUP5 ADD PUSH1 0x1F NOT AND PUSH1 0x20 ADD DUP6 PUSH2 0x1F86 JUMP JUMPDEST DUP3 DUP5 MSTORE PUSH1 0x20 DUP4 DUP4 ADD ADD GT PUSH2 0x1F50 JUMPI DUP2 PUSH1 0x0 SWAP3 PUSH1 0x20 DUP1 SWAP4 ADD DUP4 DUP7 ADD CALLDATACOPY DUP4 ADD ADD MSTORE SWAP1 JUMP JUMPDEST PUSH1 0x4 CALLDATALOAD SWAP1 PUSH4 0xFFFFFFFF DUP3 AND DUP3 SUB PUSH2 0x1F50 JUMPI JUMP JUMPDEST PUSH1 0x24 CALLDATALOAD SWAP1 PUSH4 0xFFFFFFFF DUP3 AND DUP3 SUB PUSH2 0x1F50 JUMPI JUMP JUMPDEST PUSH1 0x40 PUSH1 0x3 NOT DUP3 ADD SLT PUSH2 0x1F50 JUMPI PUSH1 0x4 CALLDATALOAD SWAP1 PUSH1 0x1 PUSH1 0x1 PUSH1 0x40 SHL SUB DUP3 GT PUSH2 0x1F50 JUMPI PUSH2 0x204D SWAP2 PUSH1 0x4 ADD PUSH2 0x1FA7 JUMP JUMPDEST SWAP1 PUSH1 0x24 CALLDATALOAD PUSH4 0xFFFFFFFF DUP2 AND DUP2 SUB PUSH2 0x1F50 JUMPI SWAP1 JUMP JUMPDEST PUSH1 0xA0 PUSH1 0x3 NOT DUP3 ADD SLT PUSH2 0x1F50 JUMPI PUSH1 0x4 SWAP1 PUSH1 0x1 PUSH1 0x1 PUSH1 0x40 SHL SUB DUP3 CALLDATALOAD DUP2 DUP2 GT PUSH2 0x1F50 JUMPI DUP3 PUSH2 0x208D SWAP2 DUP6 ADD PUSH2 0x1FA7 JUMP JUMPDEST SWAP4 PUSH1 0x24 CALLDATALOAD DUP3 DUP2 GT PUSH2 0x1F50 JUMPI DUP4 PUSH2 0x20A4 SWAP2 DUP7 ADD PUSH2 0x1FA7 JUMP JUMPDEST SWAP4 PUSH1 0x44 CALLDATALOAD DUP4 DUP2 GT PUSH2 0x1F50 JUMPI DUP5 PUSH2 0x20BB SWAP2 DUP4 ADD PUSH2 0x1FA7 JUMP JUMPDEST SWAP4 PUSH1 0x64 CALLDATALOAD DUP5 DUP2 GT PUSH2 0x1F50 JUMPI DUP2 PUSH2 0x20D2 SWAP2 DUP5 ADD PUSH2 0x1FA7 JUMP JUMPDEST SWAP4 PUSH1 0x84 CALLDATALOAD SWAP1 DUP2 GT PUSH2 0x1F50 JUMPI PUSH2 0x20E7 SWAP3 ADD PUSH2 0x1FA7 JUMP JUMPDEST SWAP1 JUMP JUMPDEST PUSH1 0x0 JUMPDEST DUP4 DUP2 LT PUSH2 0x20FD JUMPI POP POP PUSH1 0x0 SWAP2 ADD MSTORE JUMP JUMPDEST DUP2 DUP2 ADD MLOAD DUP4 DUP3 ADD MSTORE PUSH1 0x20 ADD PUSH2 0x20ED JUMP JUMPDEST PUSH1 0x5 GT ISZERO PUSH2 0x2117 JUMPI JUMP JUMPDEST PUSH4 0x4E487B71 PUSH1 0xE0 SHL PUSH1 0x0 MSTORE PUSH1 0x21 PUSH1 0x4 MSTORE PUSH1 0x24 PUSH1 0x0 REVERT JUMPDEST DUP1 PUSH1 0x0 MSTORE PUSH1 0x0 PUSH1 0x20 MSTORE PUSH1 0x40 PUSH1 0x0 KECCAK256 CALLER PUSH1 0x0 MSTORE PUSH1 0x20 MSTORE PUSH1 0xFF PUSH1 0x40 PUSH1 0x0 KECCAK256 SLOAD AND ISZERO PUSH2 0x2153 JUMPI POP JUMP JUMPDEST PUSH1 0x44 SWAP1 PUSH1 0x40 MLOAD SWAP1 PUSH4 0xE2517D3F PUSH1 0xE0 SHL DUP3 MSTORE CALLER PUSH1 0x4 DUP4 ADD MSTORE PUSH1 0x24 DUP3 ADD MSTORE REVERT JUMPDEST SWAP1 PUSH1 0x0 SWAP2 DUP1 DUP4 MSTORE DUP3 PUSH1 0x20 MSTORE PUSH1 0x40 DUP4 KECCAK256 SWAP2 PUSH1 0x1 DUP1 PUSH1 0xA0 SHL SUB AND SWAP2 DUP3 DUP5 MSTORE PUSH1 0x20 MSTORE PUSH1 0xFF PUSH1 0x40 DUP5 KECCAK256 SLOAD AND ISZERO PUSH1 0x0 EQ PUSH2 0x21EA JUMPI DUP1 DUP4 MSTORE DUP3 PUSH1 0x20 MSTORE PUSH1 0x40 DUP4 KECCAK256 DUP3 DUP5 MSTORE PUSH1 0x20 MSTORE PUSH1 0x40 DUP4 KECCAK256 PUSH1 0x1 PUSH1 0xFF NOT DUP3 SLOAD AND OR SWAP1 SSTORE PUSH32 0x2F8788117E7EFF1D82E926EC794901D17C78024A50270940304540A733656F0D CALLER SWAP4 DUP1 LOG4 PUSH1 0x1 SWAP1 JUMP JUMPDEST POP POP SWAP1 JUMP JUMPDEST SWAP1 PUSH1 0x0 SWAP2 DUP1 DUP4 MSTORE DUP3 PUSH1 0x20 MSTORE PUSH1 0x40 DUP4 KECCAK256 SWAP2 PUSH1 0x1 DUP1 PUSH1 0xA0 SHL SUB AND SWAP2 DUP3 DUP5 MSTORE PUSH1 0x20 MSTORE PUSH1 0xFF PUSH1 0x40 DUP5 KECCAK256 SLOAD AND PUSH1 0x0 EQ PUSH2 0x21EA JUMPI DUP1 DUP4 MSTORE DUP3 PUSH1 0x20 MSTORE PUSH1 0x40 DUP4 KECCAK256 DUP3 DUP5 MSTORE PUSH1 0x20 MSTORE PUSH1 0x40 DUP4 KECCAK256 PUSH1 0xFF NOT DUP2 SLOAD AND SWAP1 SSTORE PUSH32 0xF6391F5C32D9C69D2A47EA670B442974B53935D1EDC7FD64EB21E047A839171B CALLER SWAP4 DUP1 LOG4 PUSH1 0x1 SWAP1 JUMP JUMPDEST ISZERO PUSH2 0x226B JUMPI JUMP JUMPDEST PUSH1 0x40 MLOAD PUSH3 0x461BCD PUSH1 0xE5 SHL DUP2 MSTORE PUSH1 0x20 PUSH1 0x4 DUP3 ADD MSTORE PUSH1 0x21 PUSH1 0x24 DUP3 ADD MSTORE PUSH32 0x43726F73734572613A20496E76616C696420617070206E616D65206C656E6774 PUSH1 0x44 DUP3 ADD MSTORE PUSH1 0xD PUSH1 0xFB SHL PUSH1 0x64 DUP3 ADD MSTORE PUSH1 0x84 SWAP1 REVERT JUMPDEST PUSH4 0xFFFFFFFF DUP1 SWAP2 AND SWAP1 DUP2 EQ PUSH2 0x22CF JUMPI PUSH1 0x1 ADD SWAP1 JUMP JUMPDEST PUSH4 0x4E487B71 PUSH1 0xE0 SHL PUSH1 0x0 MSTORE PUSH1 0x11 PUSH1 0x4 MSTORE PUSH1 0x24 PUSH1 0x0 REVERT JUMPDEST PUSH2 0x22FD SWAP1 PUSH1 0x20 PUSH1 0x40 MLOAD SWAP3 DUP3 DUP5 DUP1 SWAP5 MLOAD SWAP4 DUP5 SWAP3 ADD PUSH2 0x20EA JUMP JUMPDEST DUP2 ADD SUB SWAP1 KECCAK256 SWAP1 JUMP JUMPDEST SWAP1 PUSH1 0x20 SWAP2 PUSH2 0x231E DUP2 MLOAD DUP1 SWAP3 DUP2 DUP6 MSTORE DUP6 DUP1 DUP7 ADD SWAP2 ADD PUSH2 0x20EA JUMP JUMPDEST PUSH1 0x1F ADD PUSH1 0x1F NOT AND ADD ADD SWAP1 JUMP JUMPDEST PUSH1 0xFF PUSH1 0x2 SLOAD AND PUSH2 0x2336 JUMPI JUMP JUMPDEST PUSH1 0x40 MLOAD PUSH4 0xD93C0665 PUSH1 0xE0 SHL DUP2 MSTORE PUSH1 0x4 SWAP1 REVERT JUMPDEST ISZERO PUSH2 0x234F JUMPI JUMP JUMPDEST PUSH1 0x40 MLOAD PUSH3 0x461BCD PUSH1 0xE5 SHL DUP2 MSTORE PUSH1 0x20 PUSH1 0x4 DUP3 ADD MSTORE PUSH1 0x1C PUSH1 0x24 DUP3 ADD MSTORE PUSH32 0x43726F73734572613A20417070206E6F74207265676973746572656400000000 PUSH1 0x44 DUP3 ADD MSTORE PUSH1 0x64 SWAP1 REVERT JUMPDEST ISZERO PUSH2 0x239B JUMPI JUMP JUMPDEST PUSH1 0x40 MLOAD PUSH3 0x461BCD PUSH1 0xE5 SHL DUP2 MSTORE PUSH1 0x20 PUSH1 0x4 DUP3 ADD MSTORE PUSH1 0x17 PUSH1 0x24 DUP3 ADD MSTORE PUSH32 0x43726F73734572613A204E6F7420617070206F776E6572000000000000000000 PUSH1 0x44 DUP3 ADD MSTORE PUSH1 0x64 SWAP1 REVERT JUMPDEST ISZERO PUSH2 0x23E7 JUMPI JUMP JUMPDEST PUSH1 0x40 MLOAD PUSH3 0x461BCD PUSH1 0xE5 SHL DUP2 MSTORE PUSH1 0x20 PUSH1 0x4 DUP3 ADD MSTORE PUSH1 0x1E PUSH1 0x24 DUP3 ADD MSTORE PUSH32 0x43726F73734572613A204E6F742063616D706169676E206D616E616765720000 PUSH1 0x44 DUP3 ADD MSTORE PUSH1 0x64 SWAP1 REVERT JUMPDEST PUSH1 0x40 MLOAD PUSH4 0x23B872DD PUSH1 0xE0 SHL PUSH1 0x20 DUP3 ADD MSTORE PUSH1 0x1 PUSH1 0x1 PUSH1 0xA0 SHL SUB SWAP3 DUP4 AND PUSH1 0x24 DUP3 ADD MSTORE SWAP3 SWAP1 SWAP2 AND PUSH1 0x44 DUP4 ADD MSTORE PUSH1 0x64 DUP1 DUP4 ADD SWAP4 SWAP1 SWAP4 MSTORE SWAP2 DUP2 MSTORE PUSH1 0xA0 DUP2 ADD SWAP2 DUP2 DUP4 LT PUSH1 0x1 PUSH1 0x1 PUSH1 0x40 SHL SUB DUP5 GT OR PUSH2 0x1F70 JUMPI PUSH2 0x2484 SWAP3 PUSH1 0x40 MSTORE PUSH2 0x2486 JUMP JUMPDEST JUMP JUMPDEST SWAP1 PUSH1 0x0 PUSH1 0x20 SWAP2 DUP3 DUP2 MLOAD SWAP2 ADD DUP3 DUP6 GAS CALL ISZERO PUSH2 0x24E2 JUMPI PUSH1 0x0 MLOAD RETURNDATASIZE PUSH2 0x24D9 JUMPI POP PUSH1 0x1 PUSH1 0x1 PUSH1 0xA0 SHL SUB DUP2 AND EXTCODESIZE ISZERO JUMPDEST PUSH2 0x24B7 JUMPI POP JUMP JUMPDEST PUSH1 0x40 MLOAD PUSH4 0x5274AFE7 PUSH1 0xE0 SHL DUP2 MSTORE PUSH1 0x1 PUSH1 0x1 PUSH1 0xA0 SHL SUB SWAP1 SWAP2 AND PUSH1 0x4 DUP3 ADD MSTORE PUSH1 0x24 SWAP1 REVERT JUMPDEST PUSH1 0x1 EQ ISZERO PUSH2 0x24B0 JUMP JUMPDEST PUSH1 0x40 MLOAD RETURNDATASIZE PUSH1 0x0 DUP3 RETURNDATACOPY RETURNDATASIZE SWAP1 REVERT JUMPDEST ISZERO PUSH2 0x24F5 JUMPI JUMP JUMPDEST PUSH1 0x40 MLOAD PUSH3 0x461BCD PUSH1 0xE5 SHL DUP2 MSTORE PUSH1 0x20 PUSH1 0x4 DUP3 ADD MSTORE PUSH1 0x1C PUSH1 0x24 DUP3 ADD MSTORE PUSH32 0x43726F73734572613A2043616D706169676E206E6F7420666F756E6400000000 PUSH1 0x44 DUP3 ADD MSTORE PUSH1 0x64 SWAP1 REVERT JUMPDEST ISZERO PUSH2 0x2541 JUMPI JUMP JUMPDEST PUSH1 0x40 MLOAD PUSH3 0x461BCD PUSH1 0xE5 SHL DUP2 MSTORE PUSH1 0x20 PUSH1 0x4 DUP3 ADD MSTORE PUSH1 0x1D PUSH1 0x24 DUP3 ADD MSTORE PUSH32 0x43726F73734572613A2043616D706169676E206E6F7420616374697665000000 PUSH1 0x44 DUP3 ADD MSTORE PUSH1 0x64 SWAP1 REVERT JUMPDEST ISZERO PUSH2 0x258D JUMPI JUMP JUMPDEST PUSH1 0x40 MLOAD PUSH3 0x461BCD PUSH1 0xE5 SHL DUP2 MSTORE PUSH1 0x20 PUSH1 0x4 DUP3 ADD MSTORE PUSH1 0x18 PUSH1 0x24 DUP3 ADD MSTORE PUSH32 0x43726F73734572613A2043616D706169676E20656E6465640000000000000000 PUSH1 0x44 DUP3 ADD MSTORE PUSH1 0x64 SWAP1 REVERT JUMPDEST SWAP2 SWAP1 DUP3 ADD DUP1 SWAP3 GT PUSH2 0x22CF JUMPI JUMP JUMPDEST PUSH1 0x40 MLOAD PUSH4 0xA9059CBB PUSH1 0xE0 SHL PUSH1 0x20 DUP3 ADD MSTORE PUSH1 0x1 PUSH1 0x1 PUSH1 0xA0 SHL SUB SWAP1 SWAP3 AND PUSH1 0x24 DUP4 ADD MSTORE PUSH1 0x44 DUP1 DUP4 ADD SWAP4 SWAP1 SWAP4 MSTORE SWAP2 DUP2 MSTORE PUSH1 0x80 DUP2 ADD SWAP2 PUSH1 0x1 PUSH1 0x1 PUSH1 0x40 SHL SUB DUP4 GT DUP3 DUP5 LT OR PUSH2 0x1F70 JUMPI PUSH2 0x2484 SWAP3 PUSH1 0x40 MSTORE PUSH2 0x2486 JUMP JUMPDEST ISZERO PUSH2 0x2635 JUMPI JUMP JUMPDEST PUSH1 0x40 MLOAD PUSH3 0x461BCD PUSH1 0xE5 SHL DUP2 MSTORE PUSH1 0x20 PUSH1 0x4 DUP3 ADD MSTORE PUSH1 0x13 PUSH1 0x24 DUP3 ADD MSTORE PUSH19 0x21B937B9B9A2B9309D102737BA1030B236B4B7 PUSH1 0x69 SHL PUSH1 0x44 DUP3 ADD MSTORE PUSH1 0x64 SWAP1 REVERT INVALID LOG4 SWAP9 SMOD KECCAK256 0x5C 0xE4 0xD3 SSTORE MULMOD 0x2E CREATE2 0xA8 LOG1 DUP16 JUMP 0xE8 SWAP2 EXTCODECOPY DELEGATECALL LOG2 ADD 0xFB 0xE2 DUP8 DUP3 JUMPDEST MULMOD JUMP SWAP4 0xC2 OR PUSH22 0xA2646970667358221220D03622F272ED6D5B35A8E027 DUP5 STATICCALL 0xDE SWAP4 0xC4 NOT TIMESTAMP 0xB7 CODESIZE 0xE5 TIMESTAMP JUMP CALLER RETURN 0x27 CHAINID CHAINID 0xE0 LOG0 0xA5 PUSH5 0x736F6C6343 STOP ADDMOD EQ STOP CALLER 0x2F DUP8 DUP9 GT PUSH31 0x7EFF1D82E926EC794901D17C78024A50270940304540A733656F0D00000000 "},"methodIdentifiers":{"ADMIN_ROLE()":"75b238fc","CAMPAIGN_MANAGER_ROLE()":"a762f58a","DEFAULT_ADMIN_ROLE()":"a217fddf","VERIFIER_ROLE()":"e7705db6","activateCampaign(uint32)":"a982708b","appOwners(string)":"c718c1e5","campaigns(uint32)":"eb81b527","changeAppStatus(string,uint8,string)":"6733b894","claimRewards(string,uint32)":"726d2c16","claimableRewards(string,uint32)":"ead0d8fb","createCampaign(string,string,uint256,uint64,uint64,uint8,bytes32)":"35472300","emergencyPause(string)":"cf5b4fd5","emergencyUnpause(string)":"5ddfcba8","emergencyWithdraw(address,uint256,string)":"9e626799","emitPlatformStats(uint256,uint256,uint256)":"143607f0","getCampaign(uint32)":"f54c9381","getClaimableRewards(string,uint32)":"4434e7a2","getRoleAdmin(bytes32)":"248a9ca3","grantRole(bytes32,address)":"2f2ff15d","hasRole(bytes32,address)":"91d14854","isTransactionProcessed(bytes32)":"efc646ca","minRewardAmount()":"12d3b8c9","paused()":"5c975abb","processTransaction(string,uint32,bytes32,uint256,uint256,uint256,uint8,bytes32)":"accc0f01","processedTransactions(bytes32)":"ac2e4936","registerApp(string,string,string,string,string)":"4bbd9284","registerAppForCampaign(string,uint32,uint256,bytes32)":"d0897c13","registeredApps(string)":"7b3ac300","renounceRole(bytes32,address)":"36568abe","revokeRole(bytes32,address)":"d547741f","rewardToken()":"f7c618c1","setMinRewardAmount(uint256)":"a2928542","supportsInterface(bytes4)":"01ffc9a7","totalApps()":"c97c4622","totalCampaigns()":"02932f56","totalDevelopers()":"65df7933","updateApp(string,string,string,string,string)":"6f62d8dd"}}}}}