{"contracts/MockXFIToken.sol":{"MockXFIToken":{"abi":[{"inputs":[{"internalType":"string","name":"name","type":"string"},{"internalType":"string","name":"symbol","type":"string"},{"internalType":"uint256","name":"initialSupply","type":"uint256"}],"stateMutability":"nonpayable","type":"constructor"},{"inputs":[{"internalType":"address","name":"spender","type":"address"},{"internalType":"uint256","name":"allowance","type":"uint256"},{"internalType":"uint256","name":"needed","type":"uint256"}],"name":"ERC20InsufficientAllowance","type":"error"},{"inputs":[{"internalType":"address","name":"sender","type":"address"},{"internalType":"uint256","name":"balance","type":"uint256"},{"internalType":"uint256","name":"needed","type":"uint256"}],"name":"ERC20InsufficientBalance","type":"error"},{"inputs":[{"internalType":"address","name":"approver","type":"address"}],"name":"ERC20InvalidApprover","type":"error"},{"inputs":[{"internalType":"address","name":"receiver","type":"address"}],"name":"ERC20InvalidReceiver","type":"error"},{"inputs":[{"internalType":"address","name":"sender","type":"address"}],"name":"ERC20InvalidSender","type":"error"},{"inputs":[{"internalType":"address","name":"spender","type":"address"}],"name":"ERC20InvalidSpender","type":"error"},{"inputs":[{"internalType":"address","name":"owner","type":"address"}],"name":"OwnableInvalidOwner","type":"error"},{"inputs":[{"internalType":"address","name":"account","type":"address"}],"name":"OwnableUnauthorizedAccount","type":"error"},{"anonymous":false,"inputs":[{"indexed":true,"internalType":"address","name":"owner","type":"address"},{"indexed":true,"internalType":"address","name":"spender","type":"address"},{"indexed":false,"internalType":"uint256","name":"value","type":"uint256"}],"name":"Approval","type":"event"},{"anonymous":false,"inputs":[{"indexed":true,"internalType":"address","name":"previousOwner","type":"address"},{"indexed":true,"internalType":"address","name":"newOwner","type":"address"}],"name":"OwnershipTransferred","type":"event"},{"anonymous":false,"inputs":[{"indexed":true,"internalType":"address","name":"from","type":"address"},{"indexed":true,"internalType":"address","name":"to","type":"address"},{"indexed":false,"internalType":"uint256","name":"value","type":"uint256"}],"name":"Transfer","type":"event"},{"inputs":[{"internalType":"address","name":"owner","type":"address"},{"internalType":"address","name":"spender","type":"address"}],"name":"allowance","outputs":[{"internalType":"uint256","name":"","type":"uint256"}],"stateMutability":"view","type":"function"},{"inputs":[{"internalType":"address","name":"spender","type":"address"},{"internalType":"uint256","name":"value","type":"uint256"}],"name":"approve","outputs":[{"internalType":"bool","name":"","type":"bool"}],"stateMutability":"nonpayable","type":"function"},{"inputs":[{"internalType":"address","name":"account","type":"address"}],"name":"balanceOf","outputs":[{"internalType":"uint256","name":"","type":"uint256"}],"stateMutability":"view","type":"function"},{"inputs":[{"internalType":"address[]","name":"recipients","type":"address[]"},{"internalType":"uint256[]","name":"amounts","type":"uint256[]"}],"name":"batchTransfer","outputs":[],"stateMutability":"nonpayable","type":"function"},{"inputs":[{"internalType":"uint256","name":"amount","type":"uint256"}],"name":"burn","outputs":[],"stateMutability":"nonpayable","type":"function"},{"inputs":[],"name":"decimals","outputs":[{"internalType":"uint8","name":"","type":"uint8"}],"stateMutability":"view","type":"function"},{"inputs":[],"name":"faucet","outputs":[],"stateMutability":"nonpayable","type":"function"},{"inputs":[{"internalType":"address","name":"to","type":"address"},{"internalType":"uint256","name":"amount","type":"uint256"}],"name":"mint","outputs":[],"stateMutability":"nonpayable","type":"function"},{"inputs":[],"name":"name","outputs":[{"internalType":"string","name":"","type":"string"}],"stateMutability":"view","type":"function"},{"inputs":[],"name":"owner","outputs":[{"internalType":"address","name":"","type":"address"}],"stateMutability":"view","type":"function"},{"inputs":[],"name":"renounceOwnership","outputs":[],"stateMutability":"nonpayable","type":"function"},{"inputs":[],"name":"symbol","outputs":[{"internalType":"string","name":"","type":"string"}],"stateMutability":"view","type":"function"},{"inputs":[],"name":"totalSupply","outputs":[{"internalType":"uint256","name":"","type":"uint256"}],"stateMutability":"view","type":"function"},{"inputs":[{"internalType":"address","name":"to","type":"address"},{"internalType":"uint256","name":"value","type":"uint256"}],"name":"transfer","outputs":[{"internalType":"bool","name":"","type":"bool"}],"stateMutability":"nonpayable","type":"function"},{"inputs":[{"internalType":"address","name":"from","type":"address"},{"internalType":"address","name":"to","type":"address"},{"internalType":"uint256","name":"value","type":"uint256"}],"name":"transferFrom","outputs":[{"internalType":"bool","name":"","type":"bool"}],"stateMutability":"nonpayable","type":"function"},{"inputs":[{"internalType":"address","name":"newOwner","type":"address"}],"name":"transferOwnership","outputs":[],"stateMutability":"nonpayable","type":"function"}],"evm":{"bytecode":{"linkReferences":{},"object":"60406080815234620003ef576200108a803803806200001e81620003f4565b9283398101606082820312620003ef5781516001600160401b039290838111620003ef5782620000509183016200041a565b60209283830151858111620003ef5786916200006e9185016200041a565b920151938151818111620002ef576003908154906001948583811c93168015620003e4575b88841014620003ce578190601f9384811162000378575b508890848311600114620003115760009262000305575b505060001982851b1c191690851b1782555b8451928311620002ef5760049485548581811c91168015620002e4575b88821014620002cf5782811162000284575b508691841160011462000219579383949184926000956200020d575b50501b92600019911b1c19161781555b3315620001f657600554336001600160a01b0382167f8be0079c531659141344cd1fd0a4f28419497f9722a3daafe3b4186f6b6457e0600080a36001600160a81b0319163360ff60a01b191617600960a11b1760055560025483810191908210620001e157506000917fddf252ad1be2c89b69c2b068fc378daa952ba7f163c4a11628f55a4df523b3ef9160025533835282815284832084815401905584519384523393a351610bfd90816200048d8239f35b601190634e487b7160e01b6000525260246000fd5b6024906000855191631e4fbdf760e01b8352820152fd5b0151935038806200011e565b9190601f198416928660005284886000209460005b8a898383106200026c575050501062000251575b50505050811b0181556200012e565b01519060f884600019921b161c191690553880808062000242565b8686015189559097019694850194889350016200022e565b86600052876000208380870160051c8201928a8810620002c5575b0160051c019086905b828110620002b857505062000102565b60008155018690620002a8565b925081926200029f565b602287634e487b7160e01b6000525260246000fd5b90607f1690620000f0565b634e487b7160e01b600052604160045260246000fd5b015190503880620000c1565b90879350601f19831691866000528a6000209260005b8c82821062000361575050841162000348575b505050811b018255620000d3565b015160001983871b60f8161c191690553880806200033a565b8385015186558b9790950194938401930162000327565b90915084600052886000208480850160051c8201928b8610620003c4575b918991869594930160051c01915b828110620003b4575050620000aa565b60008155859450899101620003a4565b9250819262000396565b634e487b7160e01b600052602260045260246000fd5b92607f169262000093565b600080fd5b6040519190601f01601f191682016001600160401b03811183821017620002ef57604052565b919080601f84011215620003ef5782516001600160401b038111620002ef5760209062000450601f8201601f19168301620003f4565b92818452828287010111620003ef5760005b8181106200047857508260009394955001015290565b85810183015184820184015282016200046256fe6080604081815260048036101561001557600080fd5b600092833560e01c90816306fdde031461086f57508063095ea7b3146107c657806318160ddd146107a757806323b872dd146106b4578063313ce5671461068f57806340c10f191461066257806342966c68146105ac57806370a0823114610575578063715018a61461051557806388d695b21461040c5780638da5cb5b146103e357806395d89b41146102c3578063a9059cbb14610292578063dd62ed3e14610249578063de5f72fd146101655763f2fde38b146100d357600080fd5b34610161576020366003190112610161576100ec6109ad565b906100f5610a0f565b6001600160a01b0391821692831561014b575050600554826bffffffffffffffffffffffff60a01b821617600555167f8be0079c531659141344cd1fd0a4f28419497f9722a3daafe3b4186f6b6457e08380a380f35b51631e4fbdf760e01b8152908101849052602490fd5b8280fd5b5091903461024557816003193601126102455733825281602052808220549060ff60055460a01c169161019783610b90565b906103e891808302928304036102325710156101e557506101b790610b90565b806064029060648204036101d2576101cf9033610b19565b80f35b506011602492634e487b7160e01b835252fd5b5162461bcd60e51b8152602081850152602260248201527f4d6f636b5846493a20416c72656164792068617320656e6f75676820746f6b656044820152616e7360f01b6064820152608490fd5b634e487b7160e01b855260118652602485fd5b5080fd5b505034610245578060031936011261024557806020926102676109ad565b61026f6109c8565b6001600160a01b0391821683526001865283832091168252845220549051908152f35b5050346102455780600319360112610245576020906102bc6102b26109ad565b6024359033610a3b565b5160018152f35b50919034610245578160031936011261024557805190828454600181811c908083169283156103d9575b60209384841081146103c6578388529081156103aa5750600114610355575b505050829003601f01601f191682019267ffffffffffffffff841183851017610342575082918261033e925282610964565b0390f35b634e487b7160e01b815260418552602490fd5b8787529192508591837f8a35acfbc15ff81a39ae7d344fd709f28e8600b4aa8c65c6b64bfe7fe36bd19b5b838510610396575050505083010138808061030c565b805488860183015293019284908201610380565b60ff1916878501525050151560051b840101905038808061030c565b634e487b7160e01b895260228a52602489fd5b91607f16916102ed565b50503461024557816003193601126102455760055490516001600160a01b039091168152602090f35b50903461016157806003193601126101615767ffffffffffffffff9180358381116105115761043e90369083016109de565b602493919394853590811161050d5761045a90369085016109de565b9190928282036104cc5750865b818110610472578780f35b61047d818388610ba1565b356001600160a01b03811681036104c8576104a59061049d838688610ba1565b359033610a3b565b60001981146104b657600101610467565b634e487b7160e01b8852601185528688fd5b8880fd5b5162461bcd60e51b8152602081860152601f818801527f4d6f636b5846493a20417272617973206c656e677468206d69736d61746368006044820152606490fd5b8680fd5b8480fd5b833461057257806003193601126105725761052e610a0f565b600580546001600160a01b0319811690915581906001600160a01b03167f8be0079c531659141344cd1fd0a4f28419497f9722a3daafe3b4186f6b6457e08280a380f35b80fd5b5050346102455760203660031901126102455760209181906001600160a01b0361059d6109ad565b16815280845220549051908152f35b5091903461024557602036600319011261024557823590331561064c5733835282602052808320549382851061062157508183943385528460205203818420558160025403600255519081527fddf252ad1be2c89b69c2b068fc378daa952ba7f163c4a11628f55a4df523b3ef60203392a380f35b905163391434e360e21b81523391810191825260208201859052604082018390529081906060010390fd5b51634b637e8f60e11b8152808401839052602490fd5b50503461024557366003190112610572576101cf61067e6109ad565b610686610a0f565b60243590610b19565b50503461024557816003193601126102455760209060ff60055460a01c169051908152f35b508234610572576060366003190112610572576106cf6109ad565b6106d76109c8565b916044359360018060a01b038316808352600160205286832033845260205286832054916000198310610713575b6020886102bc898989610a3b565b86831061077b57811561076457331561074d575082526001602090815286832033845281529186902090859003905582906102bc87610705565b8751634a1406b160e11b8152908101849052602490fd5b875163e602df0560e01b8152908101849052602490fd5b8751637dc7a0d960e11b8152339181019182526020820193909352604081018790528291506060010390fd5b5050346102455781600319360112610245576020906002549051908152f35b50346101615781600319360112610161576107df6109ad565b602435903315610858576001600160a01b031691821561084157508083602095338152600187528181208582528752205582519081527f8c5be1e5ebec7d5bd14f71427d1e84f3dd0314c0f7b2291e5b200ac8c7c3b925843392a35160018152f35b8351634a1406b160e11b8152908101859052602490fd5b835163e602df0560e01b8152808401869052602490fd5b849150833461016157826003193601126101615782600354600181811c9080831692831561095a575b60209384841081146103c65783885290811561093e57506001146108e857505050829003601f01601f191682019267ffffffffffffffff841183851017610342575082918261033e925282610964565b600387529192508591837fc2575a0e9e593c00f959f8c92f12db2869c3395a3b0502d05e2516446f71f85b5b83851061092a575050505083010185808061030c565b805488860183015293019284908201610914565b60ff1916878501525050151560051b840101905085808061030c565b91607f1691610898565b6020808252825181830181905290939260005b82811061099957505060409293506000838284010152601f8019910116010190565b818101860151848201604001528501610977565b600435906001600160a01b03821682036109c357565b600080fd5b602435906001600160a01b03821682036109c357565b9181601f840112156109c35782359167ffffffffffffffff83116109c3576020808501948460051b0101116109c357565b6005546001600160a01b03163303610a2357565b60405163118cdaa760e01b8152336004820152602490fd5b916001600160a01b03808416928315610b005716928315610ae75760009083825281602052604082205490838210610ab5575091604082827fddf252ad1be2c89b69c2b068fc378daa952ba7f163c4a11628f55a4df523b3ef958760209652828652038282205586815220818154019055604051908152a3565b60405163391434e360e21b81526001600160a01b03919091166004820152602481019190915260448101839052606490fd5b60405163ec442f0560e01b815260006004820152602490fd5b604051634b637e8f60e11b815260006004820152602490fd5b6001600160a01b0316908115610ae75760025490808201809211610b7a5760207fddf252ad1be2c89b69c2b068fc378daa952ba7f163c4a11628f55a4df523b3ef9160009360025584845283825260408420818154019055604051908152a3565b634e487b7160e01b600052601160045260246000fd5b60ff16604d8111610b7a57600a0a90565b9190811015610bb15760051b0190565b634e487b7160e01b600052603260045260246000fdfea264697066735822122013e788d5d063ddade43055191057b5addbad8b0dea0045c700f986e259deb94c64736f6c63430008140033","opcodes":"PUSH1 0x40 PUSH1 0x80 DUP2 MSTORE CALLVALUE PUSH3 0x3EF JUMPI PUSH3 0x108A DUP1 CODESIZE SUB DUP1 PUSH3 0x1E DUP2 PUSH3 0x3F4 JUMP JUMPDEST SWAP3 DUP4 CODECOPY DUP2 ADD PUSH1 0x60 DUP3 DUP3 SUB SLT PUSH3 0x3EF JUMPI DUP2 MLOAD PUSH1 0x1 PUSH1 0x1 PUSH1 0x40 SHL SUB SWAP3 SWAP1 DUP4 DUP2 GT PUSH3 0x3EF JUMPI DUP3 PUSH3 0x50 SWAP2 DUP4 ADD PUSH3 0x41A JUMP JUMPDEST PUSH1 0x20 SWAP3 DUP4 DUP4 ADD MLOAD DUP6 DUP2 GT PUSH3 0x3EF JUMPI DUP7 SWAP2 PUSH3 0x6E SWAP2 DUP6 ADD PUSH3 0x41A JUMP JUMPDEST SWAP3 ADD MLOAD SWAP4 DUP2 MLOAD DUP2 DUP2 GT PUSH3 0x2EF JUMPI PUSH1 0x3 SWAP1 DUP2 SLOAD SWAP1 PUSH1 0x1 SWAP5 DUP6 DUP4 DUP2 SHR SWAP4 AND DUP1 ISZERO PUSH3 0x3E4 JUMPI JUMPDEST DUP9 DUP5 LT EQ PUSH3 0x3CE JUMPI DUP2 SWAP1 PUSH1 0x1F SWAP4 DUP5 DUP2 GT PUSH3 0x378 JUMPI JUMPDEST POP DUP9 SWAP1 DUP5 DUP4 GT PUSH1 0x1 EQ PUSH3 0x311 JUMPI PUSH1 0x0 SWAP3 PUSH3 0x305 JUMPI JUMPDEST POP POP PUSH1 0x0 NOT DUP3 DUP6 SHL SHR NOT AND SWAP1 DUP6 SHL OR DUP3 SSTORE JUMPDEST DUP5 MLOAD SWAP3 DUP4 GT PUSH3 0x2EF JUMPI PUSH1 0x4 SWAP5 DUP6 SLOAD DUP6 DUP2 DUP2 SHR SWAP2 AND DUP1 ISZERO PUSH3 0x2E4 JUMPI JUMPDEST DUP9 DUP3 LT EQ PUSH3 0x2CF JUMPI DUP3 DUP2 GT PUSH3 0x284 JUMPI JUMPDEST POP DUP7 SWAP2 DUP5 GT PUSH1 0x1 EQ PUSH3 0x219 JUMPI SWAP4 DUP4 SWAP5 SWAP2 DUP5 SWAP3 PUSH1 0x0 SWAP6 PUSH3 0x20D JUMPI JUMPDEST POP POP SHL SWAP3 PUSH1 0x0 NOT SWAP2 SHL SHR NOT AND OR DUP2 SSTORE JUMPDEST CALLER ISZERO PUSH3 0x1F6 JUMPI PUSH1 0x5 SLOAD CALLER PUSH1 0x1 PUSH1 0x1 PUSH1 0xA0 SHL SUB DUP3 AND PUSH32 0x8BE0079C531659141344CD1FD0A4F28419497F9722A3DAAFE3B4186F6B6457E0 PUSH1 0x0 DUP1 LOG3 PUSH1 0x1 PUSH1 0x1 PUSH1 0xA8 SHL SUB NOT AND CALLER PUSH1 0xFF PUSH1 0xA0 SHL NOT AND OR PUSH1 0x9 PUSH1 0xA1 SHL OR PUSH1 0x5 SSTORE PUSH1 0x2 SLOAD DUP4 DUP2 ADD SWAP2 SWAP1 DUP3 LT PUSH3 0x1E1 JUMPI POP PUSH1 0x0 SWAP2 PUSH32 0xDDF252AD1BE2C89B69C2B068FC378DAA952BA7F163C4A11628F55A4DF523B3EF SWAP2 PUSH1 0x2 SSTORE CALLER DUP4 MSTORE DUP3 DUP2 MSTORE DUP5 DUP4 KECCAK256 DUP5 DUP2 SLOAD ADD SWAP1 SSTORE DUP5 MLOAD SWAP4 DUP5 MSTORE CALLER SWAP4 LOG3 MLOAD PUSH2 0xBFD SWAP1 DUP2 PUSH3 0x48D DUP3 CODECOPY RETURN JUMPDEST PUSH1 0x11 SWAP1 PUSH4 0x4E487B71 PUSH1 0xE0 SHL PUSH1 0x0 MSTORE MSTORE PUSH1 0x24 PUSH1 0x0 REVERT JUMPDEST PUSH1 0x24 SWAP1 PUSH1 0x0 DUP6 MLOAD SWAP2 PUSH4 0x1E4FBDF7 PUSH1 0xE0 SHL DUP4 MSTORE DUP3 ADD MSTORE REVERT JUMPDEST ADD MLOAD SWAP4 POP CODESIZE DUP1 PUSH3 0x11E JUMP JUMPDEST SWAP2 SWAP1 PUSH1 0x1F NOT DUP5 AND SWAP3 DUP7 PUSH1 0x0 MSTORE DUP5 DUP9 PUSH1 0x0 KECCAK256 SWAP5 PUSH1 0x0 JUMPDEST DUP11 DUP10 DUP4 DUP4 LT PUSH3 0x26C JUMPI POP POP POP LT PUSH3 0x251 JUMPI JUMPDEST POP POP POP POP DUP2 SHL ADD DUP2 SSTORE PUSH3 0x12E JUMP JUMPDEST ADD MLOAD SWAP1 PUSH1 0xF8 DUP5 PUSH1 0x0 NOT SWAP3 SHL AND SHR NOT AND SWAP1 SSTORE CODESIZE DUP1 DUP1 DUP1 PUSH3 0x242 JUMP JUMPDEST DUP7 DUP7 ADD MLOAD DUP10 SSTORE SWAP1 SWAP8 ADD SWAP7 SWAP5 DUP6 ADD SWAP5 DUP9 SWAP4 POP ADD PUSH3 0x22E JUMP JUMPDEST DUP7 PUSH1 0x0 MSTORE DUP8 PUSH1 0x0 KECCAK256 DUP4 DUP1 DUP8 ADD PUSH1 0x5 SHR DUP3 ADD SWAP3 DUP11 DUP9 LT PUSH3 0x2C5 JUMPI JUMPDEST ADD PUSH1 0x5 SHR ADD SWAP1 DUP7 SWAP1 JUMPDEST DUP3 DUP2 LT PUSH3 0x2B8 JUMPI POP POP PUSH3 0x102 JUMP JUMPDEST PUSH1 0x0 DUP2 SSTORE ADD DUP7 SWAP1 PUSH3 0x2A8 JUMP JUMPDEST SWAP3 POP DUP2 SWAP3 PUSH3 0x29F JUMP JUMPDEST PUSH1 0x22 DUP8 PUSH4 0x4E487B71 PUSH1 0xE0 SHL PUSH1 0x0 MSTORE MSTORE PUSH1 0x24 PUSH1 0x0 REVERT JUMPDEST SWAP1 PUSH1 0x7F AND SWAP1 PUSH3 0xF0 JUMP JUMPDEST PUSH4 0x4E487B71 PUSH1 0xE0 SHL PUSH1 0x0 MSTORE PUSH1 0x41 PUSH1 0x4 MSTORE PUSH1 0x24 PUSH1 0x0 REVERT JUMPDEST ADD MLOAD SWAP1 POP CODESIZE DUP1 PUSH3 0xC1 JUMP JUMPDEST SWAP1 DUP8 SWAP4 POP PUSH1 0x1F NOT DUP4 AND SWAP2 DUP7 PUSH1 0x0 MSTORE DUP11 PUSH1 0x0 KECCAK256 SWAP3 PUSH1 0x0 JUMPDEST DUP13 DUP3 DUP3 LT PUSH3 0x361 JUMPI POP POP DUP5 GT PUSH3 0x348 JUMPI JUMPDEST POP POP POP DUP2 SHL ADD DUP3 SSTORE PUSH3 0xD3 JUMP JUMPDEST ADD MLOAD PUSH1 0x0 NOT DUP4 DUP8 SHL PUSH1 0xF8 AND SHR NOT AND SWAP1 SSTORE CODESIZE DUP1 DUP1 PUSH3 0x33A JUMP JUMPDEST DUP4 DUP6 ADD MLOAD DUP7 SSTORE DUP12 SWAP8 SWAP1 SWAP6 ADD SWAP5 SWAP4 DUP5 ADD SWAP4 ADD PUSH3 0x327 JUMP JUMPDEST SWAP1 SWAP2 POP DUP5 PUSH1 0x0 MSTORE DUP9 PUSH1 0x0 KECCAK256 DUP5 DUP1 DUP6 ADD PUSH1 0x5 SHR DUP3 ADD SWAP3 DUP12 DUP7 LT PUSH3 0x3C4 JUMPI JUMPDEST SWAP2 DUP10 SWAP2 DUP7 SWAP6 SWAP5 SWAP4 ADD PUSH1 0x5 SHR ADD SWAP2 JUMPDEST DUP3 DUP2 LT PUSH3 0x3B4 JUMPI POP POP PUSH3 0xAA JUMP JUMPDEST PUSH1 0x0 DUP2 SSTORE DUP6 SWAP5 POP DUP10 SWAP2 ADD PUSH3 0x3A4 JUMP JUMPDEST SWAP3 POP DUP2 SWAP3 PUSH3 0x396 JUMP JUMPDEST PUSH4 0x4E487B71 PUSH1 0xE0 SHL PUSH1 0x0 MSTORE PUSH1 0x22 PUSH1 0x4 MSTORE PUSH1 0x24 PUSH1 0x0 REVERT JUMPDEST SWAP3 PUSH1 0x7F AND SWAP3 PUSH3 0x93 JUMP JUMPDEST PUSH1 0x0 DUP1 REVERT JUMPDEST PUSH1 0x40 MLOAD SWAP2 SWAP1 PUSH1 0x1F ADD PUSH1 0x1F NOT AND DUP3 ADD PUSH1 0x1 PUSH1 0x1 PUSH1 0x40 SHL SUB DUP2 GT DUP4 DUP3 LT OR PUSH3 0x2EF JUMPI PUSH1 0x40 MSTORE JUMP JUMPDEST SWAP2 SWAP1 DUP1 PUSH1 0x1F DUP5 ADD SLT ISZERO PUSH3 0x3EF JUMPI DUP3 MLOAD PUSH1 0x1 PUSH1 0x1 PUSH1 0x40 SHL SUB DUP2 GT PUSH3 0x2EF JUMPI PUSH1 0x20 SWAP1 PUSH3 0x450 PUSH1 0x1F DUP3 ADD PUSH1 0x1F NOT AND DUP4 ADD PUSH3 0x3F4 JUMP JUMPDEST SWAP3 DUP2 DUP5 MSTORE DUP3 DUP3 DUP8 ADD ADD GT PUSH3 0x3EF JUMPI PUSH1 0x0 JUMPDEST DUP2 DUP2 LT PUSH3 0x478 JUMPI POP DUP3 PUSH1 0x0 SWAP4 SWAP5 SWAP6 POP ADD ADD MSTORE SWAP1 JUMP JUMPDEST DUP6 DUP2 ADD DUP4 ADD MLOAD DUP5 DUP3 ADD DUP5 ADD MSTORE DUP3 ADD PUSH3 0x462 JUMP INVALID PUSH1 0x80 PUSH1 0x40 DUP2 DUP2 MSTORE PUSH1 0x4 DUP1 CALLDATASIZE LT ISZERO PUSH2 0x15 JUMPI PUSH1 0x0 DUP1 REVERT JUMPDEST PUSH1 0x0 SWAP3 DUP4 CALLDATALOAD PUSH1 0xE0 SHR SWAP1 DUP2 PUSH4 0x6FDDE03 EQ PUSH2 0x86F JUMPI POP DUP1 PUSH4 0x95EA7B3 EQ PUSH2 0x7C6 JUMPI DUP1 PUSH4 0x18160DDD EQ PUSH2 0x7A7 JUMPI DUP1 PUSH4 0x23B872DD EQ PUSH2 0x6B4 JUMPI DUP1 PUSH4 0x313CE567 EQ PUSH2 0x68F JUMPI DUP1 PUSH4 0x40C10F19 EQ PUSH2 0x662 JUMPI DUP1 PUSH4 0x42966C68 EQ PUSH2 0x5AC JUMPI DUP1 PUSH4 0x70A08231 EQ PUSH2 0x575 JUMPI DUP1 PUSH4 0x715018A6 EQ PUSH2 0x515 JUMPI DUP1 PUSH4 0x88D695B2 EQ PUSH2 0x40C JUMPI DUP1 PUSH4 0x8DA5CB5B EQ PUSH2 0x3E3 JUMPI DUP1 PUSH4 0x95D89B41 EQ PUSH2 0x2C3 JUMPI DUP1 PUSH4 0xA9059CBB EQ PUSH2 0x292 JUMPI DUP1 PUSH4 0xDD62ED3E EQ PUSH2 0x249 JUMPI DUP1 PUSH4 0xDE5F72FD EQ PUSH2 0x165 JUMPI PUSH4 0xF2FDE38B EQ PUSH2 0xD3 JUMPI PUSH1 0x0 DUP1 REVERT JUMPDEST CALLVALUE PUSH2 0x161 JUMPI PUSH1 0x20 CALLDATASIZE PUSH1 0x3 NOT ADD SLT PUSH2 0x161 JUMPI PUSH2 0xEC PUSH2 0x9AD JUMP JUMPDEST SWAP1 PUSH2 0xF5 PUSH2 0xA0F JUMP JUMPDEST PUSH1 0x1 PUSH1 0x1 PUSH1 0xA0 SHL SUB SWAP2 DUP3 AND SWAP3 DUP4 ISZERO PUSH2 0x14B JUMPI POP POP PUSH1 0x5 SLOAD DUP3 PUSH12 0xFFFFFFFFFFFFFFFFFFFFFFFF PUSH1 0xA0 SHL DUP3 AND OR PUSH1 0x5 SSTORE AND PUSH32 0x8BE0079C531659141344CD1FD0A4F28419497F9722A3DAAFE3B4186F6B6457E0 DUP4 DUP1 LOG3 DUP1 RETURN JUMPDEST MLOAD PUSH4 0x1E4FBDF7 PUSH1 0xE0 SHL DUP2 MSTORE SWAP1 DUP2 ADD DUP5 SWAP1 MSTORE PUSH1 0x24 SWAP1 REVERT JUMPDEST DUP3 DUP1 REVERT JUMPDEST POP SWAP2 SWAP1 CALLVALUE PUSH2 0x245 JUMPI DUP2 PUSH1 0x3 NOT CALLDATASIZE ADD SLT PUSH2 0x245 JUMPI CALLER DUP3 MSTORE DUP2 PUSH1 0x20 MSTORE DUP1 DUP3 KECCAK256 SLOAD SWAP1 PUSH1 0xFF PUSH1 0x5 SLOAD PUSH1 0xA0 SHR AND SWAP2 PUSH2 0x197 DUP4 PUSH2 0xB90 JUMP JUMPDEST SWAP1 PUSH2 0x3E8 SWAP2 DUP1 DUP4 MUL SWAP3 DUP4 DIV SUB PUSH2 0x232 JUMPI LT ISZERO PUSH2 0x1E5 JUMPI POP PUSH2 0x1B7 SWAP1 PUSH2 0xB90 JUMP JUMPDEST DUP1 PUSH1 0x64 MUL SWAP1 PUSH1 0x64 DUP3 DIV SUB PUSH2 0x1D2 JUMPI PUSH2 0x1CF SWAP1 CALLER PUSH2 0xB19 JUMP JUMPDEST DUP1 RETURN JUMPDEST POP PUSH1 0x11 PUSH1 0x24 SWAP3 PUSH4 0x4E487B71 PUSH1 0xE0 SHL DUP4 MSTORE MSTORE REVERT JUMPDEST MLOAD PUSH3 0x461BCD PUSH1 0xE5 SHL DUP2 MSTORE PUSH1 0x20 DUP2 DUP6 ADD MSTORE PUSH1 0x22 PUSH1 0x24 DUP3 ADD MSTORE PUSH32 0x4D6F636B5846493A20416C72656164792068617320656E6F75676820746F6B65 PUSH1 0x44 DUP3 ADD MSTORE PUSH2 0x6E73 PUSH1 0xF0 SHL PUSH1 0x64 DUP3 ADD MSTORE PUSH1 0x84 SWAP1 REVERT JUMPDEST PUSH4 0x4E487B71 PUSH1 0xE0 SHL DUP6 MSTORE PUSH1 0x11 DUP7 MSTORE PUSH1 0x24 DUP6 REVERT JUMPDEST POP DUP1 REVERT JUMPDEST POP POP CALLVALUE PUSH2 0x245 JUMPI DUP1 PUSH1 0x3 NOT CALLDATASIZE ADD SLT PUSH2 0x245 JUMPI DUP1 PUSH1 0x20 SWAP3 PUSH2 0x267 PUSH2 0x9AD JUMP JUMPDEST PUSH2 0x26F PUSH2 0x9C8 JUMP JUMPDEST PUSH1 0x1 PUSH1 0x1 PUSH1 0xA0 SHL SUB SWAP2 DUP3 AND DUP4 MSTORE PUSH1 0x1 DUP7 MSTORE DUP4 DUP4 KECCAK256 SWAP2 AND DUP3 MSTORE DUP5 MSTORE KECCAK256 SLOAD SWAP1 MLOAD SWAP1 DUP2 MSTORE RETURN JUMPDEST POP POP CALLVALUE PUSH2 0x245 JUMPI DUP1 PUSH1 0x3 NOT CALLDATASIZE ADD SLT PUSH2 0x245 JUMPI PUSH1 0x20 SWAP1 PUSH2 0x2BC PUSH2 0x2B2 PUSH2 0x9AD JUMP JUMPDEST PUSH1 0x24 CALLDATALOAD SWAP1 CALLER PUSH2 0xA3B JUMP JUMPDEST MLOAD PUSH1 0x1 DUP2 MSTORE RETURN JUMPDEST POP SWAP2 SWAP1 CALLVALUE PUSH2 0x245 JUMPI DUP2 PUSH1 0x3 NOT CALLDATASIZE ADD SLT PUSH2 0x245 JUMPI DUP1 MLOAD SWAP1 DUP3 DUP5 SLOAD PUSH1 0x1 DUP2 DUP2 SHR SWAP1 DUP1 DUP4 AND SWAP3 DUP4 ISZERO PUSH2 0x3D9 JUMPI JUMPDEST PUSH1 0x20 SWAP4 DUP5 DUP5 LT DUP2 EQ PUSH2 0x3C6 JUMPI DUP4 DUP9 MSTORE SWAP1 DUP2 ISZERO PUSH2 0x3AA JUMPI POP PUSH1 0x1 EQ PUSH2 0x355 JUMPI JUMPDEST POP POP POP DUP3 SWAP1 SUB PUSH1 0x1F ADD PUSH1 0x1F NOT AND DUP3 ADD SWAP3 PUSH8 0xFFFFFFFFFFFFFFFF DUP5 GT DUP4 DUP6 LT OR PUSH2 0x342 JUMPI POP DUP3 SWAP2 DUP3 PUSH2 0x33E SWAP3 MSTORE DUP3 PUSH2 0x964 JUMP JUMPDEST SUB SWAP1 RETURN JUMPDEST PUSH4 0x4E487B71 PUSH1 0xE0 SHL DUP2 MSTORE PUSH1 0x41 DUP6 MSTORE PUSH1 0x24 SWAP1 REVERT JUMPDEST DUP8 DUP8 MSTORE SWAP2 SWAP3 POP DUP6 SWAP2 DUP4 PUSH32 0x8A35ACFBC15FF81A39AE7D344FD709F28E8600B4AA8C65C6B64BFE7FE36BD19B JUMPDEST DUP4 DUP6 LT PUSH2 0x396 JUMPI POP POP POP POP DUP4 ADD ADD CODESIZE DUP1 DUP1 PUSH2 0x30C JUMP JUMPDEST DUP1 SLOAD DUP9 DUP7 ADD DUP4 ADD MSTORE SWAP4 ADD SWAP3 DUP5 SWAP1 DUP3 ADD PUSH2 0x380 JUMP JUMPDEST PUSH1 0xFF NOT AND DUP8 DUP6 ADD MSTORE POP POP ISZERO ISZERO PUSH1 0x5 SHL DUP5 ADD ADD SWAP1 POP CODESIZE DUP1 DUP1 PUSH2 0x30C JUMP JUMPDEST PUSH4 0x4E487B71 PUSH1 0xE0 SHL DUP10 MSTORE PUSH1 0x22 DUP11 MSTORE PUSH1 0x24 DUP10 REVERT JUMPDEST SWAP2 PUSH1 0x7F AND SWAP2 PUSH2 0x2ED JUMP JUMPDEST POP POP CALLVALUE PUSH2 0x245 JUMPI DUP2 PUSH1 0x3 NOT CALLDATASIZE ADD SLT PUSH2 0x245 JUMPI PUSH1 0x5 SLOAD SWAP1 MLOAD PUSH1 0x1 PUSH1 0x1 PUSH1 0xA0 SHL SUB SWAP1 SWAP2 AND DUP2 MSTORE PUSH1 0x20 SWAP1 RETURN JUMPDEST POP SWAP1 CALLVALUE PUSH2 0x161 JUMPI DUP1 PUSH1 0x3 NOT CALLDATASIZE ADD SLT PUSH2 0x161 JUMPI PUSH8 0xFFFFFFFFFFFFFFFF SWAP2 DUP1 CALLDATALOAD DUP4 DUP2 GT PUSH2 0x511 JUMPI PUSH2 0x43E SWAP1 CALLDATASIZE SWAP1 DUP4 ADD PUSH2 0x9DE JUMP JUMPDEST PUSH1 0x24 SWAP4 SWAP2 SWAP4 SWAP5 DUP6 CALLDATALOAD SWAP1 DUP2 GT PUSH2 0x50D JUMPI PUSH2 0x45A SWAP1 CALLDATASIZE SWAP1 DUP6 ADD PUSH2 0x9DE JUMP JUMPDEST SWAP2 SWAP1 SWAP3 DUP3 DUP3 SUB PUSH2 0x4CC JUMPI POP DUP7 JUMPDEST DUP2 DUP2 LT PUSH2 0x472 JUMPI DUP8 DUP1 RETURN JUMPDEST PUSH2 0x47D DUP2 DUP4 DUP9 PUSH2 0xBA1 JUMP JUMPDEST CALLDATALOAD PUSH1 0x1 PUSH1 0x1 PUSH1 0xA0 SHL SUB DUP2 AND DUP2 SUB PUSH2 0x4C8 JUMPI PUSH2 0x4A5 SWAP1 PUSH2 0x49D DUP4 DUP7 DUP9 PUSH2 0xBA1 JUMP JUMPDEST CALLDATALOAD SWAP1 CALLER PUSH2 0xA3B JUMP JUMPDEST PUSH1 0x0 NOT DUP2 EQ PUSH2 0x4B6 JUMPI PUSH1 0x1 ADD PUSH2 0x467 JUMP JUMPDEST PUSH4 0x4E487B71 PUSH1 0xE0 SHL DUP9 MSTORE PUSH1 0x11 DUP6 MSTORE DUP7 DUP9 REVERT JUMPDEST DUP9 DUP1 REVERT JUMPDEST MLOAD PUSH3 0x461BCD PUSH1 0xE5 SHL DUP2 MSTORE PUSH1 0x20 DUP2 DUP7 ADD MSTORE PUSH1 0x1F DUP2 DUP9 ADD MSTORE PUSH32 0x4D6F636B5846493A20417272617973206C656E677468206D69736D6174636800 PUSH1 0x44 DUP3 ADD MSTORE PUSH1 0x64 SWAP1 REVERT JUMPDEST DUP7 DUP1 REVERT JUMPDEST DUP5 DUP1 REVERT JUMPDEST DUP4 CALLVALUE PUSH2 0x572 JUMPI DUP1 PUSH1 0x3 NOT CALLDATASIZE ADD SLT PUSH2 0x572 JUMPI PUSH2 0x52E PUSH2 0xA0F JUMP JUMPDEST PUSH1 0x5 DUP1 SLOAD PUSH1 0x1 PUSH1 0x1 PUSH1 0xA0 SHL SUB NOT DUP2 AND SWAP1 SWAP2 SSTORE DUP2 SWAP1 PUSH1 0x1 PUSH1 0x1 PUSH1 0xA0 SHL SUB AND PUSH32 0x8BE0079C531659141344CD1FD0A4F28419497F9722A3DAAFE3B4186F6B6457E0 DUP3 DUP1 LOG3 DUP1 RETURN JUMPDEST DUP1 REVERT JUMPDEST POP POP CALLVALUE PUSH2 0x245 JUMPI PUSH1 0x20 CALLDATASIZE PUSH1 0x3 NOT ADD SLT PUSH2 0x245 JUMPI PUSH1 0x20 SWAP2 DUP2 SWAP1 PUSH1 0x1 PUSH1 0x1 PUSH1 0xA0 SHL SUB PUSH2 0x59D PUSH2 0x9AD JUMP JUMPDEST AND DUP2 MSTORE DUP1 DUP5 MSTORE KECCAK256 SLOAD SWAP1 MLOAD SWAP1 DUP2 MSTORE RETURN JUMPDEST POP SWAP2 SWAP1 CALLVALUE PUSH2 0x245 JUMPI PUSH1 0x20 CALLDATASIZE PUSH1 0x3 NOT ADD SLT PUSH2 0x245 JUMPI DUP3 CALLDATALOAD SWAP1 CALLER ISZERO PUSH2 0x64C JUMPI CALLER DUP4 MSTORE DUP3 PUSH1 0x20 MSTORE DUP1 DUP4 KECCAK256 SLOAD SWAP4 DUP3 DUP6 LT PUSH2 0x621 JUMPI POP DUP2 DUP4 SWAP5 CALLER DUP6 MSTORE DUP5 PUSH1 0x20 MSTORE SUB DUP2 DUP5 KECCAK256 SSTORE DUP2 PUSH1 0x2 SLOAD SUB PUSH1 0x2 SSTORE MLOAD SWAP1 DUP2 MSTORE PUSH32 0xDDF252AD1BE2C89B69C2B068FC378DAA952BA7F163C4A11628F55A4DF523B3EF PUSH1 0x20 CALLER SWAP3 LOG3 DUP1 RETURN JUMPDEST SWAP1 MLOAD PUSH4 0x391434E3 PUSH1 0xE2 SHL DUP2 MSTORE CALLER SWAP2 DUP2 ADD SWAP2 DUP3 MSTORE PUSH1 0x20 DUP3 ADD DUP6 SWAP1 MSTORE PUSH1 0x40 DUP3 ADD DUP4 SWAP1 MSTORE SWAP1 DUP2 SWAP1 PUSH1 0x60 ADD SUB SWAP1 REVERT JUMPDEST MLOAD PUSH4 0x4B637E8F PUSH1 0xE1 SHL DUP2 MSTORE DUP1 DUP5 ADD DUP4 SWAP1 MSTORE PUSH1 0x24 SWAP1 REVERT JUMPDEST POP POP CALLVALUE PUSH2 0x245 JUMPI CALLDATASIZE PUSH1 0x3 NOT ADD SLT PUSH2 0x572 JUMPI PUSH2 0x1CF PUSH2 0x67E PUSH2 0x9AD JUMP JUMPDEST PUSH2 0x686 PUSH2 0xA0F JUMP JUMPDEST PUSH1 0x24 CALLDATALOAD SWAP1 PUSH2 0xB19 JUMP JUMPDEST POP POP CALLVALUE PUSH2 0x245 JUMPI DUP2 PUSH1 0x3 NOT CALLDATASIZE ADD SLT PUSH2 0x245 JUMPI PUSH1 0x20 SWAP1 PUSH1 0xFF PUSH1 0x5 SLOAD PUSH1 0xA0 SHR AND SWAP1 MLOAD SWAP1 DUP2 MSTORE RETURN JUMPDEST POP DUP3 CALLVALUE PUSH2 0x572 JUMPI PUSH1 0x60 CALLDATASIZE PUSH1 0x3 NOT ADD SLT PUSH2 0x572 JUMPI PUSH2 0x6CF PUSH2 0x9AD JUMP JUMPDEST PUSH2 0x6D7 PUSH2 0x9C8 JUMP JUMPDEST SWAP2 PUSH1 0x44 CALLDATALOAD SWAP4 PUSH1 0x1 DUP1 PUSH1 0xA0 SHL SUB DUP4 AND DUP1 DUP4 MSTORE PUSH1 0x1 PUSH1 0x20 MSTORE DUP7 DUP4 KECCAK256 CALLER DUP5 MSTORE PUSH1 0x20 MSTORE DUP7 DUP4 KECCAK256 SLOAD SWAP2 PUSH1 0x0 NOT DUP4 LT PUSH2 0x713 JUMPI JUMPDEST PUSH1 0x20 DUP9 PUSH2 0x2BC DUP10 DUP10 DUP10 PUSH2 0xA3B JUMP JUMPDEST DUP7 DUP4 LT PUSH2 0x77B JUMPI DUP2 ISZERO PUSH2 0x764 JUMPI CALLER ISZERO PUSH2 0x74D JUMPI POP DUP3 MSTORE PUSH1 0x1 PUSH1 0x20 SWAP1 DUP2 MSTORE DUP7 DUP4 KECCAK256 CALLER DUP5 MSTORE DUP2 MSTORE SWAP2 DUP7 SWAP1 KECCAK256 SWAP1 DUP6 SWAP1 SUB SWAP1 SSTORE DUP3 SWAP1 PUSH2 0x2BC DUP8 PUSH2 0x705 JUMP JUMPDEST DUP8 MLOAD PUSH4 0x4A1406B1 PUSH1 0xE1 SHL DUP2 MSTORE SWAP1 DUP2 ADD DUP5 SWAP1 MSTORE PUSH1 0x24 SWAP1 REVERT JUMPDEST DUP8 MLOAD PUSH4 0xE602DF05 PUSH1 0xE0 SHL DUP2 MSTORE SWAP1 DUP2 ADD DUP5 SWAP1 MSTORE PUSH1 0x24 SWAP1 REVERT JUMPDEST DUP8 MLOAD PUSH4 0x7DC7A0D9 PUSH1 0xE1 SHL DUP2 MSTORE CALLER SWAP2 DUP2 ADD SWAP2 DUP3 MSTORE PUSH1 0x20 DUP3 ADD SWAP4 SWAP1 SWAP4 MSTORE PUSH1 0x40 DUP2 ADD DUP8 SWAP1 MSTORE DUP3 SWAP2 POP PUSH1 0x60 ADD SUB SWAP1 REVERT JUMPDEST POP POP CALLVALUE PUSH2 0x245 JUMPI DUP2 PUSH1 0x3 NOT CALLDATASIZE ADD SLT PUSH2 0x245 JUMPI PUSH1 0x20 SWAP1 PUSH1 0x2 SLOAD SWAP1 MLOAD SWAP1 DUP2 MSTORE RETURN JUMPDEST POP CALLVALUE PUSH2 0x161 JUMPI DUP2 PUSH1 0x3 NOT CALLDATASIZE ADD SLT PUSH2 0x161 JUMPI PUSH2 0x7DF PUSH2 0x9AD JUMP JUMPDEST PUSH1 0x24 CALLDATALOAD SWAP1 CALLER ISZERO PUSH2 0x858 JUMPI PUSH1 0x1 PUSH1 0x1 PUSH1 0xA0 SHL SUB AND SWAP2 DUP3 ISZERO PUSH2 0x841 JUMPI POP DUP1 DUP4 PUSH1 0x20 SWAP6 CALLER DUP2 MSTORE PUSH1 0x1 DUP8 MSTORE DUP2 DUP2 KECCAK256 DUP6 DUP3 MSTORE DUP8 MSTORE KECCAK256 SSTORE DUP3 MLOAD SWAP1 DUP2 MSTORE PUSH32 0x8C5BE1E5EBEC7D5BD14F71427D1E84F3DD0314C0F7B2291E5B200AC8C7C3B925 DUP5 CALLER SWAP3 LOG3 MLOAD PUSH1 0x1 DUP2 MSTORE RETURN JUMPDEST DUP4 MLOAD PUSH4 0x4A1406B1 PUSH1 0xE1 SHL DUP2 MSTORE SWAP1 DUP2 ADD DUP6 SWAP1 MSTORE PUSH1 0x24 SWAP1 REVERT JUMPDEST DUP4 MLOAD PUSH4 0xE602DF05 PUSH1 0xE0 SHL DUP2 MSTORE DUP1 DUP5 ADD DUP7 SWAP1 MSTORE PUSH1 0x24 SWAP1 REVERT JUMPDEST DUP5 SWAP2 POP DUP4 CALLVALUE PUSH2 0x161 JUMPI DUP3 PUSH1 0x3 NOT CALLDATASIZE ADD SLT PUSH2 0x161 JUMPI DUP3 PUSH1 0x3 SLOAD PUSH1 0x1 DUP2 DUP2 SHR SWAP1 DUP1 DUP4 AND SWAP3 DUP4 ISZERO PUSH2 0x95A JUMPI JUMPDEST PUSH1 0x20 SWAP4 DUP5 DUP5 LT DUP2 EQ PUSH2 0x3C6 JUMPI DUP4 DUP9 MSTORE SWAP1 DUP2 ISZERO PUSH2 0x93E JUMPI POP PUSH1 0x1 EQ PUSH2 0x8E8 JUMPI POP POP POP DUP3 SWAP1 SUB PUSH1 0x1F ADD PUSH1 0x1F NOT AND DUP3 ADD SWAP3 PUSH8 0xFFFFFFFFFFFFFFFF DUP5 GT DUP4 DUP6 LT OR PUSH2 0x342 JUMPI POP DUP3 SWAP2 DUP3 PUSH2 0x33E SWAP3 MSTORE DUP3 PUSH2 0x964 JUMP JUMPDEST PUSH1 0x3 DUP8 MSTORE SWAP2 SWAP3 POP DUP6 SWAP2 DUP4 PUSH32 0xC2575A0E9E593C00F959F8C92F12DB2869C3395A3B0502D05E2516446F71F85B JUMPDEST DUP4 DUP6 LT PUSH2 0x92A JUMPI POP POP POP POP DUP4 ADD ADD DUP6 DUP1 DUP1 PUSH2 0x30C JUMP JUMPDEST DUP1 SLOAD DUP9 DUP7 ADD DUP4 ADD MSTORE SWAP4 ADD SWAP3 DUP5 SWAP1 DUP3 ADD PUSH2 0x914 JUMP JUMPDEST PUSH1 0xFF NOT AND DUP8 DUP6 ADD MSTORE POP POP ISZERO ISZERO PUSH1 0x5 SHL DUP5 ADD ADD SWAP1 POP DUP6 DUP1 DUP1 PUSH2 0x30C JUMP JUMPDEST SWAP2 PUSH1 0x7F AND SWAP2 PUSH2 0x898 JUMP JUMPDEST PUSH1 0x20 DUP1 DUP3 MSTORE DUP3 MLOAD DUP2 DUP4 ADD DUP2 SWAP1 MSTORE SWAP1 SWAP4 SWAP3 PUSH1 0x0 JUMPDEST DUP3 DUP2 LT PUSH2 0x999 JUMPI POP POP PUSH1 0x40 SWAP3 SWAP4 POP PUSH1 0x0 DUP4 DUP3 DUP5 ADD ADD MSTORE PUSH1 0x1F DUP1 NOT SWAP2 ADD AND ADD ADD SWAP1 JUMP JUMPDEST DUP2 DUP2 ADD DUP7 ADD MLOAD DUP5 DUP3 ADD PUSH1 0x40 ADD MSTORE DUP6 ADD PUSH2 0x977 JUMP JUMPDEST PUSH1 0x4 CALLDATALOAD SWAP1 PUSH1 0x1 PUSH1 0x1 PUSH1 0xA0 SHL SUB DUP3 AND DUP3 SUB PUSH2 0x9C3 JUMPI JUMP JUMPDEST PUSH1 0x0 DUP1 REVERT JUMPDEST PUSH1 0x24 CALLDATALOAD SWAP1 PUSH1 0x1 PUSH1 0x1 PUSH1 0xA0 SHL SUB DUP3 AND DUP3 SUB PUSH2 0x9C3 JUMPI JUMP JUMPDEST SWAP2 DUP2 PUSH1 0x1F DUP5 ADD SLT ISZERO PUSH2 0x9C3 JUMPI DUP3 CALLDATALOAD SWAP2 PUSH8 0xFFFFFFFFFFFFFFFF DUP4 GT PUSH2 0x9C3 JUMPI PUSH1 0x20 DUP1 DUP6 ADD SWAP5 DUP5 PUSH1 0x5 SHL ADD ADD GT PUSH2 0x9C3 JUMPI JUMP JUMPDEST PUSH1 0x5 SLOAD PUSH1 0x1 PUSH1 0x1 PUSH1 0xA0 SHL SUB AND CALLER SUB PUSH2 0xA23 JUMPI JUMP JUMPDEST PUSH1 0x40 MLOAD PUSH4 0x118CDAA7 PUSH1 0xE0 SHL DUP2 MSTORE CALLER PUSH1 0x4 DUP3 ADD MSTORE PUSH1 0x24 SWAP1 REVERT JUMPDEST SWAP2 PUSH1 0x1 PUSH1 0x1 PUSH1 0xA0 SHL SUB DUP1 DUP5 AND SWAP3 DUP4 ISZERO PUSH2 0xB00 JUMPI AND SWAP3 DUP4 ISZERO PUSH2 0xAE7 JUMPI PUSH1 0x0 SWAP1 DUP4 DUP3 MSTORE DUP2 PUSH1 0x20 MSTORE PUSH1 0x40 DUP3 KECCAK256 SLOAD SWAP1 DUP4 DUP3 LT PUSH2 0xAB5 JUMPI POP SWAP2 PUSH1 0x40 DUP3 DUP3 PUSH32 0xDDF252AD1BE2C89B69C2B068FC378DAA952BA7F163C4A11628F55A4DF523B3EF SWAP6 DUP8 PUSH1 0x20 SWAP7 MSTORE DUP3 DUP7 MSTORE SUB DUP3 DUP3 KECCAK256 SSTORE DUP7 DUP2 MSTORE KECCAK256 DUP2 DUP2 SLOAD ADD SWAP1 SSTORE PUSH1 0x40 MLOAD SWAP1 DUP2 MSTORE LOG3 JUMP JUMPDEST PUSH1 0x40 MLOAD PUSH4 0x391434E3 PUSH1 0xE2 SHL DUP2 MSTORE PUSH1 0x1 PUSH1 0x1 PUSH1 0xA0 SHL SUB SWAP2 SWAP1 SWAP2 AND PUSH1 0x4 DUP3 ADD MSTORE PUSH1 0x24 DUP2 ADD SWAP2 SWAP1 SWAP2 MSTORE PUSH1 0x44 DUP2 ADD DUP4 SWAP1 MSTORE PUSH1 0x64 SWAP1 REVERT JUMPDEST PUSH1 0x40 MLOAD PUSH4 0xEC442F05 PUSH1 0xE0 SHL DUP2 MSTORE PUSH1 0x0 PUSH1 0x4 DUP3 ADD MSTORE PUSH1 0x24 SWAP1 REVERT JUMPDEST PUSH1 0x40 MLOAD PUSH4 0x4B637E8F PUSH1 0xE1 SHL DUP2 MSTORE PUSH1 0x0 PUSH1 0x4 DUP3 ADD MSTORE PUSH1 0x24 SWAP1 REVERT JUMPDEST PUSH1 0x1 PUSH1 0x1 PUSH1 0xA0 SHL SUB AND SWAP1 DUP2 ISZERO PUSH2 0xAE7 JUMPI PUSH1 0x2 SLOAD SWAP1 DUP1 DUP3 ADD DUP1 SWAP3 GT PUSH2 0xB7A JUMPI PUSH1 0x20 PUSH32 0xDDF252AD1BE2C89B69C2B068FC378DAA952BA7F163C4A11628F55A4DF523B3EF SWAP2 PUSH1 0x0 SWAP4 PUSH1 0x2 SSTORE DUP5 DUP5 MSTORE DUP4 DUP3 MSTORE PUSH1 0x40 DUP5 KECCAK256 DUP2 DUP2 SLOAD ADD SWAP1 SSTORE PUSH1 0x40 MLOAD SWAP1 DUP2 MSTORE LOG3 JUMP JUMPDEST PUSH4 0x4E487B71 PUSH1 0xE0 SHL PUSH1 0x0 MSTORE PUSH1 0x11 PUSH1 0x4 MSTORE PUSH1 0x24 PUSH1 0x0 REVERT JUMPDEST PUSH1 0xFF AND PUSH1 0x4D DUP2 GT PUSH2 0xB7A JUMPI PUSH1 0xA EXP SWAP1 JUMP JUMPDEST SWAP2 SWAP1 DUP2 LT ISZERO PUSH2 0xBB1 JUMPI PUSH1 0x5 SHL ADD SWAP1 JUMP JUMPDEST PUSH4 0x4E487B71 PUSH1 0xE0 SHL PUSH1 0x0 MSTORE PUSH1 0x32 PUSH1 0x4 MSTORE PUSH1 0x24 PUSH1 0x0 REVERT INVALID LOG2 PUSH5 0x6970667358 0x22 SLT KECCAK256 SGT 0xE7 DUP9 0xD5 0xD0 PUSH4 0xDDADE430 SSTORE NOT LT JUMPI 0xB5 0xAD 0xDB 0xAD DUP12 0xD 0xEA STOP GASLIMIT 0xC7 STOP 0xF9 DUP7 0xE2 MSIZE 0xDE 0xB9 0x4C PUSH5 0x736F6C6343 STOP ADDMOD EQ STOP CALLER "},"methodIdentifiers":{"allowance(address,address)":"dd62ed3e","approve(address,uint256)":"095ea7b3","balanceOf(address)":"70a08231","batchTransfer(address[],uint256[])":"88d695b2","burn(uint256)":"42966c68","decimals()":"313ce567","faucet()":"de5f72fd","mint(address,uint256)":"40c10f19","name()":"06fdde03","owner()":"8da5cb5b","renounceOwnership()":"715018a6","symbol()":"95d89b41","totalSupply()":"18160ddd","transfer(address,uint256)":"a9059cbb","transferFrom(address,address,uint256)":"23b872dd","transferOwnership(address)":"f2fde38b"}}}}}