{"contracts/HelloWorld.sol":{"HelloWorld":{"abi":[{"anonymous":false,"inputs":[{"indexed":true,"internalType":"address","name":"sender","type":"address"},{"indexed":false,"internalType":"bytes","name":"data","type":"bytes"},{"indexed":false,"internalType":"uint256","name":"amount","type":"uint256"},{"indexed":false,"internalType":"uint256","name":"timestamp","type":"uint256"}],"name":"Interaction","type":"event"},{"stateMutability":"payable","type":"fallback"},{"inputs":[],"name":"getBalance","outputs":[{"internalType":"uint256","name":"","type":"uint256"}],"stateMutability":"view","type":"function"},{"inputs":[],"name":"totalInteractions","outputs":[{"internalType":"uint256","name":"","type":"uint256"}],"stateMutability":"view","type":"function"},{"inputs":[],"name":"withdraw","outputs":[],"stateMutability":"nonpayable","type":"function"},{"stateMutability":"payable","type":"receive"}],"evm":{"bytecode":{"linkReferences":{},"object":"60808060405234610016576101d1908161001c8239f35b600080fdfe608060409080825260043610156100d4575b50361561008557610023600054610176565b60005580519060608252366060830152366000608084013760006080368401015234602083015242908201527f1214f91a37ccf8a9cf3ef1124a2daee47a4ef19b464f6d715ac62c0e3e5cf9663391608081601f19601f3601168101030190a2005b610090600054610176565b600055805190606082526000606083015234602083015242908201527f1214f91a37ccf8a9cf3ef1124a2daee47a4ef19b464f6d715ac62c0e3e5cf96660803392a2005b600090813560e01c90816312065fe01461015c575080633ccfd60b1461011e5763a843651e0361001157903461011a578160031936011261011a57602091549051908152f35b5080fd5b50903461011a578160031936011261011a578180808047818115610153575b3390f115610149575080f35b51903d90823e3d90fd5b506108fc61013d565b90503461011a578160031936011261011a57602090478152f35b60001981146101855760010190565b634e487b7160e01b600052601160045260246000fdfea264697066735822122021e9f9ad043ebe4c945553ee8dfaeead83fcb5eb142709cdab64f55eab080ee364736f6c63430008140033","opcodes":"PUSH1 0x80 DUP1 PUSH1 0x40 MSTORE CALLVALUE PUSH2 0x16 JUMPI PUSH2 0x1D1 SWAP1 DUP2 PUSH2 0x1C DUP3 CODECOPY RETURN JUMPDEST PUSH1 0x0 DUP1 REVERT INVALID PUSH1 0x80 PUSH1 0x40 SWAP1 DUP1 DUP3 MSTORE PUSH1 0x4 CALLDATASIZE LT ISZERO PUSH2 0xD4 JUMPI JUMPDEST POP CALLDATASIZE ISZERO PUSH2 0x85 JUMPI PUSH2 0x23 PUSH1 0x0 SLOAD PUSH2 0x176 JUMP JUMPDEST PUSH1 0x0 SSTORE DUP1 MLOAD SWAP1 PUSH1 0x60 DUP3 MSTORE CALLDATASIZE PUSH1 0x60 DUP4 ADD MSTORE CALLDATASIZE PUSH1 0x0 PUSH1 0x80 DUP5 ADD CALLDATACOPY PUSH1 0x0 PUSH1 0x80 CALLDATASIZE DUP5 ADD ADD MSTORE CALLVALUE PUSH1 0x20 DUP4 ADD MSTORE TIMESTAMP SWAP1 DUP3 ADD MSTORE PUSH32 0x1214F91A37CCF8A9CF3EF1124A2DAEE47A4EF19B464F6D715AC62C0E3E5CF966 CALLER SWAP2 PUSH1 0x80 DUP2 PUSH1 0x1F NOT PUSH1 0x1F CALLDATASIZE ADD AND DUP2 ADD SUB ADD SWAP1 LOG2 STOP JUMPDEST PUSH2 0x90 PUSH1 0x0 SLOAD PUSH2 0x176 JUMP JUMPDEST PUSH1 0x0 SSTORE DUP1 MLOAD SWAP1 PUSH1 0x60 DUP3 MSTORE PUSH1 0x0 PUSH1 0x60 DUP4 ADD MSTORE CALLVALUE PUSH1 0x20 DUP4 ADD MSTORE TIMESTAMP SWAP1 DUP3 ADD MSTORE PUSH32 0x1214F91A37CCF8A9CF3EF1124A2DAEE47A4EF19B464F6D715AC62C0E3E5CF966 PUSH1 0x80 CALLER SWAP3 LOG2 STOP JUMPDEST PUSH1 0x0 SWAP1 DUP2 CALLDATALOAD PUSH1 0xE0 SHR SWAP1 DUP2 PUSH4 0x12065FE0 EQ PUSH2 0x15C JUMPI POP DUP1 PUSH4 0x3CCFD60B EQ PUSH2 0x11E JUMPI PUSH4 0xA843651E SUB PUSH2 0x11 JUMPI SWAP1 CALLVALUE PUSH2 0x11A JUMPI DUP2 PUSH1 0x3 NOT CALLDATASIZE ADD SLT PUSH2 0x11A JUMPI PUSH1 0x20 SWAP2 SLOAD SWAP1 MLOAD SWAP1 DUP2 MSTORE RETURN JUMPDEST POP DUP1 REVERT JUMPDEST POP SWAP1 CALLVALUE PUSH2 0x11A JUMPI DUP2 PUSH1 0x3 NOT CALLDATASIZE ADD SLT PUSH2 0x11A JUMPI DUP2 DUP1 DUP1 DUP1 SELFBALANCE DUP2 DUP2 ISZERO PUSH2 0x153 JUMPI JUMPDEST CALLER SWAP1 CALL ISZERO PUSH2 0x149 JUMPI POP DUP1 RETURN JUMPDEST MLOAD SWAP1 RETURNDATASIZE SWAP1 DUP3 RETURNDATACOPY RETURNDATASIZE SWAP1 REVERT JUMPDEST POP PUSH2 0x8FC PUSH2 0x13D JUMP JUMPDEST SWAP1 POP CALLVALUE PUSH2 0x11A JUMPI DUP2 PUSH1 0x3 NOT CALLDATASIZE ADD SLT PUSH2 0x11A JUMPI PUSH1 0x20 SWAP1 SELFBALANCE DUP2 MSTORE RETURN JUMPDEST PUSH1 0x0 NOT DUP2 EQ PUSH2 0x185 JUMPI PUSH1 0x1 ADD SWAP1 JUMP JUMPDEST PUSH4 0x4E487B71 PUSH1 0xE0 SHL PUSH1 0x0 MSTORE PUSH1 0x11 PUSH1 0x4 MSTORE PUSH1 0x24 PUSH1 0x0 REVERT INVALID LOG2 PUSH5 0x6970667358 0x22 SLT KECCAK256 0x21 0xE9 0xF9 0xAD DIV RETURNDATACOPY 0xBE 0x4C SWAP5 SSTORE MSTORE8 0xEE DUP14 STATICCALL 0xEE 0xAD DUP4 0xFC 0xB5 0xEB EQ 0x27 MULMOD 0xCD 0xAB PUSH5 0xF55EAB080E 0xE3 PUSH5 0x736F6C6343 STOP ADDMOD EQ STOP CALLER "},"methodIdentifiers":{"getBalance()":"12065fe0","totalInteractions()":"a843651e","withdraw()":"3ccfd60b"}}}}}