{
  "_format": "hh-sol-artifact-1",
  "contractName": "MockXFIToken",
  "sourceName": "contracts/MockXFIToken.sol",
  "abi": [
    {
      "inputs": [
        {
          "internalType": "string",
          "name": "name",
          "type": "string"
        },
        {
          "internalType": "string",
          "name": "symbol",
          "type": "string"
        },
        {
          "internalType": "uint256",
          "name": "initialSupply",
          "type": "uint256"
        }
      ],
      "stateMutability": "nonpayable",
      "type": "constructor"
    },
    {
      "inputs": [
        {
          "internalType": "address",
          "name": "spender",
          "type": "address"
        },
        {
          "internalType": "uint256",
          "name": "allowance",
          "type": "uint256"
        },
        {
          "internalType": "uint256",
          "name": "needed",
          "type": "uint256"
        }
      ],
      "name": "ERC20InsufficientAllowance",
      "type": "error"
    },
    {
      "inputs": [
        {
          "internalType": "address",
          "name": "sender",
          "type": "address"
        },
        {
          "internalType": "uint256",
          "name": "balance",
          "type": "uint256"
        },
        {
          "internalType": "uint256",
          "name": "needed",
          "type": "uint256"
        }
      ],
      "name": "ERC20InsufficientBalance",
      "type": "error"
    },
    {
      "inputs": [
        {
          "internalType": "address",
          "name": "approver",
          "type": "address"
        }
      ],
      "name": "ERC20InvalidApprover",
      "type": "error"
    },
    {
      "inputs": [
        {
          "internalType": "address",
          "name": "receiver",
          "type": "address"
        }
      ],
      "name": "ERC20InvalidReceiver",
      "type": "error"
    },
    {
      "inputs": [
        {
          "internalType": "address",
          "name": "sender",
          "type": "address"
        }
      ],
      "name": "ERC20InvalidSender",
      "type": "error"
    },
    {
      "inputs": [
        {
          "internalType": "address",
          "name": "spender",
          "type": "address"
        }
      ],
      "name": "ERC20InvalidSpender",
      "type": "error"
    },
    {
      "inputs": [
        {
          "internalType": "address",
          "name": "owner",
          "type": "address"
        }
      ],
      "name": "OwnableInvalidOwner",
      "type": "error"
    },
    {
      "inputs": [
        {
          "internalType": "address",
          "name": "account",
          "type": "address"
        }
      ],
      "name": "OwnableUnauthorizedAccount",
      "type": "error"
    },
    {
      "anonymous": false,
      "inputs": [
        {
          "indexed": true,
          "internalType": "address",
          "name": "owner",
          "type": "address"
        },
        {
          "indexed": true,
          "internalType": "address",
          "name": "spender",
          "type": "address"
        },
        {
          "indexed": false,
          "internalType": "uint256",
          "name": "value",
          "type": "uint256"
        }
      ],
      "name": "Approval",
      "type": "event"
    },
    {
      "anonymous": false,
      "inputs": [
        {
          "indexed": true,
          "internalType": "address",
          "name": "previousOwner",
          "type": "address"
        },
        {
          "indexed": true,
          "internalType": "address",
          "name": "newOwner",
          "type": "address"
        }
      ],
      "name": "OwnershipTransferred",
      "type": "event"
    },
    {
      "anonymous": false,
      "inputs": [
        {
          "indexed": true,
          "internalType": "address",
          "name": "from",
          "type": "address"
        },
        {
          "indexed": true,
          "internalType": "address",
          "name": "to",
          "type": "address"
        },
        {
          "indexed": false,
          "internalType": "uint256",
          "name": "value",
          "type": "uint256"
        }
      ],
      "name": "Transfer",
      "type": "event"
    },
    {
      "inputs": [
        {
          "internalType": "address",
          "name": "owner",
          "type": "address"
        },
        {
          "internalType": "address",
          "name": "spender",
          "type": "address"
        }
      ],
      "name": "allowance",
      "outputs": [
        {
          "internalType": "uint256",
          "name": "",
          "type": "uint256"
        }
      ],
      "stateMutability": "view",
      "type": "function"
    },
    {
      "inputs": [
        {
          "internalType": "address",
          "name": "spender",
          "type": "address"
        },
        {
          "internalType": "uint256",
          "name": "value",
          "type": "uint256"
        }
      ],
      "name": "approve",
      "outputs": [
        {
          "internalType": "bool",
          "name": "",
          "type": "bool"
        }
      ],
      "stateMutability": "nonpayable",
      "type": "function"
    },
    {
      "inputs": [
        {
          "internalType": "address",
          "name": "account",
          "type": "address"
        }
      ],
      "name": "balanceOf",
      "outputs": [
        {
          "internalType": "uint256",
          "name": "",
          "type": "uint256"
        }
      ],
      "stateMutability": "view",
      "type": "function"
    },
    {
      "inputs": [
        {
          "internalType": "address[]",
          "name": "recipients",
          "type": "address[]"
        },
        {
          "internalType": "uint256[]",
          "name": "amounts",
          "type": "uint256[]"
        }
      ],
      "name": "batchTransfer",
      "outputs": [],
      "stateMutability": "nonpayable",
      "type": "function"
    },
    {
      "inputs": [
        {
          "internalType": "uint256",
          "name": "amount",
          "type": "uint256"
        }
      ],
      "name": "burn",
      "outputs": [],
      "stateMutability": "nonpayable",
      "type": "function"
    },
    {
      "inputs": [],
      "name": "decimals",
      "outputs": [
        {
          "internalType": "uint8",
          "name": "",
          "type": "uint8"
        }
      ],
      "stateMutability": "view",
      "type": "function"
    },
    {
      "inputs": [],
      "name": "faucet",
      "outputs": [],
      "stateMutability": "nonpayable",
      "type": "function"
    },
    {
      "inputs": [
        {
          "internalType": "address",
          "name": "to",
          "type": "address"
        },
        {
          "internalType": "uint256",
          "name": "amount",
          "type": "uint256"
        }
      ],
      "name": "mint",
      "outputs": [],
      "stateMutability": "nonpayable",
      "type": "function"
    },
    {
      "inputs": [],
      "name": "name",
      "outputs": [
        {
          "internalType": "string",
          "name": "",
          "type": "string"
        }
      ],
      "stateMutability": "view",
      "type": "function"
    },
    {
      "inputs": [],
      "name": "owner",
      "outputs": [
        {
          "internalType": "address",
          "name": "",
          "type": "address"
        }
      ],
      "stateMutability": "view",
      "type": "function"
    },
    {
      "inputs": [],
      "name": "renounceOwnership",
      "outputs": [],
      "stateMutability": "nonpayable",
      "type": "function"
    },
    {
      "inputs": [],
      "name": "symbol",
      "outputs": [
        {
          "internalType": "string",
          "name": "",
          "type": "string"
        }
      ],
      "stateMutability": "view",
      "type": "function"
    },
    {
      "inputs": [],
      "name": "totalSupply",
      "outputs": [
        {
          "internalType": "uint256",
          "name": "",
          "type": "uint256"
        }
      ],
      "stateMutability": "view",
      "type": "function"
    },
    {
      "inputs": [
        {
          "internalType": "address",
          "name": "to",
          "type": "address"
        },
        {
          "internalType": "uint256",
          "name": "value",
          "type": "uint256"
        }
      ],
      "name": "transfer",
      "outputs": [
        {
          "internalType": "bool",
          "name": "",
          "type": "bool"
        }
      ],
      "stateMutability": "nonpayable",
      "type": "function"
    },
    {
      "inputs": [
        {
          "internalType": "address",
          "name": "from",
          "type": "address"
        },
        {
          "internalType": "address",
          "name": "to",
          "type": "address"
        },
        {
          "internalType": "uint256",
          "name": "value",
          "type": "uint256"
        }
      ],
      "name": "transferFrom",
      "outputs": [
        {
          "internalType": "bool",
          "name": "",
          "type": "bool"
        }
      ],
      "stateMutability": "nonpayable",
      "type": "function"
    },
    {
      "inputs": [
        {
          "internalType": "address",
          "name": "newOwner",
          "type": "address"
        }
      ],
      "name": "transferOwnership",
      "outputs": [],
      "stateMutability": "nonpayable",
      "type": "function"
    }
  ],
  "bytecode": "0x60406080815234620003ef576200108a803803806200001e81620003f4565b9283398101606082820312620003ef5781516001600160401b039290838111620003ef5782620000509183016200041a565b60209283830151858111620003ef5786916200006e9185016200041a565b920151938151818111620002ef576003908154906001948583811c93168015620003e4575b88841014620003ce578190601f9384811162000378575b508890848311600114620003115760009262000305575b505060001982851b1c191690851b1782555b8451928311620002ef5760049485548581811c91168015620002e4575b88821014620002cf5782811162000284575b508691841160011462000219579383949184926000956200020d575b50501b92600019911b1c19161781555b3315620001f657600554336001600160a01b0382167f8be0079c531659141344cd1fd0a4f28419497f9722a3daafe3b4186f6b6457e0600080a36001600160a81b0319163360ff60a01b191617600960a11b1760055560025483810191908210620001e157506000917fddf252ad1be2c89b69c2b068fc378daa952ba7f163c4a11628f55a4df523b3ef9160025533835282815284832084815401905584519384523393a351610bfd90816200048d8239f35b601190634e487b7160e01b6000525260246000fd5b6024906000855191631e4fbdf760e01b8352820152fd5b0151935038806200011e565b9190601f198416928660005284886000209460005b8a898383106200026c575050501062000251575b50505050811b0181556200012e565b01519060f884600019921b161c191690553880808062000242565b8686015189559097019694850194889350016200022e565b86600052876000208380870160051c8201928a8810620002c5575b0160051c019086905b828110620002b857505062000102565b60008155018690620002a8565b925081926200029f565b602287634e487b7160e01b6000525260246000fd5b90607f1690620000f0565b634e487b7160e01b600052604160045260246000fd5b015190503880620000c1565b90879350601f19831691866000528a6000209260005b8c82821062000361575050841162000348575b505050811b018255620000d3565b015160001983871b60f8161c191690553880806200033a565b8385015186558b9790950194938401930162000327565b90915084600052886000208480850160051c8201928b8610620003c4575b918991869594930160051c01915b828110620003b4575050620000aa565b60008155859450899101620003a4565b9250819262000396565b634e487b7160e01b600052602260045260246000fd5b92607f169262000093565b600080fd5b6040519190601f01601f191682016001600160401b03811183821017620002ef57604052565b919080601f84011215620003ef5782516001600160401b038111620002ef5760209062000450601f8201601f19168301620003f4565b92818452828287010111620003ef5760005b8181106200047857508260009394955001015290565b85810183015184820184015282016200046256fe6080604081815260048036101561001557600080fd5b600092833560e01c90816306fdde031461086f57508063095ea7b3146107c657806318160ddd146107a757806323b872dd146106b4578063313ce5671461068f57806340c10f191461066257806342966c68146105ac57806370a0823114610575578063715018a61461051557806388d695b21461040c5780638da5cb5b146103e357806395d89b41146102c3578063a9059cbb14610292578063dd62ed3e14610249578063de5f72fd146101655763f2fde38b146100d357600080fd5b34610161576020366003190112610161576100ec6109ad565b906100f5610a0f565b6001600160a01b0391821692831561014b575050600554826bffffffffffffffffffffffff60a01b821617600555167f8be0079c531659141344cd1fd0a4f28419497f9722a3daafe3b4186f6b6457e08380a380f35b51631e4fbdf760e01b8152908101849052602490fd5b8280fd5b5091903461024557816003193601126102455733825281602052808220549060ff60055460a01c169161019783610b90565b906103e891808302928304036102325710156101e557506101b790610b90565b806064029060648204036101d2576101cf9033610b19565b80f35b506011602492634e487b7160e01b835252fd5b5162461bcd60e51b8152602081850152602260248201527f4d6f636b5846493a20416c72656164792068617320656e6f75676820746f6b656044820152616e7360f01b6064820152608490fd5b634e487b7160e01b855260118652602485fd5b5080fd5b505034610245578060031936011261024557806020926102676109ad565b61026f6109c8565b6001600160a01b0391821683526001865283832091168252845220549051908152f35b5050346102455780600319360112610245576020906102bc6102b26109ad565b6024359033610a3b565b5160018152f35b50919034610245578160031936011261024557805190828454600181811c908083169283156103d9575b60209384841081146103c6578388529081156103aa5750600114610355575b505050829003601f01601f191682019267ffffffffffffffff841183851017610342575082918261033e925282610964565b0390f35b634e487b7160e01b815260418552602490fd5b8787529192508591837f8a35acfbc15ff81a39ae7d344fd709f28e8600b4aa8c65c6b64bfe7fe36bd19b5b838510610396575050505083010138808061030c565b805488860183015293019284908201610380565b60ff1916878501525050151560051b840101905038808061030c565b634e487b7160e01b895260228a52602489fd5b91607f16916102ed565b50503461024557816003193601126102455760055490516001600160a01b039091168152602090f35b50903461016157806003193601126101615767ffffffffffffffff9180358381116105115761043e90369083016109de565b602493919394853590811161050d5761045a90369085016109de565b9190928282036104cc5750865b818110610472578780f35b61047d818388610ba1565b356001600160a01b03811681036104c8576104a59061049d838688610ba1565b359033610a3b565b60001981146104b657600101610467565b634e487b7160e01b8852601185528688fd5b8880fd5b5162461bcd60e51b8152602081860152601f818801527f4d6f636b5846493a20417272617973206c656e677468206d69736d61746368006044820152606490fd5b8680fd5b8480fd5b833461057257806003193601126105725761052e610a0f565b600580546001600160a01b0319811690915581906001600160a01b03167f8be0079c531659141344cd1fd0a4f28419497f9722a3daafe3b4186f6b6457e08280a380f35b80fd5b5050346102455760203660031901126102455760209181906001600160a01b0361059d6109ad565b16815280845220549051908152f35b5091903461024557602036600319011261024557823590331561064c5733835282602052808320549382851061062157508183943385528460205203818420558160025403600255519081527fddf252ad1be2c89b69c2b068fc378daa952ba7f163c4a11628f55a4df523b3ef60203392a380f35b905163391434e360e21b81523391810191825260208201859052604082018390529081906060010390fd5b51634b637e8f60e11b8152808401839052602490fd5b50503461024557366003190112610572576101cf61067e6109ad565b610686610a0f565b60243590610b19565b50503461024557816003193601126102455760209060ff60055460a01c169051908152f35b508234610572576060366003190112610572576106cf6109ad565b6106d76109c8565b916044359360018060a01b038316808352600160205286832033845260205286832054916000198310610713575b6020886102bc898989610a3b565b86831061077b57811561076457331561074d575082526001602090815286832033845281529186902090859003905582906102bc87610705565b8751634a1406b160e11b8152908101849052602490fd5b875163e602df0560e01b8152908101849052602490fd5b8751637dc7a0d960e11b8152339181019182526020820193909352604081018790528291506060010390fd5b5050346102455781600319360112610245576020906002549051908152f35b50346101615781600319360112610161576107df6109ad565b602435903315610858576001600160a01b031691821561084157508083602095338152600187528181208582528752205582519081527f8c5be1e5ebec7d5bd14f71427d1e84f3dd0314c0f7b2291e5b200ac8c7c3b925843392a35160018152f35b8351634a1406b160e11b8152908101859052602490fd5b835163e602df0560e01b8152808401869052602490fd5b849150833461016157826003193601126101615782600354600181811c9080831692831561095a575b60209384841081146103c65783885290811561093e57506001146108e857505050829003601f01601f191682019267ffffffffffffffff841183851017610342575082918261033e925282610964565b600387529192508591837fc2575a0e9e593c00f959f8c92f12db2869c3395a3b0502d05e2516446f71f85b5b83851061092a575050505083010185808061030c565b805488860183015293019284908201610914565b60ff1916878501525050151560051b840101905085808061030c565b91607f1691610898565b6020808252825181830181905290939260005b82811061099957505060409293506000838284010152601f8019910116010190565b818101860151848201604001528501610977565b600435906001600160a01b03821682036109c357565b600080fd5b602435906001600160a01b03821682036109c357565b9181601f840112156109c35782359167ffffffffffffffff83116109c3576020808501948460051b0101116109c357565b6005546001600160a01b03163303610a2357565b60405163118cdaa760e01b8152336004820152602490fd5b916001600160a01b03808416928315610b005716928315610ae75760009083825281602052604082205490838210610ab5575091604082827fddf252ad1be2c89b69c2b068fc378daa952ba7f163c4a11628f55a4df523b3ef958760209652828652038282205586815220818154019055604051908152a3565b60405163391434e360e21b81526001600160a01b03919091166004820152602481019190915260448101839052606490fd5b60405163ec442f0560e01b815260006004820152602490fd5b604051634b637e8f60e11b815260006004820152602490fd5b6001600160a01b0316908115610ae75760025490808201809211610b7a5760207fddf252ad1be2c89b69c2b068fc378daa952ba7f163c4a11628f55a4df523b3ef9160009360025584845283825260408420818154019055604051908152a3565b634e487b7160e01b600052601160045260246000fd5b60ff16604d8111610b7a57600a0a90565b9190811015610bb15760051b0190565b634e487b7160e01b600052603260045260246000fdfea264697066735822122013e788d5d063ddade43055191057b5addbad8b0dea0045c700f986e259deb94c64736f6c63430008140033",
  "linkReferences": {},
  "deployedLinkReferences": {}
}