{
  "_format": "hh-sol-artifact-1",
  "contractName": "CrossEraRewardSystem",
  "sourceName": "contracts/CrossEraRewardSystem.sol",
  "abi": [
    {
      "inputs": [
        {
          "internalType": "address",
          "name": "_admin",
          "type": "address"
        }
      ],
      "stateMutability": "nonpayable",
      "type": "constructor"
    },
    {
      "inputs": [],
      "name": "AccessControlBadConfirmation",
      "type": "error"
    },
    {
      "inputs": [
        {
          "internalType": "address",
          "name": "account",
          "type": "address"
        },
        {
          "internalType": "bytes32",
          "name": "neededRole",
          "type": "bytes32"
        }
      ],
      "name": "AccessControlUnauthorizedAccount",
      "type": "error"
    },
    {
      "inputs": [],
      "name": "EnforcedPause",
      "type": "error"
    },
    {
      "inputs": [],
      "name": "ExpectedPause",
      "type": "error"
    },
    {
      "inputs": [],
      "name": "ReentrancyGuardReentrantCall",
      "type": "error"
    },
    {
      "anonymous": false,
      "inputs": [
        {
          "indexed": false,
          "internalType": "address",
          "name": "account",
          "type": "address"
        }
      ],
      "name": "Paused",
      "type": "event"
    },
    {
      "anonymous": false,
      "inputs": [
        {
          "indexed": true,
          "internalType": "bytes32",
          "name": "role",
          "type": "bytes32"
        },
        {
          "indexed": true,
          "internalType": "bytes32",
          "name": "previousAdminRole",
          "type": "bytes32"
        },
        {
          "indexed": true,
          "internalType": "bytes32",
          "name": "newAdminRole",
          "type": "bytes32"
        }
      ],
      "name": "RoleAdminChanged",
      "type": "event"
    },
    {
      "anonymous": false,
      "inputs": [
        {
          "indexed": true,
          "internalType": "bytes32",
          "name": "role",
          "type": "bytes32"
        },
        {
          "indexed": true,
          "internalType": "address",
          "name": "account",
          "type": "address"
        },
        {
          "indexed": true,
          "internalType": "address",
          "name": "sender",
          "type": "address"
        }
      ],
      "name": "RoleGranted",
      "type": "event"
    },
    {
      "anonymous": false,
      "inputs": [
        {
          "indexed": true,
          "internalType": "bytes32",
          "name": "role",
          "type": "bytes32"
        },
        {
          "indexed": true,
          "internalType": "address",
          "name": "account",
          "type": "address"
        },
        {
          "indexed": true,
          "internalType": "address",
          "name": "sender",
          "type": "address"
        }
      ],
      "name": "RoleRevoked",
      "type": "event"
    },
    {
      "anonymous": false,
      "inputs": [
        {
          "indexed": false,
          "internalType": "address",
          "name": "account",
          "type": "address"
        }
      ],
      "name": "Unpaused",
      "type": "event"
    },
    {
      "inputs": [],
      "name": "ADMIN_ROLE",
      "outputs": [
        {
          "internalType": "bytes32",
          "name": "",
          "type": "bytes32"
        }
      ],
      "stateMutability": "view",
      "type": "function"
    },
    {
      "inputs": [],
      "name": "CAMPAIGN_MANAGER_ROLE",
      "outputs": [
        {
          "internalType": "bytes32",
          "name": "",
          "type": "bytes32"
        }
      ],
      "stateMutability": "view",
      "type": "function"
    },
    {
      "inputs": [],
      "name": "DEFAULT_ADMIN_ROLE",
      "outputs": [
        {
          "internalType": "bytes32",
          "name": "",
          "type": "bytes32"
        }
      ],
      "stateMutability": "view",
      "type": "function"
    },
    {
      "inputs": [],
      "name": "VERIFIER_ROLE",
      "outputs": [
        {
          "internalType": "bytes32",
          "name": "",
          "type": "bytes32"
        }
      ],
      "stateMutability": "view",
      "type": "function"
    },
    {
      "inputs": [
        {
          "internalType": "uint32",
          "name": "campaignId",
          "type": "uint32"
        }
      ],
      "name": "activateCampaign",
      "outputs": [],
      "stateMutability": "nonpayable",
      "type": "function"
    },
    {
      "inputs": [
        {
          "internalType": "string",
          "name": "",
          "type": "string"
        },
        {
          "internalType": "uint32",
          "name": "",
          "type": "uint32"
        }
      ],
      "name": "appCampaignFees",
      "outputs": [
        {
          "internalType": "uint256",
          "name": "",
          "type": "uint256"
        }
      ],
      "stateMutability": "view",
      "type": "function"
    },
    {
      "inputs": [
        {
          "internalType": "string",
          "name": "",
          "type": "string"
        },
        {
          "internalType": "uint32",
          "name": "",
          "type": "uint32"
        }
      ],
      "name": "appCampaignRegistrations",
      "outputs": [
        {
          "internalType": "bool",
          "name": "",
          "type": "bool"
        }
      ],
      "stateMutability": "view",
      "type": "function"
    },
    {
      "inputs": [
        {
          "internalType": "string",
          "name": "",
          "type": "string"
        },
        {
          "internalType": "uint32",
          "name": "",
          "type": "uint32"
        }
      ],
      "name": "appCampaignTxCount",
      "outputs": [
        {
          "internalType": "uint256",
          "name": "",
          "type": "uint256"
        }
      ],
      "stateMutability": "view",
      "type": "function"
    },
    {
      "inputs": [
        {
          "internalType": "string",
          "name": "",
          "type": "string"
        },
        {
          "internalType": "uint32",
          "name": "",
          "type": "uint32"
        }
      ],
      "name": "appCampaignVolume",
      "outputs": [
        {
          "internalType": "uint256",
          "name": "",
          "type": "uint256"
        }
      ],
      "stateMutability": "view",
      "type": "function"
    },
    {
      "inputs": [
        {
          "internalType": "string",
          "name": "",
          "type": "string"
        }
      ],
      "name": "appOwners",
      "outputs": [
        {
          "internalType": "address",
          "name": "",
          "type": "address"
        }
      ],
      "stateMutability": "view",
      "type": "function"
    },
    {
      "inputs": [
        {
          "internalType": "string",
          "name": "",
          "type": "string"
        },
        {
          "internalType": "uint256",
          "name": "",
          "type": "uint256"
        }
      ],
      "name": "appRegisteredCampaigns",
      "outputs": [
        {
          "internalType": "uint32",
          "name": "",
          "type": "uint32"
        }
      ],
      "stateMutability": "view",
      "type": "function"
    },
    {
      "inputs": [
        {
          "internalType": "uint32",
          "name": "",
          "type": "uint32"
        },
        {
          "internalType": "uint256",
          "name": "",
          "type": "uint256"
        }
      ],
      "name": "campaignApps",
      "outputs": [
        {
          "internalType": "string",
          "name": "",
          "type": "string"
        }
      ],
      "stateMutability": "view",
      "type": "function"
    },
    {
      "inputs": [
        {
          "internalType": "uint32",
          "name": "",
          "type": "uint32"
        }
      ],
      "name": "campaignTotalFees",
      "outputs": [
        {
          "internalType": "uint256",
          "name": "",
          "type": "uint256"
        }
      ],
      "stateMutability": "view",
      "type": "function"
    },
    {
      "inputs": [
        {
          "internalType": "uint32",
          "name": "",
          "type": "uint32"
        }
      ],
      "name": "campaignTotalTxCount",
      "outputs": [
        {
          "internalType": "uint256",
          "name": "",
          "type": "uint256"
        }
      ],
      "stateMutability": "view",
      "type": "function"
    },
    {
      "inputs": [
        {
          "internalType": "uint32",
          "name": "",
          "type": "uint32"
        }
      ],
      "name": "campaignTotalVolume",
      "outputs": [
        {
          "internalType": "uint256",
          "name": "",
          "type": "uint256"
        }
      ],
      "stateMutability": "view",
      "type": "function"
    },
    {
      "inputs": [
        {
          "internalType": "uint32",
          "name": "",
          "type": "uint32"
        }
      ],
      "name": "campaigns",
      "outputs": [
        {
          "internalType": "uint256",
          "name": "totalPool",
          "type": "uint256"
        },
        {
          "internalType": "uint256",
          "name": "distributedRewards",
          "type": "uint256"
        },
        {
          "internalType": "uint64",
          "name": "startDate",
          "type": "uint64"
        },
        {
          "internalType": "uint64",
          "name": "endDate",
          "type": "uint64"
        },
        {
          "internalType": "bool",
          "name": "active",
          "type": "bool"
        }
      ],
      "stateMutability": "view",
      "type": "function"
    },
    {
      "inputs": [
        {
          "internalType": "string",
          "name": "appId",
          "type": "string"
        },
        {
          "internalType": "uint8",
          "name": "status",
          "type": "uint8"
        },
        {
          "internalType": "string",
          "name": "reason",
          "type": "string"
        }
      ],
      "name": "changeAppStatus",
      "outputs": [],
      "stateMutability": "nonpayable",
      "type": "function"
    },
    {
      "inputs": [
        {
          "internalType": "string",
          "name": "appId",
          "type": "string"
        },
        {
          "internalType": "uint32",
          "name": "campaignId",
          "type": "uint32"
        }
      ],
      "name": "claimRewards",
      "outputs": [
        {
          "internalType": "uint256",
          "name": "",
          "type": "uint256"
        }
      ],
      "stateMutability": "nonpayable",
      "type": "function"
    },
    {
      "inputs": [
        {
          "internalType": "string",
          "name": "",
          "type": "string"
        },
        {
          "internalType": "uint32",
          "name": "",
          "type": "uint32"
        }
      ],
      "name": "claimableRewards",
      "outputs": [
        {
          "internalType": "uint256",
          "name": "",
          "type": "uint256"
        }
      ],
      "stateMutability": "view",
      "type": "function"
    },
    {
      "inputs": [
        {
          "internalType": "uint64",
          "name": "startDate",
          "type": "uint64"
        },
        {
          "internalType": "uint64",
          "name": "endDate",
          "type": "uint64"
        }
      ],
      "name": "createCampaign",
      "outputs": [
        {
          "internalType": "uint32",
          "name": "",
          "type": "uint32"
        }
      ],
      "stateMutability": "payable",
      "type": "function"
    },
    {
      "inputs": [
        {
          "internalType": "uint32",
          "name": "campaignId",
          "type": "uint32"
        }
      ],
      "name": "deactivateCampaign",
      "outputs": [],
      "stateMutability": "nonpayable",
      "type": "function"
    },
    {
      "inputs": [
        {
          "internalType": "address",
          "name": "",
          "type": "address"
        },
        {
          "internalType": "uint256",
          "name": "",
          "type": "uint256"
        }
      ],
      "name": "developerApps",
      "outputs": [
        {
          "internalType": "string",
          "name": "",
          "type": "string"
        }
      ],
      "stateMutability": "view",
      "type": "function"
    },
    {
      "inputs": [
        {
          "internalType": "string",
          "name": "reason",
          "type": "string"
        }
      ],
      "name": "emergencyPause",
      "outputs": [],
      "stateMutability": "nonpayable",
      "type": "function"
    },
    {
      "inputs": [
        {
          "internalType": "string",
          "name": "reason",
          "type": "string"
        }
      ],
      "name": "emergencyUnpause",
      "outputs": [],
      "stateMutability": "nonpayable",
      "type": "function"
    },
    {
      "inputs": [
        {
          "internalType": "uint256",
          "name": "amount",
          "type": "uint256"
        },
        {
          "internalType": "string",
          "name": "reason",
          "type": "string"
        }
      ],
      "name": "emergencyWithdraw",
      "outputs": [],
      "stateMutability": "nonpayable",
      "type": "function"
    },
    {
      "inputs": [
        {
          "internalType": "string",
          "name": "appId",
          "type": "string"
        },
        {
          "internalType": "uint32",
          "name": "campaignId",
          "type": "uint32"
        }
      ],
      "name": "getAppCampaignMetrics",
      "outputs": [
        {
          "internalType": "uint256",
          "name": "totalFees",
          "type": "uint256"
        },
        {
          "internalType": "uint256",
          "name": "totalVolume",
          "type": "uint256"
        },
        {
          "internalType": "uint256",
          "name": "txCount",
          "type": "uint256"
        },
        {
          "internalType": "uint256",
          "name": "estimatedReward",
          "type": "uint256"
        }
      ],
      "stateMutability": "view",
      "type": "function"
    },
    {
      "inputs": [
        {
          "internalType": "string",
          "name": "appId",
          "type": "string"
        }
      ],
      "name": "getAppRegisteredCampaigns",
      "outputs": [
        {
          "internalType": "uint32[]",
          "name": "",
          "type": "uint32[]"
        }
      ],
      "stateMutability": "view",
      "type": "function"
    },
    {
      "inputs": [
        {
          "internalType": "uint32",
          "name": "campaignId",
          "type": "uint32"
        }
      ],
      "name": "getCampaign",
      "outputs": [
        {
          "components": [
            {
              "internalType": "uint256",
              "name": "totalPool",
              "type": "uint256"
            },
            {
              "internalType": "uint256",
              "name": "distributedRewards",
              "type": "uint256"
            },
            {
              "internalType": "uint64",
              "name": "startDate",
              "type": "uint64"
            },
            {
              "internalType": "uint64",
              "name": "endDate",
              "type": "uint64"
            },
            {
              "internalType": "bool",
              "name": "active",
              "type": "bool"
            }
          ],
          "internalType": "struct CrossEraRewardSystem.CampaignCore",
          "name": "",
          "type": "tuple"
        }
      ],
      "stateMutability": "view",
      "type": "function"
    },
    {
      "inputs": [
        {
          "internalType": "uint32",
          "name": "campaignId",
          "type": "uint32"
        }
      ],
      "name": "getCampaignAppCount",
      "outputs": [
        {
          "internalType": "uint256",
          "name": "",
          "type": "uint256"
        }
      ],
      "stateMutability": "view",
      "type": "function"
    },
    {
      "inputs": [
        {
          "internalType": "uint32",
          "name": "campaignId",
          "type": "uint32"
        }
      ],
      "name": "getCampaignApps",
      "outputs": [
        {
          "internalType": "string[]",
          "name": "",
          "type": "string[]"
        }
      ],
      "stateMutability": "view",
      "type": "function"
    },
    {
      "inputs": [
        {
          "internalType": "uint32",
          "name": "campaignId",
          "type": "uint32"
        }
      ],
      "name": "getCampaignTotals",
      "outputs": [
        {
          "internalType": "uint256",
          "name": "totalFees",
          "type": "uint256"
        },
        {
          "internalType": "uint256",
          "name": "totalVolume",
          "type": "uint256"
        },
        {
          "internalType": "uint256",
          "name": "txCount",
          "type": "uint256"
        }
      ],
      "stateMutability": "view",
      "type": "function"
    },
    {
      "inputs": [
        {
          "internalType": "string",
          "name": "appId",
          "type": "string"
        },
        {
          "internalType": "uint32",
          "name": "campaignId",
          "type": "uint32"
        }
      ],
      "name": "getClaimableRewards",
      "outputs": [
        {
          "internalType": "uint256",
          "name": "",
          "type": "uint256"
        }
      ],
      "stateMutability": "view",
      "type": "function"
    },
    {
      "inputs": [
        {
          "internalType": "address",
          "name": "developer",
          "type": "address"
        }
      ],
      "name": "getDeveloperAppCount",
      "outputs": [
        {
          "internalType": "uint256",
          "name": "",
          "type": "uint256"
        }
      ],
      "stateMutability": "view",
      "type": "function"
    },
    {
      "inputs": [
        {
          "internalType": "address",
          "name": "developer",
          "type": "address"
        }
      ],
      "name": "getDeveloperApps",
      "outputs": [
        {
          "internalType": "string[]",
          "name": "",
          "type": "string[]"
        }
      ],
      "stateMutability": "view",
      "type": "function"
    },
    {
      "inputs": [
        {
          "internalType": "bytes32",
          "name": "role",
          "type": "bytes32"
        }
      ],
      "name": "getRoleAdmin",
      "outputs": [
        {
          "internalType": "bytes32",
          "name": "",
          "type": "bytes32"
        }
      ],
      "stateMutability": "view",
      "type": "function"
    },
    {
      "inputs": [
        {
          "internalType": "bytes32",
          "name": "role",
          "type": "bytes32"
        },
        {
          "internalType": "address",
          "name": "account",
          "type": "address"
        }
      ],
      "name": "grantRole",
      "outputs": [],
      "stateMutability": "nonpayable",
      "type": "function"
    },
    {
      "inputs": [
        {
          "internalType": "bytes32",
          "name": "role",
          "type": "bytes32"
        },
        {
          "internalType": "address",
          "name": "account",
          "type": "address"
        }
      ],
      "name": "hasRole",
      "outputs": [
        {
          "internalType": "bool",
          "name": "",
          "type": "bool"
        }
      ],
      "stateMutability": "view",
      "type": "function"
    },
    {
      "inputs": [
        {
          "internalType": "string",
          "name": "appId",
          "type": "string"
        },
        {
          "internalType": "uint32",
          "name": "campaignId",
          "type": "uint32"
        }
      ],
      "name": "isAppRegisteredForCampaign",
      "outputs": [
        {
          "internalType": "bool",
          "name": "",
          "type": "bool"
        }
      ],
      "stateMutability": "view",
      "type": "function"
    },
    {
      "inputs": [
        {
          "internalType": "address",
          "name": "developer",
          "type": "address"
        },
        {
          "internalType": "string",
          "name": "appId",
          "type": "string"
        }
      ],
      "name": "isDeveloperAppOwner",
      "outputs": [
        {
          "internalType": "bool",
          "name": "",
          "type": "bool"
        }
      ],
      "stateMutability": "view",
      "type": "function"
    },
    {
      "inputs": [
        {
          "internalType": "bytes32",
          "name": "txHash",
          "type": "bytes32"
        }
      ],
      "name": "isTransactionProcessed",
      "outputs": [
        {
          "internalType": "bool",
          "name": "",
          "type": "bool"
        }
      ],
      "stateMutability": "view",
      "type": "function"
    },
    {
      "inputs": [],
      "name": "minRewardAmount",
      "outputs": [
        {
          "internalType": "uint256",
          "name": "",
          "type": "uint256"
        }
      ],
      "stateMutability": "view",
      "type": "function"
    },
    {
      "inputs": [],
      "name": "paused",
      "outputs": [
        {
          "internalType": "bool",
          "name": "",
          "type": "bool"
        }
      ],
      "stateMutability": "view",
      "type": "function"
    },
    {
      "inputs": [
        {
          "internalType": "string",
          "name": "appId",
          "type": "string"
        },
        {
          "internalType": "bytes32",
          "name": "txHash",
          "type": "bytes32"
        },
        {
          "internalType": "uint256",
          "name": "gasUsed",
          "type": "uint256"
        },
        {
          "internalType": "uint256",
          "name": "gasPrice",
          "type": "uint256"
        },
        {
          "internalType": "uint256",
          "name": "transactionValue",
          "type": "uint256"
        }
      ],
      "name": "processTransaction",
      "outputs": [],
      "stateMutability": "nonpayable",
      "type": "function"
    },
    {
      "inputs": [
        {
          "internalType": "bytes32",
          "name": "",
          "type": "bytes32"
        }
      ],
      "name": "processedTransactions",
      "outputs": [
        {
          "internalType": "bool",
          "name": "",
          "type": "bool"
        }
      ],
      "stateMutability": "view",
      "type": "function"
    },
    {
      "inputs": [
        {
          "internalType": "string",
          "name": "appId",
          "type": "string"
        }
      ],
      "name": "registerApp",
      "outputs": [],
      "stateMutability": "nonpayable",
      "type": "function"
    },
    {
      "inputs": [
        {
          "internalType": "string",
          "name": "appId",
          "type": "string"
        },
        {
          "internalType": "uint32",
          "name": "campaignId",
          "type": "uint32"
        },
        {
          "internalType": "bytes32",
          "name": "registrationData",
          "type": "bytes32"
        }
      ],
      "name": "registerAppForCampaign",
      "outputs": [],
      "stateMutability": "payable",
      "type": "function"
    },
    {
      "inputs": [
        {
          "internalType": "string",
          "name": "",
          "type": "string"
        }
      ],
      "name": "registeredApps",
      "outputs": [
        {
          "internalType": "bool",
          "name": "",
          "type": "bool"
        }
      ],
      "stateMutability": "view",
      "type": "function"
    },
    {
      "inputs": [
        {
          "internalType": "bytes32",
          "name": "role",
          "type": "bytes32"
        },
        {
          "internalType": "address",
          "name": "callerConfirmation",
          "type": "address"
        }
      ],
      "name": "renounceRole",
      "outputs": [],
      "stateMutability": "nonpayable",
      "type": "function"
    },
    {
      "inputs": [
        {
          "internalType": "bytes32",
          "name": "role",
          "type": "bytes32"
        },
        {
          "internalType": "address",
          "name": "account",
          "type": "address"
        }
      ],
      "name": "revokeRole",
      "outputs": [],
      "stateMutability": "nonpayable",
      "type": "function"
    },
    {
      "inputs": [
        {
          "internalType": "uint256",
          "name": "_minRewardAmount",
          "type": "uint256"
        }
      ],
      "name": "setMinRewardAmount",
      "outputs": [],
      "stateMutability": "nonpayable",
      "type": "function"
    },
    {
      "inputs": [
        {
          "internalType": "bytes4",
          "name": "interfaceId",
          "type": "bytes4"
        }
      ],
      "name": "supportsInterface",
      "outputs": [
        {
          "internalType": "bool",
          "name": "",
          "type": "bool"
        }
      ],
      "stateMutability": "view",
      "type": "function"
    },
    {
      "inputs": [],
      "name": "totalApps",
      "outputs": [
        {
          "internalType": "uint32",
          "name": "",
          "type": "uint32"
        }
      ],
      "stateMutability": "view",
      "type": "function"
    },
    {
      "inputs": [],
      "name": "totalCampaigns",
      "outputs": [
        {
          "internalType": "uint32",
          "name": "",
          "type": "uint32"
        }
      ],
      "stateMutability": "view",
      "type": "function"
    },
    {
      "inputs": [],
      "name": "totalDevelopers",
      "outputs": [
        {
          "internalType": "uint32",
          "name": "",
          "type": "uint32"
        }
      ],
      "stateMutability": "view",
      "type": "function"
    },
    {
      "inputs": [
        {
          "internalType": "string",
          "name": "appId",
          "type": "string"
        },
        {
          "internalType": "string",
          "name": "newName",
          "type": "string"
        },
        {
          "internalType": "string",
          "name": "newDescription",
          "type": "string"
        },
        {
          "internalType": "string",
          "name": "newCategory",
          "type": "string"
        },
        {
          "internalType": "string",
          "name": "newWebsiteUrl",
          "type": "string"
        }
      ],
      "name": "updateApp",
      "outputs": [],
      "stateMutability": "nonpayable",
      "type": "function"
    }
  ],
  "bytecode": "0x608034620000f057601f6200345d38819003918201601f19168301916001600160401b03831184841017620000f557808492602094604052833981010312620000f057516001600160a01b038116808203620000f0576001805567016345785d8a000060135515620000ab57806200007b6200009a926200010b565b5062000087816200018b565b5062000093816200022d565b50620002ca565b506040516130d59081620003688239f35b60405162461bcd60e51b815260206004820152601f60248201527f43726f73734572613a20496e76616c69642061646d696e2061646472657373006044820152606490fd5b600080fd5b634e487b7160e01b600052604160045260246000fd5b6001600160a01b031660008181527fad3228b676f7d3cd4284a5443f17f1962b36e491b30a40b2405849e597ba5fb5602052604081205490919060ff166200018757818052816020526040822081835260205260408220600160ff1982541617905533916000805160206200343d8339815191528180a4600190565b5090565b6001600160a01b031660008181527f7d7ffb7a348e1c6a02869081a26547b49160dd3df72d1d75a570eb9b698292ec60205260408120549091907fa49807205ce4d355092ef5a8a18f56e8913cf4a201fbe287825b095693c217759060ff166200022857808352826020526040832082845260205260408320600160ff198254161790556000805160206200343d833981519152339380a4600190565b505090565b6001600160a01b031660008181527f1da0b5176dfe03406af5a6eed66ca01dda9b45ac4da671c3fa379cb93717ef8160205260408120549091907f0ce23c3e399818cfee81a7ab0880f714e53d7672b08df0fa62f2843416e1ea099060ff166200022857808352826020526040832082845260205260408320600160ff198254161790556000805160206200343d833981519152339380a4600190565b6001600160a01b031660008181527ff1f96320644c4081b1a0a57dc68164d6c55774e3cf58cdafac3037ffaf50ba4560205260408120549091907f5022544358ee0bece556b72ae8983c7f24341bd5b9483ce8a19bff5efbb2de929060ff166200022857808352826020526040832082845260205260408320600160ff198254161790556000805160206200343d833981519152339380a460019056fe608080604052600436101561001357600080fd5b600090813560e01c90816301ffc9a7146127ef5750806302932f56146127cb57806304103ef6146127965780630cc7991d14610b5e57806312266cdc1461270257806312d3b8c9146126e457806314eb9302146124005780631bb4e83314611ee25780631cacf4c414611e8c5780632271162b14611e55578063248a9ca314611e2957806324b67b7114611da65780632bdf010714611d5d5780632f2ff15d14611d2057806336568abe14611cd8578063388d78d114611ca35780633cbb466814611bdd57806343c998ae14611ba85780634434e7a2146106735780634acccef0146119815780635c975abb1461195e5780635ddfcba8146118ab57806365df793314611884578063667785411461184d5780636733b894146117985780636df4029a146117205780636f62d8dd146115bc578063726d2c16146111ee57806375b238fc146111c55780637b3ac30014611163578063816f7d491461107d57806391d1485414611035578063a217fddf14611019578063a292854214610fcf578063a762f58a14610fa6578063a982708b14610e0a578063ac2e4936146105d5578063b3a55f6414610b9a578063b678511514610b5e578063c718c1e514610af5578063c97c462214610acf578063cdefc1b1146108a7578063cf5b4fd514610804578063d547741f146107c3578063de8b890f1461078e578063e648f9b8146106e5578063e7705db6146106aa578063ead0d8fb14610673578063eb81b52714610604578063efc646ca146105d5578063f18fddff1461056b578063f54c9381146104a2578063f6517eb614610457578063f7e04cd11461041e5763fbd8d93a1461027e57600080fd5b3461041b5761028c36612910565b90916040519280519263ffffffff6020958681818601976102ae81838b61294e565b8101600c815203019020911690818452855261030285604085205495604051828187516102dc81838761294e565b8101600d815203019020848752825260408620549460405193849283925192839161294e565b8101600e81520301902090835284526040822054906007855260408320600f865260408420549360108752604081205491819580151580610412575b6103ce575b50821515806103c5575b61036d575b50505060809460405194855284015260408301526060820152f35b9694965490601e820291808304601e14901517156103b15750956103a26103a89261039d85606460809b04612f61565b612f81565b90612f74565b92943880610352565b634e487b7160e01b81526011600452602490fd5b5083151561034d565b90809650546046810290808204604614901517156103fe579061039d8860646103f79404612f61565b9438610343565b634e487b7160e01b83526011600452602483fd5b5087151561033e565b80fd5b503461041b57602036600319011261041b576020906040906001600160a01b03610446612971565b168152600583522054604051908152f35b503461041b5760406020918263ffffffff61048861047436612910565b93908187519382858094519384920161294e565b8101600d8152030190209116825283522054604051908152f35b503461041b57602036600319011261041b57604060a09163ffffffff6104c6612844565b82608085516104d48161285c565b828152826020820152828782015282606082015201521681526007602052206040516104ff8161285c565b81549182825260026001820154916020840192835201549160408101916001600160401b03928391828616825260ff60806060860195858960401c168752019660801c161515865260405196875251602087015251166040850152511660608301525115156080820152f35b503461041b57604036600319011261041b57610585612971565b6001600160a01b031681526005602052604081208054602435929083101561041b576105d16105bd6105b78585612a5d565b90612b55565b60405191829160208352602083019061299d565b0390f35b503461041b57602036600319011261041b5760ff60406020926004358152600684522054166040519015158152f35b503461041b57602036600319011261041b57604060a09163ffffffff610628612844565b16815260076020522060ff815491600260018201549101549060405193845260208401526001600160401b0380821660408501528160401c16606084015260801c1615156080820152f35b503461041b5760406020918263ffffffff61069061047436612910565b810160088152030190209116825283522054604051908152f35b503461041b578060031936011261041b5760206040517f0ce23c3e399818cfee81a7ab0880f714e53d7672b08df0fa62f2843416e1ea098152f35b503461041b5760208060031936011261078a5763ffffffff610705612844565b168252600a815260408220918254906001600160401b038211610776579260405192610736818460051b018561288d565b82845280840191855280852094915b83831061075a57604051806105d187826129c2565b600182819261076889612aaf565b815201960192019194610745565b634e487b7160e01b81526041600452602490fd5b5080fd5b503461041b57602036600319011261041b57604060209163ffffffff6107b2612844565b168152600a83522054604051908152f35b503461041b57604036600319011261041b576108006004356107e3612987565b90808452836020526107fb6001604086200154612b7c565b612c3e565b5080f35b503461041b57602036600319011261041b576004356001600160401b03811161078a576108359036906004016128c9565b506000805160206130808339815191528152806020526040812033825260205261086560ff60408320541661301d565b61086d612e13565b600160ff1960025416176002557f62e78cea01bee320cd4e420270b5ea74000d11b0c9f74754ebdbfc544b05a2586020604051338152a180f35b50604036600319011261041b576004356001600160401b0390818116809103610acb57602435828116809103610ac757600080516020613060833981519152845260209380855260408120338252855261090760ff604083205416612ec9565b61090f612e13565b3415610a825742831115610a2e57828211156109d5576012549363ffffffff610939818716612de8565b16809563ffffffff19161760125560026040516109558161285c565b34815287810184815260408201968752606082019586526040608083019580875289815260078b522091518255516001820155019351166fffffffffffffffff00000000000000008454935160401b169160ff60801b9051151560801b169270ffffffffffffffffffffffffffffffffff19161717179055604051908152f35b60405162461bcd60e51b815260048101869052602b60248201527f43726f73734572613a20456e642064617465206d75737420626520616674657260448201526a207374617274206461746560a81b6064820152608490fd5b60405162461bcd60e51b815260048101869052602660248201527f43726f73734572613a2053746172742064617465206d75737420626520696e2060448201526566757475726560d01b6064820152608490fd5b60405162461bcd60e51b815260048101869052601d60248201527f43726f73734572613a20496e76616c696420706f6f6c20616d6f756e740000006044820152606490fd5b8380fd5b8280fd5b503461041b578060031936011261041b57602060125463ffffffff60405191831c168152f35b503461041b57602036600319011261041b57600435906001600160401b03821161041b576020610b2836600485016128c9565b81610b3c604051928381519384920161294e565b600390820190815281900382019020546040516001600160a01b039091168152f35b503461041b5760ff60406020928363ffffffff610b7d61047436612910565b810160098152030190209116825284522054166040519015158152f35b503461041b5760208060031936011261078a576004356001600160401b038111610acb57610bcc9036906004016128c9565b610bd4612e13565b8051828115159182610dff575b505015610dba576040519060ff815192848181850195610c0281838961294e565b810160048152030190205416610d77576040518151610c2281838661294e565b600390820190815281900384019020546001600160a01b0316610d3957610cbe9033855260058452610c99846040872054159460405182818651610c6781838761294e565b81016003815203019020336bffffffffffffffffffffffff60a01b82541617905560405180938192865192839161294e565b81016004815203019020600160ff198254161790553385526005845260408520612cb3565b6012549167ffffffff0000000063ffffffff91610cde8386831c16612de8565b901b16918267ffffffff00000000198516179081601255610cfd578480f35b6bffffffff000000000000000091610d189160401c16612de8565b60401b16916bffffffffffffffff0000000019161717601255388080808480f35b60405162461bcd60e51b815260048101849052601660248201527521b937b9b9a2b9309d1020b8381024a2103a30b5b2b760511b6044820152606490fd5b6064836040519062461bcd60e51b825280600483015260248201527f43726f73734572613a2041707020616c726561647920726567697374657265646044820152fd5b60405162461bcd60e51b815260048101839052601f60248201527f43726f73734572613a20496e76616c696420617070204944206c656e677468006044820152606490fd5b111590508238610be1565b503461041b5760208060031936011261078a5763ffffffff610e2a612844565b6000805160206130608339815191528452838352604084203385528352610e5760ff604086205416612ec9565b1680835260078252610e6e60408420541515612f15565b610e76612e13565b825260078152600260408320019081549060ff8260801c16610f58576001600160401b038083164210610f05578260401c164211610ec1575060ff60801b1916600160801b17905580f35b6064906040519062461bcd60e51b82526004820152601a60248201527f43726f73734572613a2043616d706169676e20657870697265640000000000006044820152fd5b60405162461bcd60e51b815260048101839052602560248201527f43726f73734572613a2043616d706169676e206e6f7420726561647920746f206044820152641cdd185c9d60da1b6064820152608490fd5b6084906040519062461bcd60e51b82526004820152602160248201527f43726f73734572613a2043616d706169676e20616c72656164792061637469766044820152606560f81b6064820152fd5b503461041b578060031936011261041b5760206040516000805160206130608339815191528152f35b503461041b57602036600319011261041b576000805160206130808339815191528152806020526040812033825260205261101060ff60408320541661301d565b60043560135580f35b503461041b578060031936011261041b57602090604051908152f35b503461041b57604036600319011261041b5760ff6040602092611056612987565b60043582528185528282206001600160a01b03909116825284522054604051911615158152f35b503461041b5760208060031936011261078a5763ffffffff61109d612844565b60008051602061306083398151915284528383526040842033855283526110ca60ff604086205416612ec9565b16808352600782526110e160408420541515612f15565b6110e9612e13565b825260078152600260408320019081549060ff8260801c1615611113575060ff60801b1916905580f35b6084906040519062461bcd60e51b82526004820152602360248201527f43726f73734572613a2043616d706169676e20616c726561647920696e61637460448201526269766560e81b6064820152fd5b503461041b57602036600319011261041b57600435906001600160401b03821161041b57602060ff6111af8261119c36600488016128c9565b816040519382858094519384920161294e565b8101600481520301902054166040519015158152f35b503461041b578060031936011261041b5760206040516000805160206130808339815191528152f35b503461041b576111fd36612910565b916040519263ffffffff83519161123460ff6020978881818a019761122381838b61294e565b810160048152030190205416612e31565b611265604051865161124781838861294e565b81019060038252888160018060a01b03930301902054163314612e7d565b168083526007855261127c60408420541515612f15565b6002600154146115aa576002600155611293612e13565b8083526007855260408320916001600160401b03600284015460401c1642111561156757604051868187516112c981838761294e565b8101600c8152030190208285528652604084205494604051878183516112f081838861294e565b8101600d81520301902083865287526040852054958015968715809861155e575b1561150d576040518981855161132881838a61294e565b81016008815203019020858852895260408720546114c857848752600f8952604087205460108a52604088205492889982151590816114c0575b5061147a575b505081151580611471575b611428575b505085156113e3579161139f876113d796959360019560405193849283925192839161294e565b810160088152030190209084528652846040842055016113c0848254612f74565b905580808085335af16113d1612fa1565b50612fd1565b60018055604051908152f35b60405162461bcd60e51b815260048101889052601f60248201527f43726f73734572613a204e6f20726577617264732063616c63756c61746564006044820152606490fd5b8597929754601e810290808204601e149015171561145d579161039d6103a2926064611455969504612f61565b943880611378565b634e487b7160e01b88526011600452602488fd5b50801515611373565b9091985086546046810290808204604614901517156114ac576114a49291606461039d9204612f61565b963880611368565b634e487b7160e01b89526011600452602489fd5b905038611362565b60405162461bcd60e51b8152600481018a9052601960248201527f43726f73734572613a20416c726561647920636c61696d6564000000000000006044820152606490fd5b60405162461bcd60e51b8152600481018a9052602360248201527f43726f73734572613a204e6f20636f6e747269627574696f6e7320746f20636c60448201526261696d60e81b6064820152608490fd5b50801515611311565b6064866040519062461bcd60e51b825280600483015260248201527f43726f73734572613a2043616d706169676e206e6f7420656e646564207965746044820152fd5b604051633ee5aeb560e01b8152600490fd5b503461041b5760a036600319011261041b576001600160401b03600435818111610acb576115ee9036906004016128c9565b90602435818111610ac7576116079036906004016128c9565b9160443582811161171c576116209036906004016128c9565b5060643582811161171c576116399036906004016128c9565b50608435918211610ac7576116556116a59236906004016128c9565b506040519061167460ff8251936020818186019661122381838a61294e565b6116866040519283925192839161294e565b8101906003825260208160018060a01b03930301902054163314612e7d565b6116ad612e13565b518015159081611710575b50156116c15780f35b60405162461bcd60e51b815260206004820152602160248201527f43726f73734572613a20496e76616c696420617070206e616d65206c656e67746044820152600d60fb1b6064820152608490fd5b604091501115386116b8565b8480fd5b503461041b57604036600319011261041b5761173a612971565b602435916001600160401b03831161041b575061175d60209236906004016128c9565b82611771604051928381519384920161294e565b600390820190815281900383019020546040516001600160a01b0392831691909216148152f35b503461041b57606036600319011261041b576001600160401b03600435818111610acb576117ca9036906004016128c9565b906024359060ff8216809203610ac757604435908111610ac7576002926116556117f89236906004016128c9565b611800612e13565b116118085780f35b60405162461bcd60e51b815260206004820152601860248201527f43726f73734572613a20496e76616c69642073746174757300000000000000006044820152606490fd5b503461041b5760406020918263ffffffff61186a61047436612910565b8101600e8152030190209116825283522054604051908152f35b503461041b578060031936011261041b57602063ffffffff60125460401c16604051908152f35b503461041b57602036600319011261041b576004356001600160401b03811161078a576118dc9036906004016128c9565b506000805160206130808339815191528152806020526040812033825260205261190c60ff60408320541661301d565b60025460ff81161561194c5760ff19166002557f5db9ee0a495bf2e6ff9c91a7834c1ba4fdd244a5e8aa4e537bd38aeae4b073aa6020604051338152a180f35b604051638dfc202b60e01b8152600490fd5b503461041b578060031936011261041b57602060ff600254166040519015158152f35b503461041b5760208060031936011261078a576004356001600160401b038111610acb578161119c6119b79236906004016128c9565b8101600b81520301902090604051908182828086549384815201809688528188209388905b806007830110611b3857611a3b95549184828210611b22575b828210611b0a575b828210611af1575b828210611ad8575b828210611abf575b828210611aa6575b828210611a8d575b5010611a7f575b5090509592949395038561288d565b60405193838594850191818652518092526040850193925b828110611a6257505050500390f35b835163ffffffff1685528695509381019392810192600101611a53565b60e01c815201839038611a2c565b6001919463ffffffff8560c01c16815201930184611a25565b6001919463ffffffff8560a01c16815201930184611a1d565b6001919463ffffffff8560801c16815201930184611a15565b6001919463ffffffff8560601c16815201930184611a0d565b6001919463ffffffff8560401c16815201930184611a05565b6001919463ffffffff85831c168152019301846119fd565b6001919463ffffffff85168152019301846119f5565b925092506001610100600892865463ffffffff808216835280828b1c168a840152808260401c16604084015260608183821c169084015260808183821c169084015260a08183821c169084015260c09082821c169083015260e01c60e082015201940192019285929385926119dc565b503461041b57602036600319011261041b57604060209163ffffffff611bcc612844565b168152601083522054604051908152f35b503461041b57604036600319011261041b576004356024356001600160401b038111610acb57611c119036906004016128c9565b5060008051602061308083398151915282528160205260408220338352602052611c4160ff60408420541661301d565b478111611c5e5781808080611c5b94335af16113d1612fa1565b80f35b60405162461bcd60e51b815260206004820152601e60248201527f43726f73734572613a20496e73756666696369656e742062616c616e636500006044820152606490fd5b503461041b57602036600319011261041b57604060209163ffffffff611cc7612844565b168152600f83522054604051908152f35b503461041b57604036600319011261041b57611cf2612987565b336001600160a01b03821603611d0e5761080090600435612c3e565b60405163334bd91960e11b8152600490fd5b503461041b57604036600319011261041b57610800600435611d40612987565b9080845283602052611d586001604086200154612b7c565b612bc0565b503461041b57604036600319011261041b57611d77612844565b63ffffffff168152600a602052604081208054602435929083101561041b576105d16105bd6105b78585612a5d565b503461041b57604036600319011261041b576004356001600160401b03811161078a57611dd79036906004016128c9565b90611df4602060243593816040519382858094519384920161294e565b8101600b81520301902090815483101561041b57602063ffffffff611e198585612a24565b9190546040519260031b1c168152f35b503461041b57602036600319011261041b57600160406020926004358152808452200154604051908152f35b503461041b5760406020918263ffffffff611e7261047436612910565b8101600c8152030190209116825283522054604051908152f35b503461041b57602036600319011261041b5760609063ffffffff611eae612844565b168152600f602052604081205490601060205260408082205491601160205220549060405192835260208301526040820152f35b503461041b5760a036600319011261041b576004356001600160401b03811161078a57611f139036906004016128c9565b906024357f0ce23c3e399818cfee81a7ab0880f714e53d7672b08df0fa62f2843416e1ea098252816020526040822033835260205260ff604083205416156123c257611f6f60ff60405160208187516112238183858c0161294e565b611f77612e13565b808252600660205260ff60408320541661236d57801561231d578152600660205260408120805460ff19166001179055611fb5606435604435612f61565b6040516020818551611fca8183858a0161294e565b8101600b81520301902092604051808560208297549384815201908652602086209286905b8060078301106122ad57612045945491818110612296575b81811061227d575b818110612263575b818110612249575b81811061222f575b818110612215575b8181106121fb575b106121ed575b50038561288d565b825b84518110156121e95763ffffffff60208260051b87010151168085526007602052600260408620015460ff8160801c1690816121d5575b816121be575b506120b0575b50600019811461209c57600101612047565b634e487b7160e01b84526011600452602484fd5b60405160208185516120c58183858a0161294e565b8101600c815203019020818652602052604085206120e4858254612f74565b905560405160208185516120fb8183858a0161294e565b8101600d815203019020818652602052604085206084359061211e828254612f74565b905560405160208186516121358183858b0161294e565b8101600e815203019020828752602052604086208054906001820180921161145d5755818652600f6020526040862061216f868254612f74565b9055818652601060205261218860408720918254612f74565b9055845260118060205260408520805491600183018093116121ac5750553861208a565b634e487b7160e01b8752600452602486fd5b6001600160401b03915060401c1642111538612084565b6001600160401b038116421015915061207e565b8380f35b60e01c81526020013861203d565b92602060019163ffffffff8560c01c168152019301612037565b92602060019163ffffffff8560a01c16815201930161202f565b92602060019163ffffffff8560801c168152019301612027565b92602060019163ffffffff8560601c16815201930161201f565b92602060019163ffffffff8560401c168152019301612017565b92602060019163ffffffff85831c16815201930161200f565b92602060019163ffffffff85168152019301612007565b916008919350610100600191865463ffffffff8082168352808260201c166020840152808260401c16604084015260608183821c169084015260808183821c1690840152808260a01c1660a084015260c09082821c169083015260e01c60e0820152019401920187929391611fef565b60405162461bcd60e51b815260206004820152602260248201527f43726f73734572613a20496e76616c6964207472616e73616374696f6e2068616044820152610e6d60f31b6064820152608490fd5b60405162461bcd60e51b815260206004820152602760248201527f43726f73734572613a205472616e73616374696f6e20616c72656164792070726044820152661bd8d95cdcd95960ca1b6064820152608490fd5b60405162461bcd60e51b815260206004820152601660248201527521b937b9b9a2b9309d102737ba103b32b934b334b2b960511b6044820152606490fd5b50606036600319011261041b576001600160401b03600435818111610acb5761242d9036906004016128c9565b602480359163ffffffff938484168094036126e0576040519180519161246260ff60209586818187019761122381838b61294e565b612493604051835161247581838861294e565b81019060038252868160018060a01b03930301902054163314612e7d565b858852600784526124a960408920541515612f15565b6124b1612e13565b85885260078452600260408920015460ff8160801c161561269c5781811642106126585760401c16421161261457604051838183516124f181838861294e565b81016009815203019020858852835260ff6040882054166125b5579061256492916040518381835161252481838861294e565b81016009815203019020868952835260408820600160ff19825416179055600a83526125538160408a20612cb3565b60405193849283925192839161294e565b8101600b815203019020805491600160401b8310156125a357509061258e91600182018155612a24565b909283549160031b92831b921b191617905580f35b634e487b7160e01b8652604160045285fd5b60405162461bcd60e51b8152600481018490526032818601527f43726f73734572613a2041707020616c72656164792072656769737465726564604482015271103337b9103a3434b99031b0b6b830b4b3b760711b6064820152608490fd5b60405162461bcd60e51b8152600481018490526018818601527f43726f73734572613a2043616d706169676e20656e64656400000000000000006044820152606490fd5b60405162461bcd60e51b815260048101869052601e818801527f43726f73734572613a2043616d706169676e206e6f74207374617274656400006044820152606490fd5b60405162461bcd60e51b815260048101869052601d818801527f43726f73734572613a2043616d706169676e206e6f74206163746976650000006044820152606490fd5b8580fd5b503461041b578060031936011261041b576020601354604051908152f35b503461041b5760208060031936011261078a576001600160a01b03612725612971565b1682526005815260408220918254906001600160401b038211610776579260405192612756818460051b018561288d565b82845280840191855280852094915b83831061277a57604051806105d187826129c2565b600182819261278889612aaf565b815201960192019194612765565b503461041b57602036600319011261041b57604060209163ffffffff6127ba612844565b168152601183522054604051908152f35b503461041b578060031936011261041b57602063ffffffff60125416604051908152f35b90503461078a57602036600319011261078a5760043563ffffffff60e01b8116809103610acb5760209250637965db0b60e01b8114908115612833575b5015158152f35b6301ffc9a760e01b1490503861282c565b6004359063ffffffff8216820361285757565b600080fd5b60a081019081106001600160401b0382111761287757604052565b634e487b7160e01b600052604160045260246000fd5b90601f801991011681019081106001600160401b0382111761287757604052565b6001600160401b03811161287757601f01601f191660200190565b81601f82011215612857578035906128e0826128ae565b926128ee604051948561288d565b8284526020838301011161285757816000926020809301838601378301015290565b604060031982011261285757600435906001600160401b0382116128575761293a916004016128c9565b9060243563ffffffff811681036128575790565b60005b8381106129615750506000910152565b8181015183820152602001612951565b600435906001600160a01b038216820361285757565b602435906001600160a01b038216820361285757565b906020916129b68151809281855285808601910161294e565b601f01601f1916010190565b602080820190808352835180925260408301928160408460051b8301019501936000915b8483106129f65750505050505090565b9091929394958480612a14600193603f198682030187528a5161299d565b98019301930191949392906129e6565b9190918054831015612a4757600052601c60206000208360031c019260021b1690565b634e487b7160e01b600052603260045260246000fd5b8054821015612a475760005260206000200190600090565b90600182811c92168015612aa5575b6020831014612a8f57565b634e487b7160e01b600052602260045260246000fd5b91607f1691612a84565b9060405191826000825492612ac384612a75565b908184526001948581169081600014612b325750600114612aef575b5050612aed9250038361288d565b565b9093915060005260209081600020936000915b818310612b1a575050612aed93508201013880612adf565b85548884018501529485019487945091830191612b02565b915050612aed94506020925060ff191682840152151560051b8201013880612adf565b90612b6657612b6390612aaf565b90565b634e487b7160e01b600052600060045260246000fd5b80600052600060205260406000203360005260205260ff6040600020541615612ba25750565b6044906040519063e2517d3f60e01b82523360048301526024820152fd5b9060009180835282602052604083209160018060a01b03169182845260205260ff60408420541615600014612c3957808352826020526040832082845260205260408320600160ff198254161790557f2f8788117e7eff1d82e926ec794901d17c78024a50270940304540a733656f0d339380a4600190565b505090565b9060009180835282602052604083209160018060a01b03169182845260205260ff604084205416600014612c395780835282602052604083208284526020526040832060ff1981541690557ff6391f5c32d9c69d2a47ea670b442974b53935d1edc7fd64eb21e047a839171b339380a4600190565b8054600160401b81101561287757612cd2906001928382018155612a5d565b929092612b66578051906001600160401b03821161287757612cf48454612a75565b601f8111612d9d575b5060209081601f8411600114612d3a5750928293918392600094612d2f575b50501b916000199060031b1c1916179055565b015192503880612d1c565b919083601f1981168760005284600020946000905b88838310612d835750505010612d6a575b505050811b019055565b015160001960f88460031b161c19169055388080612d60565b858701518855909601959485019487935090810190612d4f565b600085815260208120601f850160051c81019260208610612dde575b601f0160051c019185905b838110612dd357505050612cfd565b828155018590612dc4565b9092508290612db9565b63ffffffff809116908114612dfd5760010190565b634e487b7160e01b600052601160045260246000fd5b60ff60025416612e1f57565b60405163d93c066560e01b8152600490fd5b15612e3857565b60405162461bcd60e51b815260206004820152601c60248201527f43726f73734572613a20417070206e6f742072656769737465726564000000006044820152606490fd5b15612e8457565b60405162461bcd60e51b815260206004820152601760248201527f43726f73734572613a204e6f7420617070206f776e65720000000000000000006044820152606490fd5b15612ed057565b60405162461bcd60e51b815260206004820152601e60248201527f43726f73734572613a204e6f742063616d706169676e206d616e6167657200006044820152606490fd5b15612f1c57565b60405162461bcd60e51b815260206004820152601c60248201527f43726f73734572613a2043616d706169676e206e6f7420666f756e64000000006044820152606490fd5b81810292918115918404141715612dfd57565b91908201809211612dfd57565b8115612f8b570490565b634e487b7160e01b600052601260045260246000fd5b3d15612fcc573d90612fb2826128ae565b91612fc0604051938461288d565b82523d6000602084013e565b606090565b15612fd857565b60405162461bcd60e51b815260206004820152601d60248201527f43726f73734572613a20584649207472616e73666572206661696c65640000006044820152606490fd5b1561302457565b60405162461bcd60e51b815260206004820152601360248201527221b937b9b9a2b9309d102737ba1030b236b4b760691b6044820152606490fdfe5022544358ee0bece556b72ae8983c7f24341bd5b9483ce8a19bff5efbb2de92a49807205ce4d355092ef5a8a18f56e8913cf4a201fbe287825b095693c21775a2646970667358221220e9bd1e4fdce33061e4cfff13a84a3c5283c98a0e3430181463ab6e1b48a62c0a64736f6c634300081400332f8788117e7eff1d82e926ec794901d17c78024a50270940304540a733656f0d",
  "linkReferences": {},
  "deployedLinkReferences": {}
}